:020000040800F2
:20000000E01C00200D2E0008312E0008352E0008392E00083D2E0008412E00080000000056
:20002000000000000000000000000000452E0008492E0008000000004D2E0008512E0008BC
:20004000552E0008592E00085D2E0008612E0008652E0008692E00086D2E0008712E0008D8
:20006000752E0008792E00087D2E0008812E0008852E0008892E00088D2E0008912E0008B8
:20008000952E0008992E00089D2E0008152D0008192D0008A92E0008AD2E0008B12E0008B2
:2000A000B52E0008B92E0008BD2E00081D2D0008C52E0008C92E0008CD2E0008D12E00081D
:2000C000D52E0008D92E0008DD2E0008E12E0008E52E0008E92E0008ED2E0008F12E000858
:2000E000F52E0008F92E0008FD2E0008FFFFFFFFFFFFFFFFFFFFFFFFFFFFFFFFFFFFFFFF87
:20010000153CA54700000021772A000810B5DFF8204700B92EE0DFF81C070068006880477D
:2001200020680A3010BD80B5DFF80407DFF8082700685278C1788A420DD38278002A04BF15
:200140008288002A07D18172DFF8E806006840688047002002BD022002BD10B5DFF8D04692
:2001600000B907E0DFF8CC0600688068804720680C3010BD206801210182002010BD10B5AF
:20018000DFF8AC46DFF8B42620681268C17840799269904721688A7A9AB1002804BF0879DB
:2001A00000280ED1887860B9DFF888060068C068804720684179C1722068C1780173002099
:2001C00010BD022010BD10B5DFF86416096818B902200882002010BD0020DFF86446208031
:2001E0007F220878104215D1487A810603D5002141F0020121704006217854BF01F0FE00BE
:2002000041F001002070DFF82C06006800698047204610BD00F07F02012AF9D000F07F0074
:200220000228D7D14879DFF81C2600F00F01000652F8210007D500F030001028E3D1002099
:2002400040F00100DEE700F44050B0F5805FDAD1002040F00100D5E770B5DFF8D4050068AB
:20026000017811F07F0104D1417A01F0DF01417251E0022901BF41880029017900294CD1A2
:200280004179DFF8C04521F080050A0654F825204CBF02F0300202F44052DFF89C351B789F
:2002A0009D423AD2002A1CBF807A002835D0080654F825000BD500F03000102826D128460B
:2002C00000F045FB3021284600F0F6FA1EE000F44050B0F5805F19D14BF68F7665B9DFF824
:2002E000680590F82C10002000F05EFB2068304080F44050206009E0284600F018FB54F842
:200300002500304080F4405044F82500DFF82405006840698047002070BD022070BD38B582
:20032000DFF80C05DFF81C150268537923F080001C0651F820404CBF04F0300404F440547A
:20034000DFF8F4542D78A84206D2558825B9002C1CBF927A002A01D1022032BD1A0651F8D3
:20036000202005D548F6BF731A4082F0100204E04BF68F731A4082F4805241F82020DFF8FC
:20038000B404006880698047002032BDDFF8A0241268538A20B98888C01A10820020704760
:2003A0000868181870472DE9F041DFF88444206800F110052988002904BF007A042802D15C
:2003C0000726102025E0AF888F4205D30426B94288BF39460F4600E00226A9683846884735
:2003E0008046002000F0D1FA01463A46404600F02AFB3946002000F0D0FA2888DFF84C14BA
:20040000C01B28804FF440526888381868800A803020DFF83C14088020680672BDE8F081BD
:2004200038B5DFF80C442068457801787F22114241D1092D02D1FFF776FE50E0052D1BD123
:20044000C178802959DA8178002901BF81880029807A002851D1DFF8FC13DFF8FC230968E2
:2004600089B2002342F811300620DFF8E41330220A802168087231BD032D11D1C17801296D
:2004800004BF818800292CD1417A8A0629D541F020014172DFF89C030068C0698047DAE78D
:2004A000012D04BFC17801291BD18188C9B9407A80060DD415E001F07F00012804D10B2DB5
:2004C0000FD1FFF75CFE0AE002280AD1012D02D1FFF7C2FE03E0032D03D1FFF720FF002822
:2004E000B9D0DFF858130968496928468847032808BF0920BDD00028ADD00820B9E710B5F7
:20050000CB4C20684178062916D101787F22114231D18078012803D1C8480068C16975E012
:20052000022803D1C5480068016A6FE0032822D1C2480068416A69E0002944D141880029DA
:2005400004BFC188022916D10179A1B901787F22114204BF8288002A33D001F07F02012AA5
:2005600015D1B64A4079126892690021904710B92068807A28BBB149206809684078096924
:20058000884703284BD120680921017210BD01F07F010229EFD14079AA4B00F00F0100F059
:2005A0007002000653F821004CBF00F0300000F44050A14B1B789942DDD2002ADBD10028A1
:2005C000D9D0A64922E0082905D100787F210842D1D1A3491AE00A2902BF017801F07F01B2
:2005E0000129C8D1817A0029C5D04188002901BF01790029C1880129BDD1904A407912681C
:200600009269002190470028B5D196490800B2D020680022428281610020884700202168E8
:200620000A8A4FF6FF739A4208BF092004D0022818BF002A02D10820087210BD08780006DC
:200640000BD5C888904238BF08827C48006890F82C008882BDE81040A5E6032008724FF4CD
:2006600040517A48018010BD38B57A487E4900686F4C80B231F8100021680A7A400000F197
:20068000804000F5C040092A14D010F8012B0A70216810F8012B4A70851C35F8040B00F09C
:2006A000CDF921684880288800F0C8F921688880A888C8800121206801722068C08810B903
:2006C000FFF7AEFE01E0FFF71AFFBDE831407DE010B5574C2068017A022918BF042904D1A6
:2006E000FFF761FE2068007A14E0062911D14178052902BF01787F22114206D1C07800F08A
:200700007FF84C480068006A80474C48006880688047082021680872BDE8104056E0F8B587
:20072000434C2068017A032918BF052943D100F11005A9682E88080018BF002E14D0A888F4
:20074000864288BF06463046884707462888801B2880688830186880002000F017F9014632
:200760003246384600F085F9288850B137484FF4405101800020002100F00FF9344830218A
:2007800001802888AA882168904228BF032001D210B1052008720BE00620087200222D483C
:2007A0002D49006880B241F810203021284801802068007A06E0072903D120480068C0689A
:2007C0008047082021680872BDE8F14080B51E4890F82C10002000F0E7F815480068017AC3
:2007E000082906D119494FF480520A80102218490A80007A092801D1012002BD002002BD97
:20080000F0B40D490F4B0978002259B11C4648F68F7526682E40D7B23E43521C44F8046B14
:200820008A42F6D340F08000D864F0BC70470000841400208C140020480300208814002035
:20084000C4140020005C004034020020C8140020CA140020505C004004600040C701000854
:200860000D0100085B01000808600040704710B450F8041B81B102681218001D50F8043B0A
:20088000DC0744BFA9F10104E31852F8044B43F8044B091FF9D1EBE710BC70474FF6F871C0
:2008A0000840DFF8801108607047DFF87C2152F8203048F68F1C5AE0DFF86C2152F820303A
:2008C00048F6BF7C0CEA03035FEAC16C48BF83F01003890648BF83F0200310E0DFF8482144
:2008E00052F820304BF68F7C0CEA03035FEAC14C48BF83F48053890448BF83F4005342F8D7
:2009000020307047DFF8201151F820204BF68F731A4082F4405207E0DFF80C1151F8202036
:2009200048F68F63FFE71A4041F820207047DFF8F81051F82020520408D551F8202048F6B5
:200940008F731A4042F4804241F820207047DFF8D81051F82020520608D551F8202048F6CF
:200960008F731A4042F0400241F8202070470CEA0303194342F82010704738E0294A1268F9
:2009800092B202EBC000294A37E03BE02549096889B201EBC00025493AE0224A126892B249
:2009A00002EBC000224A2AE01E4A126892B202EBC000204A02EB40003F2909DB4A091F23C9
:2009C000194208BF521E1204910941F4004105E04A08C90748BF521C12049109016070471B
:2009E0001049096889B201EBC000124914E00D4A126892B202EBC0000F4A4908490042F808
:200A0000101070470749096889B201EBC0000A4951F8100080B2704751F810008005800D57
:200A200070470000505C0040005C004008600040046000400C600040006000400106090CC3
:200A400041EA10207047490001F18041521C01F5C04152100AD1704710F8013B10F801CB17
:200A600043EA0C2321F8023B891C521E002AF3D17047490001F18041521C01F5C041521047
:200A800005D1704751F8043B20F8023B521E002AF8D17047F0B5046842688368C068DFF82D
:200AA0000C56DFF80C760C604A608B60C8600A26C0F3072EC0F3074C1EF807E01CF807C05C
:200AC0004FEA0E4E4EEA0C6C5FFA80FE1EF807E04CEA0E2C4FEA106E1EF807E04EEA0C0C89
:200AE00055F804EB8EEA0C0C8CEA0404624041F8104F53404A6058408B60C860761ED7D14E
:200B0000F0BDC7E72DE9F04F036852F8A04F84EA030E4368546884EA030883689468C06813
:200B200084EA0309D368DFF88C4583EA000CA2F1200009221B23CCF307464FEA1E65365D68
:200B40002D5D360446EA0565C9F30726CEF30747365D3F5D45EA06255FFA88F63F04365D09
:200B60003543066975404FEA1866C8F3074A365D1AF804A047EA0666CCF307274FEA0A4AB6
:200B80003F5D46EA07265FFA89F7C8F307283F5D18F804803E4347697E404FEA1967C9F305
:200BA00007493F5D19F804904AEA0767CEF3072A5FFA8EFE1AF804A01EF804E047EA0A2719
:200BC0005FFA8CFA4FEA1C6C4FEA09491CF804C01AF804A049EA0C6C4CEA082C4EEA0C0CF7
:200BE000D0F81CE04FEAD5188EEA0C0C08F0013805F07F3E03FB08F888EA4E0E4AEA07078A
:200C00004FEADE19D0F818A009F001390EF07F3803FB09F98AEA070789EA48084FEAD81ACC
:200C20000AF0013A08F07F3903FB0AFA8AEA490989EA050585EA0E0B88EA0E0E89EA0E0EE5
:200C400085EA080A8EEA3B6E8EEA3A4E4FEAD6188EEA352E08F0013806F07F3503FB08F817
:200C600088EA45054FEAD51909F0013905F07F3803FB09F989EA48084FEAD81A0AF0013A8F
:200C800008F07F3903FB0AFA8AEA490989EA060686EA050B88EA050589EA050586EA080A62
:200CA00085EA3B6585EA3A4585EA3628FE0906F0013607F07F355E4386EA45054FEAD51909
:200CC00009F0013905F07F3603FB09F989EA46064FEAD61A0AF0013A06F07F3903FB0AFA6A
:200CE0008AEA490989EA070787EA050B754089EA050587EA060A85EA3B6585EA3A454FEA43
:200D0000DC1685EA372906F001360CF07F355E4386EA4505EF0907F0013705F07F365F4367
:200D200087EA46064FEAD61A0AF0013A06F07F3703FB0AFA8AEA470787EA0C0C8CEA050B19
:200D400075407D408CEA060A85EA3B6585EA3A45103885EA3C2C521E7FF4EDAECEF30743F6
:200D60004FEA18621B5D125D1B0443EA0262CCF30723C8F307451B5D2D5D42EA03225FFA8D
:200D800089F32D041B5D1A4343695A404FEA1963C9F307461B5D365D45EA0363CEF3072540
:200DA00036042D5D43EA05235FFA8CF5CCF307472D5D3F5D2B4385696B404FEA1C653F0409
:200DC0002D5D46EA0565C8F30726365D45EA06255FFA8EF6365D3543C669006975404FEAAC
:200DE0001E66365D47EA0666C9F307273F5D46EA07265FFA88F73C5D3443604008604A60C2
:200E00008B60CD60BDE8F08F2DE9F0470368146855689668A64F634044686C408568C068A2
:200E20007540D66886EA000902F1100009221B26C4F3074E4FEA136C1EF807E01CF807C03B
:200E40004FEA0E4E4EEA0C6CC5F3072EC5F307481EF807E018F807804CEA0E2C5FFA89FE75
:200E60004FEA08481EF807E04EEA0C0C4FEA146EC9F3074A1EF807E01AF807A048EA0E6E70
:200E8000C9F307284FEA0A4A18F807804EEA082E5FFA83F84FEA196918F8078019F8079007
:200EA00048EA0E0E4FEA156818F807804AEA0868C3F3072AC3F307431AF807A0DB5D48EAE9
:200EC0000A285FFA84FAC4F307241B04E45D1AF807A043EA096343EA0423ECB24AEA08083F
:200EE000E45D44EA03094FEADC1303F0013373430CF07F34CCF3066A83EA44058CEA4A6AB4
:200F000083EA0A0A8CEA440463401B0243EA1A636B4083EA3C4350F8044B83EA3C2363408B
:200F20004FEADE1404F0013474430EF07F35CEF3066A84EA450C8EEA4A6A84EA0A0A8EEADE
:200F400045056C40240244EA1A6484EA0C0484EA3E4450F8045B84EA3E246C404FEAD81512
:200F600005F00135754308F07F3CC8F3066A85EA4C0E88EA4A6A85EA0A0A88EA4C0C85EA05
:200F80000C052D0245EA1A6585EA0E0585EA384550F804CB85EA38258CEA05054FEAD91C64
:200FA0000CF0013C06FB0CFC09F07F3EC9F3066A8CEA4E0889EA4A6A8CEA0A0A89EA4E0EC1
:200FC0008CEA0E0C4FEA0C2C4CEA1A6C8CEA080C8CEA394C50F804EB8CEA392C8EEA0C0930
:200FE000521E7FF425AFC5F30746220EF65DD25D360446EA0262C9F30726C9F3074CF65D6A
:201000001CF807C042EA0622DEB24FEA0C4CF65D3243466872402E0EC3F3074EF65D1EF8A8
:2010200007E04CEA0666C3F3072C4FEA0E4E1CF807C046EA0C265FFA84FC1B0E1CF807C08F
:20104000DB5D4CEA0606D0F808C08CEA06064FEA196C1CF807C04EEA0C6CC4F3072EC4F318
:201060000744E45D1EF807E0240444EA03634CEA0E2CC5F307245FFA85FEE45D1EF807E0BE
:2010800043EA04234EEA0C0C5FFA89F4D0F80CE0E45D00682343584008604A608EEA0C0CD9
:2010A0008E60C1F80CC0BDE8F08700006402002000000020000100202DE9F04F93B080467C
:2010C00002AE002014461D460291B0610DF1300A0AE014F8011B0298C0470290002800F04A
:2010E000B481B069401CB061207808B9B069AEE12528EED10020F0603061706101E040F045
:20110000010014F8011F2029F9D023290DD02B2904D02D2906D030290AD00CE040F00200C2
:2011200080B2EEE740F00400FAE740F00800F7E740F01000F4E72A290DD129680A1D2A60EF
:2011400009683162002904D5494240F00400316280B2641C13E0002131620BE0316A6FF0F9
:201160000043994205D001EB810302EB430130393162641C2278A2F130010A29EED3217874
:201180002E2903D04FF0FF31F1611EE014F8011F2A2906D129680A1D2A60641C0968F1618B
:2011A00013E00021F1610BE0F1696FF00043994205D001EB810302EB43013039F161641C56
:2011C0002278A2F130010A29EED3B0840FF28030217800F0C1F908B114F8010B8DF82E0011
:2011E0009DF82E00682804BF2078682803D162208DF82E00641C0CA8B0602278252A13D098
:20120000582A34D0632A00F0A580642A18BF692A68D06F2A2BD0702A20D0732A09D0752A43
:2012200018BF782A23D09FE0F068411CF160252197E02868011D29600068F2697060002A0C
:2012400002D500F0A5F907E0002100F0C1F900281ABF7168401AF069306191E02868011D3A
:2012600029607821006801900CA870606EE09DF82E306C2B08BF286811D0712B08BF2868CC
:2012800002D028686A2B0AD1C01D20F007002860014601F108002860D1E9000102E0011D7C
:2012A000296000680190682B02D101A8008803E0622B02D101A80078019096F82400000767
:2012C0003FD5019800283CD042F02000782838D1F068302100F80A10401C411CF16000F875
:2012E0000A202EE09DF82E00622802D0682806D00BE02868011D296090F9000009E028680D
:20130000011D2960B0F9000003E02868011D296000680190002804D5F068411CF1602D2115
:201320000DE0B08C810704D5F068411CF1602B2105E0C00705D5F068411CF160202100F80C
:201340000A10F0680CA940187060114601A800F081F815E0F068411CF16029680A1D2A6098
:20136000096800F80A100BE0F068411CF160252100F80A1022B1F068411CF16000F80A20A6
:20138000306AF168401A7169401A3169A0EB010996F82400641C40070FD420208DF800007C
:2013A000002708E0012300AA01A9404600F0B9F800284AD17F1C4F45F4DBF7680DF1300BA6
:2013C0000AE01BF8011B0298C047029000283CD0B069401CB0617F1E002FF2D130208DF8A3
:2013E00000004FF0000B776908E0012300AA01A9404600F096F840BB0BF1010BBB45F4DB8D
:201400003769D6F804B009E01BF8011B0298C0470290D0B1B069401CB0617F1E002FF3D1C8
:2014200096F8240040077FF55FAE20208DF8000000E07F1C4F45BFF657AE012300AA01A92C
:20144000404600F06EF80028F3D04FF0FF3013B0BDE8F08FF0B4C2686F2908BF082405D042
:2014600041F02003782B14BF0A241024066818233746642918BF692902D1002E48BF7F425B
:201480005FB9056A4DB9082C27D190F82810090723D530211723D1751FE0B7FBF4F604FB60
:2014A000167730375D1EFFB22B463A2FA4BFA1F1510C6744AF54370003D085689E18B5428E
:2014C000EBD3082C09D190F82810090705D5995C302902D05B1E30219954C3F11801416150
:2014E0009A188260026A914208DA511A81614FF6EF72018D11400185F0BC7047002A0ED56F
:2015000090F8282002F01402102A08D1426A0369D21A8369D21A531A012BA8BF8361F0BC74
:201520007047F8B504460D4616461F46002004E0E869401CE8617F1E002047B116F8011B10
:201540006868A04768600028F2D14FF0FF30F2BD686C747A4C0000000278C9B28A421AB16A
:201560001CBF10F8012FF9E718BF0020704750F8041B61B150F8042BD30744BFA9F101035F
:201580009A18002342F8043B091FFAD1EFE7704700F10103810704D010F8011B89B1810746
:2015A000FAD10268B2F10131914311F0803F04BF50F8042FF6E710F8011B11B110F8011B68
:2015C000FBE7C01A70470268531C036011707047C9B2830706D0521E22D310F8013B9942C5
:2015E000F7D11FE0083A13D302F1040241EA012141EA014150F8043B121F21BF4B40A3F192
:20160000013C2CEA030C1CF0803FF3D0C9B2001F083210F8013B521E28BF91EA030FF8D80E
:2016200018BF0120401E704780B500F0C1F9CA49087001BD2DE9F84304460D46A04615F09C
:20164000030F0BD04FF6FC702840001D854205D2411BC248FF22281800F06EFA0026C04F75
:201660000DB97E8213E0DFF8F49259F8041B204600F0BDF9241D361DAE42F6D30020788271
:20168000788A18F8011B081878826D1EF8D1788A398A88420CBF00200320F872BDE8F1838E
:2016A000AF48022181720021C172AE480170704730B5AD484178491E8BB0092900F243818E
:2016C000DFE811F037004101A700F80013012B011A000A001F0028001422A44905A800F0BF
:2016E0006FFAA34800788DF818001422A02105A8FFF7A9F9142104E19948072101730BB0F3
:2017000030BD81784129A8BF4021924800F013FB0BB030BD01A8002100220B460C461EC0C4
:201720004FF004500190102101A800F004FB0BB030BD8B4CA17A022918BF05295FD18279C7
:20174000002A04BFC17900290BD1012060620620A072E07A207000206070608006202071D1
:20176000F4E084490B78A3B9C378857845EA03232362C37942EA0322A2614279007940EAE9
:2017800002202082A069E0610020E0810120087026E0206A784D98B9002100F029FB2878A6
:2017A000E97820730904287941EA0060A97840EA01206978084360610320A0722071C5E038
:2017C000E089A2690019412A11D340222946283000F0E6F9E0894030E081A0694038A06179
:2017E0004FF440510220FFF779F80BB030BD2946283000F0D5F90320A0722071A6E00A20E9
:20180000A0720F2020700020607060800A2020719CE0534CA07A032814D0042802D00628FC
:2018200041D03AE0607BC1073DD50521A172217100F0FE000021617061806073E17A21707D
:2018400000210DE0607BC1070ED500F0FE0005216073A17221710021E07A617061802070AB
:20186000012000F0C5FA1EE00421A1722171217B412916BF512950210021009140F0020026
:201880009DF80010617060739DF80110A1709DF80210E170E17A217005E0207100206070FE
:2018A0006080E07A20700622A0212046FFF7CBF8062126E02A4CA07A0A2808D10220A0725A
:2018C0000020206002202071002060710BE00A20A0720E2020700020607060800A20207154
:2018E000002060710E20E07230E01D4CA07A60720222E07A2072A02104F10800FFF7A3F8B3
:2019000002210120FFF749F830210120FEF7D4FF1848032101700BB030BD114CA07A801E60
:20192000012884BFC01E012801D9001F0ED10220A072002020600220207100206071206262
:20194000A061E07202E0022000F01BFA00F00EFA0BB030BD303C0008D6140020740B00206E
:201960004C0300209D140020A0140020E0F7FF1F203C00089C14002028140020DFF898114E
:201980000A6802F03802FFE70A600A68104308607047DFF884110A6822F01002F4E7DFF8C1
:2019A0007C01DFF87C110160DFF878110160704770B5054640F6FF76304600F078F8042850
:2019C00014D1DFF86441206840F0020020606560206840F040002060304600F068F8012840
:2019E00004D0216841F6FD721140216070BD70B50E46054616F1010F01D1042070BD0F20B8
:201A000000F055F8042816D1474C206840F0010020602E800F2000F04AF8042804D1300C5E
:201A200068800F2000F043F8012804D0216841F6FE721140216070BD70B5044640F6FF751F
:201A4000284600F034F8042830D1384E3448306034483060B06840F02000B060B06840F071
:201A60004000B060284600F022F8042817D1B06841F6DF710840B060002CB06840F010000F
:201A8000B0602B4814BF0021A5210180284600F00EF801280AD0B16841F6EF7204E0012863
:201AA00004D0B16841F6DF721140B16070BD18B4204A13680421DB0748BF012108D41368EA
:201AC0005B0748BF022103D41368DB0648BF0321FF2304E01468E40648BF0321401E0129FD
:201AE00015D1A8B100210091009302E00099491E009100990029F9D104211468E40748BFD0
:201B00000121EBD414686407E4D50221E6E700B90521084612BC70470020024004200240DA
:201B200023016745AB89EFCD102002400820024000F8FF1F0C20024062F30F2262F31F4249
:201B4000401810F0030308D0C91A1FD3DB0748BF00F8012D28BF20F8022D130030B41446EC
:201B60001546103928BF20E93C00FAD8490728BF20E90C0048BF40F8042D890028BF20F87F
:201B8000022D48BF00F8012D30BC7047C91818BF00F8012DCB0728BF00F8012D70470000D2
:201BA00062B38B0708D0521E11F8013B00F8013B00F024808B07F6D1830740F0208000BFB7
:201BC000103A07D330B4B1E83810103AA0E83810F9D230BC530724BFB1E80810A0E80810BD
:201BE00044BF51F8043B40F8043BD20724BF31F8022B20F8022B44BF0B7803707047083A9A
:201C000007D3B1E80810083A40F8043B40F804CBF7D25307E4E7000000B55048017840780D
:201C200083B08DF8001000A948704D48027A8DF80220427ACA700622817AC07A8DF80410D7
:201C40008DF80500A02100A8FEF7FDFE06210120FEF7A3FE30210120FEF72EFE4148032183
:201C6000017003B000BD10B53E4C607882B000F50070ADF800000222A02100A8FEF7E3FEBD
:201C80000320207002210120FEF787FE30210120FEF712FE13BD33480178891E03D0491EB7
:201CA000012905D970470079F32802D1FFF700BD60E0704710B50220FEF792FE0446224636
:201CC000E0212948FEF7D5FE2648017811B1012904D007E02046BDE8104005E00079F32868
:201CE00001D119E01CE010BD10B51E4C20B11E490246201DFFF754FF2079F12804D0F3287A
:201D000005D0F52804D006E0BDE8104084E703E0BDE81040A7E703E0BDE81040FFF7C8BCFF
:201D200010210120FEF7C8FDBDE810404FF480510220FEF7D3BD10B50C462246A021FEF7B2
:201D400082FE21460120FEF728FE30210120FEF7B3FD04480321017010BD0000FE3F000856
:201D6000A82C00089C14002028140020004801E09C1400200021017002204FF44051FEF7E5
:201D8000ADBD80B518B1022807D00AD301BDBDE8044010210120FEF78FBD10210120FEF77C
:201DA0008BFDBDE80440C1E700B585B000F096F8454802210186018801F09F010180018847
:201DC00001806020ADF800000220ADF808000120ADF8020000A800F08EF8012000F0C6F8D9
:201DE000012000F0C0F8012000F0AAF805B000BD70B5364E0446307882B00D46844218D027
:201E00000021042000F0A0F8002000F095F8062C40D8DFE804F004121427181A2F002C482D
:201E2000016821F0F0010091009941F04001016030E07068A842EAD173BD502000E04020CD
:201E400000F08CF826E0502000E0402000F086F82048858248F6A04101820420012100F0A3
:201E600073F817E01B4864218182818A49080184642105E017488582690801844FF6FF71B9
:201E800001820188C9B20091009941F4D041009100990180012110480160307800281CBF1A
:201EA0000428052809D144B10948016821F0F0010091009941F0B001016034707560012037
:201EC000BDE8764000F038B8002C0140B014002004080140182C01408082254280B50121E4
:201EE0004FF4006000F0EDF8BDE8044000214FF4006000F0E6B8DFF88C10DFF88C300A8897
:201F00004FF0000CC3F800C0D2B2B0F800C042EA0C220A8042881A6082889A6002895A609E
:201F20004289DA608389DFF86420FFE71360C3895360C08808847047DFF8541008607047F8
:201F4000DFF8501008607047DFF84C20012911880CBF084321EA00001080704709490A88D9
:201F600040F67F7308E00D49086070470C49086070470A884FF2FF331A4042EA0020088035
:201F800070470000182C014010842542A880254200802542BC8825420C2C01401C8025426D
:201FA0002C8325425848594A0021C16001611421416100218161C161016841F0010101602B
:201FC000416811404160524A016811400160016821F480210160416821F4FE0141600021B0
:201FE0008160704748490A6822F480320A60B0F5803F0A6822F480220A6003D0B0F5802FF5
:2020000004D07047086840F4803002E0086840F4A020086070473F483B490A68520C02F0AF
:20202000010202704268521C4260027812B94268FF2AF2D10868800301D5012070470020D5
:202040007047354A136823F47C1318430843106070473249086070472F490A68920840EA14
:202060008200086070472C48006800F00C00704729490A6822F0F00203E027490A6822F46D
:20208000E06210430860704723490A6822F4605242EAC00008607047214908607047214AE7
:2020A0000029116814BF084321EA0000106070471D4A0029116814BF084321EA000010608C
:2020C00070471A4A0029116814BF084321EA00001060704716490870704741090A4A01299D
:2020E00008BF116803D002290CBF116A516A00F01F0021FA00F000F0010070470D48016821
:2021000041F0807101607047001002400000FFF8FFFFF6FEB8140020041002406000424224
:20212000D8004242181002401C1002400C100240071002402410024000B59248816843681B
:20214000026889B001A800910FF2742100F040F98D4901A8062210F8013B01F8023B521E52
:2021600010F8013B01F8023B10F8013B01F8023B10F8013B01F8023BEDD109B000BD8348F2
:202180000068807A00B9704780B50120FEF7DFFB0220FEF7CCFB7E480021017001BD000054
:2021A00038B5FFF7C9FF794C20680021817200F029F900217748784A784D41604FF4044171
:2021C0001180016076492068C979417208E02878012804D14FF4FA710420FFF709FE00BFBD
:2021E0002068807A0028F2D005216E48017031BD10B56D48002181720020FEF74FFB4FF408
:2022000000710020FEF751FB20210020FEF754FB20210020FEF7B2FB644C94F82C100020AC
:20222000FEF7C2FB60210020FEF7A7FB0020FEF773FB0020FEF766FB00210120FEF735FB54
:20224000A0210120FEF799FB20210120FEF734FB00210120FEF742FB00210220FEF725FBC1
:20226000E0210220FEF78AFB94F82C100220FEF79BFB4FF440510220FEF730FB00210220F3
:20228000FEF71AFB00210320FEF70FFB4FF480710320FEF772FB20210320FEF70DFB0021B6
:2022A0000320FEF71BFB94F82C100020FEF77CFB0020FEF727FB0020FEF7A2FA3448002117
:2022C000017010BD7047704780B5304909680A7802F07F02212A08BFFE280BD14888002832
:2022E00001BF88880028C888012803D10FF28100020001D1022002BD88610020488200F09F
:2023000037F8002002BD80B5204909680A7802F07F02212A08BFFF2815D14888002804BFD1
:20232000888800280FD1C88868B90120FEF70FFB0220FEF7FCFA0320FEF709FB144800214E
:202340000170002002BD022002BD00290CBF0028022070471649FEF719B81649FEF716B810
:202360000A49154A0968C97802EBC101FEF70EB828B90648006801210182002070470F4825
:2023800070470000E8F7FF1F02020020841400209C140020405C0040D4140020CC140020F9
:2023A0008C020020D814002068140020340200203803002040030020B4020020D0140020D9
:2023C000253038582530385825303858000000000CB41CB5044604A801900A46009401ABA6
:2023E00000A9074878441830FEF766FE009900220A7000285CBF0098001B16BC5DF80CFB2F
:20240000C7F1FFFF80B5012000F0F1F80C480D4A012101600021016041604FF4044111806D
:202420000160002002BD10B5054C012020600020606000F0DCF803202060002010BD000071
:20244000405C0040D414002010B582B000F01BF86C4C4FF40041204600F080F94FF4004010
:20246000ADF8000000A914208DF8030001208DF80200204600F012F900F0CEF8FFF794FC0D
:2024800000F07CF813BD80B5FFF78CFD4FF48030FFF7A8FDFFF7BFFD012828D11020FFF7CC
:2024A00078FA0220FFF76AFA0020FFF7E1FD4FF48060FFF7E9FD4FF48060FFF7DEFD002027
:2024C000FFF7EAFD4FF4E0114FF48030FFF7B9FD0120FFF7BEFD3920FFF7FFFD0028FAD03D
:2024E0000220FFF7B9FDFFF7BEFD0828FBD1FFF756FA01214FF40000FFF7DAFD012140F691
:202500000C20FFF7CCFD0620FFF7E4FD4FF48070ADF8000000A918208DF8030002208DF8EB
:202520000200384800F0BAF801BD10B5364C00224FF40041204600F015F9322000F034F9F9
:202540002046BDE810400122012100F00BB92F480068000701D400207047012070472C4948
:202560000A784FF0FF30502A07D128480068000701D4487870476FF00100704780B5002181
:202580004FF0006000F065F92248002101604FF4A06000F019F914208DF8000001208DF8BE
:2025A000010000208DF8020001208DF8030000A800F00FF913208DF8000000208DF80100CC
:2025C0008DF8020001208DF8030000A800F001F91B208DF8000000208DF801008DF802004C
:2025E00001208DF8030000A800F0F3F801BD054A00284FF40041104618BF00F0AFB800F082
:20260000AFB8000000080140000C0140080C0140303C0008445C004010B582B001210120DA
:20262000FFF73DFD0121094800F0A1F808480178462902D14078C00705D401224FF4004164
:20264000044800F08FF8034C06E000BF00023000443C0008000C014000220121204600F022
:2026600081F848F20100ADF8000000A914208DF8030001208DF80200204600F00FF808206F
:20268000ADF8000000A948208DF8030001208DF80200204600F002F813BD00002DE9F041ED
:2026A000CC78002204F00F03E40644BF8C7823430C88E5B22DB3D0F800C001250F2605FA6A
:2026C00002F7BE460EEA0408F04515D14FEA820E06FA0EF82CEA080C03FA0EFE4EEA0C0C8C
:2026E00091F803E0BEF1280F08BF476191F803E0BEF1480F08BF0761521C082ADFD3C0F86E
:2027000000C0FF2C28DDD0F804C0002201250F2602F1080705FA07F7BE460EEA0408F04584
:2027200015D14FEA820E06FA0EF82CEA080C03FA0EFE4EEA0C0C91F803E0BEF1280F08BF48
:20274000476191F803E0BEF1480F08BF0761521C082ADDD3C0F804C0BDE8F0810161704735
:20276000416170470AB1016170474161704770B40C4A1368C0F3034485B2860248BF23F00B
:20278000E06306D4C60243BF032606FA04F4A343AB4321B180024CBF43EA05432B431360A8
:2027A00070BC70470400014041F27C51484381B0002102E000BF0099491C00910099814288
:2027C000F8D301B070470000274908432749086070472DE9F0410578C278012182B3234ABA
:2027E000204C126825F0030302F4E0621F5990F801C0C2F5E062120AC2F1040E0CFA0EFCF5
:2028000090F802E04FF00F0828FA02F202EA0E0205F0030542EA0C02ED00FF261201AE409C
:20282000AA40B74332403A431A510078104B420900F01F0001FA00F043F82200BDE8F081CF
:2028400005F01F03064A6809994042F82010BDE8F081084A114008430749086070470000EA
:2028600080E100E000E400E00000FA050CED00E000E100E080FFFF1F08ED00E02DE9F84FEB
:2028800040F68F7448F60F784BF68F7B654F664DDFF89891DFF898A121E0300404D52868DA
:2028A00020402860FDF73BFF286839880BEA0000CA0448BF80F48050890448BF80F400504B
:2028C000286048F6BF71286808407988CA0648BF80F01000890648BF80F020002860686C50
:2028E000AAF80000000460D547F6FF706864BAF8000010F00F0089F8000035D148F6BF71CF
:20290000286800F440503880286800F03000788028680BEA000080F400502860286808409A
:2029200080F020002860BAF80000C00628680FD408EA00002860FDF7CBFE4FF40841286841
:202940000842B1D0286820402860FDF78DFEABE786B2300605D5286808EA00002860FDF7DD
:20296000B7FE300599D5EDE755F820108EB231040AD555F82010214045F820102D4901EBAD
:20298000800050F8040C80473006A8D599F8000055F8201008EA010145F82010264901EB1B
:2029A000800050F8040C804799E7BDE8F18F2DE9F84FDFF88090DFF870B01C4F1C4CDFF8EE
:2029C0007CA040F68F7547F6FF7824E0CAF80080208800F00F0038705BF820108EB2310460
:2029E00009D55BF8201029404BF8201009EB800050F8040C804730060DD538785BF82010BC
:202A000048F60F7211404BF820100B4901EB800050F8040C8047DAF8000020800004D5D435
:202A2000BDE8F18FC8140020005C0040D7140020CE1400201C03002000030020445C00408A
:202A400080B50120C046C0467B20FFF746FB08B900F018F8FFF752FB3A483B49008880022E
:202A600050F8040C884202D100F082F801E000F009F8002002BD80B5FFF7E6FC00F082F8CF
:202A8000BDE801402DE9F8434FF4FA610420FFF7AFF9FFF7C8FC0A20FFF786FEFFF757FDF7
:202AA0000446012C08BFFFF740FDFFF758FD0546012D02DB0CB92548057200F077F8012DCE
:202AC00002DB0CB9FFF731FD00210120FFF790F9FEF7E6FD1E4C1F4DDFF87C80DFF87C900B
:202AE0001F4E204F1AE0D9F8002092B24146284600F078F8D9F800102068FEF79BFD3878D0
:202B000000F0FD0040F0010038703078072805D1FFF70BFDFFF787FC00F02AF83878800782
:202B2000F3D53078212808D0412802D05128DAD0E5E72068FEF778FDE1E751203070DEE74A
:202B400000000000E0F7FF1FD32700A58C0200206003002074030020740B002068030020EF
:202B6000580300205903002000400008000000085FF80C00016881F3088800F104000168E0
:202B80000847000010B5074979441831064C7C44163404E00A68081D511888470146A14292
:202BA000F8D110BD000200002002000010B50A4C0A49E461022020726162094820620068F6
:202BC00080474FF40070E0624FF48010A0624FF40060206310BD00BF68140020DC02002018
:202BE00034020020F0B5054617460F2085B00E46074200D107B942E0244C207800283BD142
:202C00002348244A01788DF8001041788DF801108178C0788DF802108DF8030001A9042060
:202C2000135C01F8013B401C135C01F8013B401C135C01F8013B401C135C01F8013B401C94
:202C40001028EDDB211D0FF25000FDF723FF221D00A900A8FEF7D8F8211D00A8FDF751FF50
:202C60000120207008E0221D31462846FDF74AFF103F10351036BFB23800F4D102E001200F
:202C800005B0F0BD002005B0F0BD000074130020E0F7FF1FE4F7FF1F4920616D206B65791B
:202CA0002C20776177617761120100020000004083044837000101020301000004030904C9
:202CC0002603530054004D006900630072006F0065006C0065006300740072006F006E00CE
:202CE00069006300730000001A03530054004D00330032002000530054004C0069006E0035
:202D00006B00000010035300540020004C0069006E006B00FFF74BBE00F020B80C4881B094
:202D200001884FF6FB72114001800A480168491C0160C9070848026822F0F002009200994C
:202D40004CBF41F0400141F0B001016001B07047102C0140C01400200408014038B50D484B
:202D60000D4C01680D4D618061882A881140490505D54FF6FF3101600948406880476088C4
:202D800029880840000403D5FFF778FD0120207031BD00BF445C0040CC140020D4140020AD
:202DA00034020020CBE7FFFF901100004C03002000000000BBDAFFFF4C03000044010000D6
:202DC000000000200000000000F00BF8002801D0FFF7D8FE0020C046C046FFF731FE00F0DA
:202DE00002F80120704700F001B800000746384600F002F8FBE7000080B5C046C046024A34
:202E000011001820ABBEFBE7260002000148804701480047492400081D2E0008C046C04682
:202E2000C046C046FFF7D0FFFEF735BFFEF742BFFFF7FEBFFFF7FEBFFFF7FEBFFFF7FEBF16
:202E4000FFF7FEBFFFF7FEBFFFF7FEBFFFF7FEBFFFF7FEBFFFF7FEBFFFF7FEBFFFF7FEBFDA
:202E6000FFF7FEBFFFF7FEBFFFF7FEBFFFF7FEBFFFF7FEBFFFF7FEBFFFF7FEBFFFF7FEBFBA
:202E8000FFF7FEBFFFF7FEBFFFF7FEBFFFF7FEBFFFF7FEBFFFF7FEBFFFF7FEBFFFF7FEBF9A
:202EA000FFF738BFFFF738BFFFF7FEBFFFF7FEBFFFF7FEBFFFF7FEBFFFF7FEBFFFF7FEBF06
:202EC000FFF72CBFFFF7FEBFFFF7FEBFFFF7FEBFFFF7FEBFFFF7FEBFFFF7FEBFFFF7FEBF2C
:202EE000FFF7FEBFFFF7FEBFFFF7FEBFFFF7FEBFFFF7FEBFFFF7FEBFFFF7FEBFFFF7FEBF3A
:202F0000637C777BF26B6FC53001672BFED7AB76CA82C97DFA5947F0ADD4A2AF9CA472C036
:202F2000B7FD9326363FF7CC34A5E5F171D8311504C723C31896059A071280E2EB27B275FC
:202F400009832C1A1B6E5AA0523BD6B329E32F8453D100ED20FCB15B6ACBBE394A4C58CF25
:202F6000D0EFAAFB434D338545F9027F503C9FA851A3408F929D38F5BCB6DA2110FFF3D2B3
:202F8000CD0C13EC5F974417C4A77E3D645D197360814FDC222A908846EEB814DE5E0BDB03
:202FA000E0323A0A4906245CC2D3AC629195E479E7C8376D8DD54EA96C56F4EA657AAE08E5
:202FC000BA78252E1CA6B4C6E8DD741F4BBD8B8A703EB5664803F60E613557B986C11D9EFB
:202FE000E1F8981169D98E949B1E87E9CE5528DF8CA1890DBFE6426841992D0FB054BB169B
:2030000052096AD53036A538BF40A39E81F3D7FB7CE339829B2FFF87348E4344C4DEE9CB44
:20302000547B9432A6C2233DEE4C950B42FAC34E082EA16628D924B2765BA2496D8BD1254E
:2030400072F8F66486689816D4A45CCC5D65B6926C704850FDEDB9DA5E154657A78D9D8410
:2030600090D8AB008CBCD30AF7E45805B8B34506D02C1E8FCA3F0F02C1AFBD0301138A6B2E
:203080003A9111414F67DCEA97F2CFCEF0B4E67396AC7422E7AD3585E2F937E81C75DF6E76
:2030A00047F11A711D29C5896FB7620EAA18BE1BFC563E4BC6D279209ADBC0FE78CD5AF4B6
:2030C0001FDDA8338807C731B11210592780EC5F60517FA919B54A0D2DE57A9F93C99CEF64
:2030E000A0E03B4DAE2AF5B0C8EBBB3C83539961172B047EBA77D626E169146355210C7D20
:203100003203300030003000300030003000300030003000300030003000300030003000AA
:203120003000300030003000300030003000300031000000A1210008F1210008C52200080B
:20314000C7220008C9220008072300084B230008552300085B230008612300080000000051
:20316000400000000000000100000002000000040000000800000010000000200000004090
:20318000000000800000001B000000360902270001010080320904000003FFFFFF0407055B
:2031A0008102400000070502024000000705830240000000BC2C000804000000C02C000843
:2031C00026000000E82C00081A0000000002002032000000042D0008100000006D08000879
:2031E0007F2100086D0800086D0800086D0800086D0800086D0800086D0800086D080008BC
:20320000292E00086D0800086D0800086D0800086D0800086D0800086D0800086D080008E4
:203220002D2E00086D0800086D0800086D0800086D0800086D080008A82C000812000000CC
:203240008C0200202700000004010000FFFFFFFFFFFFFFFFFFFFFFFFFFFFFFFFFFFFFFFFA8
:20326000FFFFFFFFFFFFFFFFFFFFFFFFFFFFFFFFFFFFFFFFFFFFFFFFFFFFFFFFFFFFFFFF6E
:20328000FFFFFFFFFFFFFFFFFFFFFFFFFFFFFFFFFFFFFFFFFFFFFFFFFFFFFFFFFFFFFFFF4E
:2032A000FFFFFFFFFFFFFFFFFFFFFFFFFFFFFFFFFFFFFFFFFFFFFFFFFFFFFFFFFFFFFFFF2E
:2032C000FFFFFFFFFFFFFFFFFFFFFFFFFFFFFFFFFFFFFFFFFFFFFFFFFFFFFFFFFFFFFFFF0E
:203C0000152197936F1A6051AD04ADF553AD0A68FFFFFFFFFFFFFFFFFFFFFFFFFFFFFFFF55
:203C200042FFFFFFFFFFFFFFFFFFFFFFFFFFFFFFFFFF56554E444546494E45442020FFFF2D
:203C4000FFFFFFFFFFFFFFFFFFFFFFFFFFFFFFFFFFFFFFFFFFFFFFFFFFFFFFFFFFFFFFFF84
:203C6000FFFFFFFFFFFFFFFFFFFFFFFFFFFFFFFFFFFFFFFFFFFFFFFFFFFFFFFFFFFFFFFF64
:203C8000FFFFFFFFFFFFFFFFFFFFFFFFFFFFFFFFFFFFFFFFFFFFFFFFFFFFFFFFFFFFFFFF44
:203CA000FFFFFFFFFFFFFFFFFFFFFFFFFFFFFFFFFFFFFFFFFFFFFFFFFFFFFFFFFFFFFFFF24
:203CC000FFFFFFFFFFFFFFFFFFFFFFFFFFFFFFFFFFFFFFFFFFFFFFFFFFFFFFFFFFFFFFFF04
:203CE000FFFFFFFFFFFFFFFFFFFFFFFFFFFFFFFFFFFFFFFFFFFFFFFFFFFFFFFFFFFFFFFFE4
:203D0000FFFFFFFFFFFFFFFFFFFFFFFFFFFFFFFFFFFFFFFFFFFFFFFFFFFFFFFFFFFFFFFFC3
:203D2000FFFFFFFFFFFFFFFFFFFFFFFFFFFFFFFFFFFFFFFFFFFFFFFFFFFFFFFFFFFFFFFFA3
:203D4000FFFFFFFFFFFFFFFFFFFFFFFFFFFFFFFFFFFFFFFFFFFFFFFFFFFFFFFFFFFFFFFF83
:203D6000FFFFFFFFFFFFFFFFFFFFFFFFFFFFFFFFFFFFFFFFFFFFFFFFFFFFFFFFFFFFFFFF63
:203D8000FFFFFFFFFFFFFFFFFFFFFFFFFFFFFFFFFFFFFFFFFFFFFFFFFFFFFFFFFFFFFFFF43
:203DA000FFFFFFFFFFFFFFFFFFFFFFFFFFFFFFFFFFFFFFFFFFFFFFFFFFFFFFFFFFFFFFFF23
:203DC000FFFFFFFFFFFFFFFFFFFFFFFFFFFFFFFFFFFFFFFFFFFFFFFFFFFFFFFFFFFFFFFF03
:203DE000FFFFFFFFFFFFFFFFFFFFFFFFFFFFFFFFFFFFFFFFFFFFFFFFFFFFFFFFFFFFFFFFE3
:203E0000FFFFFFFFFFFFFFFFFFFFFFFFFFFFFFFFFFFFFFFFFFFFFFFFFFFFFFFFFFFFFFFFC2
:203E2000FFFFFFFFFFFFFFFFFFFFFFFFFFFFFFFFFFFFFFFFFFFFFFFFFFFFFFFFFFFFFFFFA2
:203E4000FFFFFFFFFFFFFFFFFFFFFFFFFFFFFFFFFFFFFFFFFFFFFFFFFFFFFFFFFFFFFFFF82
:203E6000FFFFFFFFFFFFFFFFFFFFFFFFFFFFFFFFFFFFFFFFFFFFFFFFFFFFFFFFFFFFFFFF62
:203E8000FFFFFFFFFFFFFFFFFFFFFFFFFFFFFFFFFFFFFFFFFFFFFFFFFFFFFFFFFFFFFFFF42
:203EA000FFFFFFFFFFFFFFFFFFFFFFFFFFFFFFFFFFFFFFFFFFFFFFFFFFFFFFFFFFFFFFFF22
:203EC000FFFFFFFFFFFFFFFFFFFFFFFFFFFFFFFFFFFFFFFFFFFFFFFFFFFFFFFFFFFFFFFF02
:203EE000FFFFFFFFFFFFFFFFFFFFFFFFFFFFFFFFFFFFFFFFFFFFFFFFFFFFFFFFFFFFFFFFE2
:203F0000FFFFFFFFFFFFFFFFFFFFFFFFFFFFFFFFFFFFFFFFFFFFFFFFFFFFFFFFFFFFFFFFC1
:203F2000FFFFFFFFFFFFFFFFFFFFFFFFFFFFFFFFFFFFFFFFFFFFFFFFFFFFFFFFFFFFFFFFA1
:203F4000FFFFFFFFFFFFFFFFFFFFFFFFFFFFFFFFFFFFFFFFFFFFFFFFFFFFFFFFFFFFFFFF81
:203F6000FFFFFFFFFFFFFFFFFFFFFFFFFFFFFFFFFFFFFFFFFFFFFFFFFFFFFFFFFFFFFFFF61
:203F8000FFFFFFFFFFFFFFFFFFFFFFFFFFFFFFFFFFFFFFFFFFFFFFFFFFFFFFFFFFFFFFFF41
:203FA000FFFFFFFFFFFFFFFFFFFFFFFFFFFFFFFFFFFFFFFFFFFFFFFFFFFFFFFFFFFFFFFF21
:203FC000FFFFFFFFFFFFFFFFFFFFFFFFFFFFFFFFFFFFFFFFFFFFFFFFFFFFFFFFFFFFFFFF01
:203FE000FFFFFFFFFFFFFFFFFFFFFFFFFFFFFFFFFFFFFFFFFFFFFFFFFFFFFFFFFFFF2712A6
:20400000C81A0020E9F900084F5F0008A9F400084F5F00084F5F00084F5F00080000000037
:204020000000000000000000000000004F5F00084F5F000800000000656F000815F4000827
:204040004F5F00084F5F00084F5F00084F5F00084F5F00084F5F00084F5F00084F5F0008B0
:204060004F5F00084F5F00084F5F00084F5F00084F5F00084F5F00084F5F00084F5F000890
:204080004F5F00084F5F00084F5F00084F5F0008B5A800084F5F00084F5F00084F5F0008C1
:2040A0004F5F00084F5F00084F5F00084F5F00084F5F00084F5F00084F5F00084F5F000850
:2040C0004F5F00084F5F00084F5F00084F5F00084F5F000853D10008EDBC00084F5F0008BF
:2040E0004F5F00084F5F00084F5F0008FFFFFFFFFFFFFFFFFFFFFFFFFFFFFFFFFFFFFFFFB2
:20410000000000000000000000000000000000004A2D4C696E6B2053544C696E6B2056329D
:204120003120636F6D70696C65642044656320323120323031362031353A31303A35390080
:20414000436F7079726967687420323031362D32303136205345474745523A207777772EFD
:204160007365676765722E636F6D0000000000000000000000000000000000000000000055
:2041800030B4F3B900F1500490F878500DB1636A17E0256A65B1E06900EBC500083804682E
:2041A000A24201D343680CE008386D1EF7D108E04FF44013006DDFF8702D904208BF4FF4E2
:2041C0007003CB600120087430BC7047F8B50C4600F15005002322462946FFF7D1FF0022DA
:2041E0000221284601F0DCF90646287D0106022001F023FA07462146052001F01EFA40EA34
:2042000007046868B04205D06E603146042001F014FA0443287D000640F01001022001F04E
:204220000CFA2043F2BDF8B50C4600F15005002322462946FFF7A4FF00220221284601F0EA
:20424000AFF90646287D0106022001F0F6F907462146052001F0F1F940EA07046868B04211
:2042600005D06E603146042001F0E7F90443002C02D54FF0FF30F2BD0020F2BD70B582B0A2
:204280000024DFF8A85C286A00F1C8060021072001F023FA00A9072001F01FFA0098C0F353
:2042A000C04020B9286A301AF4D54FF0FF34204676BD2DE9F04F83B08046894692469B469F
:2042C0000D9C08F150050C9EB00044BF0120287606F00F072868DFF8501C88420BD1287EA0
:2042E00000281ABF012000FA07F20AFA07F24946404601F08DFA06F47F034A46294640461E
:20430000FFF73EFF019400975B4652464946284601F0D0F80021297600F094BE2DE9F04700
:2043200082B00546894616461F4605F150040A98810044BF0121217600F00F0A012101FA21
:204340000AF195F87A20AAB3DFF8E42B914531D1042908BF012E70D1DFF8D81B2846FFF78E
:2043600035FF00281CD40021072001F0B6F900A9072001F0B2F97878B978090441EA002024
:20438000F97840EA016020F47020009901F470210143072001F051F9002804D501F043F98A
:2043A0004FF0FF3058E001F027F90021032001F094F940E0DFF8808BC14504BF0429012E5D
:2043C0003BD1384601F05BFB009041462846FFF72AFF0028E4D10099072001F02EF900288B
:2043E000DCD401F009F90098400720D5022001F070FD0021032001F070F9E0B1DFF88C5DD7
:20440000286A00F5966640F27747642001F061FD00A9002001F061F9002801BF00980005BD
:20442000000DB84207D0286A301AEED503E00021032001F052F901200EE000F47F034A4687
:2044400021462846FFF79CFECDF800A03B4632464946204601F074F800212176BDE8F6876D
:204460002DE9F04182B00C4615461E4600F15008DFF8C01AFFF7AAFE002807D400210720CF
:2044800001F02BF900A9072001F027F9207801F039FD009F000240F00201062001F0CDF8B7
:2044A00027F40021072001F0C8F84046FFF7E6FE002810D4009F0021062001F00EF929462F
:2044C000062001F00AF927F40021072001F0B5F84046FFF7D3FE002804D4641C2D1D761E16
:2044E000D4D181E083E02DE9F8430C4615461E4690F87A1021B12146FFF7B2FF804631E028
:20450000DFF8301AFFF762FE0028DFF8807C48BF4FF0FF3027D42178052001F08EF8002163
:20452000042001F0DAF84FF00008386A00F1C80900A9042001F0D1F80098C00306D4386A8B
:20454000B9EB0000F4D54FF0FF380BE00021062001F0C3F82946032001F0BFF8641C2D1D96
:20456000761ED8D14046BDE8F2832DE9F04182B00C4615461E4600F15008DFF8B819FFF7ED
:2045800025FE002807D40021072001F0A6F800A9072001F0A2F8207801F0B4FC009F0002E9
:2045A00040F00301062001F048F827F40021072001F043F84046FFF761FE00280CD4009F5F
:2045C0002968062001F039F827F40021072001F034F84046FFF752FE002804D4641C2D1DEC
:2045E000761ED8D100E002E00020BDE8F6814FF0FF30BDE8F6812DE9F8430C4615461E4694
:2046000090F87A1021B12146FFF7AFFF80462FE0DFF82019FFF7DAFD0028DFF8707B48BF08
:204620004FF0FF3025D42968062001F006F8207840F48031052001F000F80021042001F0AC
:204640004CF84FF00008386A00F1C80900A9042001F043F80098C00306D4386AB9EB0000F7
:20466000F4D54FF0FF3803E0641C2D1D761EDAD14046BDE8F2832DE9F04383B0044604F1B4
:2046800050050026DFF8AC884146FFF79FFD074694F87A0008B3002F1AD40021042001F01A
:2046A0001CF8074600A9072001F017F8814601A9072001F012F840EA0900074308D4009845
:2046C00080035ABF0198C0F3C04684F87A6001E04FF0FF3694F87A00A0BB0021042000F0AB
:2046E000FCFF40EA070600A9042000F0F6FF304315D50020686041462046FFF767FD0546FF
:204700000021042000F0E9FF40EA050400A9042000F0E3FF204348BF4FF0FF3013D4009853
:2047200000030CD5DFF8681A042000F086FF0021042000F0D2FF00A9042000F0CEFF00987B
:20474000C0F34046304683E02DE9F04383B0804608F27905DFF8DC676878002844D03146E0
:204760004046FFF733FD0021072000F0B6FF00A9072000F0B2FF0098C0F3C04038B900985B
:2047800040F4403000900099072000F056FF0021072000F0A2FFDFF89447206A00F1C80909
:2047A00001A9072000F099FF002802D54FF0FF3709E00198C0F3C0471FB9206AB9EB0000EA
:2047C000EED5019800906FB900206870009820F4403000900146072000F02FFF002107204D
:2047E00000F07BFF687878BB31464046FFF71BFD98F87900DFF8981941EAC005294607201A
:2048000000F01BFF00F0BAFFDFF82047206A861C01A9072000F061FF002802D54FF0FF37E6
:2048200006E00198C0F3404717B9206A301AEFD598F8790040B125F00801072000F0FDFE2D
:204840000021072000F049FF002088F87900384603B0BDE8F0832DE9F04389B0804601F03D
:2048600001060906480E00F00105D8F85000DFF8B816884219D1404600F0EDFF002848BFCC
:204880004FF0FF3000F18781404600F0E0FFDFF804194046FFF7C7FC002806D400210720DF
:2048A00000F0CBFE08B900F0A7FE002D75D00025DFF8E4184046FFF7B6FCD8F88000D0F839
:2048C0008800C10703D540084000019005E000F055FF01A9032000F000FF019800F13001F7
:2048E000052000F0AAFE00F049FF01A9032000F0F4FE0198002818BF10F1010F4DD0400806
:2049000040000190A0F110014046FFF78CFC0021072000F0E2FE04A9072000F0DEFE0198CF
:20492000A0F10C01052000F088FE2946072000F0D4FE05A9072000F0D0FE0198A0F1080120
:20494000052000F07AFE2946072000F0C6FE06A9072000F0C2FE0198011F052000F06DFEC1
:204960002946072000F0B9FE07A9072000F0B5FE0498DFF82818884201BF04A84168DFF817
:204980002028914209D18168DFF81828914201BFC068DFF8141888420125DFF810184046EF
:2049A000FFF741FC1F21072000F047FEDFF8847539464046FFF70AFC0021042000F08DFE97
:2049C00000A9072000F089FE02A9072000F085FE00200099890303D40299090348BF012060
:2049E000002D55D0002840F09B8008F27904A07830BBDFF8BC174046FFF7E8FB002104202A
:204A000000F06BFE03A9042000F067FE039840F0FF01042000F011FE0021042000F05DFE9A
:204A200001A9042000F059FE0198C0B201F01BF80190C0F10800A0700399042000F0FDFD4E
:204A400039464046FFF7C2FB029820F4402040F4803002900146072000F0EFFD009880B206
:204A600000900026DFF84C77C0F3C00040B1009820F00800009047EA0001042000F0DDFD22
:204A80000098C008C000009047EA000104204FE0002850D0009880B240F001000090DFF837
:204AA000147747EA0001042000F0C7FD86B3009840F002000090009847EA0001042000F0F0
:204AC000BCFDDFF86844206A00F105090021042000F003FE00A9042000F0FFFD0198800306
:204AE00003D4206AB9EB0000F4D5009880B240F00800009047EA0001042000F09EFD0098DD
:204B000020F00200009047EA0001042000F095FD029820F4A02002900146072000F08DFD33
:204B2000029F0121062000F088FD27F40021072000F083FD17E0DFF8580640EAC600019097
:204B40000098C0F3C000864203D00199042000F074FD019820F0020001900146042000F0F9
:204B60006CFD00F049FDDFF85006006808B101F0E7F900F041FD0021032000F0AEFD08F270
:204B8000790465706178C90744BF0121E170002858BF88F8796009B0BDE8F083F0B587B05F
:204BA0000446206DE049884219D1204600F053FE002848BF4FF0FF3000F1CB80204600F06B
:204BC00046FEDFF8D0152046FFF72DFB002806D40021072000F031FD08B900F00DFDD54D0C
:204BE00094F87A00002800F08580DFF8C4152046FFF7ECFA0021042000F06FFD04A904202E
:204C000000F06BFD0498C0B2049029462046FFF7DDFA002807D40021072000F05EFD00A9B9
:204C2000072000F05AFD009840F4802000900099072000F002FD14208DF80C00012305AAC3
:204C400003A92046FFF70CFC059820F47F4001900499012294F87B30C3F108039A4051184A
:204C600040EA01200190012301AA03A92046FFF77CFC009D0121062000F0DFFC25F400211F
:204C8000072000F0DAFC0021072000F026FDA74E306A00F1C80702A9072000F01EFD002878
:204CA00002D54FF0FF3508E00298C0F3C04515B9306A381AEFD502980090002D42D40098ED
:204CC00020F4802000900146072000F0B6FC012301AA03A92046FFF7C3FB0598000A0199AA
:204CE00060F30F210191012301AA03A92046FFF73CFC27E029462046FFF795FADFF8BC1488
:204D0000072000F09AFCDFF8B814072000F095FC00F034FD854E306A841C02A9072000F0AB
:204D2000DCFC002802D54FF0FF3506E00298C0F3404515B9306A201AEFD5DFF854140720A5
:204D400000F07BFC00F058FC0021032000F0C5FC284607B0F0BD02B582B00F218DF8001033
:204D6000012302AA00A9FFF746FC03B000BD70B582B004464AF6A665DFF8486471B100F091
:204D80004BFC002060653068A84214D200A9012000F0A3FC00984108490009E03068A84291
:204DA00009D200A9012000F098FC009840F00101012000F042FC73BD002918BF01290BD07C
:204DC00004290ED0082904D010290CD0802906D00BE0DFF8F4037047DFF8F00370473F20DF
:204DE0007047032070470120704700207047F0B583B006460C4606F1500528684A498842C4
:204E00003FD100200190DFF8C8133046FFF70BFA002806D40021072000F00FFC08B900F0B8
:204E2000EBFBDFF8B07300233A4629463046FFF7A7F90020009001AB01223946284600F018
:204E400078FB0198C0F3C900451C0198C0F34E30461C0120019901F00301891C88400121FE
:204E6000216003212171800000F055FEE071304600F051FE6071284600F04DFEA071012086
:204E80002074002003B0F0BD7CB5044604F1500528682549884201D0002076BDCE4E00230E
:204EA000324629462046FFF76BF90020009001AB01223146284600F03CFB0198C0F3400034
:204EC00088B1C64E0023324629462046FFF758F90020009001AB01223146284600F029FB56
:204EE0000198C0F3004076BD38B5046D0E4DAC4218D1049C01EB840191F90740A24089799D
:204F0000C1F1200103FA01F141EA0204B449FFF78AF9002806D42146072000F08EFB08B95E
:204F200000F06AFB002032BDFF00010E30000020FCED00E0F0ED00E00CED00E02DE9F04FFB
:204F400083B005460E469346BBF1840F38BF4FF0FF3077D306F1500468690090D5F8189097
:204F600084220021304600F0A3FDD5F800A0BAF1000F08BFDFF86CA24FEA1A6040F2FF3875
:204F8000FF2808D0032818BF0E2804D19648824518BF40F6FF78287B8DF80400687B0106C6
:204FA00015D50021820748BF4FF40011420748BF41F48001020748BF41F40001800658BF19
:204FC00041F48011301D0167012086F87800A87B30B1202804D2012101FA00F0A0F1010876
:204FE000371DB9F1040F09D3009800F048FDF8660098001DB866F96E01F0D4F806F12C0976
:205000004FF4807000F087FD89F82000052089F82100366075487860754870600020F86051
:2050200038617448B8609DF8040020750120A075C4F80880C4F800A000206060C6F8805091
:20504000ABF1840003B0BDE8F08F30B5C5B00446022100A801F084F9BDF8001035A801F0E9
:205060007FF9BDF80000042804D335A800F007FD054600E05B4D9022002101A800F018FDDB
:20508000019501208DF8080000208DF809008DF8100025A8059058480890402225A901A816
:2050A000FFF74CFF01210598FFF761FE642C15D0652C17D06E2C19D06F2C1BD0792C1DD013
:2050C0007A2C1FD07B2C21D07C2C23D0822C25D0832C04BF01A801F0DDFB22E001A801F0E5
:2050E00063FA1EE001A801F0DFF91AE001A801F010FB16E001A801F037FB12E001A801F0F6
:2051000059FB0EE001A801F06BFB0AE001A801F06EFB06E001A801F07BFB02E001A801F0EE
:2051200081FB00210598FFF722FE45B030BD38B50469012094F87C1031B330492046FFF7F1
:2051400072F805460021072000F0C7FA054300A9052000F0C2FA284315D40098C0F3C04040
:2051600018B1002084F87C000DE00098C0F3004048B9009840F48031072000F05EFA00A940
:20518000052000F0AAFA002032BD00003000002003005FA050EF00E008ED00E04A4C494ED4
:2051A0004B4D4F4E48414E444C45520030ED00E020ED00E000005FA09C0F00200F005FA0FA
:2051C0000D005FA0980F0020370000800100008084ED00E080ED00E078ED00E014ED00E000
:2051E00074EF00E0FF000003FF00010E894E0008EF4D0008E94E000840F70008FCED00E0F2
:205200002DE9F04782B007460C4690469946002619F0030008BF0126387E421E9241D20FD1
:205220000221384600F0BCF90546387D0106022000F003FA82462146052000F0FEF940EAAD
:205240000A047868A84205D07D602946042000F0F4F90443002C50D100F090FA00284CD101
:20526000B8F1020F42D3A8F101040A9F0EB33FB1F868B968401A2646844202D9064600E053
:20528000264600254946072000F027FA98BB09F104096D1CB542F5D347B1B8683018B8609C
:2052A000F968884202D3384639688847A41BDED11CE000A9072000F010FAE0B9009809F89A
:2052C000010B010A09F8011B010C09F8011B000E09F8010B47B1B868001DB860F9688842DD
:2052E00002D3384639688847641EE2D100A9032000F0F3F928B100F096F94FF0FF30BDE8A3
:20530000F6870099484600F0A3FB4046BDE8F6872DE9F84F0446884691469A46207E421E89
:205320009241D20F0A9D2946204600F039F90646207D0106022000F080F9074641460520A7
:2053400000F07BF907436068B04205D066603146042000F072F9074367BB00F00FFA48BBEC
:20536000B9F1020F21D3A9F10106012000FA05F7C5F1030B00A9072000F0AFF910B100F0E9
:2053800052F917E000980BEA0801C900C840009000980AF8010B1DB10098000A0AF8010BB0
:2053A000207E00B9B844761EE4D100A9032000F094F900B17AE00098C5F1030101EA0801B7
:2053C000C900C840009000980AF8010B1DB10098000A8AF800004846BDE8F28F2DE9F84FC3
:2053E00004468A4615461E460A9F012F08BF4FF0013805D0022F0CBF4FF001184FF001084B
:20540000207E421E9241D20F7910204600F0C8F88146207D0106022000F00FF98346514656
:20542000052000F00AF940EA0B0A6068484507D0C4F804904946042000F0FFF840EA0A0AC1
:20544000BAF1000F0DD116F0030008BF042F0CD156F8041B072000F0F0F8002802D500F079
:20546000E2F823E06D1EF3D117E03078022FA2BF717840EA0120032F05DBB178F2781206DE
:2054800042EA0141084308FB00F1072000F0D5F80028E4D4BE196D1EE7D100F0ADF80021CB
:2054A000032000F01AF90020BDE8F28F4FF0FF30BDE8F28F2DE9F84F04460D4691469A463B
:2054C000A07D00B9F2E74FF000080A9E0B9F07E00BFA06F0217E01B945198244A9EB0B097D
:2054E000B9F1000F22D0A068A843F040401C217E0029CB4602D1814588BF8346022E07DBEE
:20550000009753465A4629462046FFF779FE06E0009653465A4629462046FFF7F9FE0028DA
:2055200001D5804602E080445845D1D04046BDE8F28F10B582B0049C0094FFF761FE16BDEC
:205540002DE9F84F04460D46164698464FF0000B0A9F012000FA07F908E0D3440AFA07F00F
:20556000217E01B945198044A6EB0A06AEB1A068A843F840401C217E0029B24602D18642CE
:2055800088BF8246CDF800904346524629462046FFF724FF0028E0D583465846BDE8F28F2E
:2055A00070B40368134CA3420CBF012300234FF08074C568EE0258BF4FF082442E0248BF63
:2055C00044F000646E0248BF44F08064AE0248BF44F000742D0303D5007C08B924F0406448
:2055E0000BB944F0005441EA040040EA021070BC70470000FF00010E80B5FF208DF8010029
:2056000000208DF8000008230DF102020DF1010100A801F04EFC01BD00B583B0302300AA32
:205620007049714805E000B583B0302300AA6D496E4801F03EFC03B000BD2DE9F04790B09A
:20564000002481EA114282EA122282EA121282EA9202039192EA520101F001018DF810103D
:20566000634D296A01F164066249405C8DF800008DF80140DFF880A1DFF88081DFF8809141
:2056800001AF07E04FF4847305AA4146504601F010FC641C0D2301AA494600A801F009FCE8
:2056A000787800F00700012807D1212301AA554903A801F0FEFB00205DE0022809D0042854
:2056C00002D1FFF7A9FF01E0022CDBDB4FF0FF3051E0286A301ADDD54BE02DE9F04790B0AF
:2056E0000C4600258DF810504749405C8DF804008DF805503E4E306A64300290DFF8F8A004
:20570000DFF8F880DFF8049100AF07E04FF4847305AA4146504601F0CCFB6D1C0D2300AA17
:20572000494601A801F0C5FB787800F0070101290FD1C0F3C105212300AA09F1020103A87F
:2057400001F0B7FB1CB1009845EA80002060002011E0022909D0042902D1FFF75DFF01E0CA
:20576000022DD3DB4FF0FF3005E00298316A401AD4D56FF0010010B0BDE8F087002107203D
:20578000ABE700B58BB04FF4847301AA1B491A4801F08FFB00A90020FFF79FFF002811D4F7
:2057A00000A90120FFF799FF009810F0B20F0CD0FFF732FF00A90120FFF78FFF009810F04F
:2057C000A00F02D001200BB000BD4FF0A040009001460120FFF731FF401E8041C043C00F81
:2057E0000BB000BD5C0100207CFA000884FA0008300000206C01002070F8000894F80008CF
:205800005401002074010020640100204C01002070B45218521E4909490152095201521AD8
:205820005209521C4909C9B200EBD10393F82C40012501F00706B5402C4383F82C40491C48
:20584000521EF0D1012180F84E1070BC704720212C3001F06BBB2DE9F04F83B0044694F82A
:205860004E00002800F09B80002084F84E00A168080000F0948020688847002800F08F802A
:205880006268100006D004F1180120689047002800F182802169080003D0206888470028EC
:2058A0007AD4002627464FF0010901E0761C3F1DA069864269DA387F02281CBF03280428C8
:2058C000F4D1F87F94F84D10A0EB0108002094F84C107A7F8A4238BF881A002509FA08FA7F
:2058E00009FA00F0019016E0D4F80CC05FEA0C0008D000965B462A4604F118012068E04705
:20590000002849D40BF1010B97F91E0009FA00F08345E9DB6D1C97F91D0009FA00F085421D
:20592000C4DA05FA08F094F94C1009FA01F1491E08400021019A012AECDB0346BAF1010F93
:205940000FDBD44604EBD30E9EF82CE003F0070B4EFA0BFE1EF0010E03D15B1CBCF1010C59
:20596000F0D11EEB01010DD17B7F434409FA03F3181894F94C3009FA03F35B1E1840521E90
:20598000C8D0DAE74FF0000BBEE76169080006D020688847002802D54FF0FF3000E0002053
:2059A00003B0BDE8F08F10B450F8041B81B102681218001D50F8043BDC0744BFA9F10104F6
:2059C000E31852F8044B43F8044B091FF9D1EBE710BC704701680A0A1206120A42EA016222
:2059E0000B021B0E42EA032242EA116101607047010A0906090A41EA00610202120E41EA62
:205A0000022141EA1060704700EBD10001F0070100F0030201EBC20182089200106831B142
:205A2000C8405268C1F1200102FA01F108437047026806E0026802F8011B090A02F8011BE8
:205A4000090A02F8011B090A02F8011B026070470170090A00F8011F090A00F8011F090A01
:205A600000F8011F704738B1002101E04008491CC207FBD5084670474FF0FF307047017883
:205A8000427841EA0221827841EA0241C07841EA00607047012A09DB10F8013B11F801CBF4
:205AA000634501D001207047521EF5D100207047012A03DB00F8011B521EFBD170474FF039
:205AC000000C02E019460CF1010C002902D44B009842F7D20023BCF1000F09D45B008842A1
:205AE00024BF401A43F001034908BCF1010CF5D502B11060184670470022E0E780B50028DF
:205B000005D500224042FFF7DAFF404202BD0022BDE80840D3E7002101E0491C400000285F
:205B200000D4FAD1C1F11F00704710F8012B11F8013B0AB19A42F8D0D01A704730B4802041
:205B400080F3118800BF00BFDFF8B40381680022027182F3118800291CBF0A68002A21D010
:205B60004B6954699C421DD100E02246146814B165699D42F9D0802383F3118800BF00BFB9
:205B80000B6804698C4208BF0361086A036018620A621068086000B10162116092F8390049
:205BA00082F83800002080F3118830BC704738B5DFF84C4300206071206A00F18040606223
:205BC000E16908001CBF20468847002080F31188E56826E0802080F3118800BF00BF206931
:205BE00020B1686921694969884221D3287C400713D5E868216A401A012809DA284600F097
:205C0000DEF8802080F3118800BF00BF287C78B1E868616A411A48BF6062002080F311884C
:205C20002D68002DD6D1802080F3118800BF00BF31BD70B5DFF8C84200206070012020703C
:205C4000802080F3118800BF00BFE06B010005D080470020E063606384F83800002080F3C5
:205C6000118801F067F90078CD281CBF7D2001F067F9A06800281CBFC16B002904D009685F
:205C80000A001CBF4068884794F8310040B1A06894F8301080F83810207908B1FFF74EFFD1
:205CA000A06820B1017C11B9416B491C4163206948B304E028682061002080F311888020CA
:205CC00080F3118800BF00BF256925B32E7C16B370070ED5E868216A411A012905DA28465A
:205CE00000F06DF8287C20B90DE0616A411A48BF606206F0FB001028DCD1A8688068406880
:205D0000007C0028D6D1802080F3118800BF00BF01E0FFF74CFF60790028FAD1206910B3D4
:205D20002069007C0028206902D0806880684068A060C06A0078CD281CBF782001F000F96F
:205D4000A068C16B21B149680A001CBF40688847A06890F8381084F8301084F83110016B73
:205D6000491C016307E084F8310084F83000A060207080F31188204670BD6148407808B9C9
:205D800080F31188704710B55D4C2078401E2070207898B9606888B1802080F3118800BFF7
:205DA00000BF606830B101202070204601F025F900202070607808B980F3118810BD38B546
:205DC00081684F4C41B1226AC2600A68496802B151600A6000218160017C11F003010174B5
:205DE00012D1216989B92061207838B901202070204601F002F90020207001E00120607164
:205E0000607808B980F3118831BD42694B699342E9D38142E8D09A42F6D103461B68002BEA
:205E2000EED05D69AA42EBD18B42F7D1DBE738B54169334C2278521C227004F10C0200E04C
:205E40001A46136813B15D69A942F9D303600262106043B118625A698A420CBF90F8391056
:205E6000002180F83810017C51B9802181F3118800BF00BFFFF7A3FF607808B980F3118851
:205E8000BDE831407FE738B51D4C25782078401C2070204601F0B1F82570607808B980F36E
:205EA000118831BD10B501F0DBF815480121017001F040F8044601F041F8001BA0F1200277
:205EC000012A05DBCD212046BDE81040FFF7F0BD10BD0B490A6A10180A7802B109E080224E
:205EE00082F3118800BF00BF8968C86004200874C9E7002282F311880A6A121AFCD4704756
:205F000030000020402828BF2B3806D2212808BF142002D0142808BF1320C0B2704750F8EA
:205F2000041B61B150F8042BD30744BFA9F101039A18002342F8043B091FFAD1EFE7704770
:205F40004FF0120100FB01F0401EFDD57047FEE72DE9F04F83B00446884693461F465D46B6
:205F60008F4800EA0709DDF830A00D9E5FEAC87014D59DB10196CDF8009053460122206917
:205F8000D4F81CC0DCF830C0E04700286AD42D1A012865D10AF1010A08F10108780051D4BD
:205FA0005FEA887018D5022D16D3019649F0010000905346012241462069D4F81CC0DCF8F2
:205FC00030C0E04700284DD4A5EB4005012847D10AF1020A08F10208002F19D4042D17D30A
:205FE000AF08019649F00200009053463A4641462069D4F81CC0DCF830C0E047002831D49F
:20600000A5EB8005B8422BD10AEB870A08EB8708022D17D36F08019649F0010000905346E3
:206020003A4641462069D4F81CC0DCF830C0E047002817D4A5EB4005B84211D10AEB470A33
:2060400008EB470865B10196CDF8009053462A4641462069E469246BA047002802D42D1ADB
:20606000ABEB050003B0BDE8F08F2DE9F04782B004460D4691461E464F46494800EA060A37
:20608000DDF82880E80712D58FB1CDF800A0434601222069D4F81CC0DCF834C0E047002814
:2060A0007CD43F1A012877D108F101086D1C700065D4A80716D5022F14D34AF00100009015
:2060C0004346012229462069D4F81CC0DCF834C0E047002862D4A7EB400701285CD108F1FF
:2060E0000208AD1C002E31D4042F2FD3E069D0F838C05FEA0C0011D0BAF1000F0ED100206D
:2061000000904346BA0829462069E047002845D4B7EB800715EB800508EB8008BE0815D070
:206120004AF0020000904346324629462069D4F81CC0DCF834C0E04700282FD4A7EB8007BF
:20614000B04229D108EB860815EB8605022F16D37E084AF0010000904346324629462069E3
:20616000D4F81CC0DCF834C0E047002816D4A7EB4007B04210D108EB460815EB46055FB12E
:20618000CDF800A043463A4629462069E469646BA047002802D43F1AA9EB0700BDE8F68782
:2061A0000000FF3F704700002DE9F04180460C46B54D286830B94046B44A1268D269BDE832
:2061C000F0411047B24E3368CBB1B2490968CF1ABC4238BF274697B13A464146181800F0FA
:2061E0004DFF306839183160B844E41B21D02868A64A1268D26990470020306000E0C4B1DC
:20620000A4480068401E34EA000708D0394640469E4A1268D2699047B844E41B09D022461A
:20622000414630682B68C01800F028FF306820183060BDE8F08138B5934C206840B9954D18
:2062400092480068406A8047286000F086FF206031BD20B10021002206C040F8081D704732
:206260008D48012101707047002918BF002809D08A4A1268002A18BFFFF796BF834A12681D
:2062800052691047704738B504460D46FFF7D3FF29462046BDE8344086E701B5FFF7CBFF12
:2062A000042100A8FFF780FF01BD30B589B004462022C9B200A8FFF7FBFB212C2CBF2025A8
:2062C0002546FFF7B8FF294600A8FFF76DFF641BF3D109B030BDF0B589B004462022C9B25F
:2062E00000A8FFF7E5FB694D6C4E212C2CBF2027274630680028394600A802D0FFF754FFC2
:2063000002E02A6852699047E41BEED109B0F0BD0021E0E7614A1268002A18BFFFF744BF4C
:206320005A4A12689269104701B5012101E001B5022100A8FFF798FF01BD01B50421F8E7AE
:2063400010B55148006800281EBF514C2168002900D092E04D480068006ABDE8104000473E
:2063600009B900207047494A12689268104730B589B00446212C2CBF20252546294600A8BF
:20638000FFF7EEFF08B9641BF4D109B030BD3F4A1268D26810470421E2E710B582B00446AC
:2063A00000A800220260FFF7DBFF9DF800109DF8012041EA02219DF8022041EA02419DF87E
:2063C000032041EA0261216016BD30480068006800472E4800684068004780B5304800F0BF
:2063E000FDFE00F080FF29482E49016001BD2C4801F054B82848002101702448006800697C
:20640000004701F02BB838B50446254D03E00221284601F06BF801F021F858B101F01BF8D9
:20642000012807DB19481F49016001212046FFF797FF32BD01F012F80028E8D0002100A880
:2064400000F0FEFF0028E2D54FF0FF3032BD13490860F0E61148016801B9704710B5491E1A
:20646000016009D10848006800281EBF084C2168002900D001E06DE710BD044A12685269C9
:2064800090470020206010BD3808002044080020400800203C080020C418002034080020C8
:2064A0002C08002020F800082DE9F14F86B04FF0FF35082104A8FFF753FFDDF810A005982A
:2064C000010C0904039180B20290834600F037FE029E864288BF0646B6F5805F84BF360A54
:2064E0003602304600F039FE019008B938E0AA44BBF1000F01D1029D3AE0D846B34588BFCC
:20650000B046ABEB080B5546002741460198FFF73EFFB946FFF759FFA8EB0001A1EB09044D
:2065200018B1402CF6D3A00984017FB9019848440090039B224629460698C769D7F808C068
:20654000E0470746A74208BF00276519A144C145E0D117B14FF0FF3502E04546002DC6D566
:20656000BBF1000F1CBF5846FFF701FF019810B1019800F015FE2846FFF7DFFE07B0BDE85E
:20658000F08F38B50446A0688509AD010BD02946206962688018FFF7BDFE206928182061D1
:2065A000A068401BA06031BD2DE9F14F90B0082103A8FFF7D5FEDDF80CA00498010C090420
:2065C000029185B22E46112D0BD300F0B8FD8046281D404538BF8046404600F0BEFD070037
:2065E00002D10AAF4FF01408A8F10409B14507D2B9F5806F05D94FEA59204FEA402900E090
:20660000B146DFF8180805904FF400700890069700200790099005A801900097029B4A46BD
:2066200051461098C469D4F804C0E04704460998012C02DA361A1BD11DE0A244361BA4EB44
:20664000000B0CD12946E019FFF702FA0BF104010998C019FFF75EFEFFF772FE0EE0594638
:20666000C019FFF757FEFFF76BFE4C45BCD0AC1B3046FFF74DFE2046FFF75FFE0AA88742C8
:206680001CBF384600F08CFD11B0BDE8F08F70B5D4B00446052100A8FFF762FE9DF8001087
:2066A00002A8FFF75DFE9DF80100F8B19DF8020068B1DFF86C57296A46182069E169096A1F
:2066C000884740B9286A301AF7D5002003E02069E169096A88471290012809DA12980128B1
:2066E00011DB9DF800008000011D0DE0012012909DF8003013AA02A92069E469E468A04795
:206700000028EBD51290042112A8FFF7ADFD54B070BD70B5D2B0054602E001A8FFF7A4FD2B
:20672000002442AE012100A8FFF71AFE9DF80000FF281EBF06F8010B641C402CF2D12346B2
:2067400001AA42A92869EE69F668B047A1009DF80020FF2AE1D101AA42F82400091D01A85D
:20676000FFF782FD52B070BDF0B5D3B00446002542AE02AF0BE0042101A8FFF7F1FD9DF80B
:20678000000006F8010B019847F8040B6D1C012100A8FFF7E5FD9DF80000FF28EBD12B46F4
:2067A00002AA42A92069E4692469A047FFF7C5FD53B0F0BD10B582B00446012100A8FFF78F
:2067C000CFFD9DF800102069E26952699047FFF7B4FDA06D18B10121204600F0E5FF13BD39
:2067E00080B501460869C9698969884716E010B504462069E169C9698847FFF79EFDA06D42
:2068000028B100212046BDE8104000F0CDBF10BD80B501460869C969096A8847BDE8024092
:20682000FFF78BBD10B584B0044600200390142002900020019004E09DF8001003A8FFF783
:206840008FFD012100A8FFF78BFD9DF8000038B9039B019A02992069E469646AA04766E039
:2068600001210DF10100FFF77BFD9DF801000128E2D00AD3032804D007D29DF8001002A814
:20688000DDE79DF8001001A8D9E79DF80000FFF76EFDD6E710B584B004460020039001205C
:2068A0000290019004E09DF8001003A8FFF758FD012100A8FFF754FD9DF80000E8B9039953
:2068C0002069E269926A9047DFF854050178491C01700120FFF7FDFA01992069E26952695B
:2068E00090470298FFF7F5FA2069E169C96988470446FFF748FA204619E001210DF101006C
:20690000FFF72EFD9DF801000428CCD00AD3062804D007D29DF8001002A8C7E79DF800109E
:2069200001A8C3E79DF80000FFF721FDC0E7FFF704FD04B010BD2DE9F04D86B00446042144
:2069400002A8FFF70DFD00F0FAFB0299814202D300F0F5FB02900298052834D300F0FDFB4D
:2069600005460298001F05F1040887B23E46DFF8B0A404F1100BB6B10020019000903B46F0
:20698000424600212069DBF80CC0DCF848C0E047002848BF0020361A80440398DAF8201023
:2069A000401A0128E7DA0020ABF81600012084F88C00B81B2860011D2846FFF755FC2846F5
:2069C00000F0EEFB02E00020FFF7B7FC06B0BDE8F08D2DE9F04E88B00446082103A8FFF7BB
:2069E000BFFCBDF80C008000BDF812108842B8BF0846001D00F0B1FB5FEA0009BDF8121053
:206A00000AD10846FFF7B3FC6FF483700290042102A8FFF729FC5FE009B1FFF7A1FC002624
:206A20009DF8110088BBBDF80E00ADF81400BDF80C6009F104073546DFF8E4A304F1100BE2
:206A4000CDB102200190BDF81400009033463A4600212069DBF80CC0DCF848C0E04700283F
:206A600048BF00202D1A07EB80070698DAF82010401A0128E4DA0220ABF81600012084F8D6
:206A80008C00701B029006461AE0012815D104F1100702203883BDF80C300190BDF80E00CA
:206AA0000090BDF81200C3EBA00009EB800201212069FC68A46CA04701E0DFF86803029000
:206AC00002994846FEF7C4FFB000011D4846FFF7CBFB484600F064FB08B0BDE8F08E10B540
:206AE00082B00446012100A8FFF73AFC9DF800102069E269D26B90470FE01CB50446082164
:206B000000A8FFF72DFC00200099012903BF019941F00101C4F88810C248FFF70EFC13BD0E
:206B200010B50B46012103B1BF4900283BD043680BB141F0020183680BB141F00401C3688B
:206B40001C0018BF41F0080104690CB141F0100144690CB141F0200184690CB141F04001C4
:206B6000C4690CB141F08001046A0CB141F48071446A0CB141F40071846A0CB141F4806156
:206B8000C46B0CB141F480510BB141F40051836C0BB141F4904141F4C031436C180002D051
:206BA0001046984701460846BDE81040FFF7C5BB00B583B001210DF10100FFF7D1FB0121B3
:206BC00000A8FFF7CDFB0220FFF7D1FB60B901A99DF801009DF8002042EA002000F0B0FE73
:206BE00000220199FFF79CFF03B000BD00B583B001210DF10100FFF7B3FB012100A8FFF76B
:206C0000AFFB042102A8FFF7ABFB01A99DF801009DF8002042EA002000F092FE029A019968
:206C2000FFF77EFF03B000BD30B5A5B09022002101A8FEF73DFF01210DF10200FFF790FBE7
:206C400004E09DF8001001A8FFF7A7FB012100A8FFF786FB9DF8000030B901A99DF802006A
:206C600000F0D6FE25B030BD01210DF10100FFF777FB9DF801000728E3D02CD3092807D086
:206C800002D30A2809D026E09DF8001002A8D5E79DF800100DF10900D0E79DF800000828DB
:206CA00034BF04460824214603A8FFF759FB9DF80000051BCAD0284600F04FFA069020B1B2
:206CC0002946FFF74DFB0795C0E79DF80000001BFFF74DFBBAE79DF80000F9E770B582B069
:206CE000022100A8FFF73CFB9DF801409DF8000000EBC0014D4A02EB011504282ADA05F1C5
:206D00001006F16831B3112C24D2C0EBC001484800EB81004249096AC160286910B928469E
:206D200000F025FE012085F88C00F068C26C414850F8244010000AD0012128699047284679
:206D4000A04700212869F268D26C904773BD2846A04773BDFFF784FA73BD2DE9F047012460
:206D6000DFF8C8A0344D0AF28D06042742F21078DFF8AC90DAF8100000281CBF9AF88C00C7
:206D800000281CD03078D0B928684044D9F82010401A012813DB504600F037FD00B9002491
:206DA000504600F0E8FF00B900240AF11000C068016D080003D05046884700B900240AF1D0
:206DC000900A90361C357F1ED4D12046BDE8F087411C04BF0020042100EBC002134B03EBE0
:206DE0000212136913B1002382F88C30401C8842F2DB704738B50C4600280ED400EBC00147
:206E00000A4800EB0115002C284602D100F0A6FC01E000F0B8FC85F88D4031BD8365000873
:206E200030000020FAFEFFFF0100004020100020A80F0020DCF70008B40F002010B50C46CF
:206E4000DB0001E010B50C460146204601F014FA002010BD002070472A4801210161016890
:206E60000909090141F008010160416821F4700141F480014160416821F0706141F0806138
:206E80004160416821F4702141F4802141601E490A681201120942F080420A604FF4005192
:206EA0004161416821F4700141F4401141600020704710B5154C24686468A04710BD144974
:206EC000016012218180704780B5124988423CBF114988420BD211490918B1FBF0F00938C8
:206EE0000C2190FBF1F0002803D5002001E04FF0FF300B4908600B4808B1FFF7ADFF0A48CE
:206F000002BD0000000C0140000801404801002000A24A0401093D0000093D00FFA14A0448
:206F2000B0070020596E000868F90008002201F099BC000000487047C81800206846704776
:206F400006490A78521C0A7000224A7082F311880349087008780028FCD17047300000204E
:206F6000B118002035488168002904BF08B008E0EFF30982A2F12802036882E8F84F836805
:206F80005A60FEF756FE816879B14A6892E8F84F036002F1280282F30988906928498142B5
:206FA00002D013F47F4F43D07047264826490968401A80F308884FF08071C1612349816115
:206FC0007FF0060E704701BC2046DFF884E000BDFEE7204800681C490968401A203820F00F
:206FE000070080F308884FF000011448417081F3118862B600F018F8FEE703680CB44FF0C6
:20700000000141704FF0000181F311881249134A0A604FF0800181F311880CBC03607047A0
:207020000D490E4A0A6070470B490C4A0A6070474FF0000181F31188704700003000002062
:2070400016700008A81A0020ACFA0008A5F40008D16F00080040000804ED00E00000001000
:20706000EFF3108072B604490A6842F47F020A6080F31088704700BF20ED00E062B38B0781
:2070800008D0521E11F8013B00F8013B00F024808B07F6D1830740F0208000BF103A07D305
:2070A00030B4B1E83810103AA0E83810F9D230BC530724BFB1E80810A0E8081044BF51F860
:2070C000043B40F8043BD20724BF31F8022B20F8022B44BF0B7803707047083A07D3B1E83E
:2070E0000810083A40F8043B40F804CBF7D25307E4E7000010B400224260016027490A68FF
:2071000012B9086010BC70470A4600E0221D14680CB1A042FAD24460106008680028F1D0F6
:2071200000E0084641680029ECD0026813188B42F7D14B684360096889180160F2E70020A7
:207140001649096804E00A68904238BF104649680029F8D100B1083870470021C01DC008D9
:20716000C00008300D4A00E01A1D1368A3B1D3F800C0604508D21946C31813600A68121A85
:207180001A604A685A6004E08445EDD119465B68136009B141F8080B0846704728080020AE
:2071A00000281CBF50F8081DFFF7A4BF7047C91D21F0070101F1080250F8081D0260891AE2
:2071C000101897E710B504462068FFF7E9FF0020206010BDC908C9008CE7000010B58021B4
:2071E00081F3118800BF00BF074C6178491C617008220021FEF75CFC6078401E607060782C
:2072000008B980F3118810BD30000020F0B583B000208DF800000024142501F0C3FD00B148
:20722000102501F065FD08B125F01805012201210DF1010001F0E5FD9DF80100012802D033
:20724000022806D00BE00422002101A801F06CFE13E00422082101A801F0D3FD0DE0854892
:207260000190102D09D10122002100A801F0C9FD9DF80000042838BF012401987E4E0C274E
:2072800002AA0A21FEF71BFC0299303106F801197F1EF5D140F2011024B19DF8000000F2F5
:2072A00001100CE0102D0AD0142D08BF40F2051005D0042D0CBF4FF4837045F480506F49A3
:2072C000488003B0F0BDFFF792B810B50C4604F00300022818BFFFF78AF8600702D56848D1
:2072E0000121017010BD00B583B0FFF78FFF01F0E8FF02F036FE01F0FBFCF0B90090002380
:2073000040220221012001F047FF8DF80400402000905C4B40220221002001F03DFF8DF819
:20732000050001A802F009FF5749002002F045FF00225649564802F023FB504802F002FDB7
:2073400001F0F9FF03B000BD80B54FF47A71012002F0D2FF01F0ADFC1420FEF7BAFDBDE86E
:20736000014001F098BC10B582B00C46494909680091002322460146002002F08EFEA04258
:2073800006D0002001F0AEFBBDE8134001F05FBC13BD10B582B03F4C2068009001230022A9
:2073A0000021084602F079FE21680020BDE81C4002F00ABF10B50C4636490B6822460146D8
:2073C000002002F05FFEA04206D0002001F08AFBBDE8104001F03BBC10BD38B504460D46BC
:2073E0002C480168002002F0F5FE20B1002001F079FB01F02CFC4FF0FF30009000232A46AB
:207400002146002002F049FE002806D5002001F069FBBDE8314001F01ABC31BD10B50C4652
:207420001C490B6822460146002002F061FEA04204D0002001F056FB01F009FC002010BD59
:207440000A460146002002F05DBE002002F06EBE002002F065BE002002F05BBE80B502F0A3
:20746000CCFA00F00300022801D1012002BD002002BD000040E201001B00002020000020FA
:20748000C318002054080020C7720008CB720008480800200C0000204020704738B5044605
:2074A000802080F3118800BF00BF0F4D6878401C687001202071206868B12878401C28704B
:2074C000204602F02FFF20B9607901281CBF00202071FEF758FC6878401E6870687808B9BF
:2074E00080F3118831BD00BF3000002070B50446802080F3118800BF00BF104D286A0E18D5
:20750000207980B932464821204602F033FFA868C068301A012801DA012070BD802080F347
:20752000118800BF00BF607901281CBF00202071687808B980F31188002070BD300000205C
:20754000F2B582B00446256E606E216D88421ED0042202A92846FFF791FD2D1D002601E04D
:207560004D19761C206B864215DAE06A00EB0617002001900095BB687A6839682046D4F861
:207580001CC0DCF804C0E04779688842E8D04FF0FF3003B0F0BDA06D216D09188D4208BFCD
:2075A00005462566606EE16B08186066002003B0F0BDF8B50446042100A8FFF72FFF606EBF
:2075C00010B9FEF7BAFEF1BD0098E16BB0FBF1F00090E16B48430090606E0099884288BFA8
:2075E00008460090042100A8FEF74DFEE66D009D02F000FF206DA16D4018871BBD4238BF34
:207600002F4639463046FEF73EFEBE19A06D216D09188E4208BF0646ED1BEBD102F0EDFEB8
:20762000FEF78EFEE665606E0099401A6066F1BD70B504460025042104F13000FFF7EEFE89
:20764000E562206B0B2804D20001FFF786FDE062C8B96FF00105206B00010830FEF787FE6F
:20766000E06A08B1FFF79CFDA06D08B1FFF798FD3C22002104F12C00FEF71AFA2846BDE86B
:207680007040FEF75ABE216B0901FFF7C7FE042104F13400FFF7C2FE042104F13800FFF790
:2076A000BDFEE563206B012808DBE16A091DE26B51F8103B9A18E263401EF8D1E06B001D58
:2076C000E063616B642938BF64217C4A5043B0FBF1F6A06D30B1216DB1421ED0FFF760FDF7
:2076E0002565A565FFF72BFDE16B00EB400250000A22B0FBF2F0B0FBF1F04843864288BF30
:2077000006468E4203D33046FFF727FDA065A06D10B96FF00105A3E726656565A06DE06576
:20772000A06D20664FF47A7694F83800C00706D502F08CFE616B091890FBF6F206E06048B3
:20774000006A616BB1FBF6F109180246E2646064216400212046FFF7F3FE8FE710B5044675
:2077600094F85400C0070DD494F83800C00702D502F06CFE01E05248006A616C4018A16CAC
:20778000401A606410BD10B5044694F85400C00709D494F83800C00702D502F057FE01E0E1
:2077A0004748006AA06410BD90F88D2002B1704710B590F8382002F0010279B900F1380467
:2077C000207FC00720D412B102F040FE01E03C48006A2061E06940F0010014E0012913D190
:2077E00000F13804207FC0070ED512B102F02EFE01E03348006AE16840182169401AE060A7
:20780000E06940084000E06110BD70B504460125206B00281CBFE06B00284CD0002594F826
:207820003800C00702D502F011FE01E02448006A216C091A01293EDA626B94F83830DB0725
:207840005CBF4FF47A73B2FBF3F2511848BF0021081820641A4E306AE16C814219D0E064D7
:207860002069E169096A884740B994F85400C00714D501212046FFF797FF0FE001281AD153
:2078800094F85400C00716D400212046FFF78CFF11E094F8540010F001000CD194F83800DC
:2078A000C00702D502F0D2FD00E0306A616C411A2046FFF745FE284670BD0000A086010066
:2078C0003000002010B58AB00446012100A8FFF7A5FD9DF80000E0B1022807D002D3032886
:2078E00013D027E02046FFF7A3FE23E00020206304F13000C16A026B8A422FBF501A006AB0
:20790000401A1018FEF719FD14E02046FFF751FE10E001900A2002904FF47A70039000201E
:20792000049005900690079008900990242101A8FEF79AFC012084F88C000AB010BD000097
:20794000002240F2011398421CBF40F20133984207D040F2016398421CBF40F60163984234
:2079600000D1564A09B1002008601046704770B50446FFF7E4FB0546B5F5805F02DAFFF75D
:20798000DEFB0546B5B12846FFF7E7FB06462A4631462046E369DB6A9847002805D4291ACA
:2079A0003046FFF704FC266170BD3046BDE87040FFF7F6BB70BD10B500EBC001404800EB24
:2079C0000114206918B3A06D18B1FFF7E9FB0020A065E06A18B1FFF7E3FB0020E062606F51
:2079E00018B1FFF7DDFB00206067A06E18B1FFF7D7FB0020A066606918B104F11400FFF7B3
:207A0000E1FB04F11000BDE81040FFF7DBBB10BD70B50C4604282ADA2168090EFF2908BF01
:207A20000021227942EA012500EBC001244A02EB0116FFF7C0FF002040F201118D421CBF57
:207A400040F201318D4207D040F201618D421CBF40F601618D4200D11848E06190222146EC
:207A60003046FFF71BFB3046BDE870407FE770BD30B583B0044612480025019500931346C3
:207A80000A462146C4696468A04703B030BD10B582B004460A48009313460A462146C4694C
:207AA000A468A04716BD06490869C969096A084703490869C969C9690847000040F700089D
:207AC0002010002081684268891A44BFC06841180846704741688268891A491E44BFC068CF
:207AE0004118084670472DE9F04104460D469046FFF7F0FF404503DA2046FFF7EBFF80461B
:207B00004646A068E16822688918091A37468E42C8BF0F463A462946FFF7B0FAA06838182A
:207B20007D19F61B2168E2685218121A08BF0846A060002EE5D14046BDE8F081F8B50446A9
:207B40000E4602F057FCDFF81057284602F0EFFC6068E168226889180F1ABE42B8BF3746AA
:207B60001FB13946FEF78FFBF61B1EB131462068FEF789FBBE192046FFF7A4FFB04203DA3A
:207B80002046FFF79FFF06467EB1E068216840186268831A9E42D8BF33469A186260F61A6C
:207BA000801A08BF6160002EEFD1284602F0DEFC02F023FC2046FFF785FF054661682068EE
:207BC000E2681218521AAA4208DB012DA4BF2A4602F0E8FC206860602818A060F1BDF0B544
:207BE00083B0044615461E46089B0020019000962046E7697F68B847A84218BF4FF0FF3094
:207C00002AD1607938B37069FDF7F2FE70613069FDF7EEFE306106F11805002618E028684B
:207C2000FDF7E6FE28606868FDF7E2FE6860A868FDF7DEFEA860E868FDF7DAFEE86028699B
:207C4000FDF7D6FE28616869FDF7D2FE6861761CE06E8642E3DB002003B0F0BD2DE9FC413C
:207C600004460025082100A8FEF77AFB01980128B8BF4FF0FF3563DB0026DFF8E085474681
:207C8000A7421CBFB86E002826D0786F20B338682168884202BF3879217988421CD1042246
:207CA00004F1080107F1080002F0B8FCA0B906EBC60008EB0016706F10B1FFF771FA75672A
:207CC000B06E10B1FFF76CFAB5662022002106F16800FDF7EDFE03E0761C9037042ECFDB95
:207CE000666F66B13046FFF75BFAA06EFFF758FA2022002104F16800FDF7DAFE2E460198E8
:207D000000EB4001CF003846FFF727FAA0663A460021FDF7CDFEA06E60B1FFF710FA052128
:207D2000B0FBF1F84046FFF718FA060017D16FF0010505E06FF0010536B13046FFF730FA07
:207D4000A06E08B1FFF72CFA2022002104F16800FDF7AEFE2846FEF7F0FABDE8F3810098E2
:207D600020670198E066C4F880806667A667E66784F88450EEE72DE9F04F8FB08246DFF862
:207D8000E004016829B901210160DFF8CC0402F0B5FB0AF17404DAF86C0000281CBF2068AC
:207DA000002800F012819AF88400002840F00D81DAF80000000E08281CBF0C280F2801D1F4
:207DC000022000E0002000060C902046FFF782FE04283EDAFFF7B3F90390E06803998842DC
:207DE00080F0F3800846FFF7B8F9060000F0AC81DFF86454284602F09AFB6168A2688A4265
:207E000008D3521A3046FFF739F9A0686168401A801913E0E2682368D218571A3A463046A0
:207E2000FFF72CF92168A068421AB819FFF726F9E068A1686268891A89194018A0606660D6
:207E40000398E0602068FFF7ABF92660284602F08DFBDAF86C0000EB4001C80000F1180676
:207E60003046FFF77AF9050000F098800C9800902B463246DAF870105046FFF7B0FE002845
:207E80000DD42878532804BF6878452807D1A878472802BFDAF86C102869884203D02846C4
:207EA000FFF77EF950E105F11807DAF8680002460026012945DB4FF0FF334FF0000CE0463B
:207EC000D2F80890B9F1000F12D1D7F808E0BEF1000F32D0BEF1807FC8BF9C46D7F81080B7
:207EE000C645B8BF9C46D7F80C80C6451CDA52E0D7F804E0D2F804B0DE4518BF9C46D7F8B4
:207F000008E0CE4518BF9C46D7F81090CE45B8BF9C46D7F80C90CE45B8BF9C46D7F800E04C
:207F2000D2F80090CE4501D04FF00108BCF1000F30D1B8F1000F00D0012618321837491E4F
:207F4000BBD1296901EB4102D20005F11801FFF795F82846FFF724F966B3286900EB400119
:207F6000CE00FF208DF8080004A82ECC2EC0103C02AD04A8FFF7AEFD864211DA6E70300AE0
:207F8000A870032202A904A8FFF7ADFD3246DAF868100AE0D0D52846FFF702F90020D5E028
:207FA00000206870A870032202A904A8FFF79BFD0698A060DAF86870002602AD2046FFF72E
:207FC00089FD8046B8F1040F01DA0120BEE079680891386940180990FA6851180A91B9686C
:207FE0000B911837002900F0A7800D909D488045A8BFDFF87482A8F1030808A8FFF762FD32
:20800000404503DA08A8FFF75DFD8046B8F1000F00F19A8000F0908004A8B4E80E10A0E887
:208020000E10103C8DF8086085F801804FEA2820A870032202A904A8FFF755FD0698079950
:20804000049A8918091AC1468845C8BF894609990B9A089BD218521A9145A8BF914600221E
:20806000019200900C9B4A465046DAF81CC0DCF804C0E0478346CB4566D104A8FFF72AFDCA
:20808000484503DA04A8FFF725FD00E048460799049A8918069A8B1A9842D8BF03469A18B4
:2080A0000692C01A891A04BF049906910028EED108A8FFF707FD484503DA08A8FFF702FD14
:2080C00000E0484680B10B99089A8918099A8B1A9842D8BF03469A180992C01A891A04BF8B
:2080E000089909910028EED1B8EB0908A6D1BBF1000F29D40698A06009980D9988421BD0E1
:2081000006EB4601DAF8702002EBC10101F128080899401A03909AF8050010B103A8FDF76F
:2081200059FC03A800900C9B042241465046DAF81CC0DCF808C0E0470020761CDAF86C1054
:208140008E42FFF63BAF01E04FF0FF300FB0BDE8F08F000070B584B004464148016821B9CF
:20816000012101603C4802F0C9F9012102A8FFF755F99DF8080005280AD8DFE800F0030EC0
:2081800012193C4603200090042100A8FEF76CF8012084F88C0004B070BD2046FFF75EFD98
:2081A000F6E7012084F884000020FEF7C6F8EFE70025042101A8FFF731F904F174063068FE
:2081C00000281CBFE06E002803D03046FFF77AFC05462846FEF761F8002D1CBF01980028A1
:2081E00006D00146A942C8BF29463046FFF7A6FCFEF7A6F8CCE704F174000021026812B176
:20820000FFF760FC01460846CFE7042100A8FFF705F904F17405286800281CBFE06E002889
:2082200011D02846FFF74EFC00990029E0D068B10E468642C8BF064631462846FFF77EFCE0
:208240000098801B009000980028D1D0FE210098FEF72BF8CCE700001009002020100020EF
:20826000200900200300010002000100000000002DE9FF5F0E9C07E02DE9FF5F014C24685C
:2082800002E000BFB00700209DE80007012255039603DFF8CC757A6822F0706B002C00D5DE
:2082A00084E1600840008646641C6408A44600BF18F8011B19F8010B000208431C00082B6B
:2082C00005D3FF2904D0002900D1A9E0082430E14BF04071400A34BF7E613E6179606146E3
:2082E000491EFDD53D61714600BF00BF00BF00BF491EFDD57D616146491EFDD5400834BFC2
:208300007E613E615B1E6146491EFDD53D61714600BF00BF00BF00BF491EFDD57D61614677
:20832000491EFDD5400834BF7E613E615B1E6146491EFDD53D61714600BF00BF00BF00BFA1
:20834000491EFDD57D616146491EFDD5400834BF7E613E615B1E6146491EFDD53D617146BF
:2083600000BF00BF00BF00BF491EFDD57D616146491EFDD5400834BF7E613E615B1E614631
:20838000491EFDD53D61714600BF00BF00BF00BF491EFDD57D616146491EFDD5400834BF21
:2083A0007E613E615B1E6146491EFDD53D61714600BF00BF00BF00BF491EFDD57D616146D7
:2083C000491EFDD5400834BF7E613E615B1E6146491EFDD53D61714600BF00BF00BF00BF01
:2083E000491EFDD57D616146491EFDD5400834BF7E613E615B1E6146491EFDD53D6171461F
:2084000000BF00BF00BF00BF491EFDD57D616146491EFDD50AF8010B5B1E49E700BF0000F3
:208420004BF0806179606146491EFDD53D61083B002000BF00BF7146491EFDD561467D6173
:20844000491EFDD5BA686146491EFDD53D613240920B104300BF7146491EFDD57D616146AD
:20846000491EFDD5BA686146491EFDD53D613240520B104300BF7146491EFDD57D616146CD
:20848000491EFDD5BA686146491EFDD53D613240120B104300BF7146491EFDD57D616146ED
:2084A000491EFDD5BA686146491EFDD53D613240D20A104300BF7146491EFDD57D6161460E
:2084C000491EFDD5BA686146491EFDD53D613240920A104300BF7146491EFDD57D6161462E
:2084E000491EFDD5BA686146491EFDD53D613240520A104300BF7146491EFDD57D6161464E
:20850000491EFDD5BA686146491EFDD53D613240120A104300BF7146491EFDD57D6161466D
:20852000491EFDD5BA683240D20910430AF8010BBEE6002C34D02246400815D3010A34BFC8
:208540007E613E614BF0407179606146491EFDD53D617146491EFDD561467D61491EFDD5AC
:20856000641EE9D114E000BF4BF0806179606146491EFDD53D617146491EFDD561467D6124
:20858000491EFDD5B968314049040843641ED3D12021891AC8409B1A0AF8010B00D087E666
:2085A0004BF000617960BDE8FF9F00BF18F8011B19F8010B000208431C00082B05D3FF295F
:2085C00004D0002900D19DE0082413E1400A34BF7E613E614BF040717960083B1AF1010A57
:2085E00000BF3D6100BF00BF00BF00BF00BF00BF00BF00BF7D6100BF00BF400834BF7E61B0
:208600003E6100BF00BF00BF3D6100BF00BF00BF00BF00BF00BF00BF00BF7D6100BF00BF8C
:20862000400834BF7E613E6100BF00BF00BF3D6100BF00BF00BF00BF00BF00BF00BF00BFAE
:208640007D6100BF00BF400834BF7E613E6100BF00BF00BF3D6100BF00BF00BF00BF00BF6F
:2086600000BF00BF00BF7D6100BF00BF400834BF7E613E6100BF00BF00BF3D6100BF00BF4F
:2086800000BF00BF00BF00BF00BF00BF7D6100BF00BF400834BF7E613E6100BF00BF00BF0E
:2086A0003D6100BF00BF00BF00BF00BF00BF00BF00BF7D6100BF00BF400834BF7E613E610F
:2086C00000BF00BF00BF3D6100BF00BF00BF00BF00BF00BF00BF00BF7D6100BF00BF400823
:2086E00034BF7E613E6100BF00BF00BF3D6100BF00BF00BF00BF00BF00BF00BF00BF7D6158
:2087000054E700BF4BF0806179603D61083B002000BF00BF00BF00BF00BF00BF7D6100BF52
:2087200000BFBA6832403D61920B104300BF00BF00BF00BF00BF00BF7D6100BF00BFBA6860
:2087400032403D61520B104300BF00BF00BF00BF00BF00BF7D6100BF00BFBA6832403D6151
:20876000120B104300BF00BF00BF00BF00BF00BF7D6100BF00BFBA6832403D61D20A104352
:2087800000BF00BF00BF00BF00BF00BF7D6100BF00BFBA6832403D61920A104300BF00BF64
:2087A00000BF00BF00BF00BF7D6100BF00BFBA6832403D61520A104300BF00BF00BF00BF84
:2087C00000BF00BF7D6100BF00BFBA6832403D61120A104300BF00BF00BF00BF00BF00BFA4
:2087E0007D6100BF00BFBA683240D20910430AF8010BDBE6002C2DD0A4460AE04BF0806173
:2088000079603D613240520410437D61641EBA6813D04008F2D300BF010A34BF7E613E6119
:208820004BF04071796032403D6152041043641E7D6106D04008EFD2E0E7400832405204A4
:20884000104362462021891AC8400AF8010B9B1A00D0ABE64BF000617960BDE8FF9F000055
:20886000000C014000B500BF130096469446103928BFA0E80C50FAD85FEA417C28BF0CC0CF
:2088800048BF40F8042BC90728BF20F8022B48BF00F8012B00BD00000020704700207047D8
:2088A000002070470020704742F21070704730B585B0DFF86C04002101604160DFF86404DC
:2088C000006800904FF48060FEF747FC040064D04FF40072002100F027FB04F120000121EE
:2088E000802210F8013BFF2B18BF0021521EF8D149B9DFF8340401F0F1FEFF224FF4007171
:20890000204601F00DFF20680090DFF8205400222946FDF7D4F80090206810F1010F02D045
:2089200000984D2836D0DFF808040168019101A942684A608068886000220C2101A801F08F
:2089400023FF009000AA2946FDF7B9F80098DFF8E4130818009020604FF40071204600F007
:208960000CFBDFF8D4534FF4806229462046FEF785FB2068000C000440F4807000902060B7
:20898000284601F0ABFE00234FF480622146284601F07EFE2046FEF703FCDFF8A0434FF0F2
:2089A000FF30E060A0600520FDF793FA0020E060A0600520FDF78DFA0020A061606114208C
:2089C0002061A06820F00400A060606940F004006061A06820F00800A060606940F008001B
:2089E0006061DFF85C0301680909090141F004010160416821F4700141F480014160416835
:208A000021F0706141F080614160DFF838130A681201120942F080420A600A6822F47002A7
:208A200042F480020A60426822F4702242F4802242600A6822F0706242F080620A604A68C2
:208A400022F4706242F480624A600A6822F4706242F400620A600A6822F4704242F400425E
:208A60000A604A6822F0F00242F040024A6004220A6108220A614FF40042426142681201AD
:208A8000120942F040524260206820F0E06040F0C0600090206048680009000140F009002A
:208AA000486000F006F94FF4FA70FDF712FA05B030BD10B1012807D002E0A34801210160BF
:208AC000A248006820B12FE0A04801210160FAE79F489D4909680029016821F0F00100D076
:208AE0001BE016E010B1012807D002E09648002101609648006818B116E09448002101601F
:208B00009348914909680029016821F0F00100D003E041F040010160704741F010010160BB
:208B20004FF40071016170478948016821F0F00141F0100101604FF40071C160704740F6C7
:208B4000E44070478348006800207047FF2070478148006800F0200070477F48006800F043
:208B6000800070477C48006800F0400070477948006800F001007047FF2070477047704796
:208B80006F480121416101680909090141F003010160704710B56A4C012020610A20FDF74D
:208BA000CFF920680009000140F00800206010BD634801680909090141F004010160416866
:208BC00021F4700141F480014160416821F0706141F080614160416821F4702141F4802155
:208BE0004160584801680901090941F080410160704770477047594800E059484FF4804111
:208C000001607047574800E05748802101607047524800E052484FF400510160704750480D
:208C20004FF400514160016070475048006870474F490978012908BFFEF741B94D49016040
:208C4000302181807047FFE74FF0FF307047344800684949884208BF00F04FF8802080F3AF
:208C6000118800BF00BF00F024F84448FDF768F9434844490160FEE710B50C4642490022CE
:208C80000A60012803D12046FEF71EF900E03F4836490C6010BD3E48016821F00401016076
:208CA000C16841F00401C16029484FF40041C16015E03748016821F004010160C16841F070
:208CC0000401C160C16841F00101C1603148016841F0007101601E484FF400410161016857
:208CE0000901090941F04051016070472A487047002070476FF00100704710B50120274911
:208D00000A684B688C68C9681A402240114011F1010F03D0224801F0E1FC002010BD0000F2
:208D2000F84F00200400000800F8010880969800E8F7FF1F8044E52D00D801080410024007
:208D4000000C014000080140B8070020BC07002004080140080C014008080140140C014067
:208D6000100C01401408014010080140B4070020C1180020006CDC022143341220A1070050
:208D80000CED00E00400FA05B007002040F900080C10024004000140F74F0020F0FF0108DE
:208DA00000FC010810B582B001240122892100A800F027F89DF80000012814BFFF28002432
:208DC000204616BD80B58948002101600120FDF7ABFA6420FDF77DF8802080F3118800BFC0
:208DE00000BF83484178491C41707E487E490160BDE80140FFF72BBF7E48017801B97E48A7
:208E000070472DE9F04104000D46164618BF002E17D07019B0F5005F13D8784FFF2D0FD863
:208E2000C5F58070B046864288BF8046424679192046FEF723F94444B6EB0806454400D09C
:208E400094E0BDE8F08180B501F058FC002002BD2DE9F047C0B004000D46164608D0002EB9
:208E600049D0B5F5005F03D27019B0F5005F02D94FF0FF3040E0FF2D20D8C5F58077B7F584
:208E8000807F88BF4FF48077B74288BF37463A46214600A8FEF7F2F800233A4600A905F1E5
:208EA000006000F5EC3001F0F3FB3C19F61B7D19FF2D02D8002EE0D11DE0E6B1A5F580755E
:208EC000DFF83C8140F201194FF4807A4E452CBF574637463A46214600A8FEF7CFF800236F
:208EE0003A4600A908EB050001F0D2FB3C19F61B7D19002EEAD1002040B0BDE8F08710B5BD
:208F0000040005D009B9002010BDB1F5005F02D04FF0FF3010BD01F0F1FB4FF40052002124
:208F20002046BDE8104093E72DE9F04104000D46164618BF002E17D07019B0F5007F13D8DE
:208F4000304FFF2D0FD8C5F58070B046864288BF8046424679192046FEF790F84444B6EBE4
:208F60000806454400D001E0BDE8F081324679192046BDE8F041FEF781B8F0B5C1B00446BF
:208F8000B1F5007F28D13CB34FF48072214600A8FEF774F800234FF4807200A9194801F0CC
:208FA00077FB04F5807400250126174F4FF48072214600A8FEF762F800234FF4807200A90C
:208FC000781901F065FB04F5807405F58075761EECD1002041B0F0BD4FF0FF3041B0F0BDB8
:208FE00000000000F84F002021433412A40F002030000020180F00201041000800D80108BC
:2090000000D9010800F8010800F901082DE9FE4F81468A461646C9EB0910DFF8201B01EB4A
:209020008007DFF85C8B08F1C000009080698047B879012808BF6FF0020500F0888008F279
:2090400007000190C07800F0030002287DD1386960B9787E00F0010B0C9CBAF1000F08BF00
:20906000002E3DD1002C3CD1786A10B16FF003056DE000254FF0010A0021AA44721B0020F9
:2090800098F8073023B1029B002B0CBF002C01207A61C7F810A0B976F876B8F8C010491C89
:2090A000A8F8C0103981397E61B93988914201D200B10A4651464846009B1B69DB6A9847E5
:2090C00001203876022C42DA029898B30146484601F09CFB88B30021484600F0FFFD2CE053
:2090E0000EB94FF0010B3246514607F11C0000F03AF90546701B02D0012C11D1A5B1BBF15F
:20910000000F24D0386A796A401A398888421ED302240021BBF1000F19D000228A46AEE77F
:209120000021022CA9D1F5E701213888B042A4D20646A2E7484601F064FB7869351A0198C4
:20914000C07800F00300022801D04FF0FF350098C069804728467CE030B400F12001427F6D
:20916000521E012A06DBD1E90245C1E900450831521EF8D1417F491E417730BC704738B5A2
:209180000C46856B04E0A96820466A6890472D68002DF8D131BD70472DE9FE4F8046894661
:2091A000DFF8DC69D6F8D0700024307808284FD28DF80000C0EB0011DFF8800900EB810556
:2091C000FB6CDDF830A0180004D0524649464046984703E0494640467A6890475FEA000B06
:2091E00018BFBBF1FF0F33D03C2200212846FCF75FFC4BEAC810687185F804909DF8000014
:20920000796988470746B8F1000F02D1BA4598BF574600F0EEFCC2B24946384600F0B2FCD9
:209220002880BDF804006880B8F1000F04D0DFF80C09C068E86003E00298E861C5F820A0BA
:209240003478601C307008EB4B00801980F81441204603B0BDE8F08F10F07F0F01D10020E5
:20926000704700F00F014900000648BF491CDFF81C0A081890F814017047C0EB0011DFF878
:20928000BC0800EB810040797047DFF8000A807A400800F001007047F8B5DFF8E448D4F8E7
:2092A000D0500126DFF8147A04E03846A9688847761C3C3720788642F7DBE868BDE8F24062
:2092C000004770B582B04FF0FF300090DFF8B0484FF49C7200212046FCF7EAFB01202070C2
:2092E000322084F8C300DFF854584FF4F07200212846FCF7DDFB01F075FA01F0C0FAD4F884
:20930000D060D4F8080118B9DFF8CC09C4F80801706D010018BF8047002071698847288019
:20932000326C100002D000A9052090470098E8600120607273BD38B5DFF85049D4F8D050BC
:20934000286880472A6C100007D0E11D0620904704F1080102202A6C90471020A0722869DE
:20936000BDE8324000472DE9F04104468846164600271EE008B3E16840186268824288BF7E
:209380000246551AB54288BF35462A46206809184046FDF773FE761BA068401BA060EF195D
:2093A000A844E0682818E0606168884204BF0020E060A068002EDDD108B90020E06025E039
:2093C0002DE9F0410446884616466068A168471A1AE0E068A16808186168884228BF401A61
:2093E0003218914288BF11460D1AB54288BF35462A4641462368C018FDF740FE761BA068AD
:209400002818A060A8447F1B002EE2D13846BDE8F08110B500F09ABC80B500F09DBC10B5C3
:2094200082B0002B46BF02240023012400F090BCDFF8083718625962012058779A760020B5
:209440001883DFF82019D1F8D010096B08472DE9F04782460C4615461E46DFF8248798F8BD
:209460000A0000F00300022818BF4FF0FF304AD1CAEB0A10DFF8F01801EB8007B87918B14A
:209480006FF00200BDE8F08708F1C009D9F818008047787FF0B107EBC00118314A680B6824
:2094A000D318A34203D1A8184860BE7626E0032808BF6FF0030422D041F8084F4D60787FE8
:2094C000401C7877BE76B8F8C000401CA8F8C000388113E007F120010C604D6001207877F3
:2094E000BE76B8F8C000401CA8F8C0003881386920B95046D9F81010096B88470024D9F81A
:209500001C0080472046BDE8F0872DE9F84380460C46C8EB0810DFF8241601EB8005DFF859
:209520004498D9F8D800697909062DD50026002780472869002804BF687F00281DD02E7782
:20954000C4B12146404601F061F9B0B128690228A8BF471E05F12000697F012905DB4268C4
:20956000D7190830491E0129F9DA0021404600F0B5FB02E0404601F044F909F1D800406808
:20958000804707B301261EE0002680472869B0B154B12146404601F039F940B10021404699
:2095A00000F09CFB012602E0404601F02AF999F80A0000F00300022818BF4FF0FF3609F184
:2095C000D800406880473046BDE8F2832DE9F04104460D46C4EB0410DFF8601501EB80064F
:2095E0000027DFF88087D8F8D8008047707F032812D3002D48BF01270ED40120307735B10C
:209600002946204601F002F920B1012702E0204601F0F7F800203077D8F8DC008047F5E653
:209620002DE9F84381460E4615461C46089F002F03D501B0BDE8F04309E723462A4631468A
:209640004846FFF704FF10F1040F06D139464846FFF7BCFF0028F0D038E0002837D4002681
:20966000C9EB0910DFF8D41401EB8004DFF8F486D8F8D80080472069002804BF607F0028B3
:209680001DD02677C7B13946484601F0BFF8B0B120690228A8BF461E04F12000617F012915
:2096A00005DB426896190830491E0129F9DA0021484600F013FB02E0484601F0A2F8D8F85D
:2096C000DC008047AE4238BFA81B00D30020BDE8F28300EB4002DFF88C0600EBC200416349
:2096E000704700EB4002DFF87C0600EBC20081637047DFF8701691F8C220032A08D201EB2A
:209700008202C2F8C40091F8C200401C81F8C20070472DE9F843060089461546C6EB061066
:20972000DFF8181401EB800711D1DFF8387697F8C20086425BDA07EB8600D0F8C4201000CA
:2097400002D0294648469047761CF6B2EFE7F86818B129464846FA6890474FF0010838690B
:2097600040B379698D4234BF2C467C695CB122464946FDF783FC2D1BA144386920183861E5
:209780007869001B7861786908B1B87E90B1304601F032F800203861787EC00708D430468A
:2097A000DFF8C015D1F8D010896A8847002038764FF00908B5B12A46494607F11C00FFF705
:2097C000FFFD797EC90702D5398888420AD2387E40B13046DFF88C15D1F8D010896A884788
:2097E0000020387641463846BDE8F443C7E4BDE8F183F8B50746C7EB0710D04901EB8004AA
:20980000607F00286FD0002F1CBF216900296AD10021E17604F12005696821B9022824BFC0
:209820002046FFF799FCDFF83C05D0F8D0301E6D30001AD0208B009000AB2A46617F3846FE
:20984000B047064600982083701C2061374603E03F1A2046FFF780FC6868B842F8D3C01B7C
:2098600068602868381828601BE06E682088864288BF0646701C20613246296838465B6B8A
:2098800098476868801B68602868301828609EB12088411E0E420FD1218BB6FBF0F040183B
:2098A0002083606900281CBF218B002906D022885143401E014201D100202083686890B901
:2098C000607F022803D32046FFF746FCF1BD002E1CBF208B002804D0A07E10B10020A07698
:2098E000F1BD00206077F1BD38B50400C4EB0410924901EB80050CD02869022809DB4FF05B
:20990000FF3028610421E87E00B906212846FFF736FC00202861687F0028204607D0FFF7A3
:2099200068FF687F032817D2287FA8B1A2E1DFF83414D1F8D010896B8847002C04BFBDE823
:20994000314001F0D6BA204600F056FF40212846BDE83440FFF713BC31BDC0EB0012774B50
:2099600003EB82029171DFF8FC23D2F8D020126A10470121F1E7DFF8EC13C1F8D0007047E0
:2099800070B504460D4616460C220021FCF790F86560A660DFF8CC03D0F834110A4600E031
:2099A00012681AB1A242FBD1012070BD2160C0F83441002070BDC0EB001CDFF8AC0300EB31
:2099C0008C004A608B60826B0A6081637047DFF89403817A002101730121DFF8902303E0E7
:2099E000002302F83C3B491C03789942F8DB807A00F0100040F008000EE0DFF86803807AE9
:209A00007047DFF86003807A40F0010004E0DFF85403807A00F0FE002DE9F04182B004466D
:209A2000DFF84053AF7AD5F8D060A74249D0B8071BD4A00719D501208DF80000FFF72CFC8D
:209A40004FF0010808E000214046FFF786FF404601F081FB08F1010828788045F3D3326CF6
:209A6000100002D000A900209047B8070AD5A00708D400208DF80000326C100002D000A975
:209A800000209047D5F8346106E07268100002D02146B06890473668002EF6D1AC72A87AA2
:209AA000062108420DD0012408E00021204600F015F9204600F0BAF8641CE4B22878844242
:209AC000F3DBBDE8F38100212D4A927A02F00302022A06D1C0EB0011DFF88C0200EB810074
:209AE000416A0846704738B50546254CD4F8D8008047C5EB0510DFF8701201EB80000169AE
:209B00000229ACBF4D1E002500F12001407F012805DB4A6855190831401E0128F9DAD4F8C6
:209B2000DC008047284632BDC0EB0011DFF8380200EB81004069704700000000400B002021
:209B4000C0EB0011DFF8200200EB8100417F11B14FF0FF307047018B42694AB131B103889E
:209B60005943521E114208D10021018300207047481E8041C043C00F7047012070470000A9
:209B8000200D0020032906D14021884201D24908FBD108467047402801D3402070472028BA
:209BA00001D320207047102801D310207047082801D3082070470020704701700A0A4270F6
:209BC0000A0C8270090EC17070470170090A417070470178427841EA0221827841EA0241A9
:209BE000C07841EA006070470178407841EA0020704780B55B48D0F8D0008069804700F0A8
:209C0000020002BD80B55748D0F8D0008069804700F0010002BD53494878421C4A7000EB58
:209C2000400201EBC20181F82E00704738B50446C4EB04104C4901EB80050020A8716879BB
:209C4000000605D5002028616877288320210EE000206862A8622861287E28B120460B490C
:209C6000D1F8D010896A88470020287610212846FFF785FA2046BDE8324000F0BDBDC0EB15
:209C80000012394800EB8200C1607047200D002030B401210022334B1C46D4F8E4502DB9B1
:209CA00003EB8201C1F8E400002103E0521C241D052AF2D3084630BC704700007C0B002057
:209CC000C0EB0012284800EB82004279120658BF41767047000000009791000870B5040039
:209CE0000D462048D0F8D010C4EB04101E4A02EB80061AD070790006204607D5896B884785
:209D00000020306170773083202105E0896A884700203076306110213046FFF730FA25B11C
:209D20002046BDE8704000F067BD70BD0D49C1F8080170470B4BC3F8D40003F1D40041600A
:209D4000826070470749C1F81001704782B000240094FFF75BF916BD032300930023FFF7C0
:209D600055F902BD200D0020400B0020820B0020A349096801B1704780B5006801F0D5FA4E
:209D8000A0480121016001BD704710F0030F18BF00F036BB7047F0B589B0FFF72EFE00F072
:209DA000030002285FD19848006800285BD0974800689749096A401A012854DA914800681F
:209DC000002850D0934C206818B9934801F0CCFB2060216811B3914E8F4F4FF0FF333A68D3
:209DE000306801F011FD002818D48D4D2868396808182860384601F0B7FB206070B14FF004
:209E0000FF333A680146306801F0FEFC002805D4286839680818286000202060804D2868CD
:209E200070B17E48006801F0FBFC04462868001B01F08EFB2C6003E0014600A801F0D8FA5B
:209E400001F07DFB0446202C02DA14B909B0F0BD20244FF0FF33224600A97048006801F01D
:209E6000C8FC0128E8DA09B0F0BD0000F0B585B000240025012101A8FDF7D0FA042100A854
:209E8000FDF7CCFAFEF78EFF0028009804D0FCF76EFA02AE634C4FE00830FDF75EF9060080
:209EA00003D10098FCF763FA21E00099FDF7B6FA9DF8040004283DD8DFE800F0030C2A30AE
:209EC00036003046FBF7DBFD0146301D01F090FA044631E03046FBF7D2FD07463046FDF7B4
:209EE0005FF907F10800FDF738F9060003D102AE6FF0010420E0394606F1080001F0C2FACC
:209F000005464348006A3E49096808183F4909E03046FBF7B4FD01F063FA0DE03046FBF7BC
:209F2000AEFD3749086007E03046FBF7A8FD01F0FCF901E06FF0020421463046FBF788FD1A
:209F40002946301DFBF784FD05F108013046FCF78BF902A886421CBF3046FDF721F905B060
:209F6000F0BD1CB5284CFEF71DFF80F001002060FEF7BEFE20B9206800283DD001F051FD67
:209F80002068002838D0402000900023002202210120FFF701F98DF8040040200090224BBA
:209FA000002202211046FFF7F7F88DF80500002000900346082203210120FFF7EDF88DF8CF
:209FC000060001A801F033FC144C2060174901F002FC1749206801F005FC164C00232246BC
:209FE00015499DF80500FFF7E6FC0023224613499DF80400FFF7DFFC01480021016013BDA5
:20A00000300700203407002024070020280700203000002090070020940700202C070020DF
:20A0200098070020FAFEFFFF38070020719D0008899D00088B9D000878070020840700204E
:20A0400080B50178412904BF4178012912D1C178807840EA0120B0F5804F32BF8002400AB2
:20A06000400200F0C1F8012200210020FFF7E0F9002002BD012002BD48075CBF002000F089
:20A08000B3B8704710B582B00093012300EB40005A4C005DFFF7C4FA16BD2DE9F84388461C
:20A0A0001500994600EB40005449445C089F16D12046FFF745FD0646012E10DA002F04D5AB
:20A0C000A6B16FF00300BDE8F28339462046FFF71CFA08B9002EEBD10020BDE8F283009740
:20A0E0004B462A4641462046FFF79AFABDE8F28318B400EB4000414C0019407801B010BCFC
:20A10000FFF787B900EB40003C4BC0184078FFF783B900EB4000394940184078FFF7D3BC53
:20A1200000EB40003549405CFFF7DDBC00EB4000324940184078FFF7F7BCF8B50446304D78
:20A140003048017839B901210170002028700FF29100FFF79DFDFFF75EFD064606EB4600DB
:20A16000294901EBC00000F12807FF20F87038717871012094F9001000FA01F12256904096
:20A1800008433880214800F0EEFFF871287800EB40001A49401821780170617841708670FD
:20A1A0001B493046FFF79DFA00221A491A48FFF7E7FB2878411C2970F2BD00EB40000F4AB0
:20A1C00080184078FFF75BBD00EB40000B4A805CFFF79BB900EB4000084A805CFFF7F6B97D
:20A1E000084800210170704704490978C1EB01120A4901EB8201486170470000640900208A
:20A20000BC180020BB180020200D0020C8F9000841A0000879A0000868090020400B00203B
:20A2200000EB800149003D4A8B18895C002914BF99785978002918BFFEF73BBCFEF752BC8D
:20A24000022800DB704718B400EB80014900334A8B1801245C70895C002904BF12BCFEF71C
:20A2600028BC11BC7047022800DB704718B400EB80014900294A8B1800245C70895C002925
:20A2800004BF12BCFEF72EBC11BC7047022800DB704718B400EB80014900204A8B185C78AC
:20A2A00084F001045C70895C002904BF12BCFFF7B7BF11BC704718B402281BDA00EB800272
:20A2C000164B03EB42020B8813708B88D380CB881381CB8833B18C880CB9002303E04C889E
:20A2E0000CB12346012493809470098801B9918012BC95E711BC704702280DDA00EB800254
:20A30000064B03EB420200231370D3801381918001219170FEF7CDBB70470000E8070020B6
:20A320007047000070B504460025802080F3118800BF00BF0E4E7078401C70700BE0C06815
:20A34000017C490705D5C168326A891A0129B8BF0125FBF734FD20680028F0D17078401E4D
:20A360007070707808B980F31188284670BD00BF3000002030B585B002900190114CA368F9
:20A380000393802383F3118800BF00BFA368DA60256A521B012A05DA607888B980F3118887
:20A3A00005B030BD0268009200AA0260009800B1426000A8986041F004001874FBF763FD55
:20A3C00005B030BD300000201B4C1C4D284600F0AEF8FCF7C2FC0646FFF7DDFC01F078F88A
:20A3E000284600F0C3F8002EF0D001212046FDF77DF8EBE7114800F0B9B8104800F097B842
:20A400000D48FDF74BB800B583B00C4800F076F80221094801F022FB0948022102914FF48A
:20A42000806101910090074B0122074900F5806001F030FB03B000BDD8020020C80200200F
:20A44000E0020020C9A3000834FA00082DE9F843802080F3118800BF00BFDFF86080D8E95D
:20A460000A69154FF8688047044600253869804728B1761C49F10009F86880470446786907
:20A4800000213A7A12B9041B61EB0505A0FB062300FB0933A4185D41BA690023A2FB04016A
:20A4A00002FB0511FA6901F02FFB98F801200AB982F31188BDE8F283A00800203000002057
:20A4C00070B5044633480568334E14E0287A88B16868A0420ED1012028723078401C3070E5
:20A4E000287A401E2872C0B210B9284601F084FBFBF749FCED68002DE8D170BD10B50446FB
:20A50000264827490160102200212046FBF7D0FA802080F3118800BF00BF1E480168E1604D
:20A5200004601D48407808B980F3118810BD38B50446194D2878401C2870A868217A11B95A
:20A54000606001250DE06168814208D01021204601F068FB207A0028F8D1A8686060207AE4
:20A56000451C2572FBF70FFC284632BD0A490A78521C0A70017A491E0172C9B2002918BFFC
:20A58000FBF701BC80B501F037FBBDE80140FBF7FABB000094080020300000209C08002057
:20A5A000C1A4000881423ABF53189842FCF766BD8018990707D0521E24BF13F8011D00F894
:20A5C000011DF6D8704781071CD1103A07D330B433E93210103A20E93210F9D230BC10326F
:20A5E000121F24BF53F8041D40F8041DF8D838BF121D521E24BF13F8011D00F8011DF8D82A
:20A60000704700BF083A07D333E90210083A40F804CD40F8041DF7D20832EAE703000020DF
:20A6200013F0030F09D0521E22BF13F8010B11F801CBB0EB0C00F3D07047121F22BF53F871
:20A64000040B51F804CB6045F7D0121D0AD200BA9CFA8CFCB0EB0C0038BF6FF0000088BF40
:20A6600001207047521E22BF13F8010B11F801CBB0EB0C00F6D0521C08BF10467047000016
:20A68000DFF800F09D010020DFF800F0310200202DE9F8438046894616461F4674000AE016
:20A6A000012C05DB25460020FFF7CAFD6D1EFAD10020FFF7D8FD1FB131464046FFF7E0FF62
:20A6C000324649464046FFF7DFFF324649464046FFF7A4FF0028E3D1BDE8F1830D490A6836
:20A6E0004AB90D4A1288B2F5807F2CBF4FF400624FF480620A600968FFF7C2BF38B5074C79
:20A7000008252046FFF7EAFF04F580646D1EF8D131BD0000AC070020E0F7FF1F00D80108FF
:20A7200062F30F2262F31F42401810F0030308D0C91A1FD3DB0748BF00F8012D28BF20F8C4
:20A74000022D130030B414461546103928BF20E93C00FAD8490728BF20E90C0048BF40F84C
:20A76000042D890028BF20F8022D48BF00F8012D30BC7047C91818BF00F8012DCB0728BF8A
:20A7800000F8012D70470000F0B490B00F230FAC004D01E02083B8ED1E46042706F0010C03
:20A7A0007608BCF1000F18BF6E407F1EF6D144F804695B1EF0D510F8013B5A4000AB02F014
:20A7C0000F0453F8244084EA121202F00F0453F8243083EA1212491EEDD1104610B0F0BC09
:20A7E0007047000038B5164C08252046FCF7F6FC08346D1EF9D131BD114901EBC00001F065
:20A800002FBA0F4901EBC00001F04CBA491C0C4A02EBC000FCF76ABE0A484178491E4170AE
:20A82000407808B980F311887047802080F3118800BF00BF03484178491C417070470000E1
:20A84000580E002030000020FEF725BA1F4908601F48F02101700178103901F0F001017080
:20A860001C494FF400220A60F02242704278103A02F0F00242704FF480100860704780B51F
:20A880001548016821F480010160C16821F40001C160816941F4000181611048FFF76BF8E8
:20A8A0000F4A10491048FFF745FA1048BDE80240FFF73CBA10B50E4C2078401C2070034840
:20A8C0000068010018BF804714E00000D809002013E400E000E100E004100240E8F60008A8
:20A8E00019A800082BA800084DA8000849A8000830000020802080F3118800BF00BF2078AC
:20A90000012803D1606808B1FCF78AFB2078401E2070002080F3118810BD000002684368AD
:20A920009A4204D28368D1540168491C0160704738B504460D46C9B2FFF7F0FF290AFFE76C
:20A940002046BDE83440E9E730B583B098B90090DFF83008029080200190042100A8FFF71A
:20A96000DDFF032100A8FFF7D9FF40F2094100A8FFF7DEFF50E0012812D016D3032805D046
:20A9800009D3042811D1DFF8004820E0DFF8FC074069C4681BE0DFF8F4074069846816E0A7
:20A9A000DFF8E8074069446811E0DFF8E417052807D3401F8A7B904203D201EB80000469CE
:20A9C00005E0D1F8FC100A0002D08847044614B9002003B030BD2046002500E06D1C10F83F
:20A9E000011B0029FAD100200090DFF898070290802001906800811CC9B200A8FFF78EFFB3
:20AA0000032100A8FFF78AFF35B114F8011B00A8FFF78EFF6D1EF8D1DFF8680703B030BD78
:20AA2000012200210020FEF703BD10B5DFF86027D2F8D0408178C37851EA032101BF8179B3
:20AA4000C37941EA0321022954D1511C4B7A5B070DD40078032210424CD10A7BDFF8240713
:20AA60000270897A890753D542F002013BE04B7A9B071BD4027812F0030203D0022A0ED0A5
:20AA80000AD310BD0A7BDFF8FC060270897A89073ED542F0020126E0007958BB01E0007975
:20AAA00040BBDFF8E0060021018035E0037813F0030303D0022B18D00AD329E00A7BDFF879
:20AAC000C4060270897A890722D542F002010AE05178491E0079814202DA606A804717E0C1
:20AAE000DFF8A0060021017012E00079FEF7B4FBFF2803D1606ABDE810400047C0EB00117B
:20AB0000DFF8900600EB81008079DFF878160870DFF870060021417000220221BDE810402D
:20AB2000FEF786BCF8B504460D46DFF86416D1F8D060A078E27840EA0222A079E37940EAEB
:20AB40000323EFB22079022A1AD194F800C0BCF1000F17D194F805C0BCF1000F18BF002D7D
:20AB600010D0BCF1050F5CD2FFF74CF8002858D0FFF756FF61790420326CBDE8F840104761
:20AB8000032A4EDA002B4CD1012A0AD101F20A00002D417814BF41F0020101F0FD01417088
:20ABA0003CE08B7A5B073CD5897A8907217816D411F0030102D0022903D032E0022A30D1D7
:20ABC0002CE0002A2DD1FEF747FB002829D1681E8041C043C00FDFF8BC1588711EE011F02F
:20ABE000030102D0022902D01BE0D2B916E0002818BF802815D0FEF72FFB0446FF2C10D006
:20AC00003946FEF7AAFE4FB9204600F0A4FA00212046FFF763F82046FFF708F8BDE8F14012
:20AC2000FEE6706ABDE8F24000472DE9F84F82460C461546288840080027002803E0C10774
:20AC400048BF7F1C4008FAD109215046FFF766FE04215046FFF762FEE1B25046FFF75EFE99
:20AC6000A9785046FFF75AFEF9B25046FFF756FEE9785046FFF752FE29795046FFF74EFE8D
:20AC800069795046FFF74AFEE9795046FFF746FEAA68100002D05146204690474FF00109BB
:20ACA000DFF8F0B40BF14004DFF8E474C84607E00126F1B25046FFF731FE09F101093C34BC
:20ACC0003878814552DA288808FA09F10842F4D007215046FFF722FE05215046FFF71EFE76
:20ACE00061785046FFF71AFE21785046FFF716FEFEF788FF20B90022217834F8040C08E06A
:20AD00005FFA89F0D7F8D010496988470122217880B2FEF737FF24F8040C34F8041C50460A
:20AD2000FFF706FEC9EB09100BEB80000179012902D0032906D0BBE74688112E14DA002E93
:20AD4000B7D1B5E74688FEF75DFF38B9FF2EC8BFFF26AEDC002EACD10826AAE7112E03DAD6
:20AD6000002EA6D10426A4E71026A2E7BDE8F18F2DE9F04784B08027DFF814546C1CA07A8C
:20AD8000C00748BFA027207B08B147F0400700200090DFF8F063029680200190092100A8D7
:20ADA000FFF7BCFD022100A8FFF7B8FD002100A8FFF7BEFD697800A8FFF7B0FD012100A8FE
:20ADC000FFF7ACFD042100A8FFF7A8FD394600A8FFF7A4FD95F8C31000A8FFF79FFD0027ED
:20ADE000A84613E09AF88800B84205D10AF18C02394600A8FFF719FF09F101090AF11C0AA5
:20AE000060788145EEDB7F1C08F118086878874210DAD5F8E0201AB100A938465268904734
:20AE200008F12802394600A8FFF7FFFE4FF00009AA46E5E70099B01CFEF7C7FE304604B088
:20AE4000BDE8F08770B584B000200090DFF83443029480200190122100A8FFF75FFD012169
:20AE600000A8FFF75BFD4FF4007100A8FFF760FDDFF81C53297900A8FFF750FD2E1D717826
:20AE800000A8FFF74BFDB17800A8FFF747FDDFF804030188C9B200A8FFF740FD05F5807614
:20AEA0003069018800A8FFF743FD3069418800A8FFF73EFDD5F80001010002D080470146A8
:20AEC00001E04FF4807100A8FFF732FD012100A8FFF724FD022100A8FFF720FD032100A805
:20AEE000FFF71CFD012100A8FFF718FD204604B070BD38B5A64C04F20A008178090614D557
:20AF0000817801F07F01817085782846D4F8D010C9698847002DA07A14BF40F0040000F080
:20AF2000FB00BDE83240FEF777BD31BD2DE9F84304460026964D2F460BE007F1280041691A
:20AF4000080004D020468847002800F00281761C1837687802469642EFD3D5F8D0100E46A1
:20AF6000237813F0600306D0202B00F0D280402B00F0DF80EBE062780B2A00F2E880DFE8B8
:20AF800002F0060BE60DE61332E6666C819A2046FFF74BFDBDE8F183002100E00121204677
:20AFA000FFF7C0FDBDE8F183A478287AA0B12046C9698847002CA87A14BF40F0040000F00A
:20AFC000FB00FEF729FD2C73287A012840F0C180FFF726FDBDE8F183FFF722FD44F0800085
:20AFE0002873BDE8F18300260027E079A17941EA00284FF00109E078012810D012D30328D0
:20B0000001D004D30EE0A078FFF79EFC09E0FFF7AFFE0746B81CFEF7E7FD064602E0FFF748
:20B0200011FF07461FB9D5F8D000406A90E006B93E78464588BF4646464508BF4FF00009B7
:20B040004A4631463846FEF7F3F9BDE8F183FEF71CF98DF80000002225E0A078012805D1A4
:20B06000FFF7DEFCA87A40F0020005E040B9FFF7D7FCA87A00F0FD00FEF7CEFCBDE8F1831E
:20B08000486A65E0A078002804BFA079012810D1A87A00F00600062818BF486A58D100207B
:20B0A0008DF800000022012100A8FEF7C1F9BDE8F183486A4CE02679AA7A02F00602062A8C
:20B0C00025D1B04223DBA078E27840EA0224B4F5807F1CD2FFF7A4FC01270CE05FFA87F8B0
:20B0E00000214046FEF739FC404600F034F84046FEF79CFD7F1C28788742EFDBD5F80C2101
:20B10000100026D0214630469047BDE8F183486A1EE0207990421AD200EB400105EBC10078
:20B120002830C168080012D02046884778B9BDE8F183207990420AD200EB400105EBC10001
:20B1400028300169080002D02046884708B1706A8047BDE8F1830E49D1F8D010C96B0A006D
:20B1600018BF084770470A498A7B062A01D300207047531C8B7301EB82010861501DC0B29B
:20B1800070470000980E0020D8F900081C0E0020200D0020400B00202DE9F04304468846F6
:20B1A0006768A068C51B44BF206945199542A8BF154615B90020BDE8F0832E4620692168C9
:20B1C0004018C01BB1468642C8BF81464A4639464046FBF753FFC8444F44A6EB090620688F
:20B1E000216909188F4208BF0746002EE6D16760E76028E02DE9F043044688461646A768F8
:20B200006068C01B451E44BF20694519B542A8BF3546206921684018C01BB1468642C8BFDA
:20B2200081464A4641463846FBF728FF4F44C844A6EB09062068216909188F4208BF074642
:20B24000002EE6D1A7602846BDE8F083DFF85403007800B9704738B5DFF84C432078DFF8A4
:20B260004C130978084318D1DFF844532860DFF8440300210160012200A9DFF83C03FFF74C
:20B280008BFF012809D1DFF83403006A2860012020709DF8000000F055FD31BD10B504469C
:20B2A000DFF81803006ADFF808130860DFF8F402007810B100F0ECFD40B901222146DFF89F
:20B2C000F802FFF769FF08B1002010BDB64800210170012010BD18B4B849096AB54A116042
:20B2E000B7498A684B689B1A5B1E44BF0C69E31853B110708868401C0A6802F20114A042DB
:20B3000008BF104688605B1EA648007858B1AD48007840B9022B06DAAB48006818B9012080
:20B3200012BC00F0B3BD11BC70472DE9F0410446A14DA64E3078E0B900F08AFDA4490870CB
:20B34000A048002101709E4F40F201184046FBF704FF38607860B860F860C7F810808120F0
:20B36000FBF7FBFE28606860A8608120286101203070286800281EBF91480068002811D0C0
:20B38000944D95480068844209D0286808B1401E2860924B924A9349204600F0E2FC286860
:20B3A000401C2860824800210160824801607D488749097801708C48012101708648046012
:20B3C000BDE8F0818348016801B9704780B5491E016004D100F01CFD7F480021016001BDD0
:20B3E00072B6784901220A707749086062B670472DE9F04182B0774A1268002A3ED0DFF80D
:20B40000B8810A4601464046FFF7F4FE0546012D35DB664E01203070634F387840BB614CE6
:20B420007148017849B10021017000F031FD012821D10020207000F02AFD207810B100F005
:20B4400027FDA8B95A4C002020605A4800210160012200A94046FFF79FFE012808D1574877
:20B46000006A2060012038709DF8000000F06AFC0020307003E001202070E0E70025284680
:20B48000BDE8F68138B5534A1268F2B14C4BDA685C68A24201D0002032BD0A460146184693
:20B4A000FFF77AFE04463F48007878B14548007860B9002C1EBF444D2868002806D0002046
:20B4C00000F0E4FC0020286000E00024204632BD70B582B0354C01202070334D287840BBF7
:20B4E000304E4148017849B10021017000F0D0FC012821D10020307000F0C9FC307810B18B
:20B5000000F0C6FCA8B92A4E00203060294800210160012200A92848FFF73EFE012808D18D
:20B520002648006A3060012028709DF8000000F009FC0020207073BD01203070E0E71E4991
:20B5400048688A68801A401E44BF0969081870471B494A6880180A690B68D318984224BFC9
:20B56000524210184860704770B4154AD3689168994202D2116915684919CC1A0AD01946D2
:20B58000E31815691668AE19B34224BF6D42EB18D36000E0002100B10460084670BC7047E9
:20B5A00000000000B5180020B8180020BA180020280900202C090020480900203000002055
:20B5C00034090020B718002060090020B4180020B6180020300900205C0900204DB20008D7
:20B5E000D7B200089DB20008B918002070B50546DFF86C432068002824D400EB4002DFF8D0
:20B60000640300EB0216072903D00020FEF7B1F90EE02846FEF7DDFA7060287930726879E2
:20B620007072A879B072F16808001CBF301D88474FF0FF302060012200210020BDE87040E6
:20B64000FDF7F6BE70BD38B50179427941EA02210022DFF8103303F1140400E0521CDFF838
:20B6600008532D78AA424DDA34F8305B8D42F5D1002A47D402EB420103EB011441782029F1
:20B6800006D03FD322291BD006D323292AD039E0DFF8CC02026033E0616804F12600FEF761
:20B6A0008CFA211D087984F82A0004F22A004A794270897981700022072104F126001DE0B5
:20B6C000211DCA68BAB1827802F001028DF800208078400800F001008DF8010000A8C9686B
:20B6E000884708E0211DC9690A0004D0C278807840EA02208847012200210020FDF798FE0A
:20B70000002032BD012032BD70B50C460021DFF8542202F11403DFF850522D7800E0491CB8
:20B72000A94204DA33F8306B8642F8D101E04FF0FF3101EB410002EB001505212046FFF7E8
:20B74000EDF824212046FFF7E9F800212046FFF7E5F84FF488712046FFF7EAF80521204622
:20B76000FFF7DCF824212046FFF7D8F801212046FFF7D4F803212046FFF7D0F8A98CC9B24C
:20B780002046FFF7CBF804212046FFF7C7F824212046FFF7C3F802212046FFF7BFF8062191
:20B7A0002046FFF7BBF805212046FFF7B7F824212046FFF7B3F806212046FFF7AFF8A98AA0
:20B7C000C9B22046FFF7AAF8A98CC9B22046BDE87040FFF7A3B800EB4002624800EB021060
:20B7E000C160704700EB40025E4800EB02100161704718B400EB40045A4800EB0410407834
:20B8000001B010BCFDF70BBE10B582B00093012300EB40042001534C005DFDF701FF16BD2D
:20B8200000EB400108014F49405CFEF75CB92DE9F84381464D48017889B901210170602218
:20B8400000214848FAF734F947480021017044484FF0FF3101600FF2FD00FEF719FA44480A
:20B86000FDF747FFFEF7D7F980464249FDF731FF414E08EB480006EBC00000F128073F4832
:20B88000B8600220F870387101207871012499F9020004FA00F0388030A0FFF764FCF87165
:20B8A000FEF7B9F9074607EB470006EBC00000F128050020A8600A20E87000202871687150
:20B8C00019F9000004FA00F099F9011004FA01F1084328802A48FFF746FCE871D6F8E040F1
:20B8E000002C08D00020009002230222114640462668B04706E002203071301D022141701F
:20B9000000218170184E307800EB4001154800EB011499F80000207099F80100607099F86A
:20B920000200A07001216078FEF7CAF91548D0E90023C4E90123A4F81480A7840A22124957
:20B9400004F11600FBF79AFB3078411C3170BDE8F283000005480021017070474344430035
:20B96000D409002074090020BD180020BE180020EDB5000847B60008200D002009B700087E
:20B98000A4F900088CFA00081CFA000870B4039C2E4D2E78761C2E70F6B2042E09D206EB9C
:20B9A00086052B4EAD196D1F2871E9702A70AC706B7070BC704738B50C460021244D2A7957
:20B9C000824228D108212046FEF7A8FF0B212046FEF7A4FF29792046FEF7A0FFE9782046F2
:20B9E000FEF79CFF29782046FEF798FF69782046FEF794FFA9782046FEF790FF287900EBBE
:20BA00004001144800EBC10090F82F102046BDE83440FEF783BF491C05F205050329CEDB25
:20BA200031BD80B50F22FF210948FAF741F807480021017007480849C0F8E010EF2101716C
:20BA4000001D022141700121817001BDC0180020300B0020200D002094FA000870B504467F
:20BA60000D46802080F3118800BF00BF084E7078401C7070082200212046FAF719F8657146
:20BA80007078401E7070707808B980F3118870BD300000202DE9F04104460E4690461D4630
:20BAA000089F44220021FAF703F8201DC0F81080017B134A12781143017384F8397006B1E0
:20BAC0000662069E8662079F47623A46CD213046F9F7EEFFB819C008C000002140F8501D43
:20BAE0004FF08071416407490164C5646FF00201416260602046BDE8F041FAF798B900BF91
:20BB0000B3180020C76F00081B4213D1094236D12AB18446B0FBF2F002FB10C2704700F0C1
:20BB2000B9B9FCD30022002370470B000200002100207047904271EB030CF6D370B5B1FAED
:20BB400081F4B3FA83F52C1BA340C4F1200532FA05F63343A2405FF00046E64002E05B08C8
:20BB60005FEA3202841A71EB030524BF204629467641F4D302000B003000002170BD012A5A
:20BB8000CFD970B5140C20D0B1FA81F4B2FA82F5C4F120046419B4F12006D6D3B2405FF07A
:20BBA0000044F440002502E052085FEA3303C61A71EB020E24BF3046714664416D41F3D3B8
:20BBC00002000B002000290070BD0C46B1FBF2F102FB11452D0445EA1045B5FBF2F402FB66
:20BBE000145580B240EA0545B5FBF2F002FB105240EA044070BD000010B5044602E0C06891
:20BC0000FAF7DDF8802080F3118800BF00BF20680028F4D10248407808B980F3118810BD23
:20BC20003000002000B585B0029001900B4A93680393802383F3118800BF00BF0368009393
:20BC400000AB0360009800B14360906800AA82600174FAF718F905B000BD00BF300000206E
:20BC600038B505460E4C2078401C2070802080F3118800BF00BF6078401C60702846FBF720
:20BC80000DFC284600F008F96078401E6070607808B980F31188BDE83140FAF774B800BF9F
:20BCA0003000002038B50446802080F3118800BF00BF0D4D6878401C6870207938B9482172
:20BCC0002046FFF7AFFF6079022805D102E06079012801D0002020716878401E6870687825
:20BCE00008B980F3118831BD3000002038B5594C256815F02F0F1CBF60688DF80000A80601
:20BD000004D59DF80000544909688847680618D5E068400615D500A850490968884768B16B
:20BD2000E06820F04000E0604D48016821F4706141F4006101600421016131BD9DF8000046
:20BD4000606031BD46490A6822F4706242F410620A6040490A684860C86840F04000C860CF
:20BD600070472DE9F04180460E4617461C463D4D287808B100F04CF83B4804603648076009
:20BD8000364806603648016821F4706141F40061016004210161016821F4704141F40041CF
:20BDA0000160082101613148016821F400310160C16841F40031C1602D484FF4C0618160A4
:20BDC00000214160C160416841F400514160416821F4005141602749884528BFDFF89880ED
:20BDE0002649B1FBF8F10160416841F4005141F00C014160224910220A70224940220A6082
:20BE0000416841F02001416001202870BDE8F0811348016821F4706141F4006101600421F1
:20BE20000161016821F4704141F400410160082101610E48016821F400310160C16841F44B
:20BE40000031C1601048002101600648017070470020704700440040DC070020E0070020DB
:20BE600000080140AE180020E4070020101002400844004041420F0040420F0000512502FF
:20BE800026E400E004E100E00C440040704770470020704770470000802181F3118800BFFA
:20BEA00000BF002101710348407808B980F31188704700BF3000002010B5FCF79DFF0446FC
:20BEC0007020FAF734FA70212046BDE81040FAF7CBB970472DE9F04F83B0044600208DF824
:20BEE00000004FF0FF30FAF773FF01ADCD2C07D1022101A8FAF734FA9DF80400697805E0A8
:20BF0000032101A8FAF72CFA6878A97800EB012080B200F107084FEAE8094FEA4907781CB7
:20BF2000FBF71BF9050009EB05060DD13846FAF71EFA4846FAF7ECF906208DF80000012161
:20BF400000A8FAF791F94CE049463046FAF708FA49462846FAF71BFA0027DFF804ABFAF7F9
:20BF600034FAA9EB0001A1EB070B20B1BBF1FF0FF5DD2BF03F0B4FEACB03494503D108F03D
:20BF80000700C01FC3189DF8000058B99AF8000001280DD1BA19B9197819FAF78AFF8DF86C
:20BFA000000005E0D81DC2100021B819F9F780FDD52C13D05946CF2C0DD1DFF8500B007870
:20BFC00048B10BEB0700484505D1B8199DF800200BF80020491CB819FAF79CF95F444F456C
:20BFE000BDD1DFF82C0B017811B99DF800100170D52C0CD0FAF7A4F9CF2C02BFDFF80C0B37
:20C000000078002804BF9DF80000FAF78DF92846FBF7C6F8DFE300B583B0FCF790FDADF8C4
:20C02000000000F095FE8DF8020000F093FE8DF8030000F091FE8DF8040000F092FE8DF8E0
:20C04000050000F090FE8DF8060000F08EFE8DF80700082136E080B50420FAF768F942F6A8
:20C06000E360FAF764F94FF40060BDE80240FAF75EB90421DFF89C0AFAF7F6B800B589B06E
:20C080002022002100A8F9F713FDDFF88C1A00A8F9F7DEFC0C208DF804007C208DF80500CB
:20C0A000B1208DF8060012208DF80700202100A8FAF7DAF809B000BD00B583B000A8FCF7C1
:20C0C000B7FD062100A8FAF7CFF803B000BD80B5FCF7EAFB83E0F0B5A3B0002400250421DF
:20C0E00001A8FAF73DF902AE0EE000904FF47A710098381AF9F702FD074646F825706D1C92
:20C10000641C0198400801900198E8B1C007F7D50D2C03D10220FCF796FDEDE72046FCF786
:20C1200092FD0746A01E022884BF19380128E4D80422802100A8FCF764FE009800284EBF31
:20C14000002040004010D0E7A90002A8FAF78CF823B0F0BD30B5A1B000240025042100A8E4
:20C16000FAF7FEF8DFF8B4094FF0FF3101AA0DE0DB0706D50B46042CB8BF036842F825308E
:20C180006D1C641C009B5B080093001D009B002BEED1A90001A8FAF767F821B030BD00B54E
:20C1A00083B0042101A8FAF7DBF8042100A8FAF7D7F8019840B90078FAF7B6F80198401C8F
:20C1C00001900098401E0090009818B101460198FAF74AF803B000BD80B5FAF7B0FFBDE8EA
:20C1E0000240FAF7AAB800B5C1B04FF48072002100A8FCF799FE75E0F0B585B04FF0FF345B
:20C2000026464FF40070FAF7A8FF050004D14FF40370FAF7ACF850E04FF400720021FCF749
:20C2200083FE4FF480712846FAF79AF8042102A8FAF796F8082103A8FAF792F800224FF456
:20C2400080712846FEF7A0FA0299884235D1082203A9DFF8CC08F9F71DFC70BB00262F4635
:20C260000122314601A8FCF75FFE17F8010B9DF80410014081421FD1761CB6F5007FEFD3F5
:20C2800005F12000F9F7FBFBB0B12846F9F7F7FB060011D00422002100A8FCF745FE00984D
:20C2A00010F1010F18BF864206D14FF400712846FCF763FE060000D526463046FAF73DF89E
:20C2C00005B0F0BD80B54FF48070FAF750F8002000F071BB00B5C1B04FF48072002100A8FB
:20C2E000FCF78FFD4FF4807100A8F9F7BDFF41B000BD10B5044604222021FCF782FD04227B
:20C30000242104F10800FCF77CFD0422402104F10C00FCF776FD0422482104F11000BDE848
:20C320001040FCF76EBD70B588B04FF0FF3425464FF40050FAF711FF060004D142F20C00A6
:20C34000FAF715F82FE04FF400520021FCF759FD4FF480713046FAF703F8042100A8F9F77E
:20C36000FFFF082101A8F9F7FBFF00224FF480713046FEF709FA0099884211D1082201A926
:20C38000DFF89C07F9F786FB50B903A8FFF7B1FF4FF400513046FCF7B2FD050048BF254635
:20C3A0003046FAF7FDFE2846F9F7C7FF08B070BD4FF48070F9F7DBBF2DE9F041CAB000256F
:20C3C000012101A8F9F7CCFF00A8F9F7E4FF9DF8040088B102283BD14FF40077082103A8C6
:20C3E000F9F7BEFF082203A9DFF83407F9F752FB28B14FF0FF3007E14FF40057EEE738464F
:20C40000FAF7ABFE040012BF3E464FF480760AAC3846F9F792FFA8463546BE4288BF3D4608
:20C420009DF8040000282A464146204602D1FCF7E8FC01E0FCF778FD29462046F9F714FF13
:20C44000A8447F1BE8D10AA8844200F0DF80C6E0012869D10098B0F5005F40F0C48042F289
:20C460000C00FAF77AFE040027D0009800F10C012046F9F775FF002200992046FEF784F959
:20C48000054600982044F9F7FAFA854208D1082200982044011DDFF88806F9F7FBFA10B182
:20C4A0004FF0FF3006E005A8FFF723FF00992046FCF725FDF9F741FF91E005A8FFF719FFF3
:20C4C000FCF7C1FCA8460027009EB6F5807F88BF4FF4807631460AA8F9F742FF3A4631467E
:20C4E0000AA8FEF751F90746324641460AA8FCF7AFFCB0440098801B0090E5D10C210AA863
:20C50000F9F72EFF0AA8F9F7BAFAB84206D108220BA9DFF80C06F9F7BDFA18B1FCF793FC1E
:20C520004FF0FF3528466FE00328009862D1B0F5007F58D14FF40370FAF70FFE040052D0AE
:20C54000009800F10C012046F9F70AFF002200992046FEF719F9054600982044F9F78FFAFE
:20C56000854208D1082200982044011DDFF8B005F9F790FA10B14FF0FF302EE0009D0026D1
:20C580002746012231460DF10500FCF7CDFC17F8010B9DF80510014081421CD1761CAE429D
:20C5A000EFD304F12000F9F76AFAA0B12046F9F766FA06000FD00422002102A8FCF7B4FCD0
:20C5C000029810F1010F18BF864204D129462046FCF7D3FC01E04FF0FF30F9F7AEFE204654
:20C5E000FAF7DEFD12E000980C30F9F7C0FE4FF0FF3009E0002814BF0C300820009000981D
:20C60000F9F7B5FE6FF00100F9F797FE4AB0BDE8F08100B583B0012101A8F9F7A1FE0090B0
:20C6200088B99DF80400FE2805D0FF280CBF022000F09EFB02E0DFF8EC04007800900421B2
:20C6400000A8F9F711FE03B000BD80B5022100A8F9F786FEBDF800004FF6FF71884204BF58
:20C660000020ADF80000BDF800004FF47A71484300F0CAFA01BD00F095BB00F095BB10B5D0
:20C6800082B0012401210DF10100F9F769FE214600A8F9F765FE0220F9F769FEA8B99DF8FA
:20C6A00001009DF8001041EA002040F2011188421FBF40F20131884240F20161884201D13F
:20C6C00040F2FF542046F9F738FE13BD80B5042100A8F9F745FE9DF802009DF8031041EADA
:20C6E000002040F2011188421FBF40F20131884240F20161884203D19DF80000F8F7A5FCA9
:20C7000001BD0020DFF8201404220B8803B1401C1C31521EF9D170470021DFF80C2432F8D7
:20C720001C3B834201D108467047491C0429F6DB4FF0FF3070472DE9F14F82B00D469046CD
:20C740009B460C9C022642F21079DFF8E0A300270AF20A0030F81C1BE9B9C7EBC7008000EA
:20C7600040F80A5000EB0A05C5F8048085F808B06C72BDF808006881DFF8B403006AE860F3
:20C7800000A8F9F766FD00982861019868613846FAF71EFB1FE07F1C042FDBDBDFF89003A6
:20C7A000006A00270AF10C0131F8022C6AB10A68821A4A4509DB3846FBF7FDF8C7EBC7000F
:20C7C0000AEB80000021418103E07F1C1C31042FEADB761EBBD103B0BDE8F08F30B599B019
:20C7E000012102A8F9F7BCFD042105A8F9F7B8FD042104A8F9F7B4FD01210DF10700F9F7C4
:20C80000AFFD01210DF10600F9F7AAFD022101A8F9F7A6FD9DF80800642802D065282BD0CD
:20C820004AE0BDF80400C0B9DFF808030188491C0180ADF80410BDF80400FFF76DFF00284F
:20C84000F2D59DF8060000909DF80730049A0599BDF80400FFF76FFF2EE0FFF75DFF002839
:20C860002AD4C0EBC001DFF8C40200EB8100DFF8C012096AC1601FE0BDF80400FFF74CFF0F
:20C88000040019D4C4EBC400DFF8A01201EB800500206881A86918B1FAF782FC0020A861BF
:20C8A0002046FBF788F8FFF72CFF28B9FCF780F9DFF884020021016006A80390BDF8041049
:20C8C00003A8F9F7B5F8042103A8F9F7B1F8102103A8F9F7ADF8042103A8F9F7A9F80024B1
:20C8E000DFF84852102229460398FAF7C7FB039810300390641C1C35042CF3DBFCF71FF990
:20C90000014603A8F9F796F8200100F10C0106A8F9F7AAFC19B030BD10B584B002210DF174
:20C920000200F9F71DFD00241BE0022100A8F9F717FD022101A8F9F713FD02210DF106000A
:20C94000F9F70EFD022102A8F9F70AFD02210DF10A00F9F705FD01A9BDF80000FDF7ABFC01
:20C96000641CBDF802008442DFDB04B010BD802080F3118800BF00BF0020FDF787FCF6E7E1
:20C98000F5E780B500F00AFA0220F9F7A2FABDE8014000F005BA80B500F004FA0220F9F71A
:20C9A00098FABDE8014000F0FFB9704780B500F039F900F0D1F9BDE80240F9F7B5BCCD205A
:20C9C000FFF788BACE20FFF785BACF20FFF782BA80B54E48012101705848F9F7DCFC584875
:20C9E000FFF7FDBB10B584B06FF00104102100A8F9F7B6FC0098802804D20199FCF77AF99B
:20CA0000044627E0B0F5C07F0ED2B0F5807F03D101984C4908601CE040F20111884219D1FF
:20CA200001984949086014E0B0F5007F12D2B0F5C07F02D1FCF761F90446009840F28111BD
:20CA4000884207D1BDF80800FFF766FE0199FAF7D1F900242046F9F770FC04B010BD000061
:20CA6000C118002080B5032100A8F9F779FC9DF801009DF8021000EB0120401CF9F7E7FCDF
:20CA800001BD38B504462C4D286898B9601F0FD0C2380DD0801F022884BF0838012802D9C2
:20CAA000C01E05D006E029491E48007800F0A3F8012028601B2C04D3BA2C38BFFFF757FF12
:20CAC0006134E4B2224850F824008047F9F7C2FC1748006A0025154C04F10C011D4A31F8FF
:20CAE000023C6BB10B68C31A934209DB2846FAF762FFC5EBC50004EB80000021418131BD5E
:20CB00006D1C1C31042DEADB31BD0000AD180020AC180020A4FA0008335AEA989C0700201A
:20CB20003CFA0008C1180020B20F0020A80F002030000020A81800201C100020980F0020C3
:20CB4000104704009C0F0020A00F002040420F00A0F10008C0270900704700002DE9F041C8
:20CB600004460D461646984671480068714F38600069804743463246294620463C6824682F
:20CB8000A047BDE8F0812DE9F04104460D461646984667480068674F38600069804743465C
:20CBA0003246294620463C686468A047BDE8F08110B55F4800685F4C206000698047206804
:20CBC0008068BDE81040004710B559480068594C2060006980472068C068BDE81040004722
:20CBE00000E000BF544801680029FCD04FF0FF307047F7E7F6E780B5FCF73EF800B94F480E
:20CC00004C490860002002BD80B501464D480078FFF7F1FF002002BDFCF707B8FBF7B0BFD7
:20CC2000FBF7ACBF38B5434C2068454DA84207D0C068010018BF80473D4821680160256085
:20CC4000BDE83140FBF7EBBF38B53A4C20683C4DA84207D0C068010018BF80473448216811
:20CC600001602560BDE83140FBF7D2BF38B5314C2068334DA84207D0C068010018BF80473B
:20CC80002B48216801602560BDE83140FBF7BABF38B5284C20682A4DA84207D0C0680100E7
:20CCA00018BF80472248216801602560BDE83140FBF7A1BFFBF79EBFFBF76CBFFBF75FBF19
:20CCC00038B51C4C20681E4DA84207D0C068010018BF80471648216801602560BDE83140A1
:20CCE000FBF798BF38B5134C2068154DA84207D0C068010018BF80470D4821680160256069
:20CD0000BDE83140FBF780BF38B50A4C20680C4DA84207D0C068010018BF8047044821684B
:20CD200001602560BDE83140FBF767BF0000000060120020480100202409002090F9000806
:20CD40007CF90008C1180020FBF753BFFBF7FEBEFBF7FEBEFBF701BF80B5FBF703FFC0B2B0
:20CD600002BDFBF7EFBEFBF702BFFBF705BF000070B50446074D28780646012803D1012C13
:20CD800018BF00F087F904492046FFF734FF2C70304670BDC118002040420F00FFF740BFB2
:20CDA000FFF78CBFFFF73ABFFFF786BF2DE9F04184B005460026BD4C206830B9019002907F
:20CDC000082101A8F9F750FA53E003A900A800F0AAF90098A168471A04D1039828B9E7688B
:20CDE000012602E044BFE068C719AF42B8BF3D4601960295082101A8F9F736FABDB3A0687C
:20CE0000009A90421ED36268171AAF42C8BF2F463E0015D03146F9F77DFAF9F7DAFAB6EB67
:20CE20000008FAD0A0684044A0606168884224BF2068A060A06800F07EF9B6EB0806ECD1BB
:20CE4000ED1B14D02946A068F9F764FAF9F7C1FA2E1AFBD0A0683018A0606168884224BF9D
:20CE60002068A060A06800F066F9AD1BEED1F9F767FA04B0BDE8F08138B58C4C05E09DF8F2
:20CE8000001004F11400FAF7C9FA012100A8FAF7C5FA9DF8000068BB606900F058F905463E
:20CEA00069682868F8F728FEA169884288BF0846A061A9682868F8F71FFEA169814238BF21
:20CEC0000146A161206838B1E168226991423AD0FAF766F900202060206948BBFAF72FF952
:20CEE000A0F500706FF30800B0F5007F1FDA4FF0FF3033E001210DF10100FAF78FFA9DF8F5
:20CF000001000128BBD0022802D0042805D009E09DF8001004F11800B5E79DF8001004F18E
:20CF20001000B0E79DF80000F9F721FAADE720612069FAF712F920602069E06021684018E6
:20CF40006060080009D000F0E8F823692268A169606900F0ADF82068A0600020F9F7EDF964
:20CF600031BD10B588B001210DF10200FAF756FA9DF80200662820D10020019002E001A811
:20CF8000FAF74CFA012100A8FAF748FA9DF8000020B90198FFF70AFF08B010BD01210DF1B2
:20CFA0000100FAF73BFA9DF800109DF801000328E5D00846F9F7DBF9E4E7642805D0652864
:20CFC00010D06E2825D008B010BDFFF755FF08B010BD01210DF10100FAF720FA9DF80000D1
:20CFE000F9F7C5F9012100A8FAF718FA9DF800000028EED12D4C206830B100F08EF820685A
:20D00000FAF7CEF8002020600020F9F796F908B010BD0020019002E001A8FAF7FFF901214E
:20D0200000A8FAF7FBF99DF8000020BB019810B14FF0FF30E9E700F08AF80146142202A8C2
:20D04000FAF72CF81C20F9F728F90198F9F725F90298F9F722F90398F9F71FF90498F9F7F3
:20D060001CF90598F9F719F90698F9F716F9F9F767F908B010BD01210DF10100FAF7CEF9B1
:20D080009DF800109DF801000128C5D00846F9F76EF9C4E710B5054C206830B100F03DF8A3
:20D0A0002068FAF77DF80020206010BD2C010020334881610260436032490A6842F4804281
:20D0C00042F004020A6030490A6822F4706242F400620A602D494FF400728A6024224A60D4
:20D0E0000022CA60026802614268426100228260C260274A80690001B2FBF0F0401C400818
:20D1000000010860486840F40050486021481021017021482021016070472048016821F01B
:20D1200004010160704772B6154A53690B601169016062B6704772B611490A69824231BFD1
:20D14000801A4B689A1A8018486162B670471448704714480168406809494A6972B10A69A3
:20D16000521C0A6102F8010D08680A694B681B189A4208BF08614869401E4861704700008A
:20D18000C00700201810024004080140083801400044950825E400E004E100E00C3801405C
:20D1A00054F9000800380140016800E0491C0A78202A18BF092AF9D00D2A18BF0A2AF5D04D
:20D1C00001607047F8B504460D4600260027FFF7EBFF20680178427841EA022247F6300346
:20D1E0009A4234D110F8021FA1F13002D2B20A2A38BF30390CD3A1F14102D2B2062A38BFEA
:20D20000373905D3A1F16102D2B2062A3BD25739002938D401EB061610F8011FA1F1300257
:20D22000D2B20A2A38BF30390ED3A1F14102D2B2062A38BF373907D3A1F16102D2B2062A82
:20D2400001D3206017E057390029E3D5F9E72D2914D1012710F8011F06EB8602303901EBD9
:20D26000420610F8011FA1F13002D2B20A2AF3D3206007B176422E600020F2BDA1F13002EB
:20D28000D2B20A2AE8D34FF0FF30F2BD33E280B5014608684968009100AB00220421FAF7D8
:20D2A000F6FB002800D510E0002002BD80B5014608684968009100AB00220221FAF7E7FBC0
:20D2C000002800D501E0002002BD4FF0FF3002BD80B5014608684968009100AB0022012147
:20D2E000FAF7D5FB002800D5EFE7002002BD80B500AB002204210068FAF7BAFB002800D589
:20D30000E3E7009802BDFAF7CEBBFAF7D1BB80B500AB002202210068FAF7AAFB002800D5D5
:20D32000D3E7009802BD80B500AB002201210068FAF79EFB002800D5C7E7009802BD0000C4
:20D3400080B541680068401E1B2861D8DFE800F00E12161A1E606022282F363D4460606078
:20D36000606060606060606060604B5A084600F09CFE4DE0084600F09CFE49E0084600F004
:20D380009CFE45E0084600F0A4FE41E0084600F0AAFE3DE04FF47A704843FFF735FC37E0D4
:20D3A00011B1FFF789FC33E0FFF738FC30E011B1FFF7CAFC2CE0FFF77DFC29E011B1FFF729
:20D3C0007FFC25E0FFF740FC22E011B1FFF79CFC1EE0FFF75DFC1BE011B1FFF783FC17E0D3
:20D3E000FFF744FC14E021B1002000F084FE102005E04FF0FF3000F07EFE4FF0FF3000F052
:20D400007DFE05E0481E8041C00FDFF8E0170870002002BD80B50168491E1B2946D8DFE863
:20D4200001F00E12161A1E2245262D3135393D454545454545454541454545464646BDE848
:20D44000014000F020BEBDE8014000F01FBEBDE8014000F01EBEBDE8014000F01DBEBDE802
:20D46000014000F01CBEBDE8014000F01BBEFFF7D3FB4FF47A71B0FBF1F002BDBDE80140CF
:20D48000FFF771BCBDE80140FFF76FBCBDE80140FFF75EBCBDE80140FFF763BCBDE801408B
:20D4A000FFF758BCDFF84807007802BD002002BD2DE9FC41006801904018009000A8FFF754
:20D4C00073FEDFF8308702E00098401C00900098007800285ED0009810F8011BA1F16102D0
:20D4E000D2B21A2A22BFA1F14102D2B21A2A01D35F294BD1012501E06D1C401C0178A1F177
:20D500003002D2B20A2A22BFA1F16102D2B21A2A22BFA1F14102D2B21A2AEDD35F29EBD002
:20D52000A5B34746002606247868A84207D12A4600993868F8F7AEFA08B9012602E00C37C7
:20D54000641EF1D100982818009000A8FFF72CFE009800783D2819D10098401C009001A9CA
:20D5600000A8FFF72FFE26B1B96808001CBF0198884700A8FFF718FE0098007850B100A830
:20D58000FFF712FE009800783B289DD04FF0FF30BDE8F681DFF85806007870B9DFF85826F0
:20D5A000DFF85816482000F0A4FC062200211F2000F075FC00F051FC03E0012808BFF8F746
:20D5C000E0F80020BDE8F68100E000BFDFF83006704780B500F095FD002002BD0020704767
:20D5E000006800F0BDBC80B501680091416800A800F0C9FC02BD80B5006800F011FC00F0DC
:20D600002CFC002002BD80B5006800F009FC002002BD0068F8F75DBCF8B544688568C668AE
:20D620000769006800F041FD204600F042FD284600F043FD304600F04CFD384600F053FD44
:20D640000020F2BD10B5006800F08AFC0EE010B582B001680091416800A800F094FC12E0B6
:20D66000006800F0FBBB10B500F091FC044600F0F4FB204610BD10B582B001680091416864
:20D6800000A800F09AFC044600F0E7FB204616BD10B582B001680091416800A800F0A2FC37
:20D6A000F1E7FFF7BBBAFFF707BB0068FFF760BB18B40C46C36881680A194168091900686E
:20D6C000001901B010BCF9F7F4BB4FF0FF3070470A46416800688018F8F742BE0A4641680F
:20D6E00000688018F8F7C0BD0068FFF78DBA0068F8F726BC00BFDFF80C05006A70470068B0
:20D70000002818BFFFF7DCBAFFF79EBA0068002818BFFFF7F9BAFFF7BBBA0068002818BF4E
:20D72000FFF7E0BAFFF7A2BA70B40268521843688168C56802EBD30003F00702FF2606FA6D
:20D7400002F45319083B03D55D4246FA05F52C400578A54301FA02F634402C430470012B2C
:20D76000B8BF002012DB401CD140082B06DB083B00F8011B090A082BF9DA3BB101229A404B
:20D78000541E0278A24321401143017070BC704738B50378446882685518DFF85414097884
:20D7A00099B101290FD1E4B23CB1002143F00400F7F793FF2946032001E029461846BDE8D5
:20D7C0003440F7F78ABF6FF0010032BD18B4027843688168DFF81844247864B1012C08D18B
:20D7E000DBB2002B14BF42F00400104614BCF7F724BF6FF0010012BC704780B500780728B0
:20D8000006D2DFF8041451F820008047FF2801D14FF0FF3002BDD9E6D8E6D7E6D6E680B5C0
:20D820000068FDF782FD002002BD80B5FDF7CAFD002002BD0A46416800688018FDF722BE92
:20D840000A46416800688018FDF7D2BDBEE62DE9F04704461546C1EBC100DFF8B01301EBC3
:20D860008000876907B9A9E03868DFF8A413884206D10126BA68CD2A28BF6FF001003FD288
:20D88000884226D107F12008F86807EBC00000F120094FF0000A03E008F108080AF1010A40
:20D8A000F86882451DDA2946D8F800004844F8F73CF90028F0D1D8F8045050212046F9F787
:20D8C00035FBDFF85003E064002E14BF3869002008E0DFF844132846F8F727F908B904256B
:20D8E000EBE76FE0C019A0642564A06C0168E1632EB10A1FE26304211018F8F7A9F800209E
:20D90000BDE8F0872DE9F04704461546C1EBC100BE4901EB8000866906B94FE0002730687D
:20D92000BB49884206D10127B268CD2A28BF6FF0010041D2884225D106F12008F06806EB87
:20D94000C00000F120094FF0000A03E008F108080AF1010AF06882451BDA2946D8F800005F
:20D960004844F8F7E2F80028F0D1D8F8045050212046F9F7DBFAA748E064002F14BF3069DB
:20D98000002007E0A4492846F8F7CFF808B90425EDE717E08019A0642564A06C0168E163DB
:20D9A0002FB10A1FE26304211018F8F751F82046BDE8F04700F017BDBDE8F0876FF004000F
:20D9C000BDE8F0876FF00300BDE8F087F0B585B00C4615460B2804D1102100A8F8F7C0FC9A
:20D9E00005E00C2101A8F8F7BBFC002000900098C0B2009002988649884208BF039801994D
:20DA00000E18824F0098C0EBC00107EB8100806980B100F02CFB0098C0EBC00107EB8100F0
:20DA20008069F9F7BDFB0098C0EBC00107EB81000021816106F16000F9F78FFB070010D023
:20DA4000082202A9F9F71AFB0198A0F1080107F10800F8F785FC2021F01900F0F3FA27609B
:20DA600003E001980838F8F782FC0098286005B0F0BD000030B5A3B0012104A8F8F770FC9A
:20DA80009DF810000A2800F2AE80DFE800F006090FACAC406576AC8C9D0040F2E67001E009
:20DAA00000F0BCFCF8F749FC23B030BD00AA01A90220FFF78BFF554D0098C0EBC00105EB3E
:20DAC000810001998161554C534A00992046FFF719FF0990206C0A9020680B90E06B0C9035
:20DAE000606C0D9000F0C3FA0098C0EBC00105EB8100806940B1F9F753FB0098C0EBC0017F
:20DB000005EB810000218161142109A869E0002400AA01A90520FFF759FF02A8019951B131
:20DB20000099C1EBC102394901EB8201019A8A610421029103E0042102914FF0FF344460FD
:20DB40000821F8F791FB002C4DD4334A00213348FFF77DFE23B030BD2C4DA86930B100F02F
:20DB600086FAA869F9F71CFB0020A8610420029000200390082102A833E0082105A8F8F7D0
:20DB8000EFFB264C264B069A0599204600F07AFD4C210E910F904822214610A8F9F77EFA11
:20DBA00050210EA81DE00C2105A8F8F7D9FB042106A8F8F759FB06990598184A926C80185A
:20DBC000F8F752FB23B030BD0C2105A8F8F7C8FB06990598114A926C8018F8F7C1FB0421C0
:20DBE00006A8F8F741FB23B030BD0000C2180020C118002094F7000810FA000804FA0008EE
:20DC0000FAFEFFFF3000002070000020A80F00205043563224F3000874FA0008C0080020BF
:20DC20008DD200082DE9F047DFF860351E68F41006F00709C9F10805AA42D8BF1546012767
:20DC4000AF407F1E07EA010C07EA0008DFF84075D7F800E0DFF83C753F68B9F1000F10D03E
:20DC600014F807A008FA09F848EA0A0804F8078014F80E800CFA09F949EA080904F80E90A7
:20DC800003E004F8078004F80EC0521BAE193AB1641C2841E05541FA05F004F80E0096192E
:20DCA0001E60BDE8F08710B50446082C07DB0822FF21002000F0F3F8083C082CF7DA012CEA
:20DCC00006DB01220121002000F0E9F8641EF6E710BD2DE9F84381460E461446DFF8B804A8
:20DCE0000088001B871B04220021032000F0D7F86FB1DFF8A804016811F1010F04D03A4644
:20DD0000002000F0CCF802E03846FFF7CCFFDFF87C0407684FF0010807E000202A4619F878
:20DD2000011BC0B200F0BBF8761B012E0BDB0825082ED8BF3546002CEFD1092EEDDA701E1F
:20DD400008FA00F0EAE7A4B1DFF85404016811F1010F04D02246631E08FA03F007E0022C3A
:20DD6000A4BF601EFFF79FFF01221146084600F096F835E02DE9F84381460D461E46901B59
:20DD8000471E03220021012000F089F827B13A460021002000F083F8DFF8F00307684FF0CA
:20DDA000010807E00020224619F8011BC0B200F076F82D1B012D0BDB0824082DD8BF2C4628
:20DDC000002EEFD1092DEDDA681E08FA00F0EAE736B132460021731E08FA03F000F05FF8C2
:20DDE00001220021104600F05AF83846BDE8F28310B5DFF8984323688BB1DFF8A803007877
:20DE000001280AD1DFF8A0030268DFF888030168DFF87C030068F9F74CF80020206010BDF0
:20DE200010B5040006D001220021002000F037F8641EF8D110BDDFF87403007828B1DFF832
:20DE400070030168491C01607047DFF840030168C91D21F007010160CAE7C9E710B5044616
:20DE6000FFF7C6FFDFF84003006800EBE40111F8010B11F8012B40EA022011F8012B40EAA0
:20DE8000024011F8012B40EA026014F0070205D0D0400978C2F120029140084310BD2DE938
:20DEA000F04104460D461646DFF80873387840B1062200211F20FFF7B5FEFFF7BCFF002043
:20DEC0003870DFF8C802076808E04246E9B2E0B2FFF7A8FEA6EB0806240A2D0A012E05DB3E
:20DEE000092EACBF4FF00808B046EEE73846BDE8F0812DE9F84F044688469146E01DC708BA
:20DF00002BD0DFF88862DFF8B05228683168C91DA0EBE100B0F5007F06D2FFF769FF286807
:20DF20003168C91DA0EBE1003D46874288BF05463668AA46092C2CBF4FF0080BA3465A468F
:20DF400019F8011B18F8010BFFF76CFEA4EB0B04BAF1010AEED17F1BD3D13046BDE8F28F2B
:20DF600001B5DFF85C02016801B101E0002002BD9248026800A8FFF7ACFE02BD914A13683A
:20DF8000914A1268F6E609B900207047F6E738B57E4804688C4800688A490968401A451E7E
:20DFA000032200210120FFF77AFF25B12A4600210020FFF774FF204632BDF8B504460D46FC
:20DFC000724806680AE00827082DD8BF2F463A4614F8011B0020FFF762FFED1B012DF2DA9E
:20DFE0003046F2BD2DE9F04180460D4667480668012707E00020224618F8011BC0B2FFF754
:20E000004EFF2D1B6F480068012D0BDB0824082DD8BF2C460028EDD1092DEBDA681E07FA66
:20E0200000F0E8E730B102460021401E07FA00F0FFF735FF012200211046FFF730FF304629
:20E04000BDE8F081584A10600A18514B1A6000EB4100504A1060584801604FF0FF304F4923
:20E0600008604F49086049480021016070475248016839B14C4900220A6045490A604549DA
:20E080000A60026070475148006870475048006870474A48006870474A480068704748489C
:20E0A000006870473C480088704748490860434907E04749086043490FE040490860434823
:20E0C0000068096808183E49096808183249088070473C4908603E48006809680818401CAD
:20E0E0003949086070473649086038480068334A12681018E8E72949086070472849086058
:20E10000704738B52548006810F1010F37D0FAF78CFD04462F4DAC4205D1FFF78CFE41F2B7
:20E120008830FEF771FD062200211F20FFF7B7FE042200210320FFF7B2FE052210211020F9
:20E14000FFF7ADFE062200211F20FFF7A8FE042200210320FFF7A3FE052210210846FFF75D
:20E160009EFE022200210120FFF799FEAC420CD1FFF761FE2846BDE83240FEF745BD06224C
:20E1800000211F20BDE8384089E631BD180800202008002024080020AA18002004000020CB
:20E1A00008000020C11800201C080020AF180020FC070020B01800201408002004080020A0
:20E1C0001008002000080020000000200C0800200808002018FCE703012000BD022000BDA0
:20E1E0000A0B9200A3585B1EA35002D00A05120EB61AB95BB61CCA06520EA85887460A054E
:20E2000052160B0B9B00195989181951F1E70A05120F92000B0B9B00E3580906090F59184A
:20E22000A150B95BB61CCA06520EA858874660B40E0BB600A65901E060B40E0B0B051B0FE0
:20E240009B00E5580906490F8900DFF8CC0108588746AD19E550002D03D10122626460BC24
:20E26000C7E70022626460BCC3E7AD1BF2E73540F0E73543EEE77540ECE7B540EAE7F54085
:20E28000E8E77543E6E70A0B92000905490EA150AFE70A0B9200B95BB61CBB5BB61C1B0403
:20E2A0000B43A350A5E7626CD20703D5A1E7626CD2079ED5090409164900761899E7626C1F
:20E2C000D207D20F090B8900625092E7CA09E36BF8184906490F8900C918E1633900E36CAE
:20E2E0009A589047206084E78A0603D5E26B121FE263BE50090489154900761879E78A06BF
:20E30000F8D5E26B121FE263BE50090B890066586FE70A05130F9B00E3180A0B9200E06BF5
:20E32000801A19003B18E06308681860091D1B1D121FF9D15DE70A05130F9B00E3180A0B33
:20E340009200E06B39188018EDE7E26BD659121D490989005218E2634BE7CA12D2065216A0
:20E36000E36BD2188B051B0F9B00490502D5E358D3513EE7D259E2503BE720B44806420F75
:20E380000D052D0FAD00080B800020180368FB1809061CD5110003D11878605120BC28E728
:20E3A000012A03D11888605120BC22E7022A03D11868605120BC1CE701784907490F00688F
:20E3C000C0083818F7F720FB605120BC11E76059110002D1187020BC0BE7012A01D118800F
:20E3E000F9E71860F7E7F0B5A0B0040000AD266CDFF81C108022043A8B58AB50FBD100F032
:20E4000003F8266420B0F0BD00B5A76CF1E600008C000020F3E100080C010020CC20704703
:20E42000016C891E016401207047016C891E0164022070470A0B50F82230090503EB6161CC
:20E4400045E00A0B50F822305B1E40F8223004D0026C0905A2EB116101640020704710B496
:20E460000A06520F0B051B0F0C0BC90658BF50F8244050F823100AB9611817E0012A08BFA8
:20E48000091B13D0022A08BF21400FD0032A08BF21430BD0042A08BF614007D0052A08BFAC
:20E4A000A14003D0062A0CBFE140614340F82310002201B901224264002010BC70470A0526
:20E4C000120F0B0B50F82330090603EB117140F82210002070470A0B0905490EF7E7026CE4
:20E4E000836C32F803C0D3185B884CEA0343121D0264090B40F821300020704790F8442001
:20E50000D20705D5026C0904091602EB410101640020704790F84420D20705D4026C09042A
:20E52000091602EB4101016400207047091390F8442002F0010240F821200020704710B53F
:20E5400004460A46E06B5106490F00EB8101E163A16C4018520AE36C53F822209047206082
:20E56000002010BD8A0607D5C26B121FC263836CD0F840C042F803C0026C8909890502EB90
:20E5800061510CE08A0607D5C26B121FC263836CD0F840C042F803C0091350F82110016440
:20E5A000002070470A0B9200C36B9B1AC3630905090F00EB8101806C181851F8043B40F865
:20E5C000043B121FF9D1002070470A0B92000905090F00EB8101C36BD0F848C09C44D31827
:20E5E000C3635CF8040B41F8040B121FF9D100207047C26B836CD318C90801F01C01091D6C
:20E600008918C1631968CAE770B504464806420F0805050F080B54F82000A36CC618090659
:20E6200012D50AB930780CE0012A08BF308808D0022A0FBF306800F0070103EBD000F7F7E4
:20E64000E3F944F8250008E054F825000AB9307003E0012A0CBF30803060002070BDCA127F
:20E66000D206C36B03EB6262836CD2188B051B0F00EB8300490547BF0068106011680160DB
:20E68000002070472DE9F043A1B004460D46164698468022104900A8F8F700FDA76C16B1C9
:20E6A000C04706EB0009206CC15B801C2064204601F01F0200AB53F82220904748B90DB14B
:20E6C0006D1E05D0002EEED0C047B9EB0000EAD1002021B0BDE8F08304F60008F0B4DFF802
:20E6E000C8351B685D09DFF8C445DFF8C475002A3F6802D017EBC00602E017EBC006361DDC
:20E7000006FA05F56519490049082960202B07D102EB4000DFF89C152A6804EB420207E0DA
:20E72000102B07D102EB4000DFF888152A88A21841F82020F0BC7047F0B4DFF86C351B683E
:20E740005D09DFF86845DFF86875002A3F6808D017EBC006B61C06FA05F56419202B18D12D
:20E7600012E017EBC006B61D06FA05F5641900253F2931BF490801254909491E202B05D1C7
:20E780000904890941EAC531216003E0890241EAC531218002EB4000DFF81C1541F820403A
:20E7A000F0BC7047800000F1804000F5B840026802F440528A4200D1704718B400910268CB
:20E7C000009B5A40009248F28002009B13430093DFF8E834009C1C400094009C0460046847
:20E7E00004F440541FE0800000F1804000F5B840026802F030028A4200D1704718B4009131
:20E800000268009B5A40009248F28002009B13430093DFF8AC34009C1C400094009C046044
:20E82000046804F030048C420CD000910168009C61400091009911430091009919400091D1
:20E840000099016011BC7047DFF85C341B68102B0BD1022A06D331F8023B20F8023B921EC9
:20E86000022AF8D27AB109880CE0202B0BD1022A06D351F8043B20F8023B921E022AF8D24B
:20E880000AB109680170704770B505460C46DFF81804006810281BD11646E8070BD5022A8C
:20E8A00012D32846FBF7A0F924F8020BAD1CB61E022EF6D208E0022E06D335F8020B24F875
:20E8C000020BB61E022EF8D286B12878208070BD20280BD1022A06D335F8020B44F8040B0B
:20E8E000921E022AF8D20AB12878206070BDF0B593B0DFF8D043606C00F41E414A0542D513
:20E900006FF4806060644FF41C40206400202065DFF894532868DFF8B06310280CBF80214C
:20E9200040213160DFF88C13DFF88C232023002741F8047B42F8047B5B1EF9D13168326898
:20E9400040323260306800221046FFF7C7FE3A4640211046FFF7F0FE31683068403030609C
:20E96000306801223846FFF7B9FE012240213846FFF7E2FE43F2302020608020E064FBF7FE
:20E9800026F813B0F0BDCA0413D56FF480506064A06C00F44040B0F5004F0FD0002800F0D1
:20E9A0009D80206C20F00C002064FBF730F813B0F0BD0A050ED56FF400606064FBF721F800
:20E9C000206C40F008002064206C40F00400206413B0F0BD0A047AD510F00F06C0F3001006
:20E9E00038D180B3216840F68F7008402060B24802680023AC4D2868102808BF138802D0D9
:20EA0000202808BF13689C05A40D08050CD52246A848016800A8FFF717FF00A8FCF786FA9C
:20EA20004FF44051002045E0002C57D02246A148016802A8FFF708FF224602A90020FAF7E5
:20EA400068FE13B0F0BD206848F60F7108402060002038E004EB8601002808682ED040F658
:20EA60008F7210400860944850F8361000228E4D2868102808BF0A8802D0202808BF0A6802
:20EA80009405A40D412C28BF402400D264B18F4D2246884850F836102846FFF7D5FE22464C
:20EAA00029463046FAF735FE8948305CB0B14FF440513046FFF776FE13B0F0BD48F60F72AC
:20EAC000104008603046FAF70FFF13B0F0BD88054CBF6FF400706FF41E40606413B0F0BD39
:20EAE00038B504000D4615D0FAF7C7FB000607D5002D14BF102120212046BDE8344072E60F
:20EB0000002D14BF4FF480514FF400512046BDE8344047E631BD41F21001002063E640F0D6
:20EB200080006C4908607047694900224254704710B504464FF44051FFF734FE6448012187
:20EB4000215410BDF8B5644E06F1D404606880475C4D0320286401202864002068644FF482
:20EB6000806028645D48D6F8D41088474FF41C402864002028654C4E3068534F10280CBF54
:20EB80008021402139604B494B4A2023002641F8046B42F8046B5B1EF9D139683A684032FF
:20EBA0003A60386800221046FFF798FD002240211046FFF7C1FD39683868403038603868A2
:20EBC00001220020FFF78AFD012240210020FFF7B3FD43F2302028608020E864FAF7F7FE4C
:20EBE000A068BDE8F24000472F4820210160A9E73948D0F80801004739490878401C0870D7
:20EC0000C0B2704770B5417901F07F040588CE090021007930B1012807D0032808BF4FF464
:20EC2000C06104E04FF4007101E04FF48061002E14BF20204FF4005008432043214941F8F1
:20EC40002400214801680268AA180260006832462046FFF743FD324629462046BDE8704012
:20EC60006AE570474020704770B5044608461546114901EBC4014E680E4901EBC4014968E5
:20EC8000FFF702FEA805800D07490968102908BF308002D0202908BF306030212046BDE805
:20ECA0007040A0E5000000007C01002000600040505C0040DC0900205C0A00208FBFFFFF1F
:20ECC000BF8FFFFF005C0040DC0A0020F00A0020E00A00204C5C0040200D0020EFE800080E
:20ECE000BF180020FAF785BD20217CE50020704710B50446FAF7C1FAA10001F1804101F56C
:20ED0000B8410A68000604D5500607D542F0400003E0500402D542F48040086010BD0000CC
:20ED200001000000FFFFFFFFFFFFFFFFB80B000030303030303031323334353600000000C2
:20ED40006613010144FA00084CFA0008100000200000000000000000000000000000000074
:20ED6000000000000000000000000000000000000000000000400000000000000000000053
:20ED8000000000000000000000000000000000006BCD000855CD000863CD000851CD0008AB
:20EDA0004DCD000859CD000867CD0008D9E100082FE20008A7E20008CDE20008E9E20008D1
:20EDC0000FE2000887E2000813E300087BE30008FFE10008E1E100084BE300085BE3000837
:20EDE000BFE20008DDE10008DDE10008D9E1000839E20008AFE20008CDE20008FFE20008C0
:20EE00000FE2000893E2000837E300087BE30008DDE10008DDE10008DDE10008DDE10008DC
:20EE2000DDE10008DDE10008DDE1000853E200086BE200086FE2000873E2000877E20008D7
:20EE40007BE200087FE2000883E20008000000000000000000000000000000000010000067
:20EE6000000000008025000090F90008FF00000000000100FFE0FFFFFFFFFF00FFE0FFFFA5
:20EE8000FFFF0000A58D95BD87AFB79F81A9B199A38B93BBFFFFFFFFFFFFFFFF200000005C
:20EEA00000A24A0400000000000000000102030406070809DFF800F07B5D0008F0B4444A61
:20EEC00013684BB9434B1B88B3F5807F2CBF4FF400634FF4806313601268531E184234D167
:20EEE0003D4BDC68240603D53C4C1C603C4C1C600024DC609C6964070BD43A4C45F2555526
:20EF000025600625656040F6FF75A56001E0891A1018012919DB0224DC601861DC6844F0B0
:20EF20004004DC604AF6AA252E4C25609E68F707FBD4DC6824F00204DC6016F0140FE6D0F7
:20EF4000142098600720F0BC70470020F0BC7047F8B5802383F3118800BF00BF0024521C09
:20EF600052081D4BDD682D0603D51C4D1D601C4D1D60DC609D696D0708D41A4D45F25556D8
:20EF80002E6006266E6040F6FF76AE600125DD6031F8025B20F8025B4AF6AA26114D00E084
:20EFA0002E609F68FF07FBD4DD686D086D00DD609D6815F0140F04D09C6844F014049C6036
:20EFC0000424521EE2D1FFF775FF2046F2BD0000AC070020E0F7FF1F042002402301674569
:20EFE000AB89EFCD003000400000000082B05F48002101605E484FF0FF310160416081605E
:20F00000C160016141618161C161016241628162C162016341638163C1635648016041600B
:20F020008160C160016141618161C161016241628162C162016341638163C1634E480168AB
:20F0400041F00101016041684C4A1140416001684B4A11400160016821F480210160416812
:20F0600021F4FE0141604FF41F0181600021019100914168890889004160416841604168FC
:20F0800011F00C0FFBD1016841F480310160016801F4003100910199491C0191009919B9BC
:20F0A0000199B1F5A06FF2D10168490C01F0010100910099012930D132490A6842F0100207
:20F0C0000A600A68920892000A600A6842F002020A604168416041684160416841F4806159
:20F0E0004160416821F47C114160416841F4E8114160016841F08071016001688901FCD55B
:20F100004168890889004160416841F002014160416801F00C010829FAD11B484FF0006167
:20F12000016002B070471948016801F00C0108290FD101680268C1F38341891CD20358BF50
:20F14000134A04D5026892034CBF114A114A514300E01049104A11600068C0F303100F4B99
:20F16000C05C21FA00F010607047000010E000E080E100E080E200E0001002400000FFF8A5
:20F18000FFFFF6FE0020024008ED00E00410024000093D0000127A008001002084010020D8
:20F1A00081C90008B9BE000883C9000897C9000857C000084BC60008C58D000817C0000851
:20F1C00081C90008DDC7000819C90008ABC9000875DA0008D1C90008E5C9000881C90008CA
:20F1E00081C9000865CA000827C30008F9C1000881C9000881C90008B9C3000881C9000858
:20F2000081C9000881C9000881C9000881C9000881C9000881C9000881C9000881C900085E
:20F2200081C90008B9C00008D7C0000855C1000881C90008296C0008DD6C0008B16B0008DA
:20F2400013C60008ADC9000891CC000809CD00086DCC0008E5CC0008BFC90008C5C90008EC
:20F26000CBC9000881C9000881C9000881C9000881C90008D9C1000881C9000881C9000864
:20F2800081C9000881C9000881C9000849CC0008C1CC000877C600087BC600089DCD0008C6
:20F2A000A1CD000881C900086D9E000881C9000881C9000881C90008ED6B0008E7C100086D
:20F2C000C5C2000873C000087FC60008CDC6000863CF000881C900087DC0000881C9000859
:20F2E00081C90008CFC0000881C90008D5C20008B1C3000881C9000881C9000881C90008C2
:20F3000081C9000881C9000881C9000881C9000881C9000881C9000881C900089FC1000847
:20F3200081C90008A7D60008A3D60008ABD60008B1D60008E9D60008EFD60008CBD6000820
:20F34000D1D60008DDD60008F5D60008FFD600080DD700081BD7000829D70008CDD70008F9
:20F3600091D70008FBD7000845D600084FD6000861D6000867D6000877D6000891D60008AB
:20F3800019D60008D1D20008ADD200088FD2000827D300080FD30008EFD2000807D3000844
:20F3A0000BD3000841D3000815D40008DDD50008DDD50008E1D50008E7D50008F7D5000890
:20F3C00007D60008D3D50008DDD50008DDD50008B1D4000813D60008DDD50008DDD5000832
:20F3E000DDD50008DDD50008C9D50008CBD5000817D8000819D800081BD800081DD8000863
:20F400001FD800082BD8000835D8000841D800084DD8000810B52B4C2078401C207000F0CF
:20F4200063F8802080F3118800BF00BF2078012803D1606808B1F7F7F3FD2078401E2070CD
:20F44000002080F3118810BD10B5802080F3118800BF00BF1B4C6078401C6070FFF763FE02
:20F46000194800684FF47A71B0FBF1F0B0F1807F17D216490002000A401E48601448F022A1
:20F48000C27600228A6007220A6012490160E021C1766078401E6070607808B980F31188F6
:20F4A00010BDFEE730BFFDE70B480168002904D5016841F0004101607047FEE70448074995
:20F4C0000EE00000300000208001002010E000E008ED00E0004000082CED00E0004000081F
:20F4E000016000207047000038B515490A1D01F12800C3681BB101210174517016E0D369C7
:20F500005B1CD361D1E90A45641C45F10005C1E90A45146A1B1B5CBF01235370027A2AB176
:20F52000521E0272D2B20AB9012008710548046802E0606880472468002CFAD131BD00BFAC
:20F54000300000209808002082B0F9F7CFFB284A801A411C1046F7F73DFEF9F7A8F9FAF745
:20F56000DFFE0020FAF76CFEF9F722FB44F62060FDF74AFBF9F7E3FA0120FCF7AAFCF6F7BF
:20F580002CFFFDF7E9FAFAF73EFF4FF0FF34194D194E1A4FDFF8688007E0FAF777FE002067
:20F5A000C8F800003220F6F794FCF6F72AFF0028F3D0012038600020FAF742FE0FE00120A1
:20F5C000286000A8F6F71FFF002808D42C60FAF714FF9DF80000FDF754FAFAF70BFF3078E2
:20F5E0000028ECD0F6F706FF0020C8F80000DCE7C81A0020A40F0020C41800201810002079
:20F600001C10002021E400085FE4000815E500083FE5000865E50008BFE40008D7E4000858
:20F62000A5E5000809E6000835E4000843E40008F3E500085FE600082DE500082BE4000893
:20F640002BE4000821E400085FE40008FDE400083FE5000885E50008BFE40008DFE400083E
:20F66000CBE5000809E600082BE400082BE400082BE400082BE400082BE400082BE4000851
:20F680002BE4000800B583B0802080F3118800BF00BF10484178491C4170FFF70FFFF6F729
:20F6A00001FCFFF7D1FE0C48022102914FF4C06101910090094B0322094900F5C060FCF725
:20F6C000E9F908480121017003B05DF804EBF7F780BC00BF300000206412002049F5000859
:20F6E0009CFA0008B2180020E9EB0008F9EB000805EC000863EC0008F1EB000865EC00082D
:20F70000EDEC00081FEB0008E1EA000817EB000829EB000831EB0008E5EC000869EC0008A3
:20F72000E9EC0008F1EC000800000000000000000000000000000000000000000000000007
:20F7400000000000515F00086B600008E7440008F7450008574800089D4B00084947000878
:20F760007746000800000000574D00083D4F0008B34200081D43000800000000B94D000811
:20F780000000000000000000000000006F4D00082F51000854FA000805000000ABE000082F
:20F7A0005CFA000805000000B3E0000864FA000806000000BBE000086CFA000806000000C8
:20F7C000D3E00008F8F900080B000000E7E00008B8F900080E00000000000000A9650008BE
:20F7E000A96400081367000869670008B5670008E1670008EF6700081168000825680008B2
:20F800009568000837690008DF6A00088F660008D3690008C578000855810008FB6A000819
:20F820004B740008517400081D7400084174000849730008B5730008DB73000867730008B2
:20F84000937300089974000810B5074979441831064C7C44163404E0081D0A68511888475B
:20F860000146A142F8D110BD5000000078000000FFFFFFFFFFFFFF9EE7FFFFFFFFFFFFFF89
:20F88000B6EDFFFFFFFFFFFFFF0000A50000000000000000FFFFFFFFFFFFFFFFFFFFFFFF33
:20F8A000FFFFFFFFFFFFFFFFFFFFFFFFFFFFFFFF00000000F00000006766FFFF0016000087
:20F8C000C802002004000000C81A002000000000D760FFFFC802000048F4FFFF00000020DF
:20F8E00000000000080C10141820303100040C1014181C24282C3034FFFFFF383900000085
:20F9000000F009F8002801D0FFF79EFF0020FFF7B9FE00F002F80120704700F001B8000032
:20F920000746384600F002F8FBE70000C046C046024A11001820ABBEFBE700BF260002005D
:20F94000998800089D880008A188000800000000A588000820AA440001000000FFFF0000DE
:20F9600000000000000000003D6E0008456E0008556E000800000000596E00085DCB00084F
:20F9800087CB0008B1CB0008C9CB000800000000E1CB0008E3CB0008F3CB000800000000BD
:20F9A000F5CB0008434443204441544120696E746572666163650000506572666F726D547B
:20F9C0004946496E6974000042554C4B20696E746572666163650000436F6E6669677572C8
:20F9E0006174696F6E0000000148804701480047EDEF000829FA000849524C656E44657664
:20FA000069636500FFFFFFFFFFFFFF3CE7000000000000000000000000000000A1200000D8
:20FA20000000020000000000C046C046C046C046FFF766FF42475461736B00004944534510
:20FA40004747455253454747455200004A2D4C696E6B0000495250726500000044525072A5
:20FA6000650000004952506F737400004452506F737400006D61696E0000000081C00300BB
:20FA80000000000081E003000020000000C20100000008008DB90008B7B900084A2D4C6925
:20FAA0006E6B0000335AEA98F1A0000000000000FFFFFFFFFFFFFFFFFFFFFFFFFFFFFFFFDD
:20FAC000FFFFFFFFFFFFFFFFFFFFFFFFFFFFFFFFFFFFFFFFFFFFFFFFFFFFFFFFFFFFFFFF46
:20FAE000FFFFFFFFFFFFFFFFFFFFFFFFFFFFFFFFFFFFFFFFFFFFFFFFFFFFFFFFFFFFFFFF26
:20FB0000FFFFFFFFFFFFFFFFFFFFFFFFFFFFFFFFFFFFFFFFFFFFFFFFFFFFFFFFFFFFFFFF05
:20FB2000FFFFFFFFFFFFFFFFFFFFFFFFFFFFFFFFFFFFFFFFFFFFFFFFFFFFFFFFFFFFFFFFE5
:20FB4000FFFFFFFFFFFFFFFFFFFFFFFFFFFFFFFFFFFFFFFFFFFFFFFFFFFFFFFFFFFFFFFFC5
:20FB6000FFFFFFFFFFFFFFFFFFFFFFFFFFFFFFFFFFFFFFFFFFFFFFFFFFFFFFFFFFFFFFFFA5
:20FB8000FFFFFFFFFFFFFFFFFFFFFFFFFFFFFFFFFFFFFFFFFFFFFFFFFFFFFFFFFFFFFFFF85
:20FBA000FFFFFFFFFFFFFFFFFFFFFFFFFFFFFFFFFFFFFFFFFFFFFFFFFFFFFFFFFFFFFFFF65
:20FBC000FFFFFFFFFFFFFFFFFFFFFFFFFFFFFFFFFFFFFFFFFFFFFFFFFFFFFFFFFFFFFFFF45
:20FBE000FFFFFFFFFFFFFFFFFFFFFFFFFFFFFFFFFFFFFFFFFFFFFFFFFFFFFFFFFFFFFFFF25
:20FC00000448054AC06102210172426203490162086800478C400020C01A0020901A0020D8
:20FC200036481649794454310160154A7A445032144979444E314160C261134979444831B6
:20FC40008160124A7A444432114979444231C1600262104979443C310F4A7A443A320161BC
:20FC600042620E49794434310D4A7A443232416181618162C262016341637047990000000B
:20FC80009B0000009D0000009F00000099000000A3000000D30000009500000049EAFFFFB8
:20FCA000A700000070B5164D164C2868164E6080608831880840400505D54FF6FF302860DB
:20FCC000124840688047608831880840800507D54FF6FF5028602078401C207000F045F844
:20FCE000608831880840000406D5FFF7F1FD0848017809B90121017070BD00008C3F002022
:20FD0000445C0040304100203C410020901A00207C1C00200020FAF7D5BF0020FAF7E2BFFC
:20FD2000FBF7D8BA70470820FDF764B90420FDF761B980B500210420FCF7B6FABDE8024019
:20FD40000420FCF756BA10B50B4C0520FCF7CFFA20800520FCF7A1FA2288BDE81040014646
:20FD60000648FCF7FBB9FFF712BB05480078042808BFFFF795BC7047AC3C0020C03E0020EF
:20FD80007C1C00207047704770477047704770477047704770477047704770477047202020
:20FDA000FBF7C0BE4FF40070FBF7BCBE25494FF4005008607047FBF700BAFFF769BA704718
:20FDC000FFF726BEFFF76EBF7047704780B51E4801884FF6FE72114001801C480078012808
:20FDE0000ED1FAF74AFE012803D100220021022002E0002200210320BDE80840FAF76ABE3B
:20FE000001BD704780B5104801884FF6FB72114001801B20FBF7A3FD0C48007880B90C48AD
:20FE20000168491C0160C9070A48026822F0F002009200994CBF41F0400141F0B001016018
:20FE400001BD000004000240102C0140441C002020410020040801407047704770477047F7
:20FE600070477047704770477047704770477047704770477047816807E002681168536837
:20FE800089185B18C36008320260C2689142F4D04A1C8260087870472DE9FF4D00F10801F3
:20FEA000009100270268520801EBC2010191B8460021029103910168490800EBC101406830
:20FEC00000F0010501F10804400804EBC00631E000A8FFF7D0FF4FFA80FA0AE00098016805
:20FEE000081800990290496808180390009808300090029803998842F0D0401C029010F83D
:20FF000001BD47450CD1B44208BF00F01DF8276805B14F44606800EB070808344745F2D0D4
:20FF2000BAF1000F07F801BB0AD51AF1010AE8D14745CDD1B442CBD1304604B0BDE8F08D96
:20FF4000BAF1010AD5D5F3E7012000F001B8000080B5C046C046024A11001820ABBEFBE77C
:20FF60002600020010B5074979441831064C7C44163404E00A68081D511888470146A14205
:20FF8000F8D110BD0800000034000000BF92FFFFC4240000841C002000000000FDFEFFFF9F
:20FFA0000200000002000000E40000006A04000000000020831C00000500000010B5044618
:20FFC000044979440E31044878440C3000F006F8204610BD400000001C00000038B50446E0
:20FFE0000D46AC4205D0206820188047241DAC42F9D131BDCDD2FFFFF540FFFFF5F6FFFFC4
:020000040801F1
:2000000021FCFFFFA1EDFFFF09D0FFFF0DDCFFFF09D3FFFF00F00BF8002801D0FFF7A2FF1E
:200020000020C046C046FFF741FD00F002F80120704700F001B8000007463846FFF788FFAD
:20004000FBE700000148804701480047019B000855000108C046C046C046C046FFF7DAFF35
:20006000FFF7FEBFFFF7FEBFFFF7FEBFFFF7FEBFFFF7FEBFFFF7FEBFFFF7FEBFFFF7FEBFE8
:20008000FFF7FEBFFFF7FEBFFFF7FEBFFB0002080008FC000020F10001127A81008100811D
:2000A000008100810081008100810081008100810081008100810081008100810081008130
:2000C000008100810081008100810081008100810081008100810081008100DE00054E550D
:2000E000434C454FFB200028F60003418EBB32FA000B44455441494C532054585401FC00BD
:200100000D210032BB0000DC83BB3002000002810081008100BB001AEB3C904D5344305300
:20012000342E310002080100022000501FF80100010001F5000829741902274D424544FCA5
:200140002007444E444641543132FD20810081008100BB0000F8FBFF810081008100830011
:200160000001ED0000FFFD0000FFFD0000FFFD0000FFFD0001F0FFFB000023FD000023FD76
:20018000000023FD0000238100DB0000308100FC007E637C777BF26B6FC53001672BFED79B
:2001A000AB76CA82C97DFA5947F0ADD4A2AF9CA472C0B7FD9326363FF7CC34A5E5F171D821
:2001C000311504C723C31896059A071280E2EB27B27509832C1A1B6E5AA0523BD6B329E3B0
:2001E0002F8453D100ED20FCB15B6ACBBE394A4C58CFD0EFAAFB434D338545F9027F503C33
:200200009FA851A3408F929D38F5BCB6DA2110FFF37ED2CD0C13EC5F974417C4A77E3D6406
:200220005D197360814FDC222A908846EEB814DE5E0BDBE0323A0A4906245CC2D3AC6291EA
:2002400095E479E7C8376D8DD54EA96C56F4EA657AAE08BA78252E1CA6B4C6E8DD741F4B67
:20026000BD8B8A703EB5664803F60E613557B986C11D9EE1F8981169D98E949B1E87E9CE0F
:200280005528DF8CA1890DBFE6426841992D0FB05402BB16FFF5000020A500080419002005
:2002A000801C002003FD001308300140FC180020C00CC01805F80DF80F800F70D400000832
:2002C000FD0002018004FC0001C020FC0010C000000902800004010080320904000003FDA2
:2002E000FF2E04070581024000000705010240000007058202200000090401000208065091
:20030000050705830240000007050302400000080BFC023901060904020001020201060545
:20032000240010010524010003042402060524060203070584030200FF09040300020A0047
:200340000007070505020800000705850210FA000F480200209E020020A0020020000500DE
:2003600020FC001330040000F40200204A0300204C03002000050020FC0013E00400003CD4
:20038000050020440600203E060020E8110020FC0001A007E200251C200240CC1900202003
:2003A0001200200002000020140020000200002014002000020000201000200002F9000012
:2003C00002F9000002F9000002F9000002F90008020000E41A00200002CA000040B1000F3D
:2003E000780200207A0300207403002088050020FC00016004FA000004F9000026F900000B
:200400001AFD0004641B002032F900001CF900002AF9000022F9000022FD003032033000F0
:200420003000300030003000300030003000300030003000300030003000300030003000BC
:2004400030003000300030003000300031FB00F6FF010000F6FF010000F6FF010000F6FF79
:20046000FD000001FD000002FD000004FD000008FD000010FD000020FD000040FD00008095
:20048000FD00001BFD000036FC00FCFFE0001712010002EF02014083044B370001010203CC
:2004A000010000A58D95BDFC000001FD000787AFB79F00010008FD0002080007FA00148184
:2004C000A9B199A38B93BB30373939541C0020181C002012FD00044819002080FD0001805E
:2004E00025FD0008010800400040000601FD000501020107F801CDCDCDCDCDCDCDCDCDCD3A
:20050000FFFFFFFFFFFFFFFFFFFFFFFFFFFFFFFFFFFFFFFFFFFFFFFFFFFFFFFFFFFFFFFFFB
:20052000FFFFFFFFFFFFFFFFFFFFFFFFFFFFFFFFFFFFFFFFFFFFFFFFFFFFFFFFFFFFFFFFDB
:20054000FFFFFFFFFFFFFFFFFFFFFFFFFFFFFFFFFFFFFFFFFFFFFFFFFFFFFFFFFFFFFFFFBB
:20056000FFFFFFFFFFFFFFFFFFFFFFFFFFFFFFFFFFFFFFFFFFFFFFFFFFFFFFFFFFFFFFFF9B
:20D800000001FFFFFFFFFFFFFFFFFFFFFFFFFFFFFFFFFFFFFFFFFFFFFFFFFFFFFFFFFFFF25
:20D82000FFFFFFFFFFFFFFFFFFFFFFFFFFFFFFFFFFFFFFFFFFFFFFFFFFFFFFFFFFFFFFFF08
:20D84000FFFFFFFFFFFFFFFFFFFFFFFFFFFFFFFFFFFFFFFFFFFFFFFFFFFFFFFFFFFFFFFFE8
:20D86000FFFFFFFFFFFFFFFFFFFFFFFFFFFFFFFFFFFFFFFFFFFFFFFFFFFFFFFFFFFFFFFFC8
:20D88000FFFFFFFFFFFFFFFFFFFFFFFFFFFFFFFFFFFFFFFFFFFFFFFFFFFFFFFFFFFFFFFFA8
:20F80000EBE32C2EFFFFFFFFFFFFFFFFFFFFFFFFFFFFFFFFFFFFFFFFFFFFFFFFFFFFFFFFDC
:20F82000FFFFFFFFFFFFFFFFFFFFFFFFFFFFFFFFFFFFFFFFFFFFFFFFFFFFFFFFFFFFFFFFE8
:20F84000FFFFFFFFFFFFFFFFFFFFFFFFFFFFFFFFFFFFFFFFFFFFFFFFFFFFFFFFFFFFFFFFC8
:20F86000FFFFFFFFFFFFFFFFFFFFFFFFFFFFFFFFFFFFFFFFFFFFFFFFFFFFFFFFFFFFFFFFA8
:20F88000FFFFFFFFFFFFFFFFFFFFFFFFFFFFFFFFFFFFFFFFFFFFFFFFFFFFFFFFFFFFFFFF88
:20FFE000FFFFFFFFFFFFFFFFFFFFFFFFFFFFFFFF152197936F1A6051AD04ADF5D32700A585
:00000001FF
