:020000040800F2
:20000000E01C00200D2E0008312E0008352E0008392E00083D2E0008412E00080000000056
:20002000000000000000000000000000452E0008492E0008000000004D2E0008512E0008BC
:20004000552E0008592E00085D2E0008612E0008652E0008692E00086D2E0008712E0008D8
:20006000752E0008792E00087D2E0008812E0008852E0008892E00088D2E0008912E0008B8
:20008000952E0008992E00089D2E0008152D0008192D0008A92E0008AD2E0008B12E0008B2
:2000A000B52E0008B92E0008BD2E00081D2D0008C52E0008C92E0008CD2E0008D12E00081D
:2000C000D52E0008D92E0008DD2E0008E12E0008E52E0008E92E0008ED2E0008F12E000858
:2000E000F52E0008F92E0008FD2E0008FFFFFFFFFFFFFFFFFFFFFFFFFFFFFFFFFFFFFFFF87
:20010000153CA54700000021772A000810B5DFF8204700B92EE0DFF81C070068006880477D
:2001200020680A3010BD80B5DFF80407DFF8082700685278C1788A420DD38278002A04BF15
:200140008288002A07D18172DFF8E806006840688047002002BD022002BD10B5DFF8D04692
:2001600000B907E0DFF8CC0600688068804720680C3010BD206801210182002010BD10B5AF
:20018000DFF8AC46DFF8B42620681268C17840799269904721688A7A9AB1002804BF0879DB
:2001A00000280ED1887860B9DFF888060068C068804720684179C1722068C1780173002099
:2001C00010BD022010BD10B5DFF86416096818B902200882002010BD0020DFF86446208031
:2001E0007F220878104215D1487A810603D5002141F0020121704006217854BF01F0FE00BE
:2002000041F001002070DFF82C06006800698047204610BD00F07F02012AF9D000F07F0074
:200220000228D7D14879DFF81C2600F00F01000652F8210007D500F030001028E3D1002099
:2002400040F00100DEE700F44050B0F5805FDAD1002040F00100D5E770B5DFF8D4050068AB
:20026000017811F07F0104D1417A01F0DF01417251E0022901BF41880029017900294CD1A2
:200280004179DFF8C04521F080050A0654F825204CBF02F0300202F44052DFF89C351B789F
:2002A0009D423AD2002A1CBF807A002835D0080654F825000BD500F03000102826D128460B
:2002C00000F045FB3021284600F0F6FA1EE000F44050B0F5805F19D14BF68F7665B9DFF824
:2002E000680590F82C10002000F05EFB2068304080F44050206009E0284600F018FB54F842
:200300002500304080F4405044F82500DFF82405006840698047002070BD022070BD38B582
:20032000DFF80C05DFF81C150268537923F080001C0651F820404CBF04F0300404F440547A
:20034000DFF8F4542D78A84206D2558825B9002C1CBF927A002A01D1022032BD1A0651F8D3
:20036000202005D548F6BF731A4082F0100204E04BF68F731A4082F4805241F82020DFF8FC
:20038000B404006880698047002032BDDFF8A0241268538A20B98888C01A10820020704760
:2003A0000868181870472DE9F041DFF88444206800F110052988002904BF007A042802D15C
:2003C0000726102025E0AF888F4205D30426B94288BF39460F4600E00226A9683846884735
:2003E0008046002000F0D1FA01463A46404600F02AFB3946002000F0D0FA2888DFF84C14BA
:20040000C01B28804FF440526888381868800A803020DFF83C14088020680672BDE8F081BD
:2004200038B5DFF80C442068457801787F22114241D1092D02D1FFF776FE50E0052D1BD123
:20044000C178802959DA8178002901BF81880029807A002851D1DFF8FC13DFF8FC230968E2
:2004600089B2002342F811300620DFF8E41330220A802168087231BD032D11D1C17801296D
:2004800004BF818800292CD1417A8A0629D541F020014172DFF89C030068C0698047DAE78D
:2004A000012D04BFC17801291BD18188C9B9407A80060DD415E001F07F00012804D10B2DB5
:2004C0000FD1FFF75CFE0AE002280AD1012D02D1FFF7C2FE03E0032D03D1FFF720FF002822
:2004E000B9D0DFF858130968496928468847032808BF0920BDD00028ADD00820B9E710B5F7
:20050000CB4C20684178062916D101787F22114231D18078012803D1C8480068C16975E012
:20052000022803D1C5480068016A6FE0032822D1C2480068416A69E0002944D141880029DA
:2005400004BFC188022916D10179A1B901787F22114204BF8288002A33D001F07F02012AA5
:2005600015D1B64A4079126892690021904710B92068807A28BBB149206809684078096924
:20058000884703284BD120680921017210BD01F07F010229EFD14079AA4B00F00F0100F059
:2005A0007002000653F821004CBF00F0300000F44050A14B1B789942DDD2002ADBD10028A1
:2005C000D9D0A64922E0082905D100787F210842D1D1A3491AE00A2902BF017801F07F01B2
:2005E0000129C8D1817A0029C5D04188002901BF01790029C1880129BDD1904A407912681C
:200600009269002190470028B5D196490800B2D020680022428281610020884700202168E8
:200620000A8A4FF6FF739A4208BF092004D0022818BF002A02D10820087210BD08780006DC
:200640000BD5C888904238BF08827C48006890F82C008882BDE81040A5E6032008724FF4CD
:2006600040517A48018010BD38B57A487E4900686F4C80B231F8100021680A7A400000F197
:20068000804000F5C040092A14D010F8012B0A70216810F8012B4A70851C35F8040B00F09C
:2006A000CDF921684880288800F0C8F921688880A888C8800121206801722068C08810B903
:2006C000FFF7AEFE01E0FFF71AFFBDE831407DE010B5574C2068017A022918BF042904D1A6
:2006E000FFF761FE2068007A14E0062911D14178052902BF01787F22114206D1C07800F08A
:200700007FF84C480068006A80474C48006880688047082021680872BDE8104056E0F8B587
:20072000434C2068017A032918BF052943D100F11005A9682E88080018BF002E14D0A888F4
:20074000864288BF06463046884707462888801B2880688830186880002000F017F9014632
:200760003246384600F085F9288850B137484FF4405101800020002100F00FF9344830218A
:2007800001802888AA882168904228BF032001D210B1052008720BE00620087200222D483C
:2007A0002D49006880B241F810203021284801802068007A06E0072903D120480068C0689A
:2007C0008047082021680872BDE8F14080B51E4890F82C10002000F0E7F815480068017AC3
:2007E000082906D119494FF480520A80102218490A80007A092801D1012002BD002002BD97
:20080000F0B40D490F4B0978002259B11C4648F68F7526682E40D7B23E43521C44F8046B14
:200820008A42F6D340F08000D864F0BC70470000841400208C140020480300208814002035
:20084000C4140020005C004034020020C8140020CA140020505C004004600040C701000854
:200860000D0100085B01000808600040704710B450F8041B81B102681218001D50F8043B0A
:20088000DC0744BFA9F10104E31852F8044B43F8044B091FF9D1EBE710BC70474FF6F871C0
:2008A0000840DFF8801108607047DFF87C2152F8203048F68F1C5AE0DFF86C2152F820303A
:2008C00048F6BF7C0CEA03035FEAC16C48BF83F01003890648BF83F0200310E0DFF8482144
:2008E00052F820304BF68F7C0CEA03035FEAC14C48BF83F48053890448BF83F4005342F8D7
:2009000020307047DFF8201151F820204BF68F731A4082F4405207E0DFF80C1151F8202036
:2009200048F68F63FFE71A4041F820207047DFF8F81051F82020520408D551F8202048F6B5
:200940008F731A4042F4804241F820207047DFF8D81051F82020520608D551F8202048F6CF
:200960008F731A4042F0400241F8202070470CEA0303194342F82010704738E0294A1268F9
:2009800092B202EBC000294A37E03BE02549096889B201EBC00025493AE0224A126892B249
:2009A00002EBC000224A2AE01E4A126892B202EBC000204A02EB40003F2909DB4A091F23C9
:2009C000194208BF521E1204910941F4004105E04A08C90748BF521C12049109016070471B
:2009E0001049096889B201EBC000124914E00D4A126892B202EBC0000F4A4908490042F808
:200A0000101070470749096889B201EBC0000A4951F8100080B2704751F810008005800D57
:200A200070470000505C0040005C004008600040046000400C600040006000400106090CC3
:200A400041EA10207047490001F18041521C01F5C04152100AD1704710F8013B10F801CB17
:200A600043EA0C2321F8023B891C521E002AF3D17047490001F18041521C01F5C041521047
:200A800005D1704751F8043B20F8023B521E002AF8D17047F0B5046842688368C068DFF82D
:200AA0000C56DFF80C760C604A608B60C8600A26C0F3072EC0F3074C1EF807E01CF807C05C
:200AC0004FEA0E4E4EEA0C6C5FFA80FE1EF807E04CEA0E2C4FEA106E1EF807E04EEA0C0C89
:200AE00055F804EB8EEA0C0C8CEA0404624041F8104F53404A6058408B60C860761ED7D14E
:200B0000F0BDC7E72DE9F04F036852F8A04F84EA030E4368546884EA030883689468C06813
:200B200084EA0309D368DFF88C4583EA000CA2F1200009221B23CCF307464FEA1E65365D68
:200B40002D5D360446EA0565C9F30726CEF30747365D3F5D45EA06255FFA88F63F04365D09
:200B60003543066975404FEA1866C8F3074A365D1AF804A047EA0666CCF307274FEA0A4AB6
:200B80003F5D46EA07265FFA89F7C8F307283F5D18F804803E4347697E404FEA1967C9F305
:200BA00007493F5D19F804904AEA0767CEF3072A5FFA8EFE1AF804A01EF804E047EA0A2719
:200BC0005FFA8CFA4FEA1C6C4FEA09491CF804C01AF804A049EA0C6C4CEA082C4EEA0C0CF7
:200BE000D0F81CE04FEAD5188EEA0C0C08F0013805F07F3E03FB08F888EA4E0E4AEA07078A
:200C00004FEADE19D0F818A009F001390EF07F3803FB09F98AEA070789EA48084FEAD81ACC
:200C20000AF0013A08F07F3903FB0AFA8AEA490989EA050585EA0E0B88EA0E0E89EA0E0EE5
:200C400085EA080A8EEA3B6E8EEA3A4E4FEAD6188EEA352E08F0013806F07F3503FB08F817
:200C600088EA45054FEAD51909F0013905F07F3803FB09F989EA48084FEAD81A0AF0013A8F
:200C800008F07F3903FB0AFA8AEA490989EA060686EA050B88EA050589EA050586EA080A62
:200CA00085EA3B6585EA3A4585EA3628FE0906F0013607F07F355E4386EA45054FEAD51909
:200CC00009F0013905F07F3603FB09F989EA46064FEAD61A0AF0013A06F07F3903FB0AFA6A
:200CE0008AEA490989EA070787EA050B754089EA050587EA060A85EA3B6585EA3A454FEA43
:200D0000DC1685EA372906F001360CF07F355E4386EA4505EF0907F0013705F07F365F4367
:200D200087EA46064FEAD61A0AF0013A06F07F3703FB0AFA8AEA470787EA0C0C8CEA050B19
:200D400075407D408CEA060A85EA3B6585EA3A45103885EA3C2C521E7FF4EDAECEF30743F6
:200D60004FEA18621B5D125D1B0443EA0262CCF30723C8F307451B5D2D5D42EA03225FFA8D
:200D800089F32D041B5D1A4343695A404FEA1963C9F307461B5D365D45EA0363CEF3072540
:200DA00036042D5D43EA05235FFA8CF5CCF307472D5D3F5D2B4385696B404FEA1C653F0409
:200DC0002D5D46EA0565C8F30726365D45EA06255FFA8EF6365D3543C669006975404FEAAC
:200DE0001E66365D47EA0666C9F307273F5D46EA07265FFA88F73C5D3443604008604A60C2
:200E00008B60CD60BDE8F08F2DE9F0470368146855689668A64F634044686C408568C068A2
:200E20007540D66886EA000902F1100009221B26C4F3074E4FEA136C1EF807E01CF807C03B
:200E40004FEA0E4E4EEA0C6CC5F3072EC5F307481EF807E018F807804CEA0E2C5FFA89FE75
:200E60004FEA08481EF807E04EEA0C0C4FEA146EC9F3074A1EF807E01AF807A048EA0E6E70
:200E8000C9F307284FEA0A4A18F807804EEA082E5FFA83F84FEA196918F8078019F8079007
:200EA00048EA0E0E4FEA156818F807804AEA0868C3F3072AC3F307431AF807A0DB5D48EAE9
:200EC0000A285FFA84FAC4F307241B04E45D1AF807A043EA096343EA0423ECB24AEA08083F
:200EE000E45D44EA03094FEADC1303F0013373430CF07F34CCF3066A83EA44058CEA4A6AB4
:200F000083EA0A0A8CEA440463401B0243EA1A636B4083EA3C4350F8044B83EA3C2363408B
:200F20004FEADE1404F0013474430EF07F35CEF3066A84EA450C8EEA4A6A84EA0A0A8EEADE
:200F400045056C40240244EA1A6484EA0C0484EA3E4450F8045B84EA3E246C404FEAD81512
:200F600005F00135754308F07F3CC8F3066A85EA4C0E88EA4A6A85EA0A0A88EA4C0C85EA05
:200F80000C052D0245EA1A6585EA0E0585EA384550F804CB85EA38258CEA05054FEAD91C64
:200FA0000CF0013C06FB0CFC09F07F3EC9F3066A8CEA4E0889EA4A6A8CEA0A0A89EA4E0EC1
:200FC0008CEA0E0C4FEA0C2C4CEA1A6C8CEA080C8CEA394C50F804EB8CEA392C8EEA0C0930
:200FE000521E7FF425AFC5F30746220EF65DD25D360446EA0262C9F30726C9F3074CF65D6A
:201000001CF807C042EA0622DEB24FEA0C4CF65D3243466872402E0EC3F3074EF65D1EF8A8
:2010200007E04CEA0666C3F3072C4FEA0E4E1CF807C046EA0C265FFA84FC1B0E1CF807C08F
:20104000DB5D4CEA0606D0F808C08CEA06064FEA196C1CF807C04EEA0C6CC4F3072EC4F318
:201060000744E45D1EF807E0240444EA03634CEA0E2CC5F307245FFA85FEE45D1EF807E0BE
:2010800043EA04234EEA0C0C5FFA89F4D0F80CE0E45D00682343584008604A608EEA0C0CD9
:2010A0008E60C1F80CC0BDE8F08700006402002000000020000100202DE9F04F93B080467C
:2010C00002AE002014461D460291B0610DF1300A0AE014F8011B0298C0470290002800F04A
:2010E000B481B069401CB061207808B9B069AEE12528EED10020F0603061706101E040F045
:20110000010014F8011F2029F9D023290DD02B2904D02D2906D030290AD00CE040F00200C2
:2011200080B2EEE740F00400FAE740F00800F7E740F01000F4E72A290DD129680A1D2A60EF
:2011400009683162002904D5494240F00400316280B2641C13E0002131620BE0316A6FF0F9
:201160000043994205D001EB810302EB430130393162641C2278A2F130010A29EED3217874
:201180002E2903D04FF0FF31F1611EE014F8011F2A2906D129680A1D2A60641C0968F1618B
:2011A00013E00021F1610BE0F1696FF00043994205D001EB810302EB43013039F161641C56
:2011C0002278A2F130010A29EED3B0840FF28030217800F0C1F908B114F8010B8DF82E0011
:2011E0009DF82E00682804BF2078682803D162208DF82E00641C0CA8B0602278252A13D098
:20120000582A34D0632A00F0A580642A18BF692A68D06F2A2BD0702A20D0732A09D0752A43
:2012200018BF782A23D09FE0F068411CF160252197E02868011D29600068F2697060002A0C
:2012400002D500F0A5F907E0002100F0C1F900281ABF7168401AF069306191E02868011D3A
:2012600029607821006801900CA870606EE09DF82E306C2B08BF286811D0712B08BF2868CC
:2012800002D028686A2B0AD1C01D20F007002860014601F108002860D1E9000102E0011D7C
:2012A000296000680190682B02D101A8008803E0622B02D101A80078019096F82400000767
:2012C0003FD5019800283CD042F02000782838D1F068302100F80A10401C411CF16000F875
:2012E0000A202EE09DF82E00622802D0682806D00BE02868011D296090F9000009E028680D
:20130000011D2960B0F9000003E02868011D296000680190002804D5F068411CF1602D2115
:201320000DE0B08C810704D5F068411CF1602B2105E0C00705D5F068411CF160202100F80C
:201340000A10F0680CA940187060114601A800F081F815E0F068411CF16029680A1D2A6098
:20136000096800F80A100BE0F068411CF160252100F80A1022B1F068411CF16000F80A20A6
:20138000306AF168401A7169401A3169A0EB010996F82400641C40070FD420208DF800007C
:2013A000002708E0012300AA01A9404600F0B9F800284AD17F1C4F45F4DBF7680DF1300BA6
:2013C0000AE01BF8011B0298C047029000283CD0B069401CB0617F1E002FF2D130208DF8A3
:2013E00000004FF0000B776908E0012300AA01A9404600F096F840BB0BF1010BBB45F4DB8D
:201400003769D6F804B009E01BF8011B0298C0470290D0B1B069401CB0617F1E002FF3D1C8
:2014200096F8240040077FF55FAE20208DF8000000E07F1C4F45BFF657AE012300AA01A92C
:20144000404600F06EF80028F3D04FF0FF3013B0BDE8F08FF0B4C2686F2908BF082405D042
:2014600041F02003782B14BF0A241024066818233746642918BF692902D1002E48BF7F425B
:201480005FB9056A4DB9082C27D190F82810090723D530211723D1751FE0B7FBF4F604FB60
:2014A000167730375D1EFFB22B463A2FA4BFA1F1510C6744AF54370003D085689E18B5428E
:2014C000EBD3082C09D190F82810090705D5995C302902D05B1E30219954C3F11801416150
:2014E0009A188260026A914208DA511A81614FF6EF72018D11400185F0BC7047002A0ED56F
:2015000090F8282002F01402102A08D1426A0369D21A8369D21A531A012BA8BF8361F0BC74
:201520007047F8B504460D4616461F46002004E0E869401CE8617F1E002047B116F8011B10
:201540006868A04768600028F2D14FF0FF30F2BD686C747A4C0000000278C9B28A421AB16A
:201560001CBF10F8012FF9E718BF0020704750F8041B61B150F8042BD30744BFA9F101035F
:201580009A18002342F8043B091FFAD1EFE7704700F10103810704D010F8011B89B1810746
:2015A000FAD10268B2F10131914311F0803F04BF50F8042FF6E710F8011B11B110F8011B68
:2015C000FBE7C01A70470268531C036011707047C9B2830706D0521E22D310F8013B9942C5
:2015E000F7D11FE0083A13D302F1040241EA012141EA014150F8043B121F21BF4B40A3F192
:20160000013C2CEA030C1CF0803FF3D0C9B2001F083210F8013B521E28BF91EA030FF8D80E
:2016200018BF0120401E704780B500F0C1F9CA49087001BD2DE9F84304460D46A04615F09C
:20164000030F0BD04FF6FC702840001D854205D2411BC248FF22281800F06EFA0026C04F75
:201660000DB97E8213E0DFF8F49259F8041B204600F0BDF9241D361DAE42F6D30020788271
:20168000788A18F8011B081878826D1EF8D1788A398A88420CBF00200320F872BDE8F1838E
:2016A000AF48022181720021C172AE480170704730B5AD484178491E8BB0092900F243818E
:2016C000DFE811F037004101A700F80013012B011A000A001F0028001422A44905A800F0BF
:2016E0006FFAA34800788DF818001422A02105A8FFF7A9F9142104E19948072101730BB0F3
:2017000030BD81784129A8BF4021924800F013FB0BB030BD01A8002100220B460C461EC0C4
:201720004FF004500190102101A800F004FB0BB030BD8B4CA17A022918BF05295FD18279C7
:20174000002A04BFC17900290BD1012060620620A072E07A207000206070608006202071D1
:20176000F4E084490B78A3B9C378857845EA03232362C37942EA0322A2614279007940EAE9
:2017800002202082A069E0610020E0810120087026E0206A784D98B9002100F029FB2878A6
:2017A000E97820730904287941EA0060A97840EA01206978084360610320A0722071C5E038
:2017C000E089A2690019412A11D340222946283000F0E6F9E0894030E081A0694038A06179
:2017E0004FF440510220FFF779F80BB030BD2946283000F0D5F90320A0722071A6E00A20E9
:20180000A0720F2020700020607060800A2020719CE0534CA07A032814D0042802D00628FC
:2018200041D03AE0607BC1073DD50521A172217100F0FE000021617061806073E17A21707D
:2018400000210DE0607BC1070ED500F0FE0005216073A17221710021E07A617061802070AB
:20186000012000F0C5FA1EE00421A1722171217B412916BF512950210021009140F0020026
:201880009DF80010617060739DF80110A1709DF80210E170E17A217005E0207100206070FE
:2018A0006080E07A20700622A0212046FFF7CBF8062126E02A4CA07A0A2808D10220A0725A
:2018C0000020206002202071002060710BE00A20A0720E2020700020607060800A20207154
:2018E000002060710E20E07230E01D4CA07A60720222E07A2072A02104F10800FFF7A3F8B3
:2019000002210120FFF749F830210120FEF7D4FF1848032101700BB030BD114CA07A801E60
:20192000012884BFC01E012801D9001F0ED10220A072002020600220207100206071206262
:20194000A061E07202E0022000F01BFA00F00EFA0BB030BD303C0008D6140020740B00206E
:201960004C0300209D140020A0140020E0F7FF1F203C00089C14002028140020DFF898114E
:201980000A6802F03802FFE70A600A68104308607047DFF884110A6822F01002F4E7DFF8C1
:2019A0007C01DFF87C110160DFF878110160704770B5054640F6FF76304600F078F8042850
:2019C00014D1DFF86441206840F0020020606560206840F040002060304600F068F8012840
:2019E00004D0216841F6FD721140216070BD70B50E46054616F1010F01D1042070BD0F20B8
:201A000000F055F8042816D1474C206840F0010020602E800F2000F04AF8042804D1300C5E
:201A200068800F2000F043F8012804D0216841F6FE721140216070BD70B5044640F6FF751F
:201A4000284600F034F8042830D1384E3448306034483060B06840F02000B060B06840F071
:201A60004000B060284600F022F8042817D1B06841F6DF710840B060002CB06840F010000F
:201A8000B0602B4814BF0021A5210180284600F00EF801280AD0B16841F6EF7204E0012863
:201AA00004D0B16841F6DF721140B16070BD18B4204A13680421DB0748BF012108D41368EA
:201AC0005B0748BF022103D41368DB0648BF0321FF2304E01468E40648BF0321401E0129FD
:201AE00015D1A8B100210091009302E00099491E009100990029F9D104211468E40748BFD0
:201B00000121EBD414686407E4D50221E6E700B90521084612BC70470020024004200240DA
:201B200023016745AB89EFCD102002400820024000F8FF1F0C20024062F30F2262F31F4249
:201B4000401810F0030308D0C91A1FD3DB0748BF00F8012D28BF20F8022D130030B41446EC
:201B60001546103928BF20E93C00FAD8490728BF20E90C0048BF40F8042D890028BF20F87F
:201B8000022D48BF00F8012D30BC7047C91818BF00F8012DCB0728BF00F8012D70470000D2
:201BA00062B38B0708D0521E11F8013B00F8013B00F024808B07F6D1830740F0208000BFB7
:201BC000103A07D330B4B1E83810103AA0E83810F9D230BC530724BFB1E80810A0E80810BD
:201BE00044BF51F8043B40F8043BD20724BF31F8022B20F8022B44BF0B7803707047083A9A
:201C000007D3B1E80810083A40F8043B40F804CBF7D25307E4E7000000B55048017840780D
:201C200083B08DF8001000A948704D48027A8DF80220427ACA700622817AC07A8DF80410D7
:201C40008DF80500A02100A8FEF7FDFE06210120FEF7A3FE30210120FEF72EFE4148032183
:201C6000017003B000BD10B53E4C607882B000F50070ADF800000222A02100A8FEF7E3FEBD
:201C80000320207002210120FEF787FE30210120FEF712FE13BD33480178891E03D0491EB7
:201CA000012905D970470079F32802D1FFF700BD60E0704710B50220FEF792FE0446224636
:201CC000E0212948FEF7D5FE2648017811B1012904D007E02046BDE8104005E00079F32868
:201CE00001D119E01CE010BD10B51E4C20B11E490246201DFFF754FF2079F12804D0F3287A
:201D000005D0F52804D006E0BDE8104084E703E0BDE81040A7E703E0BDE81040FFF7C8BCFF
:201D200010210120FEF7C8FDBDE810404FF480510220FEF7D3BD10B50C462246A021FEF7B2
:201D400082FE21460120FEF728FE30210120FEF7B3FD04480321017010BD0000FE3F000856
:201D6000A82C00089C14002028140020004801E09C1400200021017002204FF44051FEF7E5
:201D8000ADBD80B518B1022807D00AD301BDBDE8044010210120FEF78FBD10210120FEF77C
:201DA0008BFDBDE80440C1E700B585B000F096F8454802210186018801F09F010180018847
:201DC00001806020ADF800000220ADF808000120ADF8020000A800F08EF8012000F0C6F8D9
:201DE000012000F0C0F8012000F0AAF805B000BD70B5364E0446307882B00D46844218D027
:201E00000021042000F0A0F8002000F095F8062C40D8DFE804F004121427181A2F002C482D
:201E2000016821F0F0010091009941F04001016030E07068A842EAD173BD502000E04020CD
:201E400000F08CF826E0502000E0402000F086F82048858248F6A04101820420012100F0A3
:201E600073F817E01B4864218182818A49080184642105E017488582690801844FF6FF71B9
:201E800001820188C9B20091009941F4D041009100990180012110480160307800281CBF1A
:201EA0000428052809D144B10948016821F0F0010091009941F0B001016034707560012037
:201EC000BDE8764000F038B8002C0140B014002004080140182C01408082254280B50121E4
:201EE0004FF4006000F0EDF8BDE8044000214FF4006000F0E6B8DFF88C10DFF88C300A8897
:201F00004FF0000CC3F800C0D2B2B0F800C042EA0C220A8042881A6082889A6002895A609E
:201F20004289DA608389DFF86420FFE71360C3895360C08808847047DFF8541008607047F8
:201F4000DFF8501008607047DFF84C20012911880CBF084321EA00001080704709490A88D9
:201F600040F67F7308E00D49086070470C49086070470A884FF2FF331A4042EA0020088035
:201F800070470000182C014010842542A880254200802542BC8825420C2C01401C8025426D
:201FA0002C8325425848594A0021C16001611421416100218161C161016841F0010101602B
:201FC000416811404160524A016811400160016821F480210160416821F4FE0141600021B0
:201FE0008160704748490A6822F480320A60B0F5803F0A6822F480220A6003D0B0F5802FF5
:2020000004D07047086840F4803002E0086840F4A020086070473F483B490A68520C02F0AF
:20202000010202704268521C4260027812B94268FF2AF2D10868800301D5012070470020D5
:202040007047354A136823F47C1318430843106070473249086070472F490A68920840EA14
:202060008200086070472C48006800F00C00704729490A6822F0F00203E027490A6822F46D
:20208000E06210430860704723490A6822F4605242EAC00008607047214908607047214AE7
:2020A0000029116814BF084321EA0000106070471D4A0029116814BF084321EA000010608C
:2020C00070471A4A0029116814BF084321EA00001060704716490870704741090A4A01299D
:2020E00008BF116803D002290CBF116A516A00F01F0021FA00F000F0010070470D48016821
:2021000041F0807101607047001002400000FFF8FFFFF6FEB8140020041002406000424224
:20212000D8004242181002401C1002400C100240071002402410024000B59248816843681B
:20214000026889B001A800910FF2742100F040F98D4901A8062210F8013B01F8023B521E52
:2021600010F8013B01F8023B10F8013B01F8023B10F8013B01F8023BEDD109B000BD8348F2
:202180000068807A00B9704780B50120FEF7DFFB0220FEF7CCFB7E480021017001BD000054
:2021A00038B5FFF7C9FF794C20680021817200F029F900217748784A784D41604FF4044171
:2021C0001180016076492068C979417208E02878012804D14FF4FA710420FFF709FE00BFBD
:2021E0002068807A0028F2D005216E48017031BD10B56D48002181720020FEF74FFB4FF408
:2022000000710020FEF751FB20210020FEF754FB20210020FEF7B2FB644C94F82C100020AC
:20222000FEF7C2FB60210020FEF7A7FB0020FEF773FB0020FEF766FB00210120FEF735FB54
:20224000A0210120FEF799FB20210120FEF734FB00210120FEF742FB00210220FEF725FBC1
:20226000E0210220FEF78AFB94F82C100220FEF79BFB4FF440510220FEF730FB00210220F3
:20228000FEF71AFB00210320FEF70FFB4FF480710320FEF772FB20210320FEF70DFB0021B6
:2022A0000320FEF71BFB94F82C100020FEF77CFB0020FEF727FB0020FEF7A2FA3448002117
:2022C000017010BD7047704780B5304909680A7802F07F02212A08BFFE280BD14888002832
:2022E00001BF88880028C888012803D10FF28100020001D1022002BD88610020488200F09F
:2023000037F8002002BD80B5204909680A7802F07F02212A08BFFF2815D14888002804BFD1
:20232000888800280FD1C88868B90120FEF70FFB0220FEF7FCFA0320FEF709FB144800214E
:202340000170002002BD022002BD00290CBF0028022070471649FEF719B81649FEF716B810
:202360000A49154A0968C97802EBC101FEF70EB828B90648006801210182002070470F4825
:2023800070470000E8F7FF1F02020020841400209C140020405C0040D4140020CC140020F9
:2023A0008C020020D814002068140020340200203803002040030020B4020020D0140020D9
:2023C000253038582530385825303858000000000CB41CB5044604A801900A46009401ABA6
:2023E00000A9074878441830FEF766FE009900220A7000285CBF0098001B16BC5DF80CFB2F
:20240000C7F1FFFF80B5012000F0F1F80C480D4A012101600021016041604FF4044111806D
:202420000160002002BD10B5054C012020600020606000F0DCF803202060002010BD000071
:20244000405C0040D414002010B582B000F01BF86C4C4FF40041204600F080F94FF4004010
:20246000ADF8000000A914208DF8030001208DF80200204600F012F900F0CEF8FFF794FC0D
:2024800000F07CF813BD80B5FFF78CFD4FF48030FFF7A8FDFFF7BFFD012828D11020FFF7CC
:2024A00078FA0220FFF76AFA0020FFF7E1FD4FF48060FFF7E9FD4FF48060FFF7DEFD002027
:2024C000FFF7EAFD4FF4E0114FF48030FFF7B9FD0120FFF7BEFD3920FFF7FFFD0028FAD03D
:2024E0000220FFF7B9FDFFF7BEFD0828FBD1FFF756FA01214FF40000FFF7DAFD012140F691
:202500000C20FFF7CCFD0620FFF7E4FD4FF48070ADF8000000A918208DF8030002208DF8EB
:202520000200384800F0BAF801BD10B5364C00224FF40041204600F015F9322000F034F9F9
:202540002046BDE810400122012100F00BB92F480068000701D400207047012070472C4948
:202560000A784FF0FF30502A07D128480068000701D4487870476FF00100704780B5002181
:202580004FF0006000F065F92248002101604FF4A06000F019F914208DF8000001208DF8BE
:2025A000010000208DF8020001208DF8030000A800F00FF913208DF8000000208DF80100CC
:2025C0008DF8020001208DF8030000A800F001F91B208DF8000000208DF801008DF802004C
:2025E00001208DF8030000A800F0F3F801BD054A00284FF40041104618BF00F0AFB800F082
:20260000AFB8000000080140000C0140080C0140303C0008445C004010B582B001210120DA
:20262000FFF73DFD0121094800F0A1F808480178462902D14078C00705D401224FF4004164
:20264000044800F08FF8034C06E000BF00023000443C0008000C014000220121204600F022
:2026600081F848F20100ADF8000000A914208DF8030001208DF80200204600F00FF808206F
:20268000ADF8000000A948208DF8030001208DF80200204600F002F813BD00002DE9F041ED
:2026A000CC78002204F00F03E40644BF8C7823430C88E5B22DB3D0F800C001250F2605FA6A
:2026C00002F7BE460EEA0408F04515D14FEA820E06FA0EF82CEA080C03FA0EFE4EEA0C0C8C
:2026E00091F803E0BEF1280F08BF476191F803E0BEF1480F08BF0761521C082ADFD3C0F86E
:2027000000C0FF2C28DDD0F804C0002201250F2602F1080705FA07F7BE460EEA0408F04584
:2027200015D14FEA820E06FA0EF82CEA080C03FA0EFE4EEA0C0C91F803E0BEF1280F08BF48
:20274000476191F803E0BEF1480F08BF0761521C082ADDD3C0F804C0BDE8F0810161704735
:20276000416170470AB1016170474161704770B40C4A1368C0F3034485B2860248BF23F00B
:20278000E06306D4C60243BF032606FA04F4A343AB4321B180024CBF43EA05432B431360A8
:2027A00070BC70470400014041F27C51484381B0002102E000BF0099491C00910099814288
:2027C000F8D301B070470000274908432749086070472DE9F0410578C278012182B3234ABA
:2027E000204C126825F0030302F4E0621F5990F801C0C2F5E062120AC2F1040E0CFA0EFCF5
:2028000090F802E04FF00F0828FA02F202EA0E0205F0030542EA0C02ED00FF261201AE409C
:20282000AA40B74332403A431A510078104B420900F01F0001FA00F043F82200BDE8F081CF
:2028400005F01F03064A6809994042F82010BDE8F081084A114008430749086070470000EA
:2028600080E100E000E400E00000FA050CED00E000E100E080FFFF1F08ED00E02DE9F84FEB
:2028800040F68F7448F60F784BF68F7B654F664DDFF89891DFF898A121E0300404D52868DA
:2028A00020402860FDF73BFF286839880BEA0000CA0448BF80F48050890448BF80F400504B
:2028C000286048F6BF71286808407988CA0648BF80F01000890648BF80F020002860686C50
:2028E000AAF80000000460D547F6FF706864BAF8000010F00F0089F8000035D148F6BF71CF
:20290000286800F440503880286800F03000788028680BEA000080F400502860286808409A
:2029200080F020002860BAF80000C00628680FD408EA00002860FDF7CBFE4FF40841286841
:202940000842B1D0286820402860FDF78DFEABE786B2300605D5286808EA00002860FDF7DD
:20296000B7FE300599D5EDE755F820108EB231040AD555F82010214045F820102D4901EBAD
:20298000800050F8040C80473006A8D599F8000055F8201008EA010145F82010264901EB1B
:2029A000800050F8040C804799E7BDE8F18F2DE9F84FDFF88090DFF870B01C4F1C4CDFF8EE
:2029C0007CA040F68F7547F6FF7824E0CAF80080208800F00F0038705BF820108EB2310460
:2029E00009D55BF8201029404BF8201009EB800050F8040C804730060DD538785BF82010BC
:202A000048F60F7211404BF820100B4901EB800050F8040C8047DAF8000020800004D5D435
:202A2000BDE8F18FC8140020005C0040D7140020CE1400201C03002000030020445C00408A
:202A400080B50120C046C0467B20FFF746FB08B900F018F8FFF752FB3A483B49008880022E
:202A600050F8040C884202D100F082F801E000F009F8002002BD80B5FFF7E6FC00F082F8CF
:202A8000BDE801402DE9F8434FF4FA610420FFF7AFF9FFF7C8FC0A20FFF786FEFFF757FDF7
:202AA0000446012C08BFFFF740FDFFF758FD0546012D02DB0CB92548057200F077F8012DCE
:202AC00002DB0CB9FFF731FD00210120FFF790F9FEF7E6FD1E4C1F4DDFF87C80DFF87C900B
:202AE0001F4E204F1AE0D9F8002092B24146284600F078F8D9F800102068FEF79BFD3878D0
:202B000000F0FD0040F0010038703078072805D1FFF70BFDFFF787FC00F02AF83878800782
:202B2000F3D53078212808D0412802D05128DAD0E5E72068FEF778FDE1E751203070DEE74A
:202B400000000000E0F7FF1FD32700A58C0200206003002074030020740B002068030020EF
:202B6000580300205903002000400008000000085FF80C00016881F3088800F104000168E0
:202B80000847000010B5074979441831064C7C44163404E00A68081D511888470146A14292
:202BA000F8D110BD000200002002000010B50A4C0A49E461022020726162094820620068F6
:202BC00080474FF40070E0624FF48010A0624FF40060206310BD00BF68140020DC02002018
:202BE00034020020F0B5054617460F2085B00E46074200D107B942E0244C207800283BD142
:202C00002348244A01788DF8001041788DF801108178C0788DF802108DF8030001A9042060
:202C2000135C01F8013B401C135C01F8013B401C135C01F8013B401C135C01F8013B401C94
:202C40001028EDDB211D0FF25000FDF723FF221D00A900A8FEF7D8F8211D00A8FDF751FF50
:202C60000120207008E0221D31462846FDF74AFF103F10351036BFB23800F4D102E001200F
:202C800005B0F0BD002005B0F0BD000074130020E0F7FF1FE4F7FF1F4920616D206B65791B
:202CA0002C20776177617761120100020000004083044837000101020301000004030904C9
:202CC0002603530054004D006900630072006F0065006C0065006300740072006F006E00CE
:202CE00069006300730000001A03530054004D00330032002000530054004C0069006E0035
:202D00006B00000010035300540020004C0069006E006B00FFF74BBE00F020B80C4881B094
:202D200001884FF6FB72114001800A480168491C0160C9070848026822F0F002009200994C
:202D40004CBF41F0400141F0B001016001B07047102C0140C01400200408014038B50D484B
:202D60000D4C01680D4D618061882A881140490505D54FF6FF3101600948406880476088C4
:202D800029880840000403D5FFF778FD0120207031BD00BF445C0040CC140020D4140020AD
:202DA00034020020CBE7FFFF901100004C03002000000000BBDAFFFF4C03000044010000D6
:202DC000000000200000000000F00BF8002801D0FFF7D8FE0020C046C046FFF731FE00F0DA
:202DE00002F80120704700F001B800000746384600F002F8FBE7000080B5C046C046024A34
:202E000011001820ABBEFBE7260002000148804701480047492400081D2E0008C046C04682
:202E2000C046C046FFF7D0FFFEF735BFFEF742BFFFF7FEBFFFF7FEBFFFF7FEBFFFF7FEBF16
:202E4000FFF7FEBFFFF7FEBFFFF7FEBFFFF7FEBFFFF7FEBFFFF7FEBFFFF7FEBFFFF7FEBFDA
:202E6000FFF7FEBFFFF7FEBFFFF7FEBFFFF7FEBFFFF7FEBFFFF7FEBFFFF7FEBFFFF7FEBFBA
:202E8000FFF7FEBFFFF7FEBFFFF7FEBFFFF7FEBFFFF7FEBFFFF7FEBFFFF7FEBFFFF7FEBF9A
:202EA000FFF738BFFFF738BFFFF7FEBFFFF7FEBFFFF7FEBFFFF7FEBFFFF7FEBFFFF7FEBF06
:202EC000FFF72CBFFFF7FEBFFFF7FEBFFFF7FEBFFFF7FEBFFFF7FEBFFFF7FEBFFFF7FEBF2C
:202EE000FFF7FEBFFFF7FEBFFFF7FEBFFFF7FEBFFFF7FEBFFFF7FEBFFFF7FEBFFFF7FEBF3A
:202F0000637C777BF26B6FC53001672BFED7AB76CA82C97DFA5947F0ADD4A2AF9CA472C036
:202F2000B7FD9326363FF7CC34A5E5F171D8311504C723C31896059A071280E2EB27B275FC
:202F400009832C1A1B6E5AA0523BD6B329E32F8453D100ED20FCB15B6ACBBE394A4C58CF25
:202F6000D0EFAAFB434D338545F9027F503C9FA851A3408F929D38F5BCB6DA2110FFF3D2B3
:202F8000CD0C13EC5F974417C4A77E3D645D197360814FDC222A908846EEB814DE5E0BDB03
:202FA000E0323A0A4906245CC2D3AC629195E479E7C8376D8DD54EA96C56F4EA657AAE08E5
:202FC000BA78252E1CA6B4C6E8DD741F4BBD8B8A703EB5664803F60E613557B986C11D9EFB
:202FE000E1F8981169D98E949B1E87E9CE5528DF8CA1890DBFE6426841992D0FB054BB169B
:2030000052096AD53036A538BF40A39E81F3D7FB7CE339829B2FFF87348E4344C4DEE9CB44
:20302000547B9432A6C2233DEE4C950B42FAC34E082EA16628D924B2765BA2496D8BD1254E
:2030400072F8F66486689816D4A45CCC5D65B6926C704850FDEDB9DA5E154657A78D9D8410
:2030600090D8AB008CBCD30AF7E45805B8B34506D02C1E8FCA3F0F02C1AFBD0301138A6B2E
:203080003A9111414F67DCEA97F2CFCEF0B4E67396AC7422E7AD3585E2F937E81C75DF6E76
:2030A00047F11A711D29C5896FB7620EAA18BE1BFC563E4BC6D279209ADBC0FE78CD5AF4B6
:2030C0001FDDA8338807C731B11210592780EC5F60517FA919B54A0D2DE57A9F93C99CEF64
:2030E000A0E03B4DAE2AF5B0C8EBBB3C83539961172B047EBA77D626E169146355210C7D20
:203100003203300030003000300030003000300030003000300030003000300030003000AA
:203120003000300030003000300030003000300031000000A1210008F1210008C52200080B
:20314000C7220008C9220008072300084B230008552300085B230008612300080000000051
:20316000400000000000000100000002000000040000000800000010000000200000004090
:20318000000000800000001B000000360902270001010080320904000003FFFFFF0407055B
:2031A0008102400000070502024000000705830240000000BC2C000804000000C02C000843
:2031C00026000000E82C00081A0000000002002032000000042D0008100000006D08000879
:2031E0007F2100086D0800086D0800086D0800086D0800086D0800086D0800086D080008BC
:20320000292E00086D0800086D0800086D0800086D0800086D0800086D0800086D080008E4
:203220002D2E00086D0800086D0800086D0800086D0800086D080008A82C000812000000CC
:203240008C0200202700000004010000FFFFFFFFFFFFFFFFFFFFFFFFFFFFFFFFFFFFFFFFA8
:20326000FFFFFFFFFFFFFFFFFFFFFFFFFFFFFFFFFFFFFFFFFFFFFFFFFFFFFFFFFFFFFFFF6E
:20328000FFFFFFFFFFFFFFFFFFFFFFFFFFFFFFFFFFFFFFFFFFFFFFFFFFFFFFFFFFFFFFFF4E
:2032A000FFFFFFFFFFFFFFFFFFFFFFFFFFFFFFFFFFFFFFFFFFFFFFFFFFFFFFFFFFFFFFFF2E
:2032C000FFFFFFFFFFFFFFFFFFFFFFFFFFFFFFFFFFFFFFFFFFFFFFFFFFFFFFFFFFFFFFFF0E
:203C0000152197936F1A6051AD04ADF553AD0A68FFFFFFFFFFFFFFFFFFFFFFFFFFFFFFFF55
:203C200042FFFFFFFFFFFFFFFFFFFFFFFFFFFFFFFFFF56554E444546494E45442020FFFF2D
:203C4000FFFFFFFFFFFFFFFFFFFFFFFFFFFFFFFFFFFFFFFFFFFFFFFFFFFFFFFFFFFFFFFF84
:203C6000FFFFFFFFFFFFFFFFFFFFFFFFFFFFFFFFFFFFFFFFFFFFFFFFFFFFFFFFFFFFFFFF64
:203C8000FFFFFFFFFFFFFFFFFFFFFFFFFFFFFFFFFFFFFFFFFFFFFFFFFFFFFFFFFFFFFFFF44
:203CA000FFFFFFFFFFFFFFFFFFFFFFFFFFFFFFFFFFFFFFFFFFFFFFFFFFFFFFFFFFFFFFFF24
:203CC000FFFFFFFFFFFFFFFFFFFFFFFFFFFFFFFFFFFFFFFFFFFFFFFFFFFFFFFFFFFFFFFF04
:203CE000FFFFFFFFFFFFFFFFFFFFFFFFFFFFFFFFFFFFFFFFFFFFFFFFFFFFFFFFFFFFFFFFE4
:203D0000FFFFFFFFFFFFFFFFFFFFFFFFFFFFFFFFFFFFFFFFFFFFFFFFFFFFFFFFFFFFFFFFC3
:203D2000FFFFFFFFFFFFFFFFFFFFFFFFFFFFFFFFFFFFFFFFFFFFFFFFFFFFFFFFFFFFFFFFA3
:203D4000FFFFFFFFFFFFFFFFFFFFFFFFFFFFFFFFFFFFFFFFFFFFFFFFFFFFFFFFFFFFFFFF83
:203D6000FFFFFFFFFFFFFFFFFFFFFFFFFFFFFFFFFFFFFFFFFFFFFFFFFFFFFFFFFFFFFFFF63
:203D8000FFFFFFFFFFFFFFFFFFFFFFFFFFFFFFFFFFFFFFFFFFFFFFFFFFFFFFFFFFFFFFFF43
:203DA000FFFFFFFFFFFFFFFFFFFFFFFFFFFFFFFFFFFFFFFFFFFFFFFFFFFFFFFFFFFFFFFF23
:203DC000FFFFFFFFFFFFFFFFFFFFFFFFFFFFFFFFFFFFFFFFFFFFFFFFFFFFFFFFFFFFFFFF03
:203DE000FFFFFFFFFFFFFFFFFFFFFFFFFFFFFFFFFFFFFFFFFFFFFFFFFFFFFFFFFFFFFFFFE3
:203E0000FFFFFFFFFFFFFFFFFFFFFFFFFFFFFFFFFFFFFFFFFFFFFFFFFFFFFFFFFFFFFFFFC2
:203E2000FFFFFFFFFFFFFFFFFFFFFFFFFFFFFFFFFFFFFFFFFFFFFFFFFFFFFFFFFFFFFFFFA2
:203E4000FFFFFFFFFFFFFFFFFFFFFFFFFFFFFFFFFFFFFFFFFFFFFFFFFFFFFFFFFFFFFFFF82
:203E6000FFFFFFFFFFFFFFFFFFFFFFFFFFFFFFFFFFFFFFFFFFFFFFFFFFFFFFFFFFFFFFFF62
:203E8000FFFFFFFFFFFFFFFFFFFFFFFFFFFFFFFFFFFFFFFFFFFFFFFFFFFFFFFFFFFFFFFF42
:203EA000FFFFFFFFFFFFFFFFFFFFFFFFFFFFFFFFFFFFFFFFFFFFFFFFFFFFFFFFFFFFFFFF22
:203EC000FFFFFFFFFFFFFFFFFFFFFFFFFFFFFFFFFFFFFFFFFFFFFFFFFFFFFFFFFFFFFFFF02
:203EE000FFFFFFFFFFFFFFFFFFFFFFFFFFFFFFFFFFFFFFFFFFFFFFFFFFFFFFFFFFFFFFFFE2
:203F0000FFFFFFFFFFFFFFFFFFFFFFFFFFFFFFFFFFFFFFFFFFFFFFFFFFFFFFFFFFFFFFFFC1
:203F2000FFFFFFFFFFFFFFFFFFFFFFFFFFFFFFFFFFFFFFFFFFFFFFFFFFFFFFFFFFFFFFFFA1
:203F4000FFFFFFFFFFFFFFFFFFFFFFFFFFFFFFFFFFFFFFFFFFFFFFFFFFFFFFFFFFFFFFFF81
:203F6000FFFFFFFFFFFFFFFFFFFFFFFFFFFFFFFFFFFFFFFFFFFFFFFFFFFFFFFFFFFFFFFF61
:203F8000FFFFFFFFFFFFFFFFFFFFFFFFFFFFFFFFFFFFFFFFFFFFFFFFFFFFFFFFFFFFFFFF41
:203FA000FFFFFFFFFFFFFFFFFFFFFFFFFFFFFFFFFFFFFFFFFFFFFFFFFFFFFFFFFFFFFFFF21
:203FC000FFFFFFFFFFFFFFFFFFFFFFFFFFFFFFFFFFFFFFFFFFFFFFFFFFFFFFFFFFFFFFFF01
:203FE000FFFFFFFFFFFFFFFFFFFFFFFFFFFFFFFFFFFFFFFFFFFFFFFFFFFFFFFFFFFF2712A6
:2040000048490020450001086100010865000108690001086D000108710001080000000067
:204020000000000000000000000000007500010879000108000000007D00010885FD000870
:2040400087FD000889FD00088BFD00088DFD00088FFD000891FD000893FD000895FD0008C8
:2040600097FD000899FD00089BFD00089DFD00089FFD0008A5FD0008ADFD0008B7FD000808
:20408000BBFD0008BFFD000881000108C1FD0008C5FD00088500010889000108C9FD000894
:2040A000CBFD0008CDFD000803FE000805FE000859FE00085BFE00085DFE00085FFE0008C2
:2040C00061FE000863FE000865FE000867FE000869FE00086BFE00086DFE00086FFE000870
:2040E00071FE000873FE000875FE000826480FF2A00141610FF2C841C1620FF6A411416417
:20410000164979445631214881631549794450310160144979444C314160134979444831E8
:204120008160124979444431C1601149794440310161104979443C3141610F497944383163
:2041400081610E4979443431C1610D497944303101620C4979442C3141627047E8A70000B3
:2041600088A5000088A50000C4A5000020A6000074A60000B0A6000000A7000044A70000B4
:2041800070A7000098A70000C8190020E41A00202805002019040020E5020020E702002010
:2041A000E9020020EB020020ED02002000000000000000000000000000000000F1020020C5
:2041C000EF02002000000000F3020020F5020020F7020020F9020020FB020020FD02002032
:2041E000FF02002001030020030300200503002007030020090300200B0300200D03002078
:204200000F03002011030020130300201503002017030020190300201B0300201D030020D6
:204220001F03002021030020230300202503002027030020290300202B0300202D03002036
:204240002F03002031030020330300203503002037030020390300203B0300203D03002096
:204260003F03002041030020430300204503002047030020490300204B0300204D030020F6
:204280004F03002051030020530300205503002057030020590300205B0300205D03002056
:2042A0005F03002061030020630300206503002067030020690300206B0300206D030020B6
:2042C0002B482C4901602E490160704770B504000420F82109066118284A914219D2B02513
:2042E0002D03280000F068F8042812D1224E30680221014331607460306840210143316065
:20430000280000F059F8012803D031681D4A0A40326070BDF8B505000C000420F821090625
:204320006918164A914222D2C702380000F044F804281CD1104E30680121014331602C80F6
:20434000380000F039F804280BD1200C6880380000F032F801280AD03168BA1E0A40326046
:20436000F2BD012803D03168BA1E0A403260F2BD042002402301674510200240FFFF0700E9
:20438000AB89EFCDFD1F00000A490860704704210420084A1368DB0701D50120704713687E
:2043A0000B4201D0022070471168C90600D50320704700000C20024010B50400FFF7E7FFFC
:2043C00004E0002C06D0FFF7E2FF641E0128F8D0002C00D1052010BD70B5224C25001435BD
:2043E000214E0420307000F024F83520FFF7CCFF09E0FFF76BFF30703078042818D16068FA
:204400002168401860606068A1688842F1D3E068216988420BD22968FFF77CFF30703078D9
:20442000042805D1E068001DE0602D1DEFE7FEE7FEE780B50D4800214160832202604160F7
:2044400081600022D243C260C16002610161142242618161C16106480160FFF731FF01BDCC
:2044600000000000EC0700202404002000100240002002407047FEE7FEE7FEE7FEE770472B
:204480007047704770477047704770477047704770477047704770477047704770477047AC
:2044A00070477047704770477047704770477047704770477047704770477047704770478C
:2044C00070477047704770477047704770477047704770477047704770477047704770476C
:2044E000704770477047704770477047704770477047704770477047704770477047000003
:2045000010B5084979441C31074C7C441A34A14206D0081D0A68891888470100A142F8D1AD
:2045200010BD00BF300000003C00000010B400210268001D002A0BD00368001DDC0702D5D0
:204540004C46641E1B1919601B1D121FFBD1EFE710BC7047D9FFFFFF0400000024040020EA
:204560000000000000F009F8002801D0FFF7C8FF0020FFF731FF00F002F80120704780B557
:2045800000F002F800BF00000746384600F002F8FBE7000080B5C046C046024A1100182005
:2045A000ABBEFBE726000200C046C046C046C046FFF7D8FFCDCDCDCDCDCDCDCDCDCDCDCD07
:2045C000464847490160494A026001640264704770B50400B0252D03F820000620184249D6
:2045E000884218D2280000F099F804282BD13D4E306802210143316074603068402101430A
:204600003160280000F08AF801281CD03168384A0A40326070BD280000F0A4F8042812D173
:20462000304E306C0221014331647464306C402101433164280000F095F8012803D0316C78
:204640002B4A0A40326470BDF8B505000C008027BF01F82000062818234988421BD23800FA
:2046600000F05CF8042838D11E4E30680121014331602C80380000F051F8042804D1200C7C
:204680006880380000F04AF8012826D03168BA1E0A403260F2BD380000F064F804281CD110
:2046A000104E306C0121014331642C80380000F059F804280BD1200C6880380000F052F852
:2046C00001280AD0316CBA1E0A403264F2BD012803D0316CBA1E0A403264F2BD042002406D
:2046E0002301674510200240FFFF0700AB89EFCDFD1F000008490860704704210420064A5E
:204700001368DB0701D50120704713680B4201D00220704721E000000C20024010B50400E4
:20472000FFF7EBFF04E0002C06D0FFF7E6FF641E0128F8D0002C00D1052010BD042104202D
:20474000024A1368DB0703D5012070474C20024013680B4201D0022070471168C90600D5C3
:204760000320704710B50400FFF7E8FF04E0002C06D0FFF7E3FF641E0128F8D0002C00D18B
:20478000052010BDD8050020C50400209103002093030020950300209703002099030020A9
:2047A000000000000000000000000000000000009D0300209B030020000000009F030020B9
:2047C000A1030020A3030020A5030020A7030020A9030020AB030020AD030020AF03002081
:2047E000B1030020B3030020B5030020B7030020B9030020BB030020BD030020BF030020E1
:20480000C1030020C3030020C5030020C7030020C9030020CB030020CD030020CF03002040
:20482000D1030020D3030020D5030020D7030020D9030020DB030020DD030020DF030020A0
:20484000E1030020E3030020E5030020E7030020E9030020EB030020ED030020EF03002000
:20486000F1030020F3030020F5030020F7030020F9030020FB030020FD030020FF03002060
:2048800001040020030400200504002007040020090400200B0400200D0400200F040020B8
:2048A000110400201304002015040020170400201904002070B5224C25001435214E042047
:2048C000307000F024F83520FFF714FF09E0FFF77FFE30703078042818D16068216840186C
:2048E00060606068A1688842F1D3E068216988420BD22968FFF7A8FE30703078042805D1A9
:20490000E068001DE0602D1DEFE7FEE7FEE780B50D48002141608322026041608160002211
:20492000D243C260C16002610161142242618161C16106480160FFF743FE01BD00000000D9
:20494000EC070020D004002000100240002002407047FEE7FEE7FEE7FEE77047704770472C
:204960007047704770477047704770477047704770477047704770477047704770477047C7
:204980007047704770477047704770477047704770477047704770477047704770477047A7
:2049A000704770477047704770477047704770477047704770477047704770477047704787
:2049C0007047704770477047704770477047704770477047704770477047000010B5084976
:2049E00079441C31074C7C441A34A14206D0081D0A68891888470100A142F8D110BD00BF53
:204A0000300000003C00000010B400210268001D002A0BD00368001DDC0702D54C46641E63
:204A20001B1919601B1D121FFBD1EFE710BC7047D9FFFFFF04000000D0040020000000006D
:204A400000F009F8002801D0FFF7C8FF0020FFF731FF00F002F80120704780B500F002F888
:204A600000BF00000746384600F002F8FBE7000080B5C046C046024A11001820ABBEFBE7BF
:204A800026000200C046C046C046C046FFF7D8FFCDCDCDCDCDCDCDCDCDCDCDCDCDCDCDCD39
:204AA00008120020DD060020AF060020BB060020E5060020E7060020E906002000000000DC
:204AC000000000000000000000000000EB060020ED06002000000000EF060020F106002086
:204AE000F3060020F5060020F7060020F9060020FB060020FD060020FF06002001070020B5
:204B0000030700200507002007070020090700200B0700200D0700200F070020110700200D
:204B2000130700201507002017070020190700201B0700201D0700201F070020210700206D
:204B4000230700202507002027070020290700202B0700202D0700202F07002031070020CD
:204B6000330700203507002037070020390700203B0700203D0700203F070020410700202D
:204B8000430700204507002047070020490700204B0700204D0700204F070020510700208D
:204BA000530700205507002057070020590700205B0700205D0700205F07002061070020ED
:204BC000630700206507002067070020690700206B0700206D0700206F070020710700204D
:204BE000730700207507002077070020790700207B0700207D0700207F07002081070020AD
:204C0000830700208507002087070020890700208B0700208D0700208F070020910700200C
:204C2000930700207848006801680A69002A04E0754800680168CA68D20704D5A74A4A609B
:204C4000A749006841607047F8B504000020C04300F08FF9082830D16B4807683868103025
:204C6000F825ED43AC4E102C016801D3314000E029400160386810300168E20002231343B3
:204C80000B430360386810300168802252020A4302600020C04300F06CF9396810310A68A9
:204CA00002239A430A6039681031102C0A6802D316400E60F2BD15400D60F2BDF8B504008E
:204CC0000027FF43380000F064F9082826D1082C00D3083C4C48056828680C308F4E016861
:204CE0003140016028680C3001682202042313430B43036028680C30016880220A430260D5
:204D0000380000F046F929680C310A6804239A430A6029680C310A6816400E60F2BDF8B51E
:204D200005000C000027FF43380000F032F9082819D1354E322031680968C8600820BFF3AB
:204D40004F8F21682960BFF34F8F2D1D241D401EF5D1380000F01DF9316809680C310A682D
:204D600002239A430A60F2BDF8B5060014001D000020C04300F0FDF8082813D1224807683F
:204D800038681030016801220A430260346075600020C04300F0EDF8396810310A6801231F
:204DA0009A430A60F2BDF8B507000C000025ED43280000F0DEF8082823D1134E3068016874
:204DC00010310A68564B13400B60016810310A6880239B0013430B60006810300168012272
:204DE0000A430260BFF34F8F3C60BFF34F8F280000F0BFF83168096810310A6801239A43BB
:204E00000A60F2BD0000000004100020F8B507000C000025ED43280000F0ABF8082823D151
:204E2000404E3068016810310A683D4B13400B60016810310A6880235B0013430B600068A7
:204E40001030016801220A430260BFF34F8F3C80BFF34F8F280000F08CF831680968103114
:204E60000A6801239A430A60F2BD0000F8B507000C000025ED43280000F07BF8082820D1E5
:204E8000284E3068016810310A68254B13400B60016810310A680A60006810300168012200
:204EA0000A430260BFF34F8F3C70BFF34F8F280000F05FF83168096810310A6801239A434A
:204EC0000A60F2BD174909680968C8607047164814490968096848617047000023016745CB
:204EE000AB89EFCD08200F49096809680C310A68D20301D5012070470A68D20601D50520E9
:204F000070470A68EF23134001D0062070470968890700D50720704707F0FFFFFFF8FFFFB7
:204F2000FFFCFFFF041000200000EF0F082004490968096810310A68920303D505207047F3
:204F4000041000200A68D20101D5022070470A68120201D5042070470A68D823DB03134054
:204F600001D00620704701220968114000D00120704710B50400FFF7B5FF04E0002C06D09D
:204F8000FFF7B0FF641E0128F8D0002C00D1092010BD10B50400FFF7C9FF04E0002C06D099
:204FA000FFF7C4FF641E0128F8D0002C00D1092010BD30B4012100220368001D002B0BD01C
:204FC0000468001D0C4202D04D466D1E64192260241D1B1FF0D0FAE730BC7047F0B583B074
:204FE000414C20001C30019025001C3520001C30009027001C373D4E74606068012819D101
:20500000606981210905884203D32068610D01432160FFF70DFEE068102808D2FFF757FF15
:20502000E068FFF74BFE30703078082857D1FFF74EFF12E0FFF7F6FDE068210D884209D210
:20504000F320FFF73FFFE068FFF7FEFD30703078082844D1F320FFF735FF6069A169884269
:2050600040D26168082908D13978FFF7FFFE30706069401C60617F1C2EE010290BD10099CA
:205080000988FFF7C3FE30706069801C60610098801C009020E0202908D12968FFF783FE14
:2050A00030706069001D60612D1D15E040290BD101990CC9FFF758FE307060690830606108
:2050C00001980830019007E02900FFF728FE3070606920306061203530780828BDD000BF4F
:2050E0000020FEBDFEE700BFE40700200010002010B5074979441831064C7C44163404E09B
:20510000081D0A68891888470100A142F8D110BD08000000140000009BFEFFFF0800000053
:20512000001000200000000000F00BF8002801D0FFF7DEFF0020C046C046FFF74FFF00F020
:2051400002F80120704780B500F002F801BDFEE70746384600F002F8FBE7FEE780B5C04604
:20516000C046024A11001820ABBEFBE726000200C046C046C046C046FFF7D6FF00480047AF
:20518000D1060020FEE7FEE7FEE7FEE7FEE7FEE7FEE7FEE7FEE7FEE7FEE7FEE7FEE7FEE792
:2051A000FEE7FEE7FEE7FEE7FEE7FEE7FEE7FEE7FEE7FEE7FEE7FEE7FEE7FEE7FEE7FEE79F
:2051C000FEE7FEE7FEE7FEE7FEE7FEE7FEE7FEE7FEE7FEE7FEE7FEE7FEE7FEE7FEE7FEE77F
:2051E000FEE7FEE7FEE7FEE7FEE7FEE7FEE7FEE7FEE7FEE7FEE7FEE7FEE7FEE7FEE7FEE75F
:20520000FEE7FEE7FEE7FEE7FEE7FEE7FEE7FEE7FEE7FEE7FEE7FEE7FEE7FEE7FEE7FEE73E
:20522000FEE7FEE7FEE7FEE7FEE7FEE7FEE7FEE7FEE7FEE7CDCDCDCDCDCDCDCDCDCDCDCDE0
:20524000DFF8A00C0178562904BF4178442907D18178492904BFC078532801D10120704787
:2052600000207047F0B5DFF8841C30220A7037224A7039228A70CA70DFF8682C537B422B27
:2052800076D1937B977B0B7049600024D37B4B70137C8B70537CCB700FF204231D4600E057
:2052A000641C15F8066BBE4201D2332CF8DB04EB44056D00977BEE5CBE420AD1ED18D67BB9
:2052C0006D78B54205D2332CB8BF641CEFDB00E0641C04EB44056D00977BEE5CBE4201BFDA
:2052E000ED186E78D77BBE4205D1AD78167CB54201D2332CECDB04EB44056D00967BEF5CF3
:20530000B74201BFEF1897F801C092F80FE0F4450ED197F802C092F810E0F44508D1FF7898
:2053200092F811C0674503D2332CB8BF641CE2DB332C80F2B280EC5CB44201BFEF187B7883
:20534000D47BA34240F0A980BB78147CA34202BFFB78527C934240F0A080BA88904200F0ED
:205360009C8030200870372048703920887093E01378562B1ED153784E2B04BF94784F2CED
:2053800007D1D478442C01BF1479452C54795F2C10D04E2B04BF9378552B51D1D378432BE1
:2053A00004BF13794C2B4BD15379452B04BF93794F2B45D14FF48264031B18D05B1F3BD0BC
:2053C0009B1E1DD01A3B29D09B1E1BD01B1F13D05B1E21D05B1E0DD0DB1F17D09B1E23D0CB
:2053E0001B1F1FD05B1E23D05B1E11D028E030238B7024E0302320E031238B7030231EE071
:2054000031231AE032238B70302318E0322314E033238B70302312E033230EE034238B702E
:2054200030230CE0342308E035238B70302306E036238B70302302E036238B703523CB70F2
:205440001378562B04BF5378442B26D19378492B04BFD278532A20D140F21542801A16D049
:20546000801E04D0213808D011380AD0F0BD382048703020887035200EE0382048703120BD
:2054800008E03820487031208870352004E038204870322088703020C870F0BD0000000003
:2054A0003037303010043037303539043037313037043037313517043037323033043037B6
:2054C00032354004303732364004303733304804303733314804303733353804303734300B
:2054E0003104303734313104303734326304303734336304303734345804303734354604C8
:205500003037343622043037343746043037353042043037353548043037363047043037CA
:2055200036351504303737303504303737353804303737372104303737382104303738300D
:205540005704303738354504303738383404303739302504303739314404303739351904C0
:205560003037393619043038303517043038313038043038313152043038313252043038A2
:20558000313350043038313450043038313549043038313649043038313751043038313805
:2055A00051043038323015043038323162043038323261043038323361043038323541040B
:2055C00030383236410430383330130430383335110400002DE9F0410446884616461F46CF
:2055E00080257EB14146204602F0FBF8802804D0802D02D107B13C600546641C761E08F15D
:205600000108EFD12846BDE8F081F0B5DFF8D848207887B010B9052007B0F0BD01F049FC4A
:205620000546802D04D105A904A801F031FE0546802D07D104980005000D40F277418842F1
:2056400040F0338401AB012204F15001DFF8D40A01F0EEFF0546802D02D1206D000508D185
:2056600001AB012204F15001DFF8BC0A01F0E0FF0546802D02D1206D000508D101AB0122A3
:2056800004F15001DFF8A40A01F0D2FF0546802D40F0088400202066A07040F21246206DFC
:2056A0000005000DB042206500F02E82B0F5826F06D14FF4A0414FF400324FF4806347E26C
:2056C00040F21441884218BFB0F5856F04D14FF400414FF4002239E2B0F5866F08D14FF47A
:2056E000C0314FF480124FF4006304F11C0070E240F21147B8421CBF40F21341884225D136
:20570000DFF8480CA06601AB012203A9DFF8400C01F08EFF0546802D40F0C4830398C0F37F
:2057200003100328039004D0042840F0BE8340F213472020206627654FF40031DFF8140CDE
:2057400060664FF480124FF4804337E140F2194140F2344288421EBF904240F25141884255
:2057600019D1DFF8E81BA166202121669042DFF8E41B61664FF4403108BF4FF4A02105D0D3
:2057800040F25142904208BF4FF400214FF400124FF4804312E1B0F58B6F0ED1DFF8AC0BED
:2057A000A0664FF40041202020664FF40032DFF8A40B60664FF4804300E140F22341884291
:2057C0000ED1DFF8880BA0664FF48031202020664FF48022DFF87C0B60664FF48043EDE0E4
:2057E00040F2334140F23147884218BFB84207D040F2214188421CBF40F2524188421ED130
:20580000DFF8481BA1664FF4002220212166B842DFF8401B61664FF480434FF4C03102D11A
:205820004FF40031CAE040F22147B842F8D040F25247B84240F0C2804FF48021BEE040F203
:20584000414188420ED1DFF8040BA0664FF48021202020664FF48012DFF8F80A60664FF4D0
:205860000043ABE040F2634188420ED1DFF8DC0AA0664FF4A021202020664FF4C012DFF862
:20588000D40A60664FF4804398E0B0F58C6F0ED1DFF8C40AA0664FF40041402020664FF40F
:2058A0000032DFF8B80A60664FF4006386E0B0F58A6F0DD1DFF8A80AA0664FF400310120AB
:2058C00020664FF40012DFF89C0A60660B4675E040F2354188420ED1DFF87C0AA0664FF40D
:2058E0004041402020664FF48022DFF8700A60664FF4006362E040F2494188420ED1DFF821
:205900004C0AA0664FF4A021202020664FF48012DFF8400A60664FF400434FE040F262411B
:2059200088420ED1DFF8300AA0664FF42031402020664FF40022DFF8240A60664FF4006357
:205940003CE040F2154140F26142884218BF904212D1DFF8041AA1664FF4006340212166EE
:205960009042DFF8F81961664FF480124FF4C03108BF4FF4A02121E040F2954188420CD122
:20598000DFF8D409A0664FF44031402020664FF48012DFF8C40B60660EE0B0F58E6F10D101
:2059A000DFF8B409A0664FF42021402020664FF40012DFF8A80960664FF4805304F1340001
:2059C00007E140F2164188420CD1DFF8900BA0664FF48041DFF87C0960664FF400324FF459
:2059E0008073F4E040F2294188420CD1DFF86C0BA0664FF40041DFF85C0960664FF400324E
:205A00004FF48073E3E040F2274188420CD1DFF84C0BA0664FF40041DFF8380960664FF473
:205A200080224FF48073D2E040F2364188420CD1DFF8280BA0664FF44041DFF818096066FA
:205A40004FF4C0224FF48073C1E040F2374188420CD1DFF8080BA0664FF4A031DFF8F40822
:205A600060664FF400224FF48073B0E0B0F5836F08BF4FF4A04167D0B0F5846F06D14FF4CA
:205A800000514FF400324FF4806361E040F22441884206D14FF420514FF400424FF4806342
:205AA00056E040F2324188424CD040F22241884208BF4FF4204147D0B0F5876F04D14FF491
:205AC00040514FF4803241E040F23941884204D14FF480414FF4803238E040F24641884240
:205AE00004D14FF480314FF400222FE0B0F5886F06D14FF400514FF480324FF4806327E040
:205B000040F24441884206D14FF480514FF400424FF480631CE0B0F5896F04D14FF48041FC
:205B20004FF4003212E040F24541884206D14FF4C0514FF400424FF4806309E040F2424108
:205B4000884207D14FF400414FF480224FF40063201D3EE040F25741884207D1DFF8000AEC
:205B600060664FF400614FF480422FE040F22541884207D1DFF8E80960664FF400514FF408
:205B8000004223E040F21741884207D1DFF8D00960664FF400514FF4803217E040F25941D2
:205BA000884207D1DFF8B80960664FF480414FF400320BE040F24741884240F07681DFF8FF
:205BC000A00960664FF4A0414FF440328023DFF894096165E066E365A265DFF888198842C9
:205BE0000CBF4FF400700020802DE06406D1A06E0023012202A901F01BFD0546802D40F00F
:205C00005481276DB8B2FFF72DFBB7F5826F18BFB7420ED040F21440874218BFB7F5836F84
:205C200007D0B7F5846F1CBFB7F5856FB7F5866F11D101AB022200A9DFF82C09FFF7CAFCAF
:205C40000546DFF8280900F038F99DF80800800740F11C8118E140F2224087421CBF40F27B
:205C6000324087421CD0B7F5876F1CBF40F23940874215D0B7F5886F1CBF40F2424087422C
:205C80000ED040F2444087421CBF40F24540874206D040F24640874218BFB7F5896F11D198
:205CA00001AB022200A9DFF8C808FFF793FC0546DFF8C00800F001F99DF80800800740F116
:205CC000E580E1E040F2154087421CBF40F23540874207D040F2614087421CBF40F26240E1
:205CE00087420ED101AB022200A9DFF88C08FFF771FC0546DFF8840800F0DFF89DF80800A3
:205D0000C0E040F2114087421CBF40F2134087421ED040F2194087421CBF40F221408742F5
:205D200016D040F2234087421CBF40F2314087420ED040F2334087421CBF40F23440874242
:205D400006D040F24140874218BFB7F58B6F0AD101AB022200A9DFF82808FFF73BFC0546A1
:205D6000DFF820088AE040F26340874205D10020ADF80000DFF80C0880E040F217408742E4
:205D80001CBF40F22540874207D040F2474087421CBF40F2574087420ED101AB022200A9AA
:205DA000DFF8000CFFF716FC0546DFF8FC0B00F084F89DF8080065E040F2164087420ED151
:205DC00001AB022200A9DFF8E40BFFF703FC0546DFF8D40B00F071F89DF8080052E040F234
:205DE000274087421FBF40F23640874240F2374087420ED101AB022200A9DFF8EC0BFFF796
:205E0000E9FB0546DFF8A00B00F057F89DF8080038E040F2494087420AD101AB022200A905
:205E2000DFF8C80BFFF7D6FB0546DFF8C40B25E040F2524087420AD101AB022200A9DFF843
:205E4000B40BFFF7C7FB0546DFF8AC0B16E040F25140874205D10020ADF80000DFF8900B63
:205E60000CE0B7F58A6F11D101AB022200A9DFF88C0BFFF7AFFB0546DFF8840B00F01DF872
:205E80009DF80900AA2801D00120A070802D09D1BDF80000102805DBA26DB0EB922F3CBFD6
:205EA0008002A065284607B0F0BD042007B0F0BDDFF8501B09680160704700B585B000ABA1
:205EC000032201A901F0B4FB802805D10198029948400399484000E00020DFF8281B086073
:205EE00005B000BD323C0008C8190020541C002010B4DFF8143BDC6EA0F10061002234B1FC
:205F0000B0F1006F03D303F13400844203D010BC4FF0FF307047186D40F2154398421CBF25
:205F200040F23543984209D0B0F58C6F1FBF40F26143984240F26243984204D148054FD1E3
:205F400010BCC80A7047B0F58E6F1CBF40F29543984204D1080543D110BC080B7047B0F55A
:205F60008A6F04D1C8033BD110BC480C704740F2494398421ABF40F2514398424FF48023AE
:205F80000FD040F21944A0421CBF40F23444A0424FF4003305D1B1F5801F24BFA1F58011AF
:205FA0001022994213D25808814208D28008B1FBF0F300FB131098B910BC98187047B1FB8D
:205FC000F0F300FB131058B910BC101D7047B1FBF3F003FB101119B9801810BC001D704747
:205FE00010BC6FF00100704738B5514DE86E08B9062032BD41698A030169120C4FF00050B9
:2060000001F027FC80281BD1E86EDFF8004A406982030023120C21464FF0005001F008FB08
:2060200080280DD1EA6E002100E0491C5369994206D2136914F8015BCB5CAB42F5D00D20C3
:2060400032BD10B5040082B001D1062016BD0020207000A9DFF8B80901F087F8802813D19E
:206060000099890148BF04210DD40099890348BF012108D40099090348BF022103D4009987
:20608000490301D50321217016BD1CB500208DF800008DF8000001A9DFF87449204601F0C6
:2060A00064F880283CD10198800148BF04200DD40198800348BF012008D40198000348BFE6
:2060C000022003D40198400302D503208DF800009DF80000042823D100208DF8000001A968
:2060E000204601F042F880281AD10198800148BF04200DD40198800348BF012008D401989D
:20610000000348BF022003D40198400302D503208DF800009DF80000042801D1012016BD9A
:20612000002016BD002004E0005801400010005CC8190020F8B504464BF6BE60ADF8000067
:206140000D468026204601F04CFB802818BF0646671C691C384601F044FB802802D0802EFF
:2061600008BF0646802E01D03046F2BD9DF800108025204601F070FC802818BF05469DF8FC
:206180000110384601F068FC802802D0802D08BF0546802D01D02846F2BD8020F2BD2DE9E2
:2061A000F041DFF864480646E06E84B048B100A8FFF747FF0746802F0DD19DF800000128E8
:2061C00001D0062080E0E06E006801900F21019800F0D2FF0746802F07D1E06EC0680190BC
:2061E0001121019800F0C8FF0746802F05D110214FF0807000F0C0FF0746802F08D1DFF890
:206200001408DFF80C180190019800F0B1FF074600208DF8000002F099FE054602F096FE51
:206220004FF47A714E43DFF8E88707E00298400302D503208DF8000002F088FE9DF80010F9
:2062400011BB802F18BF142F1ED10146284602F0EFFFB04218D200208DF8000002A9404673
:2062600000F083FF0746802FE6D10298800148BF0420DFD40298800348BF0120DAD4029873
:206280000003D3D50220D5E7802F04BF9DF80000002817D0802F04BF9DF80000022811D04D
:2062A000802F10D101A90F2000F0ABFF0746E06E802F02BF01998268914203D00199406864
:2062C000814200D00627384604B0BDE8F0812DE9FC41044600208DF8000002F037FE054602
:2062E000DFF82C8700208DF8000001A9404600F03CFF0746802F14D10198800148BF0420EE
:206300000DD40198800348BF012008D40198000348BF022003D40198400302D503208DF885
:2063200000009DF8000004280CBF0126002602F00DFE802F08BF002E06D10146284602F065
:2063400077FFA042CED30627A6E00000143C024000ED00E0003C02402020024004200240CC
:206360001C200052002000522DE9FC41002000F0E1FE0746802F40F08F80002002F076FF19
:20638000DFF89416012008700021002000F033FD802809D0012002F069FF0021002000F055
:2063A0002AFD0746802F0AD1DFF85C1601200870DFF85C16DFF8640600F0DAFE0746802FAF
:2063C00015D1DFF85C16012000F0D2FE0746802F0DD1C820FFF77BFF0746802F05D1C820C1
:2063E000FFF775FF0746802F10D0062F01D0802F0CD1DFF83016DFF8300600F0B9FE0746A7
:20640000802F03D1C820FFF762FF0746012000F091FE802802D0802F08BF074602F096FD0B
:20642000044641F2883540F2D176DFF8E485802F1ED100208DF8000001A9404600F095FE73
:206440000746802F14D10198800148BF04200DD40198800348BF012008D40198000348BF72
:20646000022003D40198400302D503208DF8000002F06CFD0146204602F0DAFEB04203D32E
:20648000DFF8842501215170802F04BF9DF80010042901D1A842CAD33846BDE8F68170B53D
:2064A00082B0002000240090DFF8741500F060FE0646802E07D14FF000600090DFF86C15CF
:2064C00000F056FE0646DFF84055802E16D1286D40F2614188421EBF40F262418842B0F5D7
:2064E0008E6F0BD100A9DFF8480500F03EFE0646802E03D10098800348BF012468780128AC
:2065000027D0802E03D1002000F014FE0646802E07D1DFF82005DFF8F814009000F028FE89
:20652000064600F097FD0020DFF8EC140870A878012803D0002C08BF802E07D003F091FB09
:206540004FF4967002F076FE03F099FB012000F0F1FD304676BD0000044000581C3C024027
:20656000002002400C1B0020E0F7FF1FE8F7FF1FCCF7FF1FACF7FF1FE075FF1F9075FF1F48
:20658000227AFF1F107AFF1F2DE9FB4FDFF8A8040078012884B015464FF0000808BF8020D8
:2065A00000F0448115F0030F09D1DFF85C64F16C706DC1F50061884201D3F06E08B906206A
:2065C00034E102A8FFF73DFD0446DFF84474DFF84C9406E00199490302D503218DF80810D8
:2065E0000446802C24D19DF80800012820D0CDF800903946484600F0BBFD0446802C40F0CA
:2066000014818DF8088001A9384600F0AEFD8028E6D10199890148BF0421DFD4019989038D
:2066200048BF0121DAD401990903D3D50221D5E7F16C706D0818A0F500600190B0F5006F62
:2066400084BF4FF400600190306E28B1DFF8EC23511A00F08DFD0446802C08D1706E30B1F3
:20666000F26CDFF8DC13891A00F082FD0446802C07D1F16CDFF8CC03411AF06D00F078FDF6
:206680000446802C05D1F06E406800A9FFF752FD0446802C05D1F06E806800A9FFF74AFD42
:2066A0000446C3464AF6AA293CE010F1020F03D09DF81810012901D04FF6FF70802C06D184
:2066C000F26CDFF88413891A00F052FD0446802C07D1F16CDFF87403411A404600F048FD7D
:2066E000044607EB0A00802C009006D1F16CD848411A009800F03CFD0446802C0AD105983A
:20670000F36C0BEB0001BA03D248120CC01A01F0A0F80446802C03D10520FFF740FD04465F
:20672000BB44ED1B002D00F08080802C7DD1306D40F6A811884218BFB0F51B6F3ED0B0F52C
:206740008A6F08D1C449484600F012FD0446802C06D1C24900E0C249484600F009FD04463C
:20676000306D40F2154188421CBF40F2354188421DD040F2494188421CBF40F25141884201
:2067800015D040F25241884218BFB0F58C6F0ED040F2614188421CBF40F26241884206D042
:2067A000B0F58E6F1CBF40F29541884206D1802C04D1AC497F2000F0DBFC0446019F049851
:2067C000AF4288BF2F460BEB000A802CCDF800A006D1F16CA448411A504600F0C9FC0446EB
:2067E0000098FFF785FB10F1010F7FF45EAF9DF818100098012980467FF460AFF16D02468D
:20680000B2FBF1F284463B1801FB12CCBCF1000F01D1984652E7A3F1010CBCFBF1FC624560
:206820003FF44CAF501C4843F3E7204607B0BDE8F08F30B583B0044600200090019004224F
:20684000214600A803F064FB00986F4DB0F1005F22BF696D01F10051814278D2286DB0F542
:20686000876F05D10098A0F18050B0F5805F4FE040F22241884205D10098A0F18050B0F5CD
:20688000005F45E040F2464188421CBF40F23541884203D10098A0F1805037E040F2154138
:2068A00088421CBF40F26241884205D10098A0F18050B0F5004F2BE040F2344188421CBF7A
:2068C00040F2134188420ED040F2194188421CBF40F26141884206D040F26341884218BF6E
:2068E000B0F58E6F06D10098A0F18050B0F1011F2DD350E040F2494188421FBF40F251410D
:20690000884240F25241884204D10098B0F5804F1DD940E0B0F58A6F3DD10098B0F1011F22
:2069200015D3A0F11050B0F5002F10D900994F48A1F18051814222BF0099A1F1405181420B
:2069400022BF0098A0F16050B0F1011F23D20422211D01A803F0DCFA0198B0F1006F21BF68
:20696000A96D6FF078425118814217D2286D40F2494188421FBF40F25141884240F2524187
:20698000884208D10198B0F5001F21BFA96D384A5118814202D2002003B030BD012003B0EB
:2069A00030BD00007C00F81F5000F81F4C00F81F0020704780B5FFF7D7FC802810D1FEF73A
:2069C00024FE80280CD1FFF70FFB802801D0022002BD16494FF0005000F0CAFB802801D09A
:2069E000042002BD002002BDCC00F81F42F4F01F20F4F01F227AF01F107AF01F80E8F11FCE
:206A000000E8F11F24410020C8190020A01C0020F0ED00E001005FA02116002003005FA006
:206A2000FCED00E00CED00E00400FA0508ED00E01020024000005FA0E9400020E807002013
:206A4000E4070020EC070020F0070020F4070020FC0700200008002000480058004C005857
:206A600000300040002C0040F807002001800400FFFF1F0080B5012300F10060FFF784FD58
:206A8000802801D0092002BD002002BD80B5FFF76BFC80280AD1FEF7B8FD802802D0FFF787
:206AA000FEFC03E0FFF7FBFC802801D0002002BD012002BD78B18378C2780FF2F4015B5CC9
:206AC000525C1B0443EA0262437800785B5C405C42EA032210437047F0B5DFF8507B0C46DE
:206AE00079788026012983B0154606D1214602F014FF00F044F9064619E0002818BF01286A
:206B000002D103F0B2FB06460FF2A40000EB8410802E90F82000387209D100A907F108000F
:206B200003F014FC064600A8FFF7C4FF2860304603B0F0BD30B50D46DFF8F01A4978034624
:206B40008020012983B0144607D12946184602F003FF00F014F903B030BD13B1012B02D0E6
:206B600004E0002000E0012003F07FFB0FF24001AA01525C8DF80020E2B2525C8DF801207B
:206B80002204120E525C8DF802202202120E525C8DF80320220E515C8DF8041000218DF8A4
:206BA0000510802804BF00A803F0C3FB03B030BD008040C020A060E0109050D030B070F0DC
:206BC000088848C828A868E8189858D838B878F8048444C424A464E4149454D434B474F4F5
:206BE0000C8C4CCC2CAC6CEC1C9C5CDC3CBC7CFC028242C222A262E2129252D232B272F2B5
:206C00000A8A4ACA2AAA6AEA1A9A5ADA3ABA7AFA068646C626A666E6169656D636B676F674
:206C20000E8E4ECE2EAE6EEE1E9E5EDE3EBE7EFE018141C121A161E1119151D131B171F164
:206C4000098949C929A969E9199959D939B979F9058545C525A565E5159555D535B575F554
:206C60000D8D4DCD2DAD6DED1D9D5DDD3DBD7DFD038343C323A363E3139353D333B373F314
:206C80000B8B4BCB2BAB6BEB1B9B5BDB3BBB7BFB078747C727A767E7179757D737B777F7D4
:206CA0000F8F4FCF2FAF6FEF1F9F5FDF3FBF7FFF10B5FFF73FFF0446802C18BF00F034F882
:206CC000204610BD10B582B00020009000AA0121FFF702FF0446802C18BF00F025F8802C91
:206CE00002BFDFF848094078002808D100AA0321FFF7F2FE0446802C18BF00F015F8802CC8
:206D000010D1DFF828094078012803D10098000648BF182400988006009848BF1924800773
:206D200048BF1A24204616BD80B50020009000AA0121FFF7D1FE802802BFDFF8F018497856
:206D4000002904D100AA03210020FFF7C5FE802814D1DFF8D8184978009B01290CBFB22215
:206D6000322213420AD0012903D11E220021002002E01A4601210020FFF7DCFE02BD0121DC
:206D800008B9802070474FF6F8720240082A04D0302A04D0382A04D005E0092129E0062141
:206DA00027E00A2125E0102A18BF182A00F007000DD1012804D0022804D0042804D005E094
:206DC000142104E0152102E0172100E01621202A18BF282A0DD1012804D0022804D00428BB
:206DE00004D005E0102104E0112102E0132100E012210846704770B5DFF83058FF2282B08E
:206E000004466A61AA61EA612A62002000904FF6F070AA6C042AB8BF40EA02606862687835
:206E2000012805D1002002F02DFEFFF7A8FF02E0084603F0F1FB0646802E20D14FF0A0425E
:206E400001210020FFF776FE0646802E18BFFFF76BFF802E13D100AA01210020FFF73CFEA7
:206E60000646802E18BFFFF75FFF802E07D1009800F0704010F1805F18BF0B2604D1802EC4
:206E800002D1FFF751FF0646802E07D1002000F080F80646802E08BF00F00BF8802E06D146
:206EA0006978601901290CBF02210121C170304676BD7CB500200190DFF87047207828B183
:206EC000607928B1FFF7E1F8012801D1802076BDA06B0023012201A900F6E47000F0A8FB8B
:206EE0000646802E0BD10198C0F30315A06B0023012201A900F6E87000F09AFB0646802E90
:206F000023D1019800F00F0045EA0015A02D17D0EDB9002000900023012200A94FF0402009
:206F200000F086FB0646802E25D10098C0F30B3040F6A811884218BFB0F51B6F00901AD130
:206F400000206071207003F09CFC304676BDBB2D11D1002000900023012200A9DFF8FC0B35
:206F600000F066FB0646802E01BF009800090001B0F5887FE4D0FFF788F838B903F021FC8D
:206F800003F05EFC002060712070DEE701206071DBE770B5044684B00020042C0290009095
:206FA000019053DADFF8845605EB8402FF215161EC64F02000F062F80646802E09D102AAF0
:206FC00003210120FFF788FD0646802E18BFFFF7ABFE802E09D100AA02210120FFF77CFD9C
:206FE0000646802E18BFFFF79FFE802E09D101AA03210020FFF770FD0646802E18BFFFF78C
:2070000093FE802E08BF002C05D1019880088000A863012028700099A86CC9B2012905EBC1
:20702000800008BF4FF030610ED00099C9B2042908BF4FF0805107D00099C9B202290CBF62
:207040004FF000414FF00C51816200E01D26304604B070BD10B5DFF8D4456078012802D12E
:2070600002F027FD01E003F0F3FA4FF6F0706062FF206061A061E061206210BD38B5DFF89D
:20708000AC45E36CA56C0146802000229D4207D0042BAFBF1D20626A63F31F62626201227C
:2070A000636A03F07F4589B20D4380280BD1AB4208BF002A07D02A4602210020FFF7F8FDEA
:2070C000E16C6562A16432BD70B5DFF86025D36C01468020042B28BF002302EB83040D4601
:2070E0006269AA4225D0022911D1A06A40F012060020FFF7C3FF80281BD13246002101205F
:20710000FFF7D6FD802813D0FF21616170BD012903D1A06A40F00106EAE709B9A66AE7E75C
:20712000032903D1A06A40F00206E1E7062070BD656170BD10B5040018BF022C05D1002239
:207140000121DFF8040C03F073FC022C03D10A2002F070F801E0012C05D101220121DFF83E
:20716000E80B03F065FC802010BD002301225FE201B50846012287E138B504460D4603F0C8
:207180006FFD0220FFF7A0FF802804BF0020FFF775FF802805D1DFF8EC2C01210120FFF731
:2071A00087FD802804BF1020FFF768FF802804D1224602210120FFF77BFD802807D105F047
:2071C0007F0040F4803201210120FFF771FD802804D1DFF85C1C284600F013F880280FD1E6
:2071E000DFF8A40CC06B0F2D05D1400840006108B0EB410F00E0A04201D1802032BD0D209F
:2072000032BD70B504460D4603F02AFD0220FFF75BFF0646802E03D10020FFF72FFF0646D3
:20722000802E06D1DFF85C2C01210120FFF740FD0646802E03D11020FFF720FF0646802EE7
:2072400006D104F07F0201210120FFF731FD0646802E09D12A4602210120FFF73DFC064678
:20726000802E18BFFFF760FD802E09D12A4603210020FFF731FC0646802E18BFFFF754FDBF
:20728000802E03D10020FFF7F9FE0646304670BD2DE9F041DFF89473064678788025012841
:2072A0000C4605D1DFF8480C0068306000201AE0DFF8A48C0221404602F039FF054608F14B
:2072C0000100FFF7F7FBF863802DF86B30600BD10321404602F02BFF054608F10100FFF7ED
:2072E000E9FBF863F86B20602846BDE8F081F8B5044603F0B5FC0220FFF7E6FE012C03D150
:2073000021244025002602E0152400250026DFF8947C802806D1202E39460CBF2120E8B25E
:20732000FFF76FFF761C3F1D6D1CA642F1DBF2BD38B504460020207003F092FC0220FFF78F
:20734000C3FE80280FD1B94DDFF85C0C0023012205F13C0100F06CF9802804D1E96B890374
:2073600044BF0121217032BD70B582B006460FF264000091144650F826001D46012200A9D8
:2073800000F067FA802809D10698009001220FF2540000A950F8260000F05BFA802816D189
:2073A0000FF250010FF2600051F82520079950F82600802906D10FF2600151F824101143CB
:2073C000009100E00092012200A900F042FA76BD00000000201000E0301000E0401000E01F
:2073E000501000E0241000E0341000E0441000E0541000E00400000005000000060000008E
:207400000700000000000000281000E0381000E0481000E0581000E00000000000040000A1
:2074200000080000000C000038B50C46DFF87C1B084012B940F0804505E0012A0CBF40F078
:20744000004540F0404545F0010503F009FC0220FFF73AFE802809D10A4878442630009534
:20746000012250F8240000A900F0F3F9802807D103200090012200A9DFF8340B00F0E9F911
:2074800032BD00BFA81A000000A900F0E2F902BDF8B504460025257003F0E2FB0220FFF7B0
:2074A00013FE802808BF00F08DF8802807D101200090012200A9DFF8FC0A00F0CAF98028A2
:2074C00008D1DFF8F40A0090012200A9DFF8EC0A00F0BFF98028554E07D10023012206F1CD
:2074E0003C01DFF8C40A00F0A3F8F16B490E6D1C01F00101802808BF002902D1B5F57A7FE2
:20750000E8DB802808BF002925D00025DFF8987A0023012206F13C01384600F089F8F16B48
:207520006D1C890104D5802802D1B5F57A7FEFDBF16B89030DD5802807D1DFF8840A009038
:20754000012200A9384600F084F9802803D1012100E000212170F2BD70B5044682B00020D4
:20756000207003F07DFB0220FFF7AEFD802808D1DFF8500A0090012200A9DFF8080900F067
:2075800068F980281DD1294DDFF8F8680023012205F13C01304600F04BF8E96BDFF8282AA8
:2075A000114207D176BD0023012205F13C01304600F03EF8802802D1E96BC901F3D40121D6
:2075C000217076BD70B582B0002403F049FB0220FFF77AFD8028154E1DD1DFF8E409DFF812
:2075E000C8590090012200A9284600F032F9802806D10023012206F13C01284600F018F81E
:20760000F16B641C890302D5F16B090303D5C82C01DA8028E1D0802807D100230122DFF826
:207620001018DFF8840900F003F876BD201600202DE9F04782B006468A4690461C46002552
:2076400004B1256003F00CFB0220FFF73DFD0746A8F101091FE0802F09D152460321002050
:20766000FFF73AFA0746802F18BFFFF75DFB802F06D1FFF727FB0746802F08D0FFF754FB08
:20768000002C18BF802F02D0206800B926606D1C0AF1040A361D45452FD2802F2DD10DB1C4
:2076A000B0051BD10020FFF7E9FC0746802F09D1324601210120FFF73DFA0746802F18BF9D
:2076C000FFF732FB802F09D100AA03210120FFF703FA0746802F18BFFFF726FB4D45BAD214
:2076E000802FCDD1524603210120FFF7F5F90746802FC5D0FFF718FBC2E76FE02DE9F0479D
:20770000400882B00E4692461C464FF0000845000CB1C4F8008003F0A3FA0120FFF7D4FC65
:207720000746AAF1010914E03080802F06D1FFF7C9FA0746802F08D0FFF7F6FA002C18BFB7
:20774000802F02D0206800B9256008F10108B61CAD1CD04542D2802F40D10020FFF78EFCBC
:207760000746802F09D12A4601210120FFF7E2F90746802F18BFFFF7D7FA802F09D100AAE2
:2077800003210120FFF7A8F90746802F18BFFFF7CBFAC84511D2802FD0D100AA0321012050
:2077A000FFF79AF90746802F18BFFFF7BDFAA807009848BF000C3080C0E7802FB5D100AA30
:2077C00003210020FFF788F90746802F18BFFFF7ABFAA8070098A7D5000CA5E73846BDE802
:2077E000F68770B582B004460D4603F039FA0020FFF76AFC80282BD10020FFF73FFC064635
:20780000802E05D1224601210120FFF751FA0646802E09D100AA03210120FFF75DF906469D
:20782000802E18BFFFF780FA802E09D100AA03210020FFF751F90646802E18BFFFF774FA68
:20784000009804F00301C90020FA01F22A70304676BD2DE9F04182B004460D46904600276C
:2078600003F0FEF90220FFF72FFC064623E01FB104EB8700800510D10020FFF7FFFB064684
:20788000802E0AD104EB870201210120FFF752F90646802E18BFFFF747FA802E0DD155F882
:2078A000272003210120FFF745F90646802E18BFFFF73AFA7F1C474501D2802ED7D0802E10
:2078C00014D1DFF808074078012805D102F078F8FFF755FA064609E000AA01210120FFF767
:2078E000FBF80646802E18BFFFF71EFA802E06D1FFF7E8F90646802E18BFFFF715FA4BE059
:207900002DE9F04182B004460D469046002703F0A7F90320FFF7D8FB0646802E03D10020E7
:20792000FFF7ACFB0646802E12D1224601210120FFF7BEF906460BE055F827200321012065
:20794000FFF7F8F80646802E18BFFFF7EDF97F1C474501D2802EEFD0802E14D1DFF8280596
:207960004078012805D102F02BF8FFF708FA064609E000AA01210120FFF7AEF80646802E8B
:2079800018BFFFF7D1F9802E06D1FFF79BF90646802E18BFFFF7C8F93046BDE8F6812DE911
:2079A000F041460882B00C4690460025760003F057F90120FFF788FB074626E00020FFF70D
:2079C0005DFB0746802F0AD106EB450201210120FFF7B0F80746802F18BFFFF7A5F9802F49
:2079E00015D106EB450134F8150001F00201C90088400090024603210120FFF79BF80746B1
:207A0000802F18BFFFF790F96D1C454501D2802FD4D0802F14D1DFF8B4054078012805D14D
:207A200001F0CEFFFFF7ABF9074609E000AA01210120FFF751F80746802F18BFFFF774F956
:207A4000802F06D1FFF73EF90746802F18BFFFF76BF93846BDE8F6817CB504460D4603F0EB
:207A6000FFF80020FFF730FB064604F00300C00005FA00F0802E009003D10020FFF7FEFABC
:207A80000646802E05D1224601210120FFF710F90646802E05D1009A03210120FFF708F9C6
:207AA0000646802E14D1DFF824054078012805D101F086FFFFF763F9064609E000AA012167
:207AC0000120FFF709F80646802E18BFFFF72CF9802E02BFDFF8F4044078012806D1FFF7B6
:207AE000F1F80646802E03D0FFF71EF9802E0CD101A92046FFF775FE0646802E05D19DF85A
:207B00000400A84201D00D2076BD304676BD80B503F0A6F80220FFF7D7FA802808D1DFF896
:207B2000B0040090012200A9DFF87C04FFF791FE02BD10B582B00523ADF80030DFF8943407
:207B40001B78012B04D1052400AB0C705C784C70012303F053F913BD000000001C00904092
:207B600010B50C46DFF8701401EB041182B08A78C97842EA01210128084604D101F076FB21
:207B8000FFF7FDF801E002F0FFF9ADF80000022200A92046FFF7CDFFBDF8000016BD00B558
:207BA00083B000A900220A6008218DF8001000A94A70B54A926C8A700521ADF80410DFF88F
:207BC00014140978012905D100AA052301A913704B7853700123042200A903F00FF903B0D6
:207BE00000BDF0B50446DFF8EC030078002883B00D465DD1DFF8E00300EB04108178C278D3
:207C0000437941EA0221027942EA0322930803F0030655B98379C77943EA0723077A407A1B
:207C200043EA074343EA006001904FF6FF7081420BD1012D05D101AA31460020FEF74CFFD6
:207C400028E0019A3146002022E08F48C16402F0F000FFF713FA8028ADF8000021D1012D9A
:207C600013D101AA31460120FEF736FF0646802E18BFFFF759F8802EADF8006011D101AA5B
:207C800003210020FEF728FF04E0019A31460120FEF750FF0646802E18BFFFF745F8ADF880
:207CA000006000A8DFF8341302780A7042784A70012DDFF8286309D10020B070F070042206
:207CC00001A9301D02F024F9082200E0022231462046FFF72EFF03B0F0BD10B5044682B0CF
:207CE0000F22C821062002F0F5FE8020ADF80000022200A92046FFF71CFF13BD38B50446CF
:207D0000B748954D0078562808D18020ADF800000B22B449A81C02F0FBF807E00820ADF8E7
:207D2000000020220B21A81C03F0D0F8002068730E2200A80178297041786970204629460A
:207D4000FFF7F7FE31BD0000000C014080B5042813DAA54900EB400201EB8201497801293A
:207D60000BD14949C8640122DFF8580DC863C86B009000A98C48FFF76CFD1D2002BDF0B59F
:207D8000414C247931220A230CB9002321E0974D2E79A6B106782F78BE4202BF46786F78E3
:207DA000BE420AD18678AF78BE4202BFC678EF78BE4202D10023802236E0012701E000277F
:207DC000002301266D1DFFB2A74204D10A2B08BF3346302228E095F804C0BCF1000F1BD099
:207DE00090F800C095F800E07F1CF44502BF90F801C095F801E0F44511D190F802C095F890
:207E000002E0F44502BF90F803C095F803E0F44505D18022334607E00A2B08BF3346761CB3
:207E20006D1DF6B20A2ECEDB0B701046F0BD00005C16002038B5144A6C49002002F1E80321
:207E4000FF24002543F8045B43F8045B43F8045B0D710C704C708C70CC70401C491D0A282A
:207E6000F0DB15710024604D002028706870FF220A21A81C03F02AF8641C0C35042CF3DB6C
:207E800031BD0000F0ED00E02016002070B582B00C460A218DF8001015464C4EF17859B110
:207EA0003279022A08DB022902D1A32C1ED103E0012908BFA32C19D000A9FFF760FF30286A
:207EC0000CD19DF800100A2908DA3079012804D1F078022806D1A32C08D180209DF800100E
:207EE000297076BD012808BFA32CF6D10E20F5E7301C0020F0B4134680220A2B27DA03EBF7
:207F000083063A4F314DF41994F804C0BCF1000F08D195F804C0BCF10A0FBCBF0CF1010C43
:207F200085F804C090F800C006F807C0467866708678A670C078E07003EB430005EB800022
:207F4000002340F8E83F43608360217100E03122F0BC104670470000A01C002001468020D8
:207F600010B40A291ADA194A1379BBB101EB410302EB8303002443F8E84F5C609C6001EBDE
:207F800081011A4BC918FF230C710B704B708B70CB701179491E117110BC704710BC3120FB
:207FA0007047000070160020F0ED00E0FCFFFF1F002000E0FCED00E00100FA050CED00E0EC
:207FC00003005FA005005FA0010003012016002001005FA0E9400020D4400020A01C0020E7
:207FE000323C0008333C0008981B0020C43F00202DE9F04F85B080460020DFF8885D0490DE
:208000008DF80A0005F1010A9AF80100012803D0022857D000F086BFDFF86C0D00EB081662
:208020007078202818BF302812D03C2843D03F2800F0B286432800F0DD80442800F0DD8088
:20804000492800F0B4864A2800F0B58600F064BFB078A3280CBF0121002169700121A4280D
:2080600008BF00214046FEF7C6FEADF80800FFF7E1FEBDF80800802809D108EB05000022FE
:20808000C17806F10C00FFF735FFADF80800BDF80800802806D102208AF8010000220021A9
:2080A00002F018FD7078202840F0158702208AF8010000F034BFB078FFF73CF8ADF8080036
:2080C00000F009BFFEF7F5FEDFF8BC0C00EB08177878401E4F2800F21F87DFE810F05601DC
:2080E0006A0173019101FC012A028903C704C402FD023B035B04590565035902CF021D0717
:208100001D071D071D071D071D071D071D071D071D071D071D071D071D071D079400F500DE
:2081200050001D071D071D071D071D071D071D071D071D071D071D071D071D0794005F0028
:208140007301FC012A0259029002CF023B0365039101CD0507069101E8055D061206390674
:2081600049068B008E00610663068903C70468066C067006AD061D071D071D07C704DFF859
:20818000640D007805F1D40620B905F1D8013046FFF77EF80422314600F0A4BDDFF8440D86
:2081A000007838B905F1D80105F1D400FFF770F8ADF80800BDF8080080280CBF0120002041
:2081C00002F058FC02A8DFF8206D01783170042241787170301D05F1D40101F099FE0422AB
:2081E00005F1D80106F1080001F092FE0C22314600F078BD4146012001E041460020FFF740
:20820000AFFC00F08FBEB9780DF10A0207F10C00FFF73CFE8028ADF808004FD1B878A32897
:2082200008D108EB0500C078012808BFFEF712FF01206870B878A32808BF01210DD008EB92
:208240000500C078022808BFFEF704FF002068700121B878A42808BF00219AF8030050B164
:20826000012814D19DF80A20DFF8800C02EB82021018007958B14046FEF7BDFDADF80800D1
:20828000FFF7D8FDBDF8080080280ED102E08020ADF8080008EB0500C1789DF80A2007F1B8
:2082A0000C00FFF727FEADF80800BDF80800802804D100220021022002F00CFC7878202819
:2082C00040F0098600F02BBE0DF10A0107F10C00FFF755FD8028ADF8080040F020869AF8F4
:2082E0000300022849DA08EB05010020C8709DF80A00FFF733FEDFF8F89BDFF8C877DFF8C0
:20830000F4BBADF80800002405F1100699F80000D0B199F80100012808D1F463F762012258
:20832000F06A009000A95846FFF793FA1D20ADF80800FF22002089F8000089F801000A2130
:2083400009F1020002F0C2FD641C042C09F10C09DCDB01220121DFF8A00B02F069FBFEF7E8
:2083600079FE0020687002460146012002F0B2FB01208AF8010000F0D2BD9DF80A00FFF787
:20838000EDFDADF8080000F0CABDDFF8580B0078002840F0A0850DF10B00FEF7C9FF9DF845
:2083A0000B00002814BF81208020ADF8080000F092BDDFF8300B0078002840F05A81FFF7D7
:2083C00001F956E1DFF81C0B0078002840F0838501214046FEF70FFDADF808007878032825
:2083E00040F079850DF10B00FFF752F89DF80B00002814BF80208120ADF8080000F06BBD65
:208400000420ADF80C0005F110067878042804BF0020ADF80C00404602F018FD012841D103
:20842000B878F0637978DFF8BC0A00783D2907D120B90120FEF75BFFADF80800882009E0EE
:2084400018B9FEF754FFADF8080078783A280CBF582054207080DFF8904A787804280CD0B4
:20846000BDF8080080280CBF0120002002F002FB02A8017821704178617005F15001BDF862
:208480000C00C0F14002204401F042FD70884128C0F2B88240387080002340202882402205
:2084A000214671E2BDF80C007288298A4042412A0BDB40312982403A89B272804919401844
:2084C0000023402200F110015EE24919401800F1500100F007BCF87805F11001C863DFF8AD
:2084E000040A007830B9B87805F13C01FEF789FEADF80800BDF8080080280CBF0120002010
:2085000002F0B8FA7878052803D1042205F13C01E8E302A8DFF8D0690178317004224178EF
:208520007170301D05F13C0101F0F2FC08223146D8E305F11006F879F0633979F87840EA83
:208540000120797940EA0140B97940EA0160F062DFF89009007828B9B978F06AFEF70CFE3B
:20856000ADF80800BDF8080080280CBF0120002002F080FABDF80800802800F0AC847878FC
:20858000062840F0A8848120ADF8080000F0A3BC05F11006B87AF063F978B87840EA012037
:2085A000397940EA0140797940EA0160F062F979B87940EA0120397A40EA0140797A40EAA6
:2085C0000161DFF820090078316338B9F06A0091012200A9FFF73DF9ADF80800BDF80800EF
:2085E00080280CBF0120002002F044FA7878062840F071848020ADF8080000F06CBC05F1F9
:208600001006B879F063F978B87840EA0120397940EA0140797940EA0160F062DFF8C40845
:20862000007840B9F06A0023012205F14001FEF7FFFFADF80800BDF8080080280CBF012001
:20864000002002F017FA02A8DFF89C6801783170042241787170301D05F1400101F058FCCF
:20866000082231463EE3DFF87C08007808B9FFF74EFA8020ADF8080000F02DBCF87839791E
:2086800040EA0120797940EA0140B97905F1100640EA0160F062DFF84C08007858B9F87AF1
:2086A0000190387A0090BB7A7A7AF16AF879FEF75BFEADF80800BDF8080080280CBF0120A6
:2086C000002002F0D7F97878102840F004848020ADF8080000F0FFBBDFF80808007800285A
:2086E00040F0F983DFF80C480023012205F13C012046FEF79DFF05F11006DFF80018F06ADE
:208700000843F0620122F06A009000A92046FFF7A0F80DF10B00FEF71FFF9DF80B0000282E
:2087200014BF80208120ADF808000023012205F13C012046FEF77CFFF06AE24920F00C0088
:208740000843F0620122F06A009000A92046FFF780F8C0E305F11006387AF0633979F8781C
:2087600040EA0120797940EA0140B97940EA0160F062DFF87007007830B9FA79B978F06A95
:20878000FEF752FEADF80800BDF8080080280CBF0120002002F06EF978780B2840F09B83AC
:2087A0008020ADF8080096E3F87805F11001C863DFF83007007858B9009001220FF26C702A
:2087C000BB7850F8230000A9FFF743F8ADF80800BDF8080080280CBF0120002002F04AF9CE
:2087E00078780E2840F077838020ADF8080072E305F11006387AF0634FF0040ADFF800074B
:20880000784400F2FC6001907878472807D1DFF8F406784400F2EE6001904FF0020A404657
:2088200002F014FB012840F09E80B878F97840EA0120397940EA0140797940EA0160706367
:20884000F979B87940EA0120B0F5C05FC8BF4FF4C050708000A9002028827088ADF80C0080
:2088600007F10C00FFF78BFA802808D19DF8002002EB420305EB830202F1E80401E005F1E6
:20888000DC04ADF8080004D0302020608146706B55E020604FF080094FF4006090FBFAF070
:2088A000ADF8000040F60107DFF83CB615E002F0E1F8288A00F500602882BDF80C00A0F545
:2088C0000060ADF80C002068802806D1C4F80090B9F1800F1CBF04986060DFF80806BDF82A
:2088E0000C100078B94213DB60B9288AD6F834C0BDF8002000EB0B016044DDF804C004ABB6
:20890000E0478146B9F1800F0CBF01200020CEE760B9288A776B91FBFAF200EB0B01DDF87E
:2089200004A004AB92B23844D04781462068802806D1B9F1800FC4F8009001D0049860608D
:20894000B9F1800F0CBF0120002002F093F87088412857DB402129824038708000234022C9
:20896000DFF8841510E07288288ADFF87C45412A0EDB40302882A2F14001718080B220448A
:2089800000234022A0F14001404602F037FAC9E20119A7E105F11006387AF063F978B878D8
:2089A00040EA0120397940EA0140797940EA01607063F979B87940EA01204128A8BF4020E1
:2089C000708000A907F10C00FFF7D9F9802808D19DF8002002EB420305EB830202F1E80476
:2089E00001E005F1DC04ADF8080011D030202060002002F03FF8706B60607088012804BF9A
:208A00000220708005F11000DFF8DC14428869E120604FF0000ADFF8D07410E002F02AF87B
:208A20002068802806D1C4F80090B9F1800F1CBF706B6060706B401C70630AF1010A71882B
:208A40005FFA8AF08842D8D0DFF89804007838B95FFA8AFA706B0AEB0701FEF7C2FE8146C4
:208A6000B9F1800F0CBF01200020D7E7DFF89804784400F2944001904FF0040A78784828C0
:208A800007D1DFF88814794401F2824101914FF0020A502805D1DFF87804784400F272403A
:208AA000019000A907F10C00FFF769F980280BD19DF8001001EB410205EB820101F1E80477
:208AC00004E000BF00005FA005F1DC04ADF8080005F11006404602F0B9F9012873D07088D7
:208AE000216841282CDB302914D0DFF8F803007858B9402090FBFAF2DFF81804019B00EB94
:208B00008811706B92B298478146B9F1800F03D1012002E04FF03009002001F0ABFF20682C
:208B2000802806D1C4F80090B9F1800F1CBF706B6060706B4030706370884038708060E0FD
:208B4000302913D0DFF89C13097851B990FBFAF2DFF8C003019B00EB8811706B92B2984799
:208B60008146B9F1800F03D1012002E04FF03009002001F07FFF2068802840F0D081B9F1BC
:208B8000800FC4F8009000F0CA81706B6060C6E100A907F10C00FFF7F2F8802808D19DF8DA
:208BA000001001EB410205EB820101F1E80401E005F1DC04ADF80800404602F047F90128E0
:208BC00023D105F11006387AF063F978B87840EA0120397940EA0140797940EA0160706337
:208BE000F979B87940EA0120BDF80810802904D030212160716B616000E0216005F1100166
:208C00004880404602F014F98CE1206830282FD0C0484FF0000A00EB881705F1100610E0E4
:208C200001F028FF2068802806D1C4F80090B9F1800F1CBF706B6060706B401C70630AF115
:208C4000010A71885FFA8AF0884280F06881A548007838B95FFA8AFA706B1AF80710FEF7EE
:208C6000FBFE8146B9F1800F0CBF01200020D7E7002001F0FFFE52E100A907F10C00FFF74D
:208C80007EF880280AD19DF80010ADF8080001EB410205EB820101F1E80406E0ADF8080076
:208CA00005F1DC043020C5F8DC00022219E000A907F10C00FFF763F880280AD19DF80010B2
:208CC000ADF8080001EB410205EB820101F1E80406E0ADF8080005F1DC043020C5F8DC0015
:208CE0000C2221464046FEF724FF1BE17D480078002840F0F080B878FEF71CFAADF8080058
:208D0000E9E0687801281FD1B878F97840EA0120ADF80C0005F110063879797940EA0120FA
:208D2000B97940EA0140F97940EA0160F0626D480078002840F0CF80BDF80C10F06A02F056
:208D4000C2F9FEF71CF800E02020ADF80800C2E06878012802BF63480078002804D102F004
:208D600012FAFEF70CF800E02020ADF80800B2E06878012802BF5B480078002806D102F0B9
:208D80005AFA04E020160020D44000200020ADF80C00022203A9A0E04046FEF700FFC1E0D5
:208DA000012100E000214046FEF71BFFBAE04046FEF793FFB6E04046FEF7A0FFB2E00DF114
:208DC0000A0107F10C00FEF7DAFFADF80800802802BF4448007800287DD1BE78FD78042E49
:208DE00005DA06EB460242499000405C20B93046FEF7CFF8ADF80800BDF8080080286AD14C
:208E00001D20042EBCBF9DF80A100A2911DA06EB460082003648165C131806B95D70C9185A
:208E20008B78FF2B04D1731C13549DF80A0088708020ADF808004EE00DF10A0107F10C001B
:208E4000FEF79DFFADF80800802802BF25480078002840D1BD789DF80A20042DB8BF0A2A7D
:208E600018DA05EB4500810021480B18D2189278FF2A1CBF095C00290CD0042D0ADA05EB57
:208E800045029100085C012804D12846FEF75EFFADF80800BDF8080080281CD11D20042D6B
:208EA000BCBF9DF80A200A2A13DA05EB450081000F480B18D2189578FF2D05D00D5C2DB1E8
:208EC0006D1E0D54FF259570085C08B9002058708020ADF80800022202A94046FEF729FEB2
:208EE00020E000BFE9400020A01C0020C43F0020981B0020F0ED00E0000C014008005FA087
:208F000031E7FFFFF9E7FFFF4BE9FFFF93EAFFFFF1E9FFFF4C3F0020404601F0BCFF404675
:208F200001F08DFF05B0BDE8F08F0000082000E00C2000E0102000E0142000E0182000E08B
:208F40001C2000E0202000E0242000E013488188008841EA004070470F490A8842F0100275
:208F60000A80020C02F00F028A8008814FF6EF720888104008807047074801888906FCD5C6
:208F80007047054801884FF6F7721140018001880907FCD5704700000428004018280040B7
:208FA00010B586B001214FF4007002F0C3FA0020009001208DF8040000208DF805004FF4EB
:208FC000602002900020039001208DF8100000A98C4C204602F018FB012002F099FB01235F
:208FE00001221121204602F051FB0121204602F029FB204602F02FFB204602F031FB0028AC
:20900000FAD1204602F02FFB204602F031FB0028FAD10121204602F030FB0221204602F06C
:2090200089FB0028F9D0204602F06FFB76490860012301220021204602F028FB06B010BD6C
:2090400030B5044670486F4D006883B001210090284602F012FB0221284602F06BFB0028A2
:20906000F9D0284602F051FB01900123082200A9204601F0C3FE03B030BD7CB5634D044610
:209080002868C00603D4286840F0100028604FF4C040ADF8000048208DF8030003208DF8CB
:2090A000020000A95A4E304601F060FCB068C0F3413001900123286820F01000286004224B
:2090C00001A9204601F09AFE73BD000080F308887047704700BF70474E484F4901604FF012
:2090E0000062426009684D4A914208D04C494D4B016043600868904201D00120704700207D
:20910000704744494448454B4FF000624A6002689A4203D0434A42484A6002680860406850
:20912000C00701D5012070470020704738B58022ADF800204FF00063364C384A364D6360A3
:20914000002914D1296891420AD03649344D61602968914204D021212560ADF8001000E06E
:2091600025600123022200A901F048FE31BD2868904207D02B482A4D60602868904201D03E
:20918000256031BD2848256001210160002200214160084601F09EFC60680068FFF796FF6C
:2091A00020688068FFF796FF004731BD10B582B004468020ADF8000029B1022907D004D346
:2091C000032906D009E0002004E0052002E0062000E0072002F0D5F902E00620ADF80000FF
:2091E0000123022200A9204601F008FE13BD80B50E490978ADF800100123022200A901F0AD
:20920000FDFD01BD002401401041002018100240001001403C1C002000010008153CA54747
:2092200000B1010800B00108405C004022160020081A704738B50446FFF788FE0546FFF7BA
:2092400085FE411BA142FAD331BD50F8041B61B150F8042BD30744BFA9F101039A18002351
:20926000091F42F8043BFAD1EFE77047DFF8641888600020704738B54FF40050ADF80000BE
:2092800010208DF8030001208DF8020000A9DFF84858284601F06AFB4FF4A040ADF80000C2
:2092A00000A904208DF80300284601F05FFB2020ADF8000004208DF8030001208DF8020067
:2092C00000A9DFF81848204601F050FB1020ADF8000000A904208DF8030001208DF802003A
:2092E000284601F043FB1020ADF800008DF8030000A901208DF80200204601F037FB002278
:209300001021204601F094FB0220ADF8000000A910208DF8030001208DF80200204601F00F
:2093200025FB00220221204601F082FB31BD10B582B004208DF8030000A94FF4E040ADF8B2
:209340000000DFF8940701F011FBDFF8904704208DF8030000A91220ADF80000204601F06D
:2093600005FB4FF48460ADF8000000A9204601F0FDFA13BDF8B50025DFF85867DFF8603784
:209380004FF480474FF4005220FA05F41A61E4074CBFDF601F61B4680094DDF800C0BCF1F9
:2093A000010ECDF800E0F8D1DA600094DDF800C0BCF1010ECDF800E0F8D16D1C082DE3DB27
:2093C000DFF8205702202860186820F0706040F0806018601A6100940098401E0090FBD14C
:2093E000D8680090DA6000940098401E0090FBD1087001251A610094009E761E0096FBD13C
:209400005E68DA60360B06F001060094009F7F1E0097FBD126B105FA00F70E783E430E7089
:20942000401C0328E6DBF1BD2DE9F54F81B08A460025DFF8AC66DFF8ACB64FF480484FF04A
:2094400001094FF40054002000270CE058B1CBF80410316821F0706141F0407131603461D5
:20946000F1680091F460002134619DF8042022FA01F3DA074CBFC6F80C80C6F81080491C46
:209480000829F460F0DB0221CBF80010316821F0706141F0806131603461F1680091F46095
:2094A00000210A4634617368F460DB0444BF09FA02F31943521C032AF4DB401CC9B20229D5
:2094C00002D1C0B21E28C1DB012922D10020CAF80000014634617268F460D20408D5DAF8D7
:2094E000002009FA01F31A43CAF8002080F00100491C2029EEDB3461C2B27168F460090BE4
:2095000001F0010102B911B9C0B250B149B9042707E0022908BF012703D004290CBF02273E
:2095200003270220CBF80400306820F0706040F0407030603461F0680090F460CFB19DF84A
:209540000800B0B9DFF88C15002D48600CBF03256D1E4EF29E7000F043FADFF87805DFF829
:2095600088150078012200F0D1F9EDB2002D7FF46AAF384644E12DE9F54F83B08B4600257B
:20958000DFF85045DFF85875DFF860854FF400564FF00009CA4619E0B9F1000F16D0C8F8B6
:2095A0000000386820F0706040F0407038603E61A06800900099491E0091FBD1F96800912D
:2095C000FE6000900098401E0090FBD101A99DF80C00FFF7CFFE9DF80400022809F101017E
:2095E00007D15FFA81F9B9F11E0FD5DB4FF0010A48E0012840D1CBF800A0002152463E61D2
:20960000A0680090009B5B1E0093FBD17B68FE601B0B03F001030090DDF800C0BCF1010E00
:20962000CDF800E0F8D15BB14FF0010CDBF800300CFA02FC4CEA0303CBF8003081F00101BB
:20964000521C202ADBDB3E610090009A521E0092FBD17A68FE60120B02F00103009000988A
:20966000401E0090FBD1C8B200B913B9C9B249B143B94FF0040A05E004280CBF4FF0020A4C
:209680004FF0030A0220C8F80000386820F0706040F0407038603E61A06800900099491E6D
:2096A0000091FBD1F9680091FE6000900098401E0090FBD1BAF1000F14D09DF8100088B997
:2096C0006060002D0CBF03256D1E4EF29E7000F087F920780122211D00F018F9EDB2002D9B
:2096E0007FF456AF504605B0BDE8F08F2DE9F24F82B082460025DFF8E863DFF8E8B34FF436
:2097000080484FF001094FF40054002000214AFA01F23461D2074CBFC6F80C80C6F8108018
:20972000491C0829F460F2DB0221CBF800100027316821F0706141F0806131603461F16849
:209740000091F460002134617268F460D20444BF09FA01F21743491C0329F4DB0221CBF8D1
:209760000410401C316821F0706141F0407131603461FFB2F1680091022FF46002D1C0B291
:209780001E28C3DB012F1CD100200021029A346122FA01F313F0010214BFC6F80C80C6F865
:2097A00010805040491C2029F460EFDBC0B23461002814BFC6F80C80C6F81080F4600020AF
:2097C0001EE0002D0CBF03256D1EDFF80813002048604EF29E7000F003F9DFF8F802DFF844
:2097E00008130078012200F091F8EDB2002D8CD1022F08BF012003D0042F0CBF02200320E2
:2098000003B0BDE8F08F2DE9F24F82B0804600254EF29E79AF4FB24EDFF8D0A24FF40054C8
:209820004FF0000B01A94046FFF7A4FD0220CAF80000306820F0706040F0407030603461B6
:20984000B86800900099491E0091FBD1F1680091F46000900099491E0091FBD10BF10102D1
:209860009DF80410022909D15FFA82FBBBF11E0FD8DB002D0CBF03256D1E2FE00129F8D12B
:20988000002100224FF48043029F346127FA02F515F0010714BFF36033610090009D6D1EB2
:2098A0000095FBD1F4600090009D6D1E0095FBD17940521C202AE7DBC9B23461002914BF9B
:2098C000F360336100900099491E0091FBD1F46000900098401E0090FBD191E7002078600E
:2098E000484600F07DF838780122391D00F00EF8EDB2002D94D19DF80400022808BF01207A
:2099000003D004280CBF0220032079E7714B9B68002B08BFFFF788BD2DE638B50B46114644
:209920000024002520B1012804BF714C202501E0684C10253CB1185D0022FFF7E7FF18B12C
:20994000401980B232BD302032BD624A9268002A08BFFFF7CBBE56E710B50B46114600226C
:20996000002420B1012804BF624A282401E0624A182432B1985CFFF7E8FF18B1001980B27D
:2099800010BD302010BD18B45C48524A4FF48041016035219268521C4FF4005343600092E3
:2099A000009C641E0094FBD10468009403600092009C641E0094FBD1491EEFD111BC70470B
:2099C00038B503240120434D21464C1E012906DBE878002200A9FFF799FF0128F4D032BD51
:2099E000F8B53F4C414907464FF48046E660022008604FF40055206820F0706040F040709F
:209A00002060E560FFF7BFFF002132488068401C47FA01F22561D2074CBFE66026610090F3
:209A2000009A521E0092FBD1E5600090009A521E0092FBD1491C1029EADBE66035212561FC
:209A40000090009A521E0092FBD1E2680092E5600090009A521E0092FBD1491EEFD1266147
:209A6000022125610090009A521E0092FBD1E2680092E5600090009A521E0092FBD1491EC5
:209A8000EFD1F1BD38B50446124D002068601CB9FFF7F1FB01F077FA4EF29E70FFF7A0FFDE
:209AA00028782246291DFFF731FF08B1083080B232BD80B5104840780021FFF746FF4EF23F
:209AC0003C70FFF78DFFFFF732FCBDE8014001F0CCBA00002C1C0020000C014000080140D9
:209AE000040C014010080140301C002014080140381C0020501C00204C1C0020100C01400E
:209B000010B582B0FFF7E8FA00BBDFF884130120086000F04AF84FF40041DFF87843204616
:209B200000F082FF4FF40040ADF8000000A914208DF8030001208DF80200204600F016FF14
:209B400000F065F900F09CFF00F0DCF813BD80B5062001F016FD4FF48070ADF8000000A9B8
:209B600018208DF8030002208DF80200C948CBE180B501214FF0C05001F0E5FC012001F035
:209B8000E1FD01F0E5FD4FF4407001F085FC012001F085FCFFF7F5F9FFF7EEF93E20FFF707
:209BA000DBF9BDE80140FFF7E7B980B501F0F6FB4FF4803001F012FC01F029FC012828D114
:209BC000102001F0DAFD022001F0CCFD002001F04CFC4FF4806001F054FC4FF4806001F0E0
:209BE00049FC002001F055FC4FF4E0114FF4803001F024FC012001F029FC392001F0C4FC45
:209C00000028FAD0022001F024FC01F029FC0828FBD101214FF4000001F095FC012140F6CE
:209C20000C2001F087FCBDE80140A1E710B5994C82B04FF40041204600F0F6FE4FF40040E9
:209C4000ADF8000000A914208DF8030001208DF80200204600F08AFE00F0D9F800F010FFB4
:209C600013BD80B501224FF400418B4800F0E0FE0020FDF75FFA89490020087001BD10B53D
:209C8000864C207882B0D8B9062001F07AFC4FF48070ADF8000000A918208DF803000220A7
:209CA0008DF802007B4800F061FE7B4800224FF4004100F0BDFE3220FFF7BCFA0120207048
:209CC00013BD10B50128764C0BD1FFF71AFA012805D074480068C00800F0010000E0002043
:209CE0002070207810BD70490A78502A4FF0FF3007D16C480068000701D4487870476FF0A6
:209D00000100704780B501F026FE4FF480414FF0006001F02DFE01F020FE4FF4A06001F03F
:209D2000D5FD6249002008604FF4A06001F0CEFD14208DF8000001208DF8010000208DF81A
:209D4000020001208DF8030000A801F0C4FD13208DF8000000208DF801008DF802000120F8
:209D60008DF8030000A801F0B6FD192001F0F7FD1B2001F0F4FD1B208DF8000000208DF86F
:209D800001008DF8020001208DF8030000A801F0A2FD19208DF8000001208DF8020000A84C
:209DA00001F099FD26208DF8000001208DF8010000A801F090FD01BD70B582B00546354CA3
:209DC000FFF79FF9012817D14FF4C0561DB1ADF800601C2006E03146204600F027FEADF8FF
:209DE000006014208DF8030000A901208DF80200204600F0BBFD73BD002D4FF400412046A1
:209E000002D000F011FE73BD00F010FE73BD1CB50121012001F08EFB0121254800F00DFEFB
:209E20001D4C01221146204600F002FE0120ADF8040001A914208DF8070001208DF8060009
:209E4000204600F093FDFFF747F901280BD001224FF40041204600F0EBFD0020FDF76AF986
:209E60000E49002008704FF40040ADF8000000A914208DF8030001208DF80200204600F068
:209E800075FD0820ADF8000000A9482023E00000405C004000080140000C0140404100205C
:209EA0003F410020080C0140303C0008445C00400002300010B5014C02E000BF000C014027
:209EC00082B001220121204600F0B2FD0120ADF8000000A914208DF8030001208DF8020033
:209EE000204600F043FD13BD80B50120ADF8000000A904208DF8030001208DF802000148BB
:209F000002E000BF000C014000F030FD01BD000062B38B0708D0521E11F8013B00F8013B10
:209F200000F024808B07F6D1830740F0208000BF103A07D330B4B1E83810103AA0E8381018
:209F4000F9D230BC530724BFB1E80810A0E8081044BF51F8043B40F8043BD20724BF31F8D5
:209F6000022B20F8022B44BF0B7803707047083A07D3B1E80810083A40F8043B40F804CB32
:209F8000F7D25307E4E700000146802002290FD004290FD008290FD010290FD0202914D081
:209FA00040290DD080290DD0B1F5807F0CD010E000210AE0082108E0102106E0182104E014
:209FC000282102E0302100E03821DFF80C2791817047082070472DE9F04186B00020ADF8D8
:209FE00000004FF48270ADF8020000200190ADF808004FF40070ADF80A0000A9DFF8D84627
:20A00000DFF8D856A089ADF80C000020ADF80E000720ADF81000284601F0E4FC4FF44040B0
:20A02000ADF800000020ADF8020000A9DFF8B066304601F0D7FC0121284601F0FCFCDFF894
:20A04000A486404601F002FD04F1940020640020606404F13C01206FDFF88C76A064E76387
:20A060000020E0648020206500206065A065E0654FF40050206600206066404601F023FD92
:20A08000DFF86886404601F0E1FC04F18800606127611020A06104F11001206FE0610020BA
:20A0A0002062802060620020A062E06220636063A063404601F007FDDFF83476384601F0A4
:20A0C000C5FCDFF83016DFF83006086004F1A000486010208860206FC860002008618020F8
:20A0E000486100208861C86108624FF48050486200208862384601F0E6FC0122022128464F
:20A1000001F091FC01220221304601F08CFC01220121284601F087FC0121284601F079FC6F
:20A120000121304601F075FC06B0BDE8F0812DE9F84F0F4680260025022F824608BFDFF845
:20A14000BCB504D0032F0CBFDFF8B4B5062600F087FD802E03D1384600F087F80646802E74
:20A1600040F07F80DFF87475DFF87885B888DFF87C95DFF864454FF6FD710840B880DFF86A
:20A18000600580880840DFF8581588804FF6FE71B8880840B880DFF86C15D8F814004008C6
:20A1A0004000C8F81400D9F8280040084000C9F82800DFF85005C06940084000C861DFF844
:20A1C0004805486004F1100106202067E06104F1AC006061484601F076FCDFF81815062019
:20A1E000C1F804B0C860DFF808B5584601F06BFC0620A064C4F840A004F13C01404601F0D1
:20A2000062FC0121584601F079FC0121404601F075FC0121484601F071FC01220221DFF885
:20A22000C00401F000FC01220121384601F0FBFB01220221384601F0F6FB4FF6FF7000E089
:20A240006D1CDFF8C0140968890601D48542F7D3854206D30326002000F00CFC3046BDE868
:20A26000F28F802EF7D10120F6E770B5DFF86854044695F90000844201D1802070BD002CC8
:20A2800045D105F18000DFF884140A884FF6FD731A400A804FF6FD76DFF874241388334063
:20A2A00013804FF6FE760B8833400B80DFF86434DE6A76087600DE625E6D760876005E6554
:20A2C0009E69760876009E61DFF83C641E6002262E671E6398639E65A86F1866586D40F0C9
:20A2E00001005865D86A40F00100D862108840F002001080088840F001000880088840F090
:20A300000200088001F016FC80280ED10FE0012C08BF05F18200B6D0022C08BFE86EB2D07B
:20A32000032C08BFA86EAED006204FF0FF342C7070BD38B5044664250021204601F048FCB6
:20A340006D1E072801D1002DF6D132BD70B504460D4664262946204601F03AFC761E072883
:20A3600001D1002EF6D170BD38B4DB4B5B6F1C88A40719D5E04C20804FF6FF74DA480180A9
:20A38000002100E0491C1D88AD0701D4A142F9D3A14209D2002100E0491C1D88ED0701D4E8
:20A3A000A142F9D3A14202D332BC022070470088002A14BF10708DF8000032BC80207047A0
:20A3C00010B582B000240022FF21C020FFF7CCFF802840D10022FF211046FFF7C5FF8028CC
:20A3E00039D100AA7F210020FFF7BEFF802832D19DF8000008B9052016BDFF2807D1082412
:20A4000000AAFF210020FFF7AFFF802823D19DF80000FF281ED0802102E0D9B1641C491082
:20A4200081EA0002FF2AF8D1A1B1E4B2082C06D1A94800F17E01816700F1860107E0092CED
:20A4400008D1A54800F17C01816700F184018166802016BD042016BD70B5A04C82B00022B4
:20A460000221204601F0DFFA9D4D00220221284601F0D9FA00220121204601F0D4FA9648E1
:20A480004FF0FF310170A1898DF80010406F0088800758BF022614D500220021FE20FFF7E0
:20A4A00063FF0646802E02D1FFF78AFF0646022E07D000220021FE20FFF756FF802E08BF7A
:20A4C000C6B201220221284601F0ADFA01220121204601F0A8FA01220221204601F0A3FA40
:20A4E000304676BD80B57C488089002816BF0828032001208DF80200E0211820ADF80010CB
:20A500008DF8030000A9844800F030FA4FF4C040ADF8000000A9814800F028FA01BD70B5D5
:20A5200005466D488089002882B016BF082803240124FFF7BFFC1020ADF800008DF8030059
:20A540008DF8024000A9754E304600F00FFA00221021304600F06CFA0220ADF8000000A9CA
:20A56000304600F003FA01220221304600F060FA012D04BF0120FCF7DDFD012D04BF002082
:20A58000FCF7D8FD00220221304600F051FA012D04BF0120FCF7CEFD01220221304600F081
:20A5A00047FA0220ADF800008DF8024048208DF8030000A9304600F0D9F9FFF793FF73BD43
:20A5C00010B582B01020ADF8000004208DF8030001208DF8020000A9504C204600F0C6F901
:20A5E000FFF782FC0220ADF8000000A9204600F0BDF9E020ADF8000000A904208DF8030071
:20A60000454800F0B3F94FF4C040ADF8000000A9204600F0ABF913BD10B504460121012064
:20A6200000F07FFF01214FF4805000F083FF01214FF4804000F087FF0121182000F07AFFA7
:20A640002046FFF76CFFFFF7C6FCBDE8104003E738B5FFF7B5FF214C0021204601F0EBF93C
:20A660001F4D0021284601F0E6F90021204601F0D0F90021284601F0CCF9204601F08EF9AB
:20A68000284601F08BF900220221204601F0CBF900220221284601F0C6F90022012120466A
:20A6A00001F0C1F90F4801F0D1F9104801F0CEF90F4801F0CBF900214FF4805000F03AFF64
:20A6C00000214FF4804000F03EFFBDE834400021102000F02FBF00008018002000300140B8
:20A6E000003800401C0002400C3001403000024058000240604000200C3800403A19002044
:20A7000034190020000002402002020004300140043800400400024000080140000C014099
:20A7200030B57D4C00206070B9B034A80FF228211122FFF7EDFB08A8B02101F0E3FA7749CC
:20A740000A788DF8002000A84A7842708A788270C878734A8DF8030001A90420135C01F807
:20A76000013B401C135C01F8013B401C135C01F8013B401C135C01F8013B401C1028EDDB41
:20A7800008A934A801F0C2FA08AA04A900A801F0F4FA6448002104AA137810F8015BAB4242
:20A7A0001CBF01236370537810F8015B491CAB421CBF01236370491C921C1029ECDB39B078
:20A7C00030BD70B5584C5948256A006885421CBFE8B2FF2833D000F0D6FF524E304600F0FA
:20A7E000DBFF2946514800F0F6FF2168304600F0F2FF61684E4800F0EEFFA1684D4800F0E8
:20A80000EAFFE1684C4800F0E6FF21694B4800F0E2FF61694A4800F0DEFFA169494800F0FB
:20A82000DAFFE169484800F0D6FF484CF7252168A4F5DE3000F0CFFF241D6D1EF7D170BD41
:20A8400010B54348344C00884FF6FF7188420FD06080012060603F4802888A420BD06268FF
:20A86000B2F5007FBEBF521C6260801CF4DB02E000206080606001202070FEF767FBA060F0
:20A8800010BD2548002101704170704738B5224C207801283FD16088D32819DBE06858B928
:20A8A000FEF754FBA060FEF751FBC004C00C00F51C501030E06031BDFEF748FB0146A0682D
:20A8C000FEF7B6FCE168814225D20120607031BDFEF73CFB0546A0682946FEF7A9FCB0F5C2
:20A8E0007A6F18D9A56000F04EFF6068184DB0F5007F07DB6088401C6080284600F04CFF3C
:20A90000002060606068618805EB400000F083FF6068401C606031BDE8400020E0F7FF1FF5
:20A92000E4F7FF1F003C000800F80108203C0008043C0008083C00080C3C0008103C00083D
:20A94000143C0008183C00081C3C000824F8010800F4010802F401085768617420617265D6
:20A9600020796F7520646F69000000002DE9F041CC78002204F00F03E40644BF8C782343F4
:20A980000C88E5B225B3D0F800C001250F2605FA02F707EA0408B84515D14FEA820E06FA30
:20A9A0000EF82CEA080C03FA0EFE4EEA0C0C91F803E0BEF1280F08BF476191F803E0BEF132
:20A9C000480F08BF0761521C082AE0D3C0F800C0FF2C27DDD0F804C0002201250F2602F1FB
:20A9E000080705FA07F707EA0408B84515D14FEA820E06FA0EF82CEA080C03FA0EFE4EEA31
:20AA00000C0C91F803E0BEF1280F08BF476191F803E0BEF1480F08BF0761521C082ADED36B
:20AA2000C0F804C0BDE8F08101617047416170470AB1016170474161704770B40C4A1368F0
:20AA40008602C0F3034485B248BF23F0E06306D4C60243BF032606FA04F4A343AB4321B175
:20AA600080024CBF43EA05432B43136070BC704704000140744908707047734800787047F5
:20AA800000B585B001214FF4006000F053FD0121042000F04FFD01F0C7FA6C4984200880B2
:20AAA00000A801F0EFFA6020ADF800000220ADF808000120ADF802000020ADF8040000A8E7
:20AAC00001F0BFFA012001F001FB012001F0E8FA05B000BD2DE9F0415D4E0446707884426E
:20AAE00082B00D46904620D00021042001F0DCFA0021012001F0D8FA002001F0CDFA002002
:20AB000001F0DCFA062C00F28080DFE804F0042527492B3A5B004F48016821F0F0010091A3
:20AB2000009941F0400101606FE0002C18BF012C00F08880022C18BF032C00F08380042CDB
:20AB400012BF052C7168A9427CD0062C04BF7068A842D7D1BDE8F381502000E0402001F0CA
:20AB6000B0FA52E0502001F0ACFA3B4FBD8302203884012148F6A04038830020307004206B
:20AB800041E0402001F09DFA334FBD8302203884012148F6A040388300203070042032E01B
:20ABA0002D4F6420B883B88B40083885642038833889C0B20090009840F4D040009000980C
:20ABC000388122E0244FBD83680838854FF6FF7038833889C0B20090009840F4D04000903C
:20ABE00000983881A8F10100FF280ED2A7F820800120307001F062FA4FF6FE71388808405A
:20AC000038800121012001F04FFA1449012008607078002818BF042803D0052818BF072800
:20AC200009D144B10B48016821F0F0010091009941F0B0010160747075600120BDE8F64164
:20AC400001F02ABABDE8F3817F1C0020002C0140441C002004080140102C0140808225422B
:20AC60000722B421062035E71CB59349934C0A7849788DF8002000AA517091490B681B7AD3
:20AC80008DF802300B685B7AD3700A680968927A8DF80420C97A8DF8051078B90622B021D3
:20ACA00000A801F02FFA032020740621012001F0FBFA3021012001F072FA13BD0019032111
:20ACC000017413BD7D4A83181B7C022B02D0032B06D070470101895CF22902D1FDF788B972
:20ACE000ADE0704770B50400744D09D17548007801F0FDFA68820246F021734801F02EFA18
:20AD000020464619317C11B1012903D00BE00120707470BD0001405DF2280DD12046BDE844
:20AD20007040FDF765B9022100F09EF80020307414B9BDE870405BE070BDD0B504465F4EDE
:20AD400006EB44002701428A2AB15F4800EB8411B819FFF7DDF8B85DF1281DD0F22836D0F1
:20AD6000F3282BD0F52808D0F7280BD0F8280ED0F92815D0FA281AD02EE02046BDE8D04095
:20AD8000FEF735BA2046BDE8D040FEF759B92046BDE8D040FEF771B92046BDE8D04063E70E
:20ADA000B81941782046BDE8D040FEF7BFB9B81941782046BDE8D040FEF7F8B9B8194078AD
:20ADC00007280DD00221204600F04EF808E02046BDE8D040FDF70CB90221204600F044F837
:20ADE000A1190020087414B9BDE8D04000E0D0BD344800784FF4405101F0E3B970B5040090
:20AE0000084615461E4604BFB02101F07BF92B482018012E0CBF0321022101743CB9294667
:20AE2000012001F041FABDE87040302130E070BD224A82180121117400B9D9E770471F4A9C
:20AE400082180021117400B9D2E77047002802BF1A48007C002801D1012070470020704719
:20AE6000164900200874704780B519B1022908D005D301BD58B9BDE80440102108E030B98C
:20AE800004E020B91021012001F089F90BE001BD012001F084B980B520B91021012001F0E7
:20AEA0007EF900E001BD07480078BDE804404FF4805101F086B90000FE3F0008D440002010
:20AEC0005C1C00207D1C00204C3F002062F30F2262F31F42401810F0030308D0C91A1FD32F
:20AEE000DB0748BF00F8012D28BF20F8022D130030B414461546103928BF20E93C00FAD822
:20AF0000490728BF20E90C0048BF40F8042D890028BF20F8022D48BF00F8012D30BC7047EE
:20AF2000C91818BF00F8012DCB0728BF00F8012D7047000010B586B0DFF840440290002095
:20AF40000390ADF81000ADF814000420ADF81200002000904FF40070ADF804000020ADF844
:20AF60000600204601F0F6F900A9204601F07EFA02A9204601F032FA01224021204601F004
:20AF80008BFA06B010BD30B58DB04FF48060ADF8040001A904208DF8070003208DF80600B3
:20AFA000DFF8DC03FFF7E2FC01214FF4804000F0C1FA0121012000F0B4FADFF8C843E0692B
:20AFC000FFF7B8FF00214FF4804000F0B3FADFF8B853284600F03AFDDFF8B0134FF48030FF
:20AFE00008604FF4805104F1200001F06FFADFF8A0030290A06904EBC0212031039104EBAD
:20B000004000002104918088059006918020079008914FF4005009910A910B900C912846C8
:20B0200002A900F050FD01220221284600F06FFD00220821284600F06AFD00220421284653
:20B0400000F065FD0F208DF8000000208DF8010001208DF802008DF8030000A800F03BFC45
:20B060002020A0810DB0002030BD1CB5C34881894DF6FF72114081810188090744BF818813
:20B08000ADF8041001F066F9BF4C204600F0DEFC00220221204600F03AFD0F208DF80000E6
:20B0A00000208DF8010001208DF8020000208DF8030000A800F00FFC00214FF4804000F0E3
:20B0C00039FA002016BD70B5AE4C05462078012882B00E461DD1A0884000B04204BFE06945
:20B0E000A84216D0A54881894DF6FF72114081810188090744BF8088ADF8000000214FF4D5
:20B10000804000F017FA00219F4800F0F7FC00202070B6F5805F06DC7008A080E080E06926
:20B12000A8420CD00DB9302076BD01214FF4804000F000FA2846FFF7FDFEE56104E0012146
:20B140004FF4804000F0F6F900206061A061E08120822081E08860818B4801684908490068
:20B160000160A188416004F12001C160016841F0010101608148818941F4005181810120F4
:20B180002070002076BD80B57C4881894DF6FF72114081810188090744BF8088ADF8000079
:20B1A00000214FF4804000F0C5F90021764800F0A5FC74490020087002BD76480168890386
:20B1C00000D4704738B441686E4A41F4403141609369594202EB410468496589E488A54295
:20B1E0001AD1C3F1010302EB430493610025258102EBC322856D6D086D0085652032A488AB
:20B20000C4654266826D42F001028265888940F40050888131BC7047012050704DF6FF727B
:20B220008889104088810888000744BF8888ADF8000031BC704710B5524C208A08B920784B
:20B2400008B9002010BD6069A16988420DD14E4800F065FC6169A269914206D104EB41012E
:20B260008A880989101A401A05E0606904EB400081880089081A20826069218A04EB4000D0
:20B28000808888423CBF0020208200F002F8208A10BD38B53B4C258ADDB1A089A84238BF03
:20B2A0000546606904EBC02304EB40002A460089C0184FF49871203000F024FFE581022071
:20B2C000E18900F0F1FFBDE834403021022000F066BF31BD38B52B4C6069E28904EB4001CD
:20B2E0000B89D3180B81218A8D1A25820021E181ADB2B5B1A189A94238BF0D4604EBC020D4
:20B300009BB218182A464FF49871203000F0FAFEE5810220E18900F0C7FF3021022000F0B1
:20B320003EFF606904EB40010A8989888A4223D3617801291DD1002161700023A169C1F1AF
:20B34000010104EB4102A161138104EBC1210E4B1D686D086D001D60203192885A60D960B7
:20B36000196841F0010119600B490A8842F400520A80C0F10100606131BD000000380140CE
:20B380000008014000000020580002400400024004380140000002400C3801408348844A87
:20B3A0000021C16001611421416100218161C161016841F0010101604168114041607D4A8E
:20B3C000016811400160016821F480210160416821F4FE01416000218160704773490A688D
:20B3E00022F480320A60B0F5803F0A6822F480220A6003D0B0F5802F04D07047086840F4CD
:20B40000803002E0086840F4A020086070476A4866490A68520C02F0010202704268521C67
:20B42000426002781AB94268B2F5803FF1D10868800301D501207047002070475F4A1368AF
:20B4400023F47C1318430843106070475C49086070475A490A68920840EA8200086070473B
:20B460005648006800F00C00704754490A6822F0F00203E051490A6822F4E06210430860FE
:20B4800070474E490A6822F4605242EAC000086070474C49086070474B490A68EEE74B49F6
:20B4A0000860704730B445490A6802F00C02082A0FD10A680B68C2F38342921CDB0358BF75
:20B4C000434B04D50B689B034CBF414B414B5A4300E0404A02600FF21C120B680468C3F3A4
:20B4E00003139B5C24FA03F545600B684468C3F302239B5C24FA03F585600B684468C3F3C3
:20B50000C2239A5C24FA02F3C3600FF2F8030968C268C1F38131C95CB2FBF1F1016130BC1B
:20B5200070472D4A0029116814BF084321EA000010607047294A0029116814BF084321EAAD
:20B54000000010607047264A0029116814BF084321EA000010607047224A0029116814BF81
:20B56000084321EA0000106070471F4A0029116814BF084321EA0000106070471B49086027
:20B5800070471B49087070474109084A012908BF116803D002290CBF116A516A00F01F004D
:20B5A00021FA00F202F0010070470000001002400000FFF8FFFFF6FE0841002004100240DA
:20B5C00060004242D8004242201002403C04424200093D0000127A00141002401810024053
:20B5E0001C1002400C100240101002404004424207100240000000000102030401020304E8
:20B6000006070809020406084268474B1A400B681A430B7942EA03224260444B82681A4048
:20B62000CB681A438B681A434B7942EA43028260C26A097C491E22F47002C9B242EA01517A
:20B64000C16270470029816812BF41F001014908490081607047816841F00801816070470D
:20B660008068C00806E0816841F00401816070478068800800F0010070470029816814BF80
:20B6800041F4A00121F4A0018160704770B407240A290BDBA1F10A0505EB4505C668AC4029
:20B6A00026EA0404AB402343C36008E001EB41050669AC4026EA0404AB40234303611F2479
:20B6C000072A0ADA521E02EB8202436B9440A34391401943416370BC70470D2A0ADAD21F4C
:20B6E00002EB8202036B9440A34391401943016370BC70470D3A02EB8202C36A9440A3439E
:20B7000091401943C16270BC7047C06C80B2704707490028086814BF40F4000020F40000DE
:20B720000860704700000000FFFEF0FFFDF7F1FF0824014000680022084218BF0122104689
:20B7400070470000014908607047000020000E4280B50120FFF712FFBDE802400020FFF7FF
:20B760000DBF0000DFF84C110A6802F03802FFE70A600A68104308607047DFF838110A6865
:20B7800022F01002F4E7DFF83001DFF830110160DFF82C110160704770B5054640F6FF76E2
:20B7A000304600F051F8042814D1DFF81841206840F0020020606560206840F04000206022
:20B7C000304600F041F8012804D0216841F6FD721140216070BD70B505460E460F2000F0BC
:20B7E00033F8042816D1374C206840F0010020602E800F2000F028F8042804D1300C68803D
:20B800000F2000F021F8012804D0216841F6FE721140216070BD70B504460D460F2000F0E3
:20B8200013F804280FD1274E306840F00100306025800F2000F008F8012804D0316841F692
:20B84000FE721140316070BD18B41F4A13680421DB0748BF012108D413685B0748BF0221A6
:20B8600003D41368DB0648BF0321FF2304E01468E40648BF0321401E012915D1A8B10021EB
:20B880000091009302E00099491E009100990029F9D114680421E40748BF0121EBD4146895
:20B8A0006407E4D50221E6E700B90521084612BC704700000020024004200240230167452A
:20B8C000AB89EFCD102002400C2002402E4908432E49086070472DE9F0430578C27801211E
:20B8E0007AB32A4A274C126825F0030302F4E0621F5990F801C0C2F5E062120AC2F1040ECC
:20B900000CFA0EFC90F802E04FF00F0828FA02F909EA0E0205F0030542EA0C02ED00FF26EE
:20B920001201AE40AA40B74332403A431A51007800F01F029140164A400942F82010BDE8B6
:20B94000F08305F01F0001FA00F00C496A0941F82200BDE8F08300F0E4BD00F0E0BD0121FA
:20B9600000F01F029140064A400942F820107047084A1140084308490860704780E100E08C
:20B9800080E200E000E400E00000FA050CED00E000E100E080FFFF1F08ED00E080B50F4909
:20B9A00088420ED00E49884217D101214FF48050FFF7D2FDBDE8044000214FF48050FFF7C9
:20B9C000CBBD01214FF48040FFF7CFFDBDE8044000214FF48040FFF7C8BD01BD003800403A
:20B9E0000030014002880B8802F441521A434B881A438B881A43CB881A430B891A434B89BE
:20BA00001A438B891A43CB891A430280098A018270470029018812BF41F040014FF6BF72ED
:20BA2000114001807047002A828814BF114322EA0101818070470029818812BF41F0040123
:20BA40004FF6FB72114081807047000001684908490001600021016041608160C160334926
:20BA6000401A0CD014380FD0143812D0143815D0143818D014381BD014381ED070472C4836
:20BA8000016841F00F011CE02948016841F0F00117E02748016841F4706112E02448016868
:20BAA00041F470410DE02248016841F4702108E01F48016841F4700103E01D48016841F0DA
:20BAC00070610160704702688B686FF30E121A430B6A1A430B691A434B691A438B691A433C
:20BAE000CB691A434B6A1A438B6A1A430260CA6842600A6882604968C160704700290168AC
:20BB000012BF41F001014908490001607047002A026814BF114322EA0101016070474068E6
:20BB200080B2704700BF024908607047080002400400024081B000214FF6FF70214A00E012
:20BB4000491C13689B0501D48142F9D3814209D2002100E0491C13689B0301D48142F9D380
:20BB6000814202D3032001B07047174A526F002100E0491C13881B0601D58142F9D3814236
:20BB800019D2002100E0491C13880BB98142FAD3814210D200210D4B04E0B3F800C08DF873
:20BBA00000C0491CB2F800C05FEACC7C01D58142F3D3814202D3022001B07047802001B093
:20BBC000704700BF00000240801800200C3001402DE9F843464D474E474FDFF82081484C5D
:20BBE000894629884FF6FD72114029803188114031804FF6FE72298811402980396B490807
:20BC000049003963B96D49084900B965F96949084900F961C7F80480062121677963F863E2
:20BC2000F96504F1C00078663962201DB862B86D40F00100B865F86940F00100F861386B20
:20BC400040F001003863308840F002003080288840F001002880288840F002002880FFF775
:20BC600069FF802842D100204FF6FF7100E0401C3A68920601D48842F9D3884228BF032017
:20BC800034D2207900F00700022821D129884FF6FD721140298080203188114031804FF6F3
:20BCA000FE72298811402980396B490849003963B96D49084900B965F96949084900F9615B
:20BCC000B9F1000FC7F8048010D00121621D0AE0042814BF08200720BDE8F28312F8013B4F
:20BCE00009F8013B491C236F9942F7D3BDE8F28304300140043800400000024020020200FA
:20BD000080180020002200F023BC0000F0B5046842688368C068DFF80853DFF808730C60BC
:20BD20004A608B60C8600A26C0F3072EC0F3074C1EF807E01CF807C04FEA0E4E4EEA0C6C0B
:20BD40005FFA80FE1EF807E04CEA0E2C4FEA106E1EF807E04EEA0C0C55F804EB8EEA0C0CCF
:20BD60008CEA04046240534041F8104F58404A608B60761EC860D7D1F0BD2DE9F047036882
:20BD8000146855689668A74F634044686C408568C0687540D66886EA000902F110000922CC
:20BDA0001B26C4F3074E4FEA136C1EF807E01CF807C04FEA0E4E4EEA0C6CC5F3072EC5F3BC
:20BDC00007481EF807E018F807804CEA0E2C5FFA89FE4FEA08481EF807E04EEA0C0C4FEA21
:20BDE000146EC9F3074A1EF807E01AF807A048EA0E6EC9F307284FEA0A4A18F807804EEA09
:20BE0000082E5FFA83F84FEA196918F8078019F8079048EA0E0E4FEA156818F807804AEA4F
:20BE20000868C3F3072AC3F307431AF807A0DB5D48EA0A285FFA84FAC4F307241B04E45D3D
:20BE40001AF807A043EA096343EA0423ECB24AEA0808E45D44EA03094FEADC1303F0013390
:20BE600073430CF07F34CCF3066A83EA44058CEA4A6A83EA0A0A8CEA440463401B0243EA22
:20BE80001A636B4083EA3C4350F8044B83EA3C2363404FEADE1404F0013474430EF07F35CB
:20BEA000CEF3066A84EA450C8EEA4A6A84EA0A0A8EEA45056C40240244EA1A6484EA0C0426
:20BEC00084EA3E4450F8045B84EA3E246C404FEAD81505F00135754308F07F3CC8F3066A68
:20BEE00085EA4C0E88EA4A6A85EA0A0A88EA4C0C85EA0C052D0245EA1A6585EA0E0585EAB8
:20BF0000384550F804CB85EA38258CEA05054FEAD91C0CF0013C06FB0CFC09F07F3EC9F35F
:20BF2000066A8CEA4E0889EA4A6A8CEA0A0A89EA4E0E8CEA0E0C4FEA0C2C4CEA1A6C8CEA12
:20BF4000080C8CEA394C50F804EB8CEA392C521E8EEA0C097FF425AFC5F30746220EF65DF4
:20BF6000D25D360446EA0262C9F30726C9F3074CF65D1CF807C042EA0622DEB24FEA0C4C29
:20BF8000F65D3243466872402E0EC3F3074EF65D1EF807E04CEA0666C3F3072C4FEA0E4EC2
:20BFA0001CF807C046EA0C265FFA84FC1B0E1CF807C0DB5D4CEA0606D0F808C08CEA0606DB
:20BFC0004FEA196C1CF807C04EEA0C6CC4F3072EC4F30744E45D1EF807E0240444EA036330
:20BFE0004CEA0E2CC5F307245FFA85FEE45D1EF807E043EA04234EEA0C0C5FFA89F4D0F892
:20C000000CE0E45D00682343584008604A608EEA0C0C8E60C1F80CC0BDE8F087000000005C
:20C02000C81B00208017002080B501214FF40060FFF792FABDE8044000214FF40060FFF727
:20C040008BBADFF8A010DFF8A0300A884FF0000CC3F800C0D2B2B0F800C042EA0C220A8045
:20C0600042881A6082889A6002895A604289DA608389DFF87820FFE71360C3895360C08813
:20C08000088470470021018041808180C180018141818181C1817047DFF85410086070471F
:20C0A000DFF8501008607047DFF84C20012911880CBF084321EA0000108070470F490860FC
:20C0C000704708490A8840F67F7305E00C49086070470A884FF2FF331A4042EA0020088012
:20C0E00070470000182C014010842542A880254200802542BC8825420C2C01400C8025427C
:20C100002C8325424900521C01F18041521001F5C0410AD010F8013B10F801CB43EA0C23F8
:20C1200021F8023B891C521EF4D1704770B4490001F18044511C4A1004F5C0440CD010F84D
:20C14000015B10F8016B1D401E4045EA062524F8025BA41C521EF2D170BC70474900521CF4
:20C1600001F18041521001F5C04105D051F8043B20F8023B521EF9D1704700004FF6F87162
:20C180000840DFF8AC1108607047DFF8A82152F8203048F68F1C0CEA0303194326E0DFF84C
:20C1A000942152F8203048F6BF7C0CEA03035FEAC16C48BF83F01003890648BF83F020038C
:20C1C00010E0DFF8702152F820304BF68F7C0CEA03035FEAC14C48BF83F48053890448BFEA
:20C1E00083F4005343F4004141F0800142F820107047DFF8401151F8202048F6BF731A40AF
:20C2000082F0300242F4004215E0DFF8281151F820204BF68F731A4082F4405242F4004257
:20C2200009E0DFF8101151F8202048F68F631A4042F40042FFE742F0800241F820207047C8
:20C24000DFF8F01051F8202052040AD551F8202048F68F731A4042F4404242F0800241F881
:20C2600020207047DFF8CC1051F8202052060AD551F8202048F68F731A4042F4004242F087
:20C28000C00241F82020704738E0294A126892B202EBC000284A37E03BE02549096889B2F8
:20C2A00001EBC00024493AE0214A126892B202EBC000224A2AE01E4A126892B202EBC0002C
:20C2C0001F4A3F2902EB400009DB4A091F23194208BF521E1204910941F4004105E04A08F8
:20C2E000C90748BF521C12049109016070471049096889B201EBC000114914E00C4A126862
:20C3000092B202EBC0000F4A4908490042F8101070470749096889B201EBC000094951F8E5
:20C32000100080B2704751F810008005800D7047505C0040005C004008600040046000400E
:20C340000C600040006000400106090C41EA10207047000080B54049884217D03F498842A2
:20C360001DD03F49884223D03E49884229D03E49884232D101214FF48040FFF7EDF8BDE848
:20C38000044000214FF48040FFF7E6B801214FF40030FFF7EAF800214FF4003019E0012185
:20C3A0004FF48020FFF7E1F800214FF4802010E001214FF40020FFF7D8F800214FF4002008
:20C3C00007E001214FF48010FFF7CFF800214FF48010BDE80440FFF7C8B801BD30B5044684
:20C3E00085B00D46208A4CF6FF710840E988084320824EF6F311A0890840A98808432989CC
:20C40000084369890843A0814FF6FF41A08A0840A9890843A08200A8FFF744F812488442E3
:20C420000CBF039802981921484329688900B0FBF1F06421B0FBF1F109010A09642303FBDD
:20C44000120000013230B0FBF3F000F00F000843208105B030BD0000004400400048004040
:20C46000004C00400050004000380140028A4FF2FF031A400B881A434B881A438B88C9887A
:20C480001A4314E00029818912BF41F400514DF6FF72114081817047002A828A14BF1143A6
:20C4A00022EA0101818270471A400282028A114301827047C905C90D8180704700880022B6
:20C4C000084218BF01221046704700000022FEF701BD000030BF704720BF704740BF704744
:20C4E000BFF36F8F7047BFF34F8F7047BFF35F8F704701DF7047EFF31480704780F3148864
:20C50000BFF36F8F7047EFF30980704780F309887047EFF30880704780F30888704762B6E4
:20C52000704772B67047EFF31080704761B6704771B67047EFF31380704780F311887047A1
:20C54000EFF31280704740BA704700BA7047000000B500BF130096469446103928BFA0E899
:20C560000C50FAD85FEA417C28BF0CC048BF40F8042BC90728BF20F8022B48BF00F8012B3F
:20C5800000BD0000704710B50446210604F07F0008D51021FFF703FE4FF4803004F00F0182
:20C5A000884004E01021FFF70CFE0120A040DFF8141A0A681043086010BDDFF8181A002075
:20C5C00008600021DFF8000A016001740120704710B5DFF8F4496069E062D0B9DFF8F809FE
:20C5E000816881B1007B000603D58320FFF7CBFF09E010210320FFF7E4FDDFF8C80901683F
:20C6000041F0080101600120207300F064FC002010BD012010BD38B5DFF8AC49606B616A51
:20C6200088420ED3002510210320FFF7B8FDDFF894090168257341F40021016000F04BFCC8
:20C640000AE0DFF89819DFF89809097830F81100E56BA84238BF0546FFF7BAFF08B9002525
:20C6600031E0A06B78B975B3E069E16B4118491EB1FBF0F2206AA16A904238BF0246606BF1
:20C6800000F008FD00E0F5B10320FFF705FEA36B0146A06AAAB21818FFF734FDA9B2032073
:20C6A000FFF702FEDFF82809006800F03000102803D030210320FFF772FDA06B2818A063C2
:20C6C000E06B401BE063206AE269A16B4243914204D10021A163616B40186063A068401BF4
:20C6E000A0604DB1E06B10B90320207402E0207C022801D00020207331BD2DE9F042DFF838
:20C70000C848606B616A88420FD30020206410210320FFF756FDDFF8AC08016841F0080158
:20C7200001600020207300F0D6FBFFF751FF00B92064A16B226CE0695118491E88423ED313
:20C740000026DFF8A00805E0A36A10F8012B7118761CCA54256CA16BAE42F5D36818E16BB4
:20C76000A0634F1BE763E5B157B948B1E1690818401EB0FBF1F6206AB04206D2064604E085
:20C78000266AE169714388420BD1D4F83490A16A3246484600F0C9FC0020A06306EB0900F2
:20C7A0006063A068401BA0604DB1002F1CBF207C052804D100202073BDE8F0428BE3BDE810
:20C7C000F08270B5DFF80048606B616A88420FD30020206410210320FFF7F3FCDFF8E407C2
:20C7E000016841F0080101600020207300F073FBFFF7EEFE08B9206422E0256C05B3A66BA1
:20C800006EB9E069E16B4118491EB1FBF0F2206AA16A904238BF0246606B00F03BFCA16A6B
:20C82000DFF8C0270020711800E0401CA84207D211F8013B12F8016BB342F6D00020206379
:20C84000216CE06BA66BE569431A206A8A194543AA42A263E36304D10022A263626B8018F7
:20C860006063A068401AA06049B1002B1CBF207C052804D1206B401E8041C00F28E370BD44
:20C8800070B5DFF85447DFF84057A17C607C090441EA0060E17C40EA0120217D0843002150
:20C8A000A9636863E17B28290BD02A2918BF2F2904D0A8290DD0AA2908D014E0FFF788FEFA
:20C8C00088B3A07DE17D41EA00200CE0FFF780FE48B3A17D607D090441EA0060E17D40EAE1
:20C8E0000120217E0843E9694843A168E863B1B181421AD0207BDFF8CC66000607D5102136
:20C900000320FFF74CFC306840F4002006E010210320FFF756FC306840F0080030600120C7
:20C92000287300F0D8FA002070BD012070BD80B5DFF8A406816861B1007B000611D41021B7
:20C940000320FFF73EFCDFF87C06016841F0080101600220DFF87016087300F0BCFA002067
:20C9600002BD012002BD10B5DFF86C06DFF858468068216C814226BF206403200420207419
:20C980000320FFF789FC226C014692B2DFF85406FFF7B8FB216C89B20320FFF785FCDFF8CD
:20C9A0003006006800F03000102803D030210320FFF7F5FBA068216C401AA06000202073B2
:20C9C00010BD10B5DFF820060078022818BF032803D1DFF8F41500204861DFF8FC058168E6
:20C9E000B1B1007BDFF8DC45000607D510210320FFF7D5FB206840F4002006E01021032050
:20CA0000FFF7DFFB206840F008002060012003E0FFF7DEFD20B10020DFF8AC15087390E0BD
:20CA200010BD10B5FFF783FF002847D0DFF8B825DFF894051178042903D101214161052115
:20CA400011707023DFF89C15C46A0B7000234B7043695C401C4207D006228A70C3622822A5
:20CA60000A7300224A7317E05BB902238B703A230B7300234B731378022B0DD10323137034
:20CA80000AE0027B12B98A700A7304E005228A7020220A7300224A730022CA700A714A71B8
:20CAA0008A710A22CA7100220A724A728A72CA728A73CA730A744A741221B9E010BD80B53E
:20CAC000FFF735FF58B3DFF81C050021017008228021417002218170C17020210171002102
:20CAE00041718171C1710830DFF8001509680B78002B14BF11F8013B20230370521C0B785E
:20CB0000002B14BF11F8013B20234370521C801C242AECDBDFF8B0142420086440E001BD94
:20CB200010B5DFF8B404DFF8A044817C39B9C07C00F001006061FFF725FD002000E00120D0
:20CB40002073BDE81040C6E1DFF88C04C07C00F00101481E8041C043DFF86C14C00F98E049
:20CB600080B5FFF7E4FED0B1FFF732FDB8B1DFF874040321017000214170DFF84C148A69B9
:20CB8000D20182700022C270042008648868052804D3DFF8442404209060886000E001BD1F
:20CBA000BDE80140DFE680B5FFF7C1FEF8B1FFF70FFDE0B1DFF82C04002101700621417033
:20CBC00000218170DFF800148A69D201C2700022027142718271C27108200864886809283D
:20CBE00004D3DFF8F423082090608860D8E701BD10B5FFF79CFED0B1FFF7EAFCB8B1DFF801
:20CC0000C803DFF8E033416A4A1E140E1C70491E140CD970120A9A705C70C169D9710A0E50
:20CC20001A710A0C5A710A0A08219A7100E010BD0164BDE8104096E680B5FFF778FE38B331
:20CC4000FFF7C6FC20B3DFF89C1300200870487088700820C870DFF87003426ACA71130EC9
:20CC60000B71130C4B71130A02220A728B71C269CA72130C4B72130A8B720C2101648168CC
:20CC80000D2904D3DFF850230C219160816087E701BD08731FE138B5FFF749FE68B3DFF87B
:20CCA0004443C94D022020706070286403202874A868032803D3C84902208860A8600320B3
:20CCC000FFF7EAFA01462A6C92B22046FFF71AFA296C89B20320FFF7E7FABD48006800F0C2
:20CCE0003000102803D030210320FFF758FAA868296C401AA8600120287331BD38B5FFF7A9
:20CD000016FE38B3B74DB04C2020287000206870E8772020206403202074FFF7BDFA014676
:20CD2000226C92B22846FFF7EDF9216C89B20320FFF7BAFAA648006800F03000102803D0C1
:20CD400030210320FFF72BFAA068216C401AA0600120207331BD70B59B4C226C002A00F0FF
:20CD60009A809D4D9F492846FDF7D2F8206C1F2802BF28689E49884240F08D8068686060F9
:20CD8000A868A060687B18B9A87B08B1112801DB01207FE0E87B10B3032823D0122824D0EC
:20CDA0001A282BD01B2823D01E2824D023282BD025282CD0282833D02A2849D02F2850D002
:20CDC000352866D05A281CD0912862D09E2824D0A1281FD0A82823D0AA2839D0D8E7BDE8F3
:20CDE0007040EEE5BDE870401BE6BDE8704066E6BDE8704094E6BDE87040A5E6BDE87040B5
:20CE0000AEE6BDE87040CEE6BDE8704014E7BDE87040EDE6BDE870403DE7BDE870406DE7DB
:20CE2000FFF72EFD002852D0287B000605D502202074BDE87040FFF7EEBB10210320FFF710
:20CE4000C0F9604D286840F008002860022021E0FFF716FD00283AD0287B00060ED4012012
:20CE600034E0287C800714D5FFF70AFD78B3287B000603D401202074206370BD1021032029
:20CE8000FFF78DF94F4D286840F400202860022000E000201CE010210320FFF780F9494D97
:20CEA0004C4E286840F4002028601021306840F4002030600320FFF784F9286840F0080061
:20CEC0002860306840F0080030600620207470BD2073BDE8704010B53B4C3C482060032028
:20CEE000FFF7DAF901460D222046FFF70BF90D210320FFF7D9F93648006800F0300010283C
:20CF000003D030210320FFF74AF90520207410BD80B52D48017C022906D01DD304290DD0E9
:20CF200015D3052916D001BD2B48C07B282818BFA82811D1BDE80140FFF76DBB1021032058
:20CF4000FFF72DF91F48016841F400210160BDE80140C0E70021017401BD10B51A4C207C86
:20CF600020B1012805D0052821D012E0BDE81040F1E61948C07B2A2803D02F2805D0AA2847
:20CF800015D1BDE81040FFF7B8BBBDE81040FFF718BC10210320FFF714F90A48016841F04B
:20CFA0000801016002202073BDE8104093E710BD80B50C49032000F08BF903490864BDE898
:20CFC0000140CAE714410020C83E0020555342530C5C004018410020B44000203E410020B3
:20CFE000741C00200C3F0020081C00201C4100205553424310B50446600744BF0020FFF799
:20D00000D7FF200744BFBDE81040FFF781BF10BD92480FF2A421C1610FF2A021016270477A
:20D0200010B58F4CFCF76DF8012805D1607B422802D08C49002008702078562808D1F8F797
:20D04000FFF828B9607B422802D08649002008708448007800F0CAF983480068214600F0F9
:20D060003CFA8248824AB0F80B10B0F81300814B4843106080480160012018601068B0FBBA
:20D08000F1F07E4908607E497E48086001207E49086010BD2DE9F84F7B4D774F2D68804628
:20D0A0001646002000243A688946002D014602FB08F384464FF0010EDFF8D0B110D1BDE8FD
:20D0C000F18F2C19A34207D2291B59185BF83C00042928BF4FF0000E0CF101055FFA85FC4B
:20D0E0000BEBCC0ADAF804500DB10028E9D0002818BFBEF1000F05D0091872434846FCF7B6
:20D1000007FF04E002FB06F14846FFF7DFF900F0AAF9804507D1386800FB06F14846BDE8E0
:20D12000F44F00F0E9BDBDE8F18F2DE9F04F91B004460D4608A8002100220B460E464EC018
:20D140004EC0514800680028884600F08380434F3869B0B92846F9F76CFB012805D028460A
:20D16000F9F726FC01280CD10220611EF96038750121387D3C60BE603961F9F71BFC0600B8
:20D1800019D1204600F090F9012830D0386884424BD33969012902BFF968491C8C4244D1E3
:20D1A000DFF8D480D8F80020201A29465043F9F761FC060033D0002046E011F8013B3BB943
:20D1C00009F10409D9F8000078B19DF8002051460B789A42F1D1032202A900F025FE0028D6
:20D1E000EED1079808B10F98786008F1010822480068B8EB501FC9D2202205EB481108A8DD
:20D20000FCF786FE08A8B0E80C5E00A9A1E80C5E02680A6007F11C090FF2740AD2E7B86800
:20D22000D8F80010FC600818B860B8687968884210D3386901280DD1002038604FF0FF30FE
:20D2400078600020B860F8603861304600F09CF80120387611B0BDE8F08F0000F01B0020F4
:20D26000323C0008821C0020201A00202012002038410020E83E0020E43E0020EC3E002063
:20D28000F03E0020A0340020DC3E0020381A002030313233343536373839414243444546FE
:20D2A0004748494A4B4C4D4E4F505152535455565758595A0000000042494E0062696E0012
:20D2C00002490FF234000860704700001C41002038B50C460320FFF70AF805460320FEF775
:20D2E000DCFF01462A462046FEF738FF0320FEF78CFF284632BD00004D4245442020202072
:20D300006D6963726F636F6E74726F6C6C657220312E302000000000A2480FF2F861016239
:20D320000FF290220FF28C41816282630FF6E40101630164704700EB400202EBD27200EBF1
:20D34000D07C52104FEA6C0CB0EB4C00964B0BD0D05C21B900F00F00D054002011E040F061
:20D36000F000D054FF200CE029B9D054D018407800F0F00005E0FF20D054D018407840F010
:20D380000F00D1184870704770B50446874D0FF2446688B02022314605F1400000F05AFDCA
:20D3A00000280CBF40356035002C00A808BF314601D00FF200612022FCF7AAFD284600A938
:20D3C0002022FCF7A5FD7A4850F82460304600F073FDE861002C7348866408B0BDE87040EB
:20D3E0000CBF00214FF0FF310420A4E738B56F4C0FF2E05128B30FF2FC55202204F14000A5
:20D4000000F028FD68B904F1400029462022FCF77FFD6548017941F0F0010171FF214171F4
:20D4200031BD2022294604F1400000F013FD0028E9D0202204F1400104F16000FCF778FD02
:20D44000E1E7202204F1400000F004FD30B15548816C81630320A4F85A00DAE7BDE834405A
:20D460000021032067E710B5504C20220FF2845104F1400000F0EEFC98B9B4F80E02B4F8D9
:20D48000161294F8102202FB0100B4F81112B4F80B224901B1FBF2F1081894F80D1208183C
:20D4A00010BD4FF0FF3010BD4049B1F80E22B1F8163291F810C20CFB032290420BD3B1F831
:20D4C0001132B1F80B125B01B3FBF1F18918884201D201207047002070472DE9F0410746D6
:20D4E0000C46324D0FF2EC464FF003082022314605F1400000F0AEFC08B14FF0040820220F
:20D50000314605F1600000F0A5FC08B108F1010805F20B218E78B5F80B0206FB08F200FB19
:20D520000272B2FBF0F02830088180B290FBF6F000F2FF30411200EB9150801200EB400762
:20D54000A5F816720FF26C2000F0B6FCE8633F041448F909C1604161711E490241634164A5
:20D56000217856291BD1826961781170A21C617885F82B1205F50B730121856914784C555C
:20D58000491C12F8014B03F8014B856914784C55491C12F8014B03F8014B0B29EDDBBDE8CB
:20D5A000F0810000381A00202014002020100020E41A00203C212D2D206D62656420506C7B
:20D5C0006174666F726D205765627369746520616E642041757468656E7469636174696F0A
:20D5E0006E2053686F7274637574202D2D3E0D0A3C68746D6C3E0D0A3C686561643E0D0A09
:20D600003C6D65746120687474702D65717569763D22726566726573682220636F6E746547
:20D620006E743D22303B2075726C3D687474703A2F2F6D6265642E6F72672F6465766963EE
:20D64000652F3F636F64653D4041222F3E0D0A3C7469746C653E6D626564205765627369AA
:20D6600074652053686F72746375743C2F7469746C653E0D0A3C2F686561643E0D0A3C6283
:20D680006F64793E3C2F626F64793E0D0A3C2F68746D6C3E0D0A0D0A000000000000000006
:20D6A00000000000000000000000000000000000000000000000000000000000000000006A
:20D6C00000000000000000000000000000000000000000000000000000000000000000004A
:20D6E00000000000000000000000000000000000000000000000000000000000000000002A
:20D70000000000000000000000000000000000000000000000000000000000000000000009
:20D720000000000000000000000000000000000000000000000000000000000000000000E9
:20D740000000000000000000000000000000000000000000000000000000000000000000C9
:20D760000000000000000000000000000000000000000000000000000000000000000000A9
:20D78000000000000000000000000000000000000000000000000000000000000000000089
:20D7A000000000000000000000000000000000000000000056657273696F6E3A2030323295
:20D7C000310D0A4275696C643A2020204E6F7620313720323031362031333A33373A30360B
:20D7E0000D0A00000000000000000000000000000000000000000000000000000000000012
:20D80000000000000000000000000000000000000000000000000000000000000000000008
:20D820000000000000000000000000000000000000000000000000000000000000000000E8
:20D840000000000000000000000000000000000000000000000000000000000000000000C8
:20D860000000000000000000000000000000000000000000000000000000000000000000A8
:20D88000000000000000000000000000000000000000000000000000000000000000000088
:20D8A000000000000000000000000000000000000000000000000000000000000000000068
:20D8C000000000000000000000000000000000000000000000000000000000000000000048
:20D8E000000000000000000000000000000000000000000000000000000000000000000028
:20D90000000000000000000000000000000000000000000000000000000000000000000007
:20D920000000000000000000000000000000000000000000000000000000000000000000E7
:20D940000000000000000000000000000000000000000000000000000000000000000000C7
:20D960000000000000000000000000000000000000000000000000000000000000000000A7
:20D98000000000000000000000000000000000000000000000000000000000000000000087
:20D9A00000000000000000000000000000000000000000004641494C2020202054585401CA
:20D9C00000000000210032BB0000DC83BB34040000020000000000000000000000000000E5
:20D9E00000000000000000000000000000000000000000004D4245442020202048544D01A5
:20DA000000000000210032BB0000DC83BB34030000020000000000000000000000000000A5
:20DA20000000000000000000000000000000000000000000000000000000000000000000E6
:20DA40000000000000000000000000000000000000000000000000000000000000000000C6
:20DA60000000000000000000000000000000000000000000000000000000000000000000A6
:20DA8000000000000000000000000000000000000000000000000000000000000000000086
:20DAA000000000000000000000000000000000000000000000000000000000000000000066
:20DAC000000000000000000000000000000000000000000000000000000000000000000046
:20DAE000000000000000000000000000000000000000000000000000000000000000000026
:20DB0000000000000000000000000000000000000000000000000000000000000000000005
:20DB20000000000000000000000000000000000000000000000000000000000000000000E5
:20DB40000000000000000000000000000000000000000000000000000000000000000000C5
:20DB60000000000000000000000000000000000000000000000000000000000000000000A5
:20DB8000000000000000000000000000000000000000000000000000000000000000000085
:20DBA000000000000000000000000000000000000000000000000000000000000000000065
:20DBC000000000000000000000000000000000000000000000000000000000000000000045
:20DBE000000000000000000000000000000000000000000000000000000000000000000025
:20DC000000000000000000000000000000000000000000000000000076490FF2F01048629A
:20DC2000704770B400230024B9B10578A5F130060A2E38BF302409D3A5F14106062E38BFA8
:20DC4000372403D3613D062D38BF572410F8015B02FB03531B1B491EE7D170BC1846704703
:20DC6000F0B46448856A242101704170817018231821C1700424604909680A7802714A786F
:20DC800042718A788271C978C171416A0A7802724A7842728A78827200F10C02C978C172E9
:20DCA0000FF2701125FA03F6F6B2370906F00F067F5C02F8017B083B765C02F8016B641E89
:20DCC000F0D1C56A00F114021823042425FA03F6F6B2370906F00F067F5C02F8017B083B4B
:20DCE000765C02F8016B641EF0D100210177F0BC70474048704700002DE9F8433D4F3D1D37
:20DD00000446287F00260028884646D107F12800F8F7CEF83848006810220421FFF781FF55
:20DD20008146286A10220421FFF77BFF696A49EA00404840A862102208210FF2C400FFF7D5
:20DD400070FFA96A4840A862FFF78AFF284600F0B3F8C0B24100294A8B1C137003235370EE
:20DD6000002301E05B1CDBB28B4210DA03EBD37C4FEA6C0E03EB020CB3EB4E0903BFBE443F
:20DD80009EF804E08CF802E08CF80260EAE74000801CC0B2865401202877002014497944CA
:20DDA0004E3101E03255761C40B13A6B127803E03D6301203A79491C4AB9002011F8012BB6
:20DDC000402A09D10B78412BF2D00028EAD03A6B521C3A63521E1278002AE3D12022A8EB0F
:20DDE00006013019FDF772F80120BDE8F28300BFC4F7FFFFF83F0020581C00202C4000204B
:20DE00003364363539313364000000003032323100000000303132333435363738394142AA
:20DE2000434445460000000001E0491C521E72B10B7890F800C09C4505D002D24FF0FF3034
:20DE400070470120704710F8013B002BEDD10020704700000300002013F0030F09D0521EAE
:20DE600022BF13F8010B11F801CBB0EB0C00F3D07047121F22BF53F8040B51F804CB60458B
:20DE8000F7D0121D0AD200BA9CFA8CFCB0EB0C0038BF6FF0000088BF01207047521E22BF6B
:20DEA00013F8010B11F801CBB0EB0C00F6D0521C08BF10467047000000F10103810704D076
:20DEC00010F8011B89B18107FAD10268B2F10131914311F0803F04BF50F8042FF6E710F89B
:20DEE000011B11B110F8011BFBE7C01A7047000010B5DFF8BC4700B92EE0DFF8B807006849
:20DF00000068804720680A3010BD80B5DFF8A007DFF8A42700685278C1788A420DD38278DD
:20DF2000002A04BF8288002A07D18172DFF88407006840688047002002BD022002BD10B537
:20DF4000DFF86C4700B907E0DFF8680700688068804720680C3010BD216801200882002055
:20DF600010BD10B5DFF84847DFF8502720681268C17840799269904721688A7A9AB1002895
:20DF800004BF087900280ED1887860B9DFF824070068C068804720684179C1722068C1788E
:20DFA0000173002010BD022010BD10B5DFF80017096818B902200882002010BDDFF8004765
:20DFC000002020807F220878104215D1487A0021820648BF41F0020121704006217854BFFF
:20DFE00001F0FE0041F001002070DFF8C806006800698047204610BD00F07F02012AF9D09B
:20E0000000F07F000228D7D14879DFF8B82600F00F01000652F8210007D500F030001028A4
:20E02000E3D1002040F00100DEE700F44050B0F5805FDAD1002040F00100D5E7F8B5DFF8D2
:20E0400070060068017811F07F0104D1417A01F0DF01417258E0022901BF41880029017945
:20E06000002953D14179DFF85C4621F080050A0654F82520DFF840361B784CBF02F03002DA
:20E0800002F440529D4241D2002A1CBF807A00283CD008060DD52846FEF7E4F854F8250033
:20E0A00000F0300010282AD130212846FEF777F825E015B12846FEF7C3F854F8250000F49C
:20E0C0004050B0F5805F1AD148F280064BF68F776DB9DFF8F40590F82C100020FEF7EBF888
:20E0E0002068384080F440503043206007E054F82500384080F44050304344F82500DFF8AA
:20E10000B4050068406980470020F2BD0220F2BD38B5DFF89C05DFF8AC150268DFF89855A3
:20E12000537923F080001C0651F820402D784CBF04F0300404F44054A84206D2558825B9D4
:20E14000002C1CBF927A002A01D1022032BD1B0651F8203048F2800205D548F6BF7423407B
:20E1600083F0100304E04BF68F74234083F480531A4341F82020DFF83C050068806980473E
:20E18000002032BDDFF828251268538A20B98888C01A1082002070470868181870472DE95C
:20E1A000F041DFF80C45206800F110063188002904BF007A042819D1DFF81015DFF810055A
:20E1C0000A78012A0ED1DFF80C35DFF80C551B6800229BB245F813200425302202800020E4
:20E1E00008702CE010210725018028E0B7888F4205D30425B94288BF39460F4600E0022587
:20E20000B1683846884780460020FEF745F801463A464046FDF776FF39460020FEF744F8FA
:20E220003088DFF8AC14C01B3080708838187080302008804FF44050DFF8A0140880206886
:20E240000572BDE8F08138B5DFF864442068457801787F2211423FD1092D02D1FFF755FEB1
:20E260004EE0052D1BD1C178802957DA8178002901BF81880029807A00284FD1DFF854249A
:20E28000DFF854341268002192B243F812100620DFF83C24302111802168087231BD032D83
:20E2A0000FD1C178012904BF818800292AD1417A41F020014172DFF8FC030068C06980473D
:20E2C000DCE7012D04BFC17801291BD18188C9B9407A80060DD415E001F07F00012804D12C
:20E2E0000B2D0FD1FFF73DFE0AE002280AD1012D02D1FFF7A3FE03E0032D03D1FFF708FF6A
:20E300000028BBD0DFF8B4130968496928468847032808BF0920BFD00028AFD00820BBE731
:20E320000000000010B5DFF8884320684178062919D101787F22114234D18078012804D1B4
:20E34000DFF878030068C1697DE0022804D1DFF86C030068016A76E0032823D1DFF85C03B9
:20E360000068416A6FE0002946D14188002904BFC188022916D10179A1B901787F221142AA
:20E3800004BF8288002A32D001F07F02012A14D1CA4A4079126892690021904710B9206877
:20E3A000807A20BBC54920680968407809698847032851D1216809205CE001F07F010229B1
:20E3C000F0D14079BF4B00F00F0100F07002000653F82100B84B1B784CBF00F0300000F430
:20E3E00040509942DED2002ADCD10028DAD03749794401F1D80126E0082907D100787F212A
:20E400000842CFD132497944C6311CE00A2902BF017801F07F010129C4D1817A0029C1D095
:20E420004188002901BF01790029C1880129B9D1A24A407912689269002190470028B1D1CE
:20E44000244979448E310800ACD0206800224282816100208847002021680A8A13464FF635
:20E46000FF74A34208BF092004D0022818BF002A02D10820087210BD087800061ED5C8884A
:20E48000904238BF088211D382420FD28B48006890F82C00824238BF002005D393FBF0F28E
:20E4A00000FB123010B90120884A10708348006890F82C008882BDE8104070E6032008720A
:20E4C0004FF440508549088010BD00BFDFFAFFFF21FAFFFF6BFAFFFF38B57E488049006850
:20E4E000734C80B231F8100021680A7A400000F18040092A00F5C04014D010F8012B0A703A
:20E5000010F8011B22685170851C35F8040BFDF71BFF216848802888FDF716FF2168888006
:20E52000A888C8800120216808722068C08810B9FFF789FE01E0FFF7F5FEBDE8314081E0E8
:20E5400010B55B4C2068017A022918BF042904D1FFF725FE2068007A14E0062911D141786F
:20E56000052902BF01787F22114206D1C07800F083F850480068006A8047504800688068AC
:20E580008047082021680872BDE810405AE0F8B5474C2068017A022918BF04294DD003299F
:20E5A00018BF052943D100F11005A9682E88080018BF002E14D0A888864288BF0646304683
:20E5C000884707462888801B28806888301868800020FDF762FE014632463846FDF7BEFDAC
:20E5E000288850B13D494FF44050088000210020FDF75AFE3649302008802888AA8821683A
:20E60000904228BF032001D210B1052008720BE00620087200202F492F4A096889B242F869
:20E62000110030202A4908802068007A06E0072903D122480068C0688047082021680872A6
:20E64000BDE8F14080B5204890F82C100020FDF732FE17480068017A082906D11F4A4FF449
:20E660008051118010211A4A1180007A092801D1012002BD002002BDF0B40F49114B0978FD
:20E68000002281B11C4648F2800548F68F76276837405FFA82FC4CEA07072F43521C8A42F5
:20E6A00044F8047BF3D340F08000D864F0BC7047A8400020B0400020781C0020AC400020B2
:20E6C00028410020005C0040901A0020414100202E410020505C0040046000402C410020FD
:20E6E00008600040704700000000000054686520696E74657266616365206669726D776123
:20E700007265204641494C454420746F2072657365742F68616C7420746865207461726710
:20E720006574204D43550D0A0000000054686520696E74657266616365206669726D77614C
:20E740007265204641494C454420746F20646F776E6C6F61642074686520666C61736820F3
:20E7600070726F6772616D6D696E6720616C676F726974686D7320746F2074686520746143
:20E7800072676574204D43550D0A000054686520696E74657266616365206669726D776113
:20E7A0007265204641494C454420746F20646F776E6C6F61642074686520666C6173682093
:20E7C0006461746120636F6E74656E747320746F2062652070726F6772616D6D65640D0AC2
:20E7E0000000000054686520696E74657266616365206669726D77617265204641494C4529
:20E800004420746F20696E697469616C697A652074686520746172676574204D43550D0A3B
:20E820000000000054686520696E74657266616365206669726D776172652041424F5254D1
:20E8400045442070726F6772616D6D696E672E20496D61676520697320747279696E672062
:20E86000746F2073657420736563757269747920626974730D0A000054686520696E7465D7
:20E880007266616365206669726D77617265204641494C454420746F20756E6C6F636B2066
:20E8A0007468652074617267657420666F722070726F6772616D6D696E670D0A000000002F
:20E8C000466C61736820616C676F726974686D20657261736520736563746F7220636F6D24
:20E8E0006D616E64204641494C5552450D0A0000466C61736820616C676F726974686D2044
:20E90000657261736520616C6C20636F6D6D616E64204641494C5552450D0A00466C6173CA
:20E920006820616C676F726974686D20777269746520636F6D6D616E64204641494C55525B
:20E94000450D0A0088050020390400209249096809688861704790480068016818310120E1
:20E960000A6802400BD10868C00501D50220704708688A49014001D0032070470420704719
:20E9800010B50400FFF7E7FF04E0002C06D0FFF7E2FF641E0128F8D0002C00D1052010BDB3
:20E9A0007D48006801684A68D20704D57C4ACA607C490068C160704710B5774C20680068F0
:20E9C0004068800708D5FFF7EBFF206876490268116176490068016110BD70B50400B025D4
:20E9E0002D032800FFF7CCFF042821D16A4806683068001D0168802292000A430260306827
:20EA0000001D016808220A430260002020602800FFF7B6FF05280BD03168091D0A680823C0
:20EA20009A430A603168091D0A68614B13400B6070BDF8B507000C00B0252D032800FFF7E4
:20EA40009FFF042814D1544806683068001D0168802252000A4302603C602800FFF790FFF3
:20EA6000052805D03168091D0A68524B13400B60F2BDF5B581B00C000025B0273F033800FC
:20EA8000FFF77EFF04282AD1434806683068001D01688022D2000A4302603068001D016884
:20EAA00008220A43026005E020680199AA008850241D6D1C0298C0088542F5D33800FFF70B
:20EAC0005FFF05280BD03168091D0A6808239A430A603168091D0A68374B13400B60FEBD01
:20EAE00070B50400B0252D032800FFF749FF042822D1294806683068001D01688022920032
:20EB00000A4302603068001D016810220A4302600020002103C42800FFF732FF05280BD0E8
:20EB20003168091D0A68224B13400B603168091D0A6810239A430A6070BDF8B507001400D9
:20EB40001D00B0200003FFF71BFF042822D1124806683068001D01688022D2000A4302608D
:20EB60003068001D016810220A4302603C607D60B0200003FFF704FF05280BD03168091D8A
:20EB80000A680D4B13400B603168091D0A6810239A430A60F2BD000000050020F0FE000080
:20EBA000EFCDAB8905040302BFAE9D8C16151413FFFDFFFFFFFEFFFFFFFBFFFFF8B5404C49
:20EBC00025001C3526001C363E480460FFF7F4FE3D4F3800FFF7BAFE60693C49884249D3CF
:20EBE000FFF7DEFEA068610D884221D10AE0FFF777FF694608706846007804285CD1E068CD
:20EC00000830E060E06821698842F0D33800FFF79DFE0DE00CCE083EFFF78FFF694608709C
:20EC200068460078042844D160690830606108366069A169884242D2A168620D9142E9D0B8
:20EC40002968FFF7F6FE694608706846007804282FD16069001D60612D1DE9E7FFF7BDFE4E
:20EC60006946087068460078042825D1E068A1684018E060E06821698842EFD33800FFF7B0
:20EC800065FE08E06069A168490840186061A068C00880002D186069A16988420FD2A268D0
:20ECA0002900FFF7E6FE69460870684600780428E8D03800FFF74AFE00BF0020F2BDFEE737
:20ECC000E405002000050020020F00000000080830B4012100220368001D002B0BD00468C3
:20ECE000001D0C4202D04D466D1E64192260241D1B1FF0D0FAE730BC7047000010B50749E6
:20ED000079441831064C7C44163404E0081D0A68891888470100A142F8D110BD0800000024
:20ED200014000000ADFFFFFF04000000000500200000000000F00BF8002801D0FFF7DEFF2D
:20ED40000020C046C046FFF739FF00F002F80120704780B500F002F801BD000007463846EF
:20ED600000F002F8FBE7000080B5C046C046024A11001820ABBEFBE726000200014880476E
:20ED8000014800475504002049040020C046C046C046C046FFF7CEFF7047CDCDCDCDCDCD9D
:20EDA000CDCDCDCDDFF870040FF2BD0101600FF25D020FF28511416042630FF2D92181609B
:20EDC0000FF2A1020FF2E121C16042640FF2493101610FF2B13141610FF2014181610FF23D
:20EDE0000D41C1610FF2194101620FF21D41416205497944123101638163C16301648164DF
:20EE0000C1640165704700BFDDF8FFFF10B5DFF80C040068807A18B30120FDF723FADFF83C
:20EE200000446078FDF70CFA0320FDF71BFA0320FDF706FA0520FDF715FA0520FDF700FA3E
:20EE4000FCF70EF804202070FAF719FFF7F71EFE10B90120FEF798FABDE81040FEF7E0B8FF
:20EE600010BD000070470000F8B54FF40644DFF8B453DFF8B463DFF8A473FAF72DF90128DA
:20EE800047D1FAF73FFF012140F60C20FCF752FBFAF7CCFEFAF75BFEFAF76AFE3968072041
:20EEA000087201203968887230683968C07948722C800220DA4C607030210320A070002088
:20EEC000FDF7E3F9D44D95F82C100020FDF7F3F970210020FDF7D8F9B0210120FDF7D4F94F
:20EEE0006078F021FDF7D1F995F82C106078FDF7E2F9A0784FF49871FDF7C6F90020FBF7D2
:20EF00009EFF04202070002200210320FBF7E2FD0DE039680020887200F098F90021C34814
:20EF200041602C80046030683968C0794872BDE8F14000F02CBB000038B5BD49002088723A
:20EF4000FDF71CF94FF400710020FDF71EF920210020FDF724F930210020FDF796F9AE4C69
:20EF600094F82C100020FDF7A6F970210020FDF78BF90020FDF755F90020FDF746F9002117
:20EF80000120FDF702F9B0210120FDF77DF920210120FDF704F9A24D6878F021FDF775F970
:20EFA00094F82C106878FDF786F968784FF44051FDF707F9A8780021FDF7E7F8A8784FF417
:20EFC0009871FDF761F9A8782021FDF7E8F8A8780021FDF7F6F84FF4C0610420FDF7D5F839
:20EFE0004FF4B4710420FDF74FF900210420FDF7E8F820210420FDF7D2F800210520FDF7D3
:20F00000C4F84FF4B0710520FDF73FF908210520FDF751F94FF440510520FDF7D2F84FF4F9
:20F02000A8710520FDF730F920210520FDF7B7F800210320FDF7A9F84FF4B5710320FDF713
:20F0400023F920210320FDF7AAF800210320FDF79CF84FF4D5710320FDF717F994F82C1056
:20F060000320FDF728F94FF440510320FDF7A9F8FDF7A3FA94F82C100020FDF71CF900202A
:20F08000FDF7C3F80020FFF7F7FABDE83140FBF7E7BE000010B5674C2078202803D100F0F1
:20F0A00084FA0020207010BD704700B904E001E000B901E060487047584909680820088263
:20F0C0000020704738B55D4C38B1F9F73FFF20600020BDE83240F8F72DB8F9F737FF0546B0
:20F0E0000120F8F727F820682946FAF7A1F8B0F5967F0AD3FEF7FDFD0446FEF7DDFEC1B24D
:20F100002046BDE8344000F0C5BA31BD43490968012008824A48704780B5404909680A7871
:20F1200002F07F02212A1FD14A79022A0DD1212803D1114A7A44403214E0202805D13D4B12
:20F140000E4A7A44363218700CE0FE2804BF4888002809D1012A04BFC888012804D1084A74
:20F160007A441C32100001D1022002BD8A61002048829047002002BD33FFFFFF35FFFFFFD3
:20F180008DFFFFFF80B5254909680A7802F07F02212A20D14A79022A09D1022818BF22288C
:20F1A00017D0232803D14888FFF78CFF11E0FF2804BF488800280ED1012A04BFC8880028E0
:20F1C00009D1FDF7FAF90320FDF74CF80320FDF737F8002002BD022002BD000009B904281F
:20F1E00001DB022070470020704700000C490A78042A1CBF02220A701249FEF7C3BF000033
:20F200000949FEF7BFBF0000044A0F491268D27801EBC201FEF7B6BF901A0020A8400020D4
:20F220007C1C00203C410020641C0020405C00408C400020434100206C1C00203441002030
:20F24000444100205C1C0020241B002080B50120FAF7B2FD0C480D4A01210160002101606C
:20F2600041604FF4E05111800160002002BD10B5054C0120206000206060FAF79DFD032063
:20F280002060002010BD0000405C00403C410020DFF8380481B00168890234D5416841F469
:20F2A00040114160DFF828144A69534201EB4303DB88B3F5807F24D1C2F1010201EB420CE0
:20F2C0004A610023ACF8043001EB0221C36E5B085B00C36620314FF4807303678167C16E59
:20F2E00041F00101C166DFF8EC030188090744BF8188ADF80010818941F40051818101B051
:20F3000070470120087001B0704710B5DFF8C043608908B1002010BDA06960B1E16939B1B9
:20F3200061810021E161618911B100F089F92CE00020A06129E02069616988420ED1DFF861
:20F340009803FCF7ECFB21696269914206D104EB4101C0F580708988401A05E0206904EB9B
:20F3600040008088C0F5807060816089B0F5807FC4BF00206081206904EB002104EB4000E6
:20F3800080884018203000F05BF9608910BD10B5CF4C0120607082B0A06960B1E16951B952
:20F3A00021896289521A081800216281A061218100F046F946E02069218904EB400204EBDD
:20F3C00000209388CB1893809BB262898A422CBF511A00216181181800212181203000F06C
:20F3E0002FF9206904EB40018988FF292ADD2178012924D10021217000226169C1F10101E2
:20F4000004EB410361619A8004EB0121B24A13685B085B00136020314FF480735360D160B9
:20F42000116841F001011160AA490A88120744BF8A88ADF800208A8942F400528A81C0F1E0
:20F44000010020610020607013BDF0B505468FB001210420FCF76EF801214FF40030FCF714
:20F4600072F818208DF803000420ADF8000001208DF8020000A9994C2046FBF777FA042076
:20F480008DF8030000A90820ADF800002046FBF76DFA904C29462046FCF7A0FF8C4D4FF450
:20F4A000007105F12000FCF72DFC0020286168612881A8806881A881287068704FF48076AB
:20F4C000EE8001210120FCF72CF8834F3846FCF7BDFA83494FF480100860069603A9814852
:20F4E0000390686905EB00202030049000200590079080200890002009900A900B904FF4FF
:20F5000000500C9000200D903846FCF7DCFA012202213846FCF7FBFA002208213846FCF793
:20F52000F6FA002204213846FCF7F1FA10208DF8040000208DF8050001208DF806008DF8A4
:20F54000070001A8FCF7C7F9012240212046FCF7A3FF38684008400038607E60686905EB6A
:20F5600000202030F860386840F0010038602088000744BFA088ADF80800A08940F4005026
:20F58000A08101212046FCF77DFF0FB0F0BD56484FF416510160002141604FF4C061018196
:20F5A000002181810C2141814FE780B54F49087918B1022806D002D32BE0002204E04FF4C3
:20F5C000405201E04FF400524748C2804A793AB1022A03D01DD24FF4C06201E04FF480624B
:20F5E00002818A79072A02D0082A0CD011E00022096801608280002181810C214181FFF785
:20F6000024FF012002BD0289002AF1D04FF48052EEE7FFF7BCFF002002BD70B50D0004467B
:20F620000DD02C4E21783046FCF744FF80213046FCF744FF0028F9D0641C6D1EF2D170BDF5
:20F6400010B523494C89B4B1112CA8BF10240C81CC8126498979072906D17F2322464FF4C8
:20F66000A871FCF763FD04E022464FF4A871FCF749FD214605E0C88910280AD10020C88124
:20F6800000210520FCF710FEBDE810400520FCF7B0BD10BD0E4A93690BB99061D1617047EA
:20F6A0000B484078002808BFFFF72FBE704710B5074CA18949B1C9B204F50870FFF7ADFFEC
:20F6C0000520FCF7A2FD0020A08110BD00000240A03C0020004400406C00024000080140AC
:20F6E0000400024004440040F84000206C1C00203C480FF2041101600FF2001181600FF24D
:20F70000241101610FF2381101620FF2501181620FF2741101630FF2941181637047F0B491
:20F72000314900BB08684A688968002856D02F4B9870040A1C719974040C000E18729C7154
:20F74000100A18739A72100C9873100E1874080A1875080C9875080E18761A202149187097
:20F760008883F0BC70470020214A00234FF070440F68850024FA03F6C5F11C0506EA070C8D
:20F780002CFA05F70A2F38BF303703D3102F34BF3737462717704F6806EA070C2CFA05F76A
:20F7A0000A2F38BF303703D3102F34BF3737462717748F68374027FA05F60A2E38BF06F194
:20F7C000300504D3102E34BF06F13705462582F82050401C1B1D921C0828C9DBF0BC7047EB
:20F7E00000000000241B0020E8F7FF1F641B0020661B0020012092E7040309042603530043
:20F8000054004D006900630072006F0065006C0065006300740072006F006E006900630072
:20F82000730000001A03530054004D00330032002000530054004C0069006E006B0000008A
:20F840001C03530054002D004C0069006E006B002000440065006200750067002A035300A0
:20F8600054002D004C0069006E006B0020006D006100730073002000730074006F007200BD
:20F8800061006700650000002203530054002D004C0069006E006B002000560043005000AB
:20F8A00020004300740072006C0000002203530054002D004C0069006E006B002000560096
:20F8C000430050002000440061007400610000002DE9F84F0020ADF8000048F280046C4D62
:20F8E000DFF8B0816C4EDFF8B491DFF8B4A140F68F7B4BF6BF770CE056F820100BEA0101E6
:20F9000041F0800146F8201008EB800050F8040C8047706CAAF80000000477D5BAF80000B5
:20F9200010F00F0089F8000054D130682880288800F030006880288800F4405028803068A6
:20F94000384080F4005080F0200020433060BAF80000C006306808D448F60F71084040F4C2
:20F9600000403060FEF7ECFD1AE0ADF80000BDF80000000508D530680BEA000040F0800066
:20F980003060FEF7A9FD0BE0BDF800000004C0D530680BEA000040F080003060FEF7F7FD4D
:20F9A000306829883840C904298848BF80F480508904698848BF80F40050C906698848BFAD
:20F9C00080F01000890648BF80F0200020433060BDE8F18F56F82010ADF80010BDF8001071
:20F9E000090489D4BDF80010090692D556F8201048F60F72114041F4004146F8201029497E
:20FA000001EB800050F8040C804782E7BDE8F18F2DE9F84F48F60F74DFF87880DFF878A0F1
:20FA20001E4D1F4FDFF880B040F68F7647F6FF790BE05AF82010314041F080014AF82010F4
:20FA400008EB800050F8040C8047DBF80000388000041AD5CBF80090388800F00F002870EC
:20FA60005AF8201089B20A04E3D40906EDD55AF82010214041F400414AF82010094901EB2A
:20FA8000800050F8040C8047DFE7BDE8F18F00002C410020A83F0020005C00404241002009
:20FAA000324100208C3F0020445C00402DE9F84F0025F9F74BFA009000224FF4FA610420BD
:20FAC000FBF708F8F9F708FB20B9FFF7D0FB0A20F9F7B0FB0120FAF7F4F8FAF704F90446AC
:20FAE000012C06DB0020FAF7ECF810B93F480068047201203E4908703E490D70F9F750FA77
:20FB0000FFF778FE00F07CF840F2D17A3A4E3B4C3778DFF8D49040F2E93B022F18BF012F11
:20FB20005CD100224FF4FA710420FAF7D3FF0FE0042D0DD0042F0BD1FAF7F2FDFAF79FF86D
:20FB4000002200210120FAF7C5FF0120F7F7F2FA012F02D9381F10D03BE0F9F7F7F901460D
:20FB60000098F9F765FB504533D33078022818BF04282ED0032030702BE099F800000128A7
:20FB800006D1002089F80000FBF7D7F8FAF77EFEFFF78DFD2078012808D16420F9F74AFBEC
:20FBA00002202070F9F7D2F9804612E003280AD1F9F7CCF901464046F9F73AFB584508D3FB
:20FBC0000420207005E0052803D100202070F6F766FC3D003778A0D0032DABD0032FA7D1DB
:20FBE000FAF74DF8B1E70000E5400020641C0020221600208C1C00207C1C0020081C002036
:20FC00000448054AC06102210172426203490162086800478C400020C01A0020901A0020D8
:20FC200036481649794454310160154A7A445032144979444E314160C261134979444831B6
:20FC40008160124A7A444432114979444231C1600262104979443C310F4A7A443A320161BC
:20FC600042620E49794434310D4A7A443232416181618162C262016341637047990000000B
:20FC80009B0000009D0000009F00000099000000A3000000D30000009500000049EAFFFFB8
:20FCA000A700000070B5164D164C2868164E6080608831880840400505D54FF6FF302860DB
:20FCC000124840688047608831880840800507D54FF6FF5028602078401C207000F045F844
:20FCE000608831880840000406D5FFF7F1FD0848017809B90121017070BD00008C3F002022
:20FD0000445C0040304100203C410020901A00207C1C00200020FAF7D5BF0020FAF7E2BFFC
:20FD2000FBF7D8BA70470820FDF764B90420FDF761B980B500210420FCF7B6FABDE8024019
:20FD40000420FCF756BA10B50B4C0520FCF7CFFA20800520FCF7A1FA2288BDE81040014646
:20FD60000648FCF7FBB9FFF712BB05480078042808BFFFF795BC7047AC3C0020C03E0020EF
:20FD80007C1C00207047704770477047704770477047704770477047704770477047202020
:20FDA000FBF7C0BE4FF40070FBF7BCBE25494FF4005008607047FBF700BAFFF769BA704718
:20FDC000FFF726BEFFF76EBF7047704780B51E4801884FF6FE72114001801C480078012808
:20FDE0000ED1FAF74AFE012803D100220021022002E0002200210320BDE80840FAF76ABE3B
:20FE000001BD704780B5104801884FF6FB72114001801B20FBF7A3FD0C48007880B90C48AD
:20FE20000168491C0160C9070A48026822F0F002009200994CBF41F0400141F0B001016018
:20FE400001BD000004000240102C0140441C002020410020040801407047704770477047F7
:20FE600070477047704770477047704770477047704770477047816807E002681168536837
:20FE800089185B18C36008320260C2689142F4D04A1C8260087870472DE9FF4D00F10801F3
:20FEA000009100270268520801EBC2010191B8460021029103910168490800EBC101406830
:20FEC00000F0010501F10804400804EBC00631E000A8FFF7D0FF4FFA80FA0AE00098016805
:20FEE000081800990290496808180390009808300090029803998842F0D0401C029010F83D
:20FF000001BD47450CD1B44208BF00F01DF8276805B14F44606800EB070808344745F2D0D4
:20FF2000BAF1000F07F801BB0AD51AF1010AE8D14745CDD1B442CBD1304604B0BDE8F08D96
:20FF4000BAF1010AD5D5F3E7012000F001B8000080B5C046C046024A11001820ABBEFBE77C
:20FF60002600020010B5074979441831064C7C44163404E00A68081D511888470146A14205
:20FF8000F8D110BD0800000034000000BF92FFFFC4240000841C002000000000FDFEFFFF9F
:20FFA0000200000002000000E40000006A04000000000020831C00000500000010B5044618
:20FFC000044979440E31044878440C3000F006F8204610BD400000001C00000038B50446E0
:20FFE0000D46AC4205D0206820188047241DAC42F9D131BDCDD2FFFFF540FFFFF5F6FFFFC4
:020000040801F1
:2000000021FCFFFFA1EDFFFF09D0FFFF0DDCFFFF09D3FFFF00F00BF8002801D0FFF7A2FF1E
:200020000020C046C046FFF741FD00F002F80120704700F001B8000007463846FFF788FFAD
:20004000FBE700000148804701480047019B000855000108C046C046C046C046FFF7DAFF35
:20006000FFF7FEBFFFF7FEBFFFF7FEBFFFF7FEBFFFF7FEBFFFF7FEBFFFF7FEBFFFF7FEBFE8
:20008000FFF7FEBFFFF7FEBFFFF7FEBFFB0002080008FC000020F10001127A81008100811D
:2000A000008100810081008100810081008100810081008100810081008100810081008130
:2000C000008100810081008100810081008100810081008100810081008100DE00054E550D
:2000E000434C454FFB200028F60003418EBB32FA000B44455441494C532054585401FC00BD
:200100000D210032BB0000DC83BB3002000002810081008100BB001AEB3C904D5344305300
:20012000342E310002080100022000501FF80100010001F5000829741902274D424544FCA5
:200140002007444E444641543132FD20810081008100BB0000F8FBFF810081008100830011
:200160000001ED0000FFFD0000FFFD0000FFFD0000FFFD0001F0FFFB000023FD000023FD76
:20018000000023FD0000238100DB0000308100FC007E637C777BF26B6FC53001672BFED79B
:2001A000AB76CA82C97DFA5947F0ADD4A2AF9CA472C0B7FD9326363FF7CC34A5E5F171D821
:2001C000311504C723C31896059A071280E2EB27B27509832C1A1B6E5AA0523BD6B329E3B0
:2001E0002F8453D100ED20FCB15B6ACBBE394A4C58CFD0EFAAFB434D338545F9027F503C33
:200200009FA851A3408F929D38F5BCB6DA2110FFF37ED2CD0C13EC5F974417C4A77E3D6406
:200220005D197360814FDC222A908846EEB814DE5E0BDBE0323A0A4906245CC2D3AC6291EA
:2002400095E479E7C8376D8DD54EA96C56F4EA657AAE08BA78252E1CA6B4C6E8DD741F4B67
:20026000BD8B8A703EB5664803F60E613557B986C11D9EE1F8981169D98E949B1E87E9CE0F
:200280005528DF8CA1890DBFE6426841992D0FB05402BB16FFF5000020A500080419002005
:2002A000801C002003FD001308300140FC180020C00CC01805F80DF80F800F70D400000832
:2002C000FD0002018004FC0001C020FC0010C000000902800004010080320904000003FDA2
:2002E000FF2E04070581024000000705010240000007058202200000090401000208065091
:20030000050705830240000007050302400000080BFC023901060904020001020201060545
:20032000240010010524010003042402060524060203070584030200FF09040300020A0047
:200340000007070505020800000705850210FA000F480200209E020020A0020020000500DE
:2003600020FC001330040000F40200204A0300204C03002000050020FC0013E00400003CD4
:20038000050020440600203E060020E8110020FC0001A007E200251C200240CC1900202003
:2003A0001200200002000020140020000200002014002000020000201000200002F9000012
:2003C00002F9000002F9000002F9000002F90008020000E41A00200002CA000040B1000F3D
:2003E000780200207A0300207403002088050020FC00016004FA000004F9000026F900000B
:200400001AFD0004641B002032F900001CF900002AF9000022F9000022FD003032033000F0
:200420003000300030003000300030003000300030003000300030003000300030003000BC
:2004400030003000300030003000300031FB00F6FF010000F6FF010000F6FF010000F6FF79
:20046000FD000001FD000002FD000004FD000008FD000010FD000020FD000040FD00008095
:20048000FD00001BFD000036FC00FCFFE0001712010002EF02014083044B370001010203CC
:2004A000010000A58D95BDFC000001FD000787AFB79F00010008FD0002080007FA00148184
:2004C000A9B199A38B93BB30373939541C0020181C002012FD00044819002080FD0001805E
:2004E00025FD0008010800400040000601FD000501020107F801CDCDCDCDCDCDCDCDCDCD3A
:20050000FFFFFFFFFFFFFFFFFFFFFFFFFFFFFFFFFFFFFFFFFFFFFFFFFFFFFFFFFFFFFFFFFB
:20052000FFFFFFFFFFFFFFFFFFFFFFFFFFFFFFFFFFFFFFFFFFFFFFFFFFFFFFFFFFFFFFFFDB
:20054000FFFFFFFFFFFFFFFFFFFFFFFFFFFFFFFFFFFFFFFFFFFFFFFFFFFFFFFFFFFFFFFFBB
:20056000FFFFFFFFFFFFFFFFFFFFFFFFFFFFFFFFFFFFFFFFFFFFFFFFFFFFFFFFFFFFFFFF9B
:20F80000152197936F1A6051AD04ADF553AD0A68FFFFFFFFFFFFFFFFFFFFFFFFFFFFFFFF99
:20F8200044FFFFFFFFFFFFFFFFFFFFFFFFFFFFFFFFFF56554E444546494E45442020FFFF6F
:20F84000FFFFFFFFFFFFFFFFFFFFFFFFFFFFFFFFFFFFFFFFFFFFFFFFFFFFFFFFFFFFFFFFC8
:20F86000FFFFFFFFFFFFFFFFFFFFFFFFFFFFFFFFFFFFFFFFFFFFFFFFFFFFFFFFFFFFFFFFA8
:20F88000FFFFFFFFFFFFFFFFFFFFFFFFFFFFFFFFFFFFFFFFFFFFFFFFFFFFFFFFFFFFFFFF88
:20F8A000FFFFFFFFFFFFFFFFFFFFFFFFFFFFFFFFFFFFFFFFFFFFFFFFFFFFFFFFFFFFFFFF68
:20F8C000FFFFFFFFFFFFFFFFFFFFFFFFFFFFFFFFFFFFFFFFFFFFFFFFFFFFFFFFFFFFFFFF48
:20F8E000FFFFFFFFFFFFFFFFFFFFFFFFFFFFFFFFFFFFFFFFFFFFFFFFFFFFFFFFFFFFFFFF28
:20F90000FFFFFFFFFFFFFFFFFFFFFFFFFFFFFFFFFFFFFFFFFFFFFFFFFFFFFFFFFFFFFFFF07
:20F92000FFFFFFFFFFFFFFFFFFFFFFFFFFFFFFFFFFFFFFFFFFFFFFFFFFFFFFFFFFFFFFFFE7
:20F94000FFFFFFFFFFFFFFFFFFFFFFFFFFFFFFFFFFFFFFFFFFFFFFFFFFFFFFFFFFFFFFFFC7
:20F96000FFFFFFFFFFFFFFFFFFFFFFFFFFFFFFFFFFFFFFFFFFFFFFFFFFFFFFFFFFFFFFFFA7
:20F98000FFFFFFFFFFFFFFFFFFFFFFFFFFFFFFFFFFFFFFFFFFFFFFFFFFFFFFFFFFFFFFFF87
:20F9A000FFFFFFFFFFFFFFFFFFFFFFFFFFFFFFFFFFFFFFFFFFFFFFFFFFFFFFFFFFFFFFFF67
:20F9C000FFFFFFFFFFFFFFFFFFFFFFFFFFFFFFFFFFFFFFFFFFFFFFFFFFFFFFFFFFFFFFFF47
:20F9E000FFFFFFFFFFFFFFFFFFFFFFFFFFFFFFFFFFFFFFFFFFFFFFFFFFFFFFFFFFFFFFFF27
:20FA0000FFFFFFFFFFFFFFFFFFFFFFFFFFFFFFFFFFFFFFFFFFFFFFFFFFFFFFFFFFFFFFFF06
:20FA2000FFFFFFFFFFFFFFFFFFFFFFFFFFFFFFFFFFFFFFFFFFFFFFFFFFFFFFFFFFFFFFFFE6
:20FA4000FFFFFFFFFFFFFFFFFFFFFFFFFFFFFFFFFFFFFFFFFFFFFFFFFFFFFFFFFFFFFFFFC6
:20FA6000FFFFFFFFFFFFFFFFFFFFFFFFFFFFFFFFFFFFFFFFFFFFFFFFFFFFFFFFFFFFFFFFA6
:20FA8000FFFFFFFFFFFFFFFFFFFFFFFFFFFFFFFFFFFFFFFFFFFFFFFFFFFFFFFFFFFFFFFF86
:20FAA000FFFFFFFFFFFFFFFFFFFFFFFFFFFFFFFFFFFFFFFFFFFFFFFFFFFFFFFFFFFFFFFF66
:20FAC000FFFFFFFFFFFFFFFFFFFFFFFFFFFFFFFFFFFFFFFFFFFFFFFFFFFFFFFFFFFFFFFF46
:20FAE000FFFFFFFFFFFFFFFFFFFFFFFFFFFFFFFFFFFFFFFFFFFFFFFFFFFFFFFFFFFFFFFF26
:20FB0000FFFFFFFFFFFFFFFFFFFFFFFFFFFFFFFFFFFFFFFFFFFFFFFFFFFFFFFFFFFFFFFF05
:20FB2000FFFFFFFFFFFFFFFFFFFFFFFFFFFFFFFFFFFFFFFFFFFFFFFFFFFFFFFFFFFFFFFFE5
:20FB4000FFFFFFFFFFFFFFFFFFFFFFFFFFFFFFFFFFFFFFFFFFFFFFFFFFFFFFFFFFFFFFFFC5
:20FB6000FFFFFFFFFFFFFFFFFFFFFFFFFFFFFFFFFFFFFFFFFFFFFFFFFFFFFFFFFFFFFFFFA5
:20FB8000FFFFFFFFFFFFFFFFFFFFFFFFFFFFFFFFFFFFFFFFFFFFFFFFFFFFFFFFFFFFFFFF85
:20FBA000FFFFFFFFFFFFFFFFFFFFFFFFFFFFFFFFFFFFFFFFFFFFFFFFFFFFFFFFFFFFFFFF65
:20FBC000FFFFFFFFFFFFFFFFFFFFFFFFFFFFFFFFFFFFFFFFFFFFFFFFFFFFFFFFFFFFFFFF45
:20FBE000FFFFFFFFFFFFFFFFFFFFFFFFFFFFFFFFFFFFFFFFFFFFFFFFFFFFFFFFFFFF2712EA
:20FC0000FFFFFFFFFFFFFFFFFFFFFFFFFFFFFFFFFFFFFFFFFFFFFFFFFFFFFFFFFFFFFFFF04
:20FC2000FFFFFFFFFFFFFFFFFFFFFFFFFFFFFFFFFFFFFFFFFFFFFFFFFFFFFFFFFFFFFFFFE4
:20FC4000FFFFFFFFFFFFFFFFFFFFFFFFFFFFFFFFFFFFFFFFFFFFFFFFFFFFFFFFFFFFFFFFC4
:20FC6000FFFFFFFFFFFFFFFFFFFFFFFFFFFFFFFFFFFFFFFFFFFFFFFFFFFFFFFFFFFFFFFFA4
:20FC8000FFFFFFFFFFFFFFFFFFFFFFFFFFFFFFFFFFFFFFFFFFFFFFFFFFFFFFFFFFFFFFFF84
:20FCA000FFFFFFFFFFFFFFFFFFFFFFFFFFFFFFFFFFFFFFFFFFFFFFFFFFFFFFFFFFFFFFFF64
:20FCC000FFFFFFFFFFFFFFFFFFFFFFFFFFFFFFFFFFFFFFFFFFFFFFFFFFFFFFFFFFFFFFFF44
:20FCE000FFFFFFFFFFFFFFFFFFFFFFFFFFFFFFFFFFFFFFFFFFFFFFFFFFFFFFFFFFFFFFFF24
:20FD0000FFFFFFFFFFFFFFFFFFFFFFFFFFFFFFFFFFFFFFFFFFFFFFFFFFFFFFFFFFFFFFFF03
:20FD2000FFFFFFFFFFFFFFFFFFFFFFFFFFFFFFFFFFFFFFFFFFFFFFFFFFFFFFFFFFFFFFFFE3
:20FD4000FFFFFFFFFFFFFFFFFFFFFFFFFFFFFFFFFFFFFFFFFFFFFFFFFFFFFFFFFFFFFFFFC3
:20FD6000FFFFFFFFFFFFFFFFFFFFFFFFFFFFFFFFFFFFFFFFFFFFFFFFFFFFFFFFFFFFFFFFA3
:20FD8000FFFFFFFFFFFFFFFFFFFFFFFFFFFFFFFFFFFFFFFFFFFFFFFFFFFFFFFFFFFFFFFF83
:20FDA000FFFFFFFFFFFFFFFFFFFFFFFFFFFFFFFFFFFFFFFFFFFFFFFFFFFFFFFFFFFFFFFF63
:20FDC000FFFFFFFFFFFFFFFFFFFFFFFFFFFFFFFFFFFFFFFFFFFFFFFFFFFFFFFFFFFFFFFF43
:20FDE000FFFFFFFFFFFFFFFFFFFFFFFFFFFFFFFFFFFFFFFFFFFFFFFFFFFFFFFFFFFFFFFF23
:20FE0000FFFFFFFFFFFFFFFFFFFFFFFFFFFFFFFFFFFFFFFFFFFFFFFFFFFFFFFFFFFFFFFF02
:20FE2000FFFFFFFFFFFFFFFFFFFFFFFFFFFFFFFFFFFFFFFFFFFFFFFFFFFFFFFFFFFFFFFFE2
:20FE4000FFFFFFFFFFFFFFFFFFFFFFFFFFFFFFFFFFFFFFFFFFFFFFFFFFFFFFFFFFFFFFFFC2
:20FE6000FFFFFFFFFFFFFFFFFFFFFFFFFFFFFFFFFFFFFFFFFFFFFFFFFFFFFFFFFFFFFFFFA2
:20FE8000FFFFFFFFFFFFFFFFFFFFFFFFFFFFFFFFFFFFFFFFFFFFFFFFFFFFFFFFFFFFFFFF82
:20FEA000FFFFFFFFFFFFFFFFFFFFFFFFFFFFFFFFFFFFFFFFFFFFFFFFFFFFFFFFFFFFFFFF62
:20FEC000FFFFFFFFFFFFFFFFFFFFFFFFFFFFFFFFFFFFFFFFFFFFFFFFFFFFFFFFFFFFFFFF42
:20FEE000FFFFFFFFFFFFFFFFFFFFFFFFFFFFFFFFFFFFFFFFFFFFFFFFFFFFFFFFFFFFFFFF22
:20FF0000FFFFFFFFFFFFFFFFFFFFFFFFFFFFFFFFFFFFFFFFFFFFFFFFFFFFFFFFFFFFFFFF01
:20FF2000FFFFFFFFFFFFFFFFFFFFFFFFFFFFFFFFFFFFFFFFFFFFFFFFFFFFFFFFFFFFFFFFE1
:20FF4000FFFFFFFFFFFFFFFFFFFFFFFFFFFFFFFFFFFFFFFFFFFFFFFFFFFFFFFFFFFFFFFFC1
:20FF6000FFFFFFFFFFFFFFFFFFFFFFFFFFFFFFFFFFFFFFFFFFFFFFFFFFFFFFFFFFFFFFFFA1
:20FF8000FFFFFFFFFFFFFFFFFFFFFFFFFFFFFFFFFFFFFFFFFFFFFFFFFFFFFFFFFFFFFFFF81
:20FFA000FFFFFFFFFFFFFFFFFFFFFFFFFFFFFFFFFFFFFFFFFFFFFFFFFFFFFFFFFFFFFFFF61
:20FFC000FFFFFFFFFFFFFFFFFFFFFFFFFFFFFFFFFFFFFFFFFFFFFFFFFFFFFFFFFFFFFFFF41
:20FFE000FFFFFFFFFFFFFFFFFFFFFFFFFFFFFFFF152197936F1A6051AD04ADF5D32700A585
:00000001FF
